001DESADV403607600200240291631100014036076002002403607600200200000000000004036076002002000000000000002021060920210609                                                                      0                                             15                                   000 0000000000000000000000000000009265762202109265762001511                    0000000000000000EUR000000000000000000000          00000000                                  00               00000           00                              000000000000000000000000000000000000000                                                  00000000000000000
002DESADV403607600200240291631100014036076002002403607600200200000000000004036076002002000000000000002021060920210609                                                                      0                                             15                                   000 0000000000000000000000000000009265762202109265762001511RT818046_1511_1     2021004129760001EUR40644997865829210542292-1054/227504360092-1054/22 75043600STYLE.DENVER   22               00000  XXL      00                              079400000000000000100000000000000000000                                                  20210607000000121
003DESADV403607600200240291631100014036076002002403607600200200000000000004036076002002000000000000002021060920210609                                                                      0                                             15                                   000 0000000000000000000000000000009265762202109265762001511                    0000000000000000EUR000000000000000000000          00000000                                  00               00000           00                              000000000000000000100000000000000000000                                                  00000000000000000
001DESADV403607600200240291631100014036076002002403607600200200000000000004036076002002000000000000002021060920210609                                                                      0                                             15                                   000 0000000000000000000000000000009265763202109265763001511                    0000000000000000EUR000000000000000000000          00000000                                  00               00000           00                              000000000000000000000000000000000000000                                                  00000000000000000
002DESADV403607600200240291631100014036076002002403607600200200000000000004036076002002000000000000002021060920210609                                                                      0                                             15                                   000 0000000000000000000000000000009265763202109265763001511RT664049_1511_1     2021004131020001EUR40472273797689460872694-6087/269596194094-6087/26 95961940STYLE.SYDNEY   26               00000   44      00                              055900000000000000100000000000000000000                                                  20210607000000121
002DESADV403607600200240291631100014036076002002403607600200200000000000004036076002002000000000000002021060920210609                                                                      0                                             15                                   000 0000000000000000000000000000009265763202109265763001511RT664049_1511_1     2021004131020002EUR40472259345329463073694-6307/369596204094-6307/36 95962040STYLE.CAPRI    36               00000   36      00                              071600000000000000100000000000000000000                                                  20210607000000121
002DESADV403607600200240291631100014036076002002403607600200200000000000004036076002002000000000000002021060920210609                                                                      0                                             15                                   000 0000000000000000000000000000009265763202109265763001511RT664049_1511_1     2021004131020003EUR40472259355159467173694-6717/369596084094-6717/36 95960840STYLE.VIENNA   36               00000   36      00                              041900000000000000100000000000000000000                                                  20210607000000121
002DESADV403607600200240291631100014036076002002403607600200200000000000004036076002002000000000000002021060920210609                                                                      0                                             15                                   000 0000000000000000000000000000009265763202109265763001511RT664049_1511_1     2021004131020003EUR40472259355229467173694-6717/369596084094-6717/36 95960840STYLE.VIENNA   36               00000   40      00                              041900000000000000200000000000000000000                                                  20210607000000121
003DESADV403607600200240291631100014036076002002403607600200200000000000004036076002002000000000000002021060920210609                                                                      0                                             15                                   000 0000000000000000000000000000009265763202109265763001511                    0000000000000000EUR000000000000000000000          00000000                                  00               00000           00                              000000000000000000500000000000000000000                                                  00000000000000000
