001DESADV403607600200240291631100014036076002002403607600200200000000000004036076002002000000000000002021052820210528                                                                      0                                             15                                   000 0000000000000000000000000000005810487202105810487001511                    0000000000000000EUR000000000000000000000          00000000                                  00               00000           00                              000000000000000000000000000000000000000                                                  00000000000000000
002DESADV403607600200240291631100014036076002002403607600200200000000000004036076002002000000000000002021052820210528                                                                      0                                             15                                   000 0000000000000000000000000000005810487202105810487001511                    2021004060700001EUR40644997816177269675872-6967/580993862072-6967/58 09938620STYLE.SHAKIRA S58               00000   36      00                              040200000000000000100000000000000000000                                                  20210527000000121
002DESADV403607600200240291631100014036076002002403607600200200000000000004036076002002000000000000002021052820210528                                                                      0                                             15                                   000 0000000000000000000000000000005810487202105810487001511                    2021004060700001EUR40644997816247269675872-6967/580993862072-6967/58 09938620STYLE.SHAKIRA S58               00000   38      00                              040200000000000000100000000000000000000                                                  20210527000000121
002DESADV403607600200240291631100014036076002002403607600200200000000000004036076002002000000000000002021052820210528                                                                      0                                             15                                   000 0000000000000000000000000000005810487202105810487001511                    2021004060700001EUR40644997816317269675872-6967/580993862072-6967/58 09938620STYLE.SHAKIRA S58               00000   40      00                              040200000000000000100000000000000000000                                                  20210527000000121
002DESADV403607600200240291631100014036076002002403607600200200000000000004036076002002000000000000002021052820210528                                                                      0                                             15                                   000 0000000000000000000000000000005810487202105810487001511                    2021004060700001EUR40644997816487269675872-6967/580993862072-6967/58 09938620STYLE.SHAKIRA S58               00000   42      00                              040200000000000000100000000000000000000                                                  20210527000000121
002DESADV403607600200240291631100014036076002002403607600200200000000000004036076002002000000000000002021052820210528                                                                      0                                             15                                   000 0000000000000000000000000000005810487202105810487001511                    2021004060700001EUR40644997816557269675872-6967/580993862072-6967/58 09938620STYLE.SHAKIRA S58               00000   44      00                              040200000000000000100000000000000000000                                                  20210527000000121
002DESADV403607600200240291631100014036076002002403607600200200000000000004036076002002000000000000002021052820210528                                                                      0                                             15                                   000 0000000000000000000000000000005810487202105810487001511                    2021004060700001EUR40644997816627269675872-6967/580993862072-6967/58 09938620STYLE.SHAKIRA S58               00000   46      00                              040200000000000000100000000000000000000                                                  20210527000000121
002DESADV403607600200240291631100014036076002002403607600200200000000000004036076002002000000000000002021052820210528                                                                      0                                             15                                   000 0000000000000000000000000000005810487202105810487001511                    2021004060700001EUR40644997818087269675872-6967/580993862072-6967/58 09938620STYLE.SHAKIRA S58               00000  36K      00                              040200000000000000100000000000000000000                                                  20210527000000121
002DESADV403607600200240291631100014036076002002403607600200200000000000004036076002002000000000000002021052820210528                                                                      0                                             15                                   000 0000000000000000000000000000005810487202105810487001511                    2021004060700001EUR40644997818157269675872-6967/580993862072-6967/58 09938620STYLE.SHAKIRA S58               00000  38K      00                              040200000000000000100000000000000000000                                                  20210527000000121
002DESADV403607600200240291631100014036076002002403607600200200000000000004036076002002000000000000002021052820210528                                                                      0                                             15                                   000 0000000000000000000000000000005810487202105810487001511                    2021004060700001EUR40644997818227269675872-6967/580993862072-6967/58 09938620STYLE.SHAKIRA S58               00000  40K      00                              040200000000000000100000000000000000000                                                  20210527000000121
002DESADV403607600200240291631100014036076002002403607600200200000000000004036076002002000000000000002021052820210528                                                                      0                                             15                                   000 0000000000000000000000000000005810487202105810487001511                    2021004060700001EUR40644997818397269675872-6967/580993862072-6967/58 09938620STYLE.SHAKIRA S58               00000  42K      00                              040200000000000000100000000000000000000                                                  20210527000000121
002DESADV403607600200240291631100014036076002002403607600200200000000000004036076002002000000000000002021052820210528                                                                      0                                             15                                   000 0000000000000000000000000000005810487202105810487001511                    2021004060700001EUR40644997818467269675872-6967/580993862072-6967/58 09938620STYLE.SHAKIRA S58               00000  44K      00                              040200000000000000100000000000000000000                                                  20210527000000121
002DESADV403607600200240291631100014036076002002403607600200200000000000004036076002002000000000000002021052820210528                                                                      0                                             15                                   000 0000000000000000000000000000005810487202105810487001511                    2021004060700001EUR40644997818537269675872-6967/580993862072-6967/58 09938620STYLE.SHAKIRA S58               00000  46K      00                              040200000000000000100000000000000000000                                                  20210527000000121
003DESADV403607600200240291631100014036076002002403607600200200000000000004036076002002000000000000002021052820210528                                                                      0                                             15                                   000 0000000000000000000000000000005810487202105810487001511                    0000000000000000EUR000000000000000000000          00000000                                  00               00000           00                              000000000000000001200000000000000000000                                                  00000000000000000
001DESADV403607600200240291631100014036076002002403607600200200000000000004036076002002000000000000002021052820210528                                                                      0                                             15                                   000 0000000000000000000000000000008376036202108376036001511                    0000000000000000EUR000000000000000000000          00000000                                  00               00000           00                              000000000000000000000000000000000000000                                                  00000000000000000
002DESADV403607600200240291631100014036076002002403607600200200000000000004036076002002000000000000002021052820210528                                                                      0                                             15                                   000 0000000000000000000000000000008376036202108376036001511RT657049_1511_1     2021004052330001EUR40644998233003234374632-3437/469064580032-3437/46 90645800STYLE.CLEO     46               00000   40      00                              024500000000000000100000000000000000000                                                  20210525000000121
002DESADV403607600200240291631100014036076002002403607600200200000000000004036076002002000000000000002021052820210528                                                                      0                                             15                                   000 0000000000000000000000000000008376036202108376036001511RT657049_1511_1     2021004052330002EUR40644998238813234473332-3447/339064590032-3447/33 90645900STYLE.CLEO     33               00000   44      00                              028400000000000000100000000000000000000                                                  20210525000000121
002DESADV403607600200240291631100014036076002002403607600200200000000000004036076002002000000000000002021052820210528                                                                      0                                             15                                   000 0000000000000000000000000000008376036202108376036001511RT657049_1511_1     2021004052330003EUR40472278964183435873334-3587/339063120034-3587/33 90631200STYLE.COLLETTE 33               00000   48      00                              024500000000000000100000000000000000000                                                  20210525000000121
002DESADV403607600200240291631100014036076002002403607600200200000000000004036076002002000000000000002021052820210528                                                                      0                                             15                                   000 0000000000000000000000000000008376036202108376036001511RT657049_1511_1     2021004052330005EUR40472273609713472775834-7277/589063190034-7277/58 90631900STYLE.CATHY    58               00000   36      00                              019900000000000000100000000000000000000                                                  20210525000000121
003DESADV403607600200240291631100014036076002002403607600200200000000000004036076002002000000000000002021052820210528                                                                      0                                             15                                   000 0000000000000000000000000000008376036202108376036001511                    0000000000000000EUR000000000000000000000          00000000                                  00               00000           00                              000000000000000000400000000000000000000                                                  00000000000000000
001DESADV403607600200240291631100014036076002002403607600200200000000000004036076002002000000000000002021052820210528                                                                      0                                             15                                   000 0000000000000000000000000000008376037202108376037001511                    0000000000000000EUR000000000000000000000          00000000                                  00               00000           00                              000000000000000000000000000000000000000                                                  00000000000000000
002DESADV403607600200240291631100014036076002002403607600200200000000000004036076002002000000000000002021052820210528                                                                      0                                             15                                   000 00000000000000000000000000000083760372021083760370015111234                2021024027330001EUR40472228972673440772334-4077/239012220034-4077/23 90122200               23               00000   36      00                              048000000000000000100000000000000000000                                                  20210521000000000
002DESADV403607600200240291631100014036076002002403607600200200000000000004036076002002000000000000002021052820210528                                                                      0                                             15                                   000 00000000000000000000000000000083760372021083760370015111234                2021024027330001EUR40472228972743440772334-4077/239012220034-4077/23 90122200               23               00000   38      00                              048000000000000000200000000000000000000                                                  20210521000000000
002DESADV403607600200240291631100014036076002002403607600200200000000000004036076002002000000000000002021052820210528                                                                      0                                             15                                   000 00000000000000000000000000000083760372021083760370015111234                2021024027330001EUR40472228972813440772334-4077/239012220034-4077/23 90122200               23               00000   40      00                              048000000000000000200000000000000000000                                                  20210521000000000
002DESADV403607600200240291631100014036076002002403607600200200000000000004036076002002000000000000002021052820210528                                                                      0                                             15                                   000 00000000000000000000000000000083760372021083760370015111234                2021024027330001EUR40472231564313440772334-4077/239012220034-4077/23 90122200               23               00000   42      00                              048000000000000000200000000000000000000                                                  20210521000000000
002DESADV403607600200240291631100014036076002002403607600200200000000000004036076002002000000000000002021052820210528                                                                      0                                             15                                   000 00000000000000000000000000000083760372021083760370015111234                2021024027330001EUR40472231564483440772334-4077/239012220034-4077/23 90122200               23               00000   44      00                              048000000000000000200000000000000000000                                                  20210521000000000
002DESADV403607600200240291631100014036076002002403607600200200000000000004036076002002000000000000002021052820210528                                                                      0                                             15                                   000 00000000000000000000000000000083760372021083760370015111234                2021024027330001EUR40472231564553440772334-4077/239012220034-4077/23 90122200               23               00000   46      00                              048000000000000000100000000000000000000                                                  20210521000000000
002DESADV403607600200240291631100014036076002002403607600200200000000000004036076002002000000000000002021052820210528                                                                      0                                             15                                   000 00000000000000000000000000000083760372021083760370015111234                2021024027330001EUR40472231564623440772334-4077/239012220034-4077/23 90122200               23               00000   48      00                              048000000000000000100000000000000000000                                                  20210521000000000
002DESADV403607600200240291631100014036076002002403607600200200000000000004036076002002000000000000002021052820210528                                                                      0                                             15                                   000 00000000000000000000000000000083760372021083760370015111234                2021024027330002EUR40472231565233440774234-4077/429012220034-4077/42 90122200               42               00000   34      00                              048000000000000000100000000000000000000                                                  20210521000000000
002DESADV403607600200240291631100014036076002002403607600200200000000000004036076002002000000000000002021052820210528                                                                      0                                             15                                   000 00000000000000000000000000000083760372021083760370015111234                2021024027330002EUR40472231565303440774234-4077/429012220034-4077/42 90122200               42               00000   36      00                              048000000000000000100000000000000000000                                                  20210521000000000
002DESADV403607600200240291631100014036076002002403607600200200000000000004036076002002000000000000002021052820210528                                                                      0                                             15                                   000 00000000000000000000000000000083760372021083760370015111234                2021024027330002EUR40472228972983440774234-4077/429012220034-4077/42 90122200               42               00000   38      00                              048000000000000000200000000000000000000                                                  20210521000000000
002DESADV403607600200240291631100014036076002002403607600200200000000000004036076002002000000000000002021052820210528                                                                      0                                             15                                   000 00000000000000000000000000000083760372021083760370015111234                2021024027330002EUR40472228973043440774234-4077/429012220034-4077/42 90122200               42               00000   40      00                              048000000000000000200000000000000000000                                                  20210521000000000
002DESADV403607600200240291631100014036076002002403607600200200000000000004036076002002000000000000002021052820210528                                                                      0                                             15                                   000 00000000000000000000000000000083760372021083760370015111234                2021024027330002EUR40472231565473440774234-4077/429012220034-4077/42 90122200               42               00000   42      00                              048000000000000000200000000000000000000                                                  20210521000000000
002DESADV403607600200240291631100014036076002002403607600200200000000000004036076002002000000000000002021052820210528                                                                      0                                             15                                   000 00000000000000000000000000000083760372021083760370015111234                2021024027330002EUR40472231565543440774234-4077/429012220034-4077/42 90122200               42               00000   44      00                              048000000000000000200000000000000000000                                                  20210521000000000
002DESADV403607600200240291631100014036076002002403607600200200000000000004036076002002000000000000002021052820210528                                                                      0                                             15                                   000 00000000000000000000000000000083760372021083760370015111234                2021024027330002EUR40472231565613440774234-4077/429012220034-4077/42 90122200               42               00000   46      00                              048000000000000000100000000000000000000                                                  20210521000000000
002DESADV403607600200240291631100014036076002002403607600200200000000000004036076002002000000000000002021052820210528                                                                      0                                             15                                   000 00000000000000000000000000000083760372021083760370015111234                2021024027330002EUR40472231565783440774234-4077/429012220034-4077/42 90122200               42               00000   48      00                              048000000000000000100000000000000000000                                                  20210521000000000
002DESADV403607600200240291631100014036076002002403607600200200000000000004036076002002000000000000002021052820210528                                                                      0                                             15                                   000 00000000000000000000000000000083760372021083760370015111234                2021024027330003EUR40472278972933444474734-4447/479063220034-4447/47 90632200               47               00000   34      00                              024500000000000000100000000000000000000                                                  20210521000000000
002DESADV403607600200240291631100014036076002002403607600200200000000000004036076002002000000000000002021052820210528                                                                      0                                             15                                   000 00000000000000000000000000000083760372021083760370015111234                2021024027330003EUR40472278973093444474734-4447/479063220034-4447/47 90632200               47               00000   36      00                              024500000000000000100000000000000000000                                                  20210521000000000
002DESADV403607600200240291631100014036076002002403607600200200000000000004036076002002000000000000002021052820210528                                                                      0                                             15                                   000 00000000000000000000000000000083760372021083760370015111234                2021024027330003EUR40472273609883444474734-4447/479063220034-4447/47 90632200               47               00000   38      00                              024500000000000000200000000000000000000                                                  20210521000000000
002DESADV403607600200240291631100014036076002002403607600200200000000000004036076002002000000000000002021052820210528                                                                      0                                             15                                   000 00000000000000000000000000000083760372021083760370015111234                2021024027330003EUR40472273609953444474734-4447/479063220034-4447/47 90632200               47               00000   40      00                              024500000000000000200000000000000000000                                                  20210521000000000
002DESADV403607600200240291631100014036076002002403607600200200000000000004036076002002000000000000002021052820210528                                                                      0                                             15                                   000 00000000000000000000000000000083760372021083760370015111234                2021024027330003EUR40472278973163444474734-4447/479063220034-4447/47 90632200               47               00000   42      00                              024500000000000000200000000000000000000                                                  20210521000000000
002DESADV403607600200240291631100014036076002002403607600200200000000000004036076002002000000000000002021052820210528                                                                      0                                             15                                   000 00000000000000000000000000000083760372021083760370015111234                2021024027330003EUR40472278973233444474734-4447/479063220034-4447/47 90632200               47               00000   44      00                              024500000000000000200000000000000000000                                                  20210521000000000
002DESADV403607600200240291631100014036076002002403607600200200000000000004036076002002000000000000002021052820210528                                                                      0                                             15                                   000 00000000000000000000000000000083760372021083760370015111234                2021024027330003EUR40472278973303444474734-4447/479063220034-4447/47 90632200               47               00000   46      00                              024500000000000000100000000000000000000                                                  20210521000000000
002DESADV403607600200240291631100014036076002002403607600200200000000000004036076002002000000000000002021052820210528                                                                      0                                             15                                   000 00000000000000000000000000000083760372021083760370015111234                2021024027330003EUR40472278973473444474734-4447/479063220034-4447/47 90632200               47               00000   48      00                              024500000000000000100000000000000000000                                                  20210521000000000
002DESADV403607600200240291631100014036076002002403607600200200000000000004036076002002000000000000002021052820210528                                                                      0                                             15                                   000 00000000000000000000000000000083760372021083760370015111234                2021024027330004EUR40472278973543444479934-4447/999063220034-4447/99 90632200               99               00000   34      00                              024500000000000000100000000000000000000                                                  20210521000000000
002DESADV403607600200240291631100014036076002002403607600200200000000000004036076002002000000000000002021052820210528                                                                      0                                             15                                   000 00000000000000000000000000000083760372021083760370015111234                2021024027330004EUR40472278973613444479934-4447/999063220034-4447/99 90632200               99               00000   36      00                              024500000000000000100000000000000000000                                                  20210521000000000
002DESADV403607600200240291631100014036076002002403607600200200000000000004036076002002000000000000002021052820210528                                                                      0                                             15                                   000 00000000000000000000000000000083760372021083760370015111234                2021024027330004EUR40472273610083444479934-4447/999063220034-4447/99 90632200               99               00000   38      00                              024500000000000000200000000000000000000                                                  20210521000000000
002DESADV403607600200240291631100014036076002002403607600200200000000000004036076002002000000000000002021052820210528                                                                      0                                             15                                   000 00000000000000000000000000000083760372021083760370015111234                2021024027330004EUR40472273610153444479934-4447/999063220034-4447/99 90632200               99               00000   40      00                              024500000000000000200000000000000000000                                                  20210521000000000
002DESADV403607600200240291631100014036076002002403607600200200000000000004036076002002000000000000002021052820210528                                                                      0                                             15                                   000 00000000000000000000000000000083760372021083760370015111234                2021024027330004EUR40472278973783444479934-4447/999063220034-4447/99 90632200               99               00000   42      00                              024500000000000000200000000000000000000                                                  20210521000000000
002DESADV403607600200240291631100014036076002002403607600200200000000000004036076002002000000000000002021052820210528                                                                      0                                             15                                   000 00000000000000000000000000000083760372021083760370015111234                2021024027330004EUR40472278973853444479934-4447/999063220034-4447/99 90632200               99               00000   44      00                              024500000000000000200000000000000000000                                                  20210521000000000
002DESADV403607600200240291631100014036076002002403607600200200000000000004036076002002000000000000002021052820210528                                                                      0                                             15                                   000 00000000000000000000000000000083760372021083760370015111234                2021024027330004EUR40472278973923444479934-4447/999063220034-4447/99 90632200               99               00000   46      00                              024500000000000000100000000000000000000                                                  20210521000000000
002DESADV403607600200240291631100014036076002002403607600200200000000000004036076002002000000000000002021052820210528                                                                      0                                             15                                   000 00000000000000000000000000000083760372021083760370015111234                2021024027330004EUR40472278974083444479934-4447/999063220034-4447/99 90632200               99               00000   48      00                              024500000000000000100000000000000000000                                                  20210521000000000
002DESADV403607600200240291631100014036076002002403607600200200000000000004036076002002000000000000002021052820210528                                                                      0                                             15                                   000 00000000000000000000000000000083760372021083760370015111234                2021024027330005EUR40472278974153444572234-4457/229063270034-4457/22 90632700               22               00000   34      00                              014400000000000000100000000000000000000                                                  20210521000000000
002DESADV403607600200240291631100014036076002002403607600200200000000000004036076002002000000000000002021052820210528                                                                      0                                             15                                   000 00000000000000000000000000000083760372021083760370015111234                2021024027330005EUR40472278974223444572234-4457/229063270034-4457/22 90632700               22               00000   36      00                              014400000000000000100000000000000000000                                                  20210521000000000
002DESADV403607600200240291631100014036076002002403607600200200000000000004036076002002000000000000002021052820210528                                                                      0                                             15                                   000 00000000000000000000000000000083760372021083760370015111234                2021024027330005EUR40472273509653444572234-4457/229063270034-4457/22 90632700               22               00000   38      00                              014400000000000000200000000000000000000                                                  20210521000000000
002DESADV403607600200240291631100014036076002002403607600200200000000000004036076002002000000000000002021052820210528                                                                      0                                             15                                   000 00000000000000000000000000000083760372021083760370015111234                2021024027330005EUR40472273509723444572234-4457/229063270034-4457/22 90632700               22               00000   40      00                              014400000000000000200000000000000000000                                                  20210521000000000
002DESADV403607600200240291631100014036076002002403607600200200000000000004036076002002000000000000002021052820210528                                                                      0                                             15                                   000 00000000000000000000000000000083760372021083760370015111234                2021024027330005EUR40472278974393444572234-4457/229063270034-4457/22 90632700               22               00000   42      00                              014400000000000000200000000000000000000                                                  20210521000000000
002DESADV403607600200240291631100014036076002002403607600200200000000000004036076002002000000000000002021052820210528                                                                      0                                             15                                   000 00000000000000000000000000000083760372021083760370015111234                2021024027330005EUR40472278974463444572234-4457/229063270034-4457/22 90632700               22               00000   44      00                              014400000000000000200000000000000000000                                                  20210521000000000
002DESADV403607600200240291631100014036076002002403607600200200000000000004036076002002000000000000002021052820210528                                                                      0                                             15                                   000 00000000000000000000000000000083760372021083760370015111234                2021024027330005EUR40472278974533444572234-4457/229063270034-4457/22 90632700               22               00000   46      00                              014400000000000000100000000000000000000                                                  20210521000000000
002DESADV403607600200240291631100014036076002002403607600200200000000000004036076002002000000000000002021052820210528                                                                      0                                             15                                   000 00000000000000000000000000000083760372021083760370015111234                2021024027330005EUR40472278974603444572234-4457/229063270034-4457/22 90632700               22               00000   48      00                              014400000000000000100000000000000000000                                                  20210521000000000
002DESADV403607600200240291631100014036076002002403607600200200000000000004036076002002000000000000002021052820210528                                                                      0                                             15                                   000 00000000000000000000000000000083760372021083760370015111234                2021024027330006EUR40472278977363472074734-7207/479063180034-7207/47 90631800               47               00000   34      00                              019900000000000000100000000000000000000                                                  20210521000000000
002DESADV403607600200240291631100014036076002002403607600200200000000000004036076002002000000000000002021052820210528                                                                      0                                             15                                   000 00000000000000000000000000000083760372021083760370015111234                2021024027330006EUR40472273507673472074734-7207/479063180034-7207/47 90631800               47               00000   36      00                              019900000000000000100000000000000000000                                                  20210521000000000
002DESADV403607600200240291631100014036076002002403607600200200000000000004036076002002000000000000002021052820210528                                                                      0                                             15                                   000 00000000000000000000000000000083760372021083760370015111234                2021024027330006EUR40472273507743472074734-7207/479063180034-7207/47 90631800               47               00000   38      00                              019900000000000000200000000000000000000                                                  20210521000000000
002DESADV403607600200240291631100014036076002002403607600200200000000000004036076002002000000000000002021052820210528                                                                      0                                             15                                   000 00000000000000000000000000000083760372021083760370015111234                2021024027330006EUR40472273507813472074734-7207/479063180034-7207/47 90631800               47               00000   40      00                              019900000000000000200000000000000000000                                                  20210521000000000
002DESADV403607600200240291631100014036076002002403607600200200000000000004036076002002000000000000002021052820210528                                                                      0                                             15                                   000 00000000000000000000000000000083760372021083760370015111234                2021024027330006EUR40472278977433472074734-7207/479063180034-7207/47 90631800               47               00000   42      00                              019900000000000000200000000000000000000                                                  20210521000000000
002DESADV403607600200240291631100014036076002002403607600200200000000000004036076002002000000000000002021052820210528                                                                      0                                             15                                   000 00000000000000000000000000000083760372021083760370015111234                2021024027330006EUR40472278977503472074734-7207/479063180034-7207/47 90631800               47               00000   44      00                              019900000000000000200000000000000000000                                                  20210521000000000
002DESADV403607600200240291631100014036076002002403607600200200000000000004036076002002000000000000002021052820210528                                                                      0                                             15                                   000 00000000000000000000000000000083760372021083760370015111234                2021024027330006EUR40472278977673472074734-7207/479063180034-7207/47 90631800               47               00000   46      00                              019900000000000000100000000000000000000                                                  20210521000000000
002DESADV403607600200240291631100014036076002002403607600200200000000000004036076002002000000000000002021052820210528                                                                      0                                             15                                   000 00000000000000000000000000000083760372021083760370015111234                2021024027330006EUR40472278977743472074734-7207/479063180034-7207/47 90631800               47               00000   48      00                              019900000000000000100000000000000000000                                                  20210521000000000
002DESADV403607600200240291631100014036076002002403607600200200000000000004036076002002000000000000002021052820210528                                                                      0                                             15                                   000 00000000000000000000000000000083760372021083760370015111234                2021024027330007EUR40472278978803472078734-7207/879063180034-7207/87 90631800               87               00000   34      00                              019900000000000000100000000000000000000                                                  20210521000000000
002DESADV403607600200240291631100014036076002002403607600200200000000000004036076002002000000000000002021052820210528                                                                      0                                             15                                   000 00000000000000000000000000000083760372021083760370015111234                2021024027330007EUR40472273507983472078734-7207/879063180034-7207/87 90631800               87               00000   36      00                              019900000000000000100000000000000000000                                                  20210521000000000
002DESADV403607600200240291631100014036076002002403607600200200000000000004036076002002000000000000002021052820210528                                                                      0                                             15                                   000 00000000000000000000000000000083760372021083760370015111234                2021024027330007EUR40472273508043472078734-7207/879063180034-7207/87 90631800               87               00000   38      00                              019900000000000000100000000000000000000                                                  20210521000000000
002DESADV403607600200240291631100014036076002002403607600200200000000000004036076002002000000000000002021052820210528                                                                      0                                             15                                   000 00000000000000000000000000000083760372021083760370015111234                2021024027330007EUR40472273508113472078734-7207/879063180034-7207/87 90631800               87               00000   40      00                              019900000000000000200000000000000000000                                                  20210521000000000
002DESADV403607600200240291631100014036076002002403607600200200000000000004036076002002000000000000002021052820210528                                                                      0                                             15                                   000 00000000000000000000000000000083760372021083760370015111234                2021024027330007EUR40472278978973472078734-7207/879063180034-7207/87 90631800               87               00000   42      00                              019900000000000000200000000000000000000                                                  20210521000000000
002DESADV403607600200240291631100014036076002002403607600200200000000000004036076002002000000000000002021052820210528                                                                      0                                             15                                   000 00000000000000000000000000000083760372021083760370015111234                2021024027330007EUR40472278979103472078734-7207/879063180034-7207/87 90631800               87               00000   46      00                              019900000000000000100000000000000000000                                                  20210521000000000
002DESADV403607600200240291631100014036076002002403607600200200000000000004036076002002000000000000002021052820210528                                                                      0                                             15                                   000 00000000000000000000000000000083760372021083760370015111234                2021024027330007EUR40472278979273472078734-7207/879063180034-7207/87 90631800               87               00000   48      00                              019900000000000000100000000000000000000                                                  20210521000000000
002DESADV403607600200240291631100014036076002002403607600200200000000000004036076002002000000000000002021052820210528                                                                      0                                             15                                   000 00000000000000000000000000000083760372021083760370015111234                2021024027330008EUR40472278979413472079934-7207/999063180034-7207/99 90631800               99               00000   36      00                              019900000000000000100000000000000000000                                                  20210521000000000
002DESADV403607600200240291631100014036076002002403607600200200000000000004036076002002000000000000002021052820210528                                                                      0                                             15                                   000 00000000000000000000000000000083760372021083760370015111234                2021024027330008EUR40472278979653472079934-7207/999063180034-7207/99 90631800               99               00000   40      00                              019900000000000000200000000000000000000                                                  20210521000000000
002DESADV403607600200240291631100014036076002002403607600200200000000000004036076002002000000000000002021052820210528                                                                      0                                             15                                   000 00000000000000000000000000000083760372021083760370015111234                2021024027330008EUR40472278979723472079934-7207/999063180034-7207/99 90631800               99               00000   42      00                              019900000000000000200000000000000000000                                                  20210521000000000
002DESADV403607600200240291631100014036076002002403607600200200000000000004036076002002000000000000002021052820210528                                                                      0                                             15                                   000 00000000000000000000000000000083760372021083760370015111234                2021024027330008EUR40472278979893472079934-7207/999063180034-7207/99 90631800               99               00000   44      00                              019900000000000000200000000000000000000                                                  20210521000000000
002DESADV403607600200240291631100014036076002002403607600200200000000000004036076002002000000000000002021052820210528                                                                      0                                             15                                   000 00000000000000000000000000000083760372021083760370015111234                2021024027330008EUR40472278979963472079934-7207/999063180034-7207/99 90631800               99               00000   46      00                              019900000000000000100000000000000000000                                                  20210521000000000
002DESADV403607600200240291631100014036076002002403607600200200000000000004036076002002000000000000002021052820210528                                                                      0                                             15                                   000 00000000000000000000000000000083760372021083760370015111234                2021024027330009EUR40472234471333472372334-7237/239062800034-7237/23 90628000               23               0000036-38      00                              022700000000000000300000000000000000000                                                  20210521000000000
002DESADV403607600200240291631100014036076002002403607600200200000000000004036076002002000000000000002021052820210528                                                                      0                                             15                                   000 00000000000000000000000000000083760372021083760370015111234                2021024027330009EUR40472234471403472372334-7237/239062800034-7237/23 90628000               23               0000040-42      00                              022700000000000000300000000000000000000                                                  20210521000000000
002DESADV403607600200240291631100014036076002002403607600200200000000000004036076002002000000000000002021052820210528                                                                      0                                             15                                   000 00000000000000000000000000000083760372021083760370015111234                2021024027330009EUR40472259291013472372334-7237/239062800034-7237/23 90628000               23               0000044-46      00                              022700000000000000300000000000000000000                                                  20210521000000000
002DESADV403607600200240291631100014036076002002403607600200200000000000004036076002002000000000000002021052820210528                                                                      0                                             15                                   000 00000000000000000000000000000083760372021083760370015111234                2021024027330010EUR40472234471573472378534-7237/859062800034-7237/85 90628000               85               0000036-38      00                              022700000000000000300000000000000000000                                                  20210521000000000
002DESADV403607600200240291631100014036076002002403607600200200000000000004036076002002000000000000002021052820210528                                                                      0                                             15                                   000 00000000000000000000000000000083760372021083760370015111234                2021024027330010EUR40472234471643472378534-7237/859062800034-7237/85 90628000               85               0000040-42      00                              022700000000000000300000000000000000000                                                  20210521000000000
002DESADV403607600200240291631100014036076002002403607600200200000000000004036076002002000000000000002021052820210528                                                                      0                                             15                                   000 00000000000000000000000000000083760372021083760370015111234                2021024027330010EUR40472259291183472378534-7237/859062800034-7237/85 90628000               85               0000044-46      00                              022700000000000000300000000000000000000                                                  20210521000000000
002DESADV403607600200240291631100014036076002002403607600200200000000000004036076002002000000000000002021052820210528                                                                      0                                             15                                   000 00000000000000000000000000000083760372021083760370015111234                2021024027330011EUR40472285691993472772334-7277/239063190034-7277/23 90631900               23               00000   36      00                              019900000000000000100000000000000000000                                                  20210521000000000
002DESADV403607600200240291631100014036076002002403607600200200000000000004036076002002000000000000002021052820210528                                                                      0                                             15                                   000 00000000000000000000000000000083760372021083760370015111234                2021024027330011EUR40472285692053472772334-7277/239063190034-7277/23 90631900               23               00000   38      00                              019900000000000000200000000000000000000                                                  20210521000000000
002DESADV403607600200240291631100014036076002002403607600200200000000000004036076002002000000000000002021052820210528                                                                      0                                             15                                   000 00000000000000000000000000000083760372021083760370015111234                2021024027330011EUR40472285692123472772334-7277/239063190034-7277/23 90631900               23               00000   40      00                              019900000000000000200000000000000000000                                                  20210521000000000
002DESADV403607600200240291631100014036076002002403607600200200000000000004036076002002000000000000002021052820210528                                                                      0                                             15                                   000 00000000000000000000000000000083760372021083760370015111234                2021024027330011EUR40472285692293472772334-7277/239063190034-7277/23 90631900               23               00000   42      00                              019900000000000000200000000000000000000                                                  20210521000000000
002DESADV403607600200240291631100014036076002002403607600200200000000000004036076002002000000000000002021052820210528                                                                      0                                             15                                   000 00000000000000000000000000000083760372021083760370015111234                2021024027330011EUR40472285692363472772334-7277/239063190034-7277/23 90631900               23               00000   44      00                              019900000000000000200000000000000000000                                                  20210521000000000
002DESADV403607600200240291631100014036076002002403607600200200000000000004036076002002000000000000002021052820210528                                                                      0                                             15                                   000 00000000000000000000000000000083760372021083760370015111234                2021024027330011EUR40472285692433472772334-7277/239063190034-7277/23 90631900               23               00000   46      00                              019900000000000000100000000000000000000                                                  20210521000000000
002DESADV403607600200240291631100014036076002002403607600200200000000000004036076002002000000000000002021052820210528                                                                      0                                             15                                   000 00000000000000000000000000000083760372021083760370015111234                2021024027330011EUR40472285692503472772334-7277/239063190034-7277/23 90631900               23               00000   48      00                              019900000000000000100000000000000000000                                                  20210521000000000
002DESADV403607600200240291631100014036076002002403607600200200000000000004036076002002000000000000002021052820210528                                                                      0                                             15                                   000 00000000000000000000000000000083760372021083760370015111234                2021024027330012EUR40472278980853472774734-7277/479063190034-7277/47 90631900               47               00000   34      00                              019900000000000000100000000000000000000                                                  20210521000000000
002DESADV403607600200240291631100014036076002002403607600200200000000000004036076002002000000000000002021052820210528                                                                      0                                             15                                   000 00000000000000000000000000000083760372021083760370015111234                2021024027330012EUR40472273508283472774734-7277/479063190034-7277/47 90631900               47               00000   36      00                              019900000000000000100000000000000000000                                                  20210521000000000
002DESADV403607600200240291631100014036076002002403607600200200000000000004036076002002000000000000002021052820210528                                                                      0                                             15                                   000 00000000000000000000000000000083760372021083760370015111234                2021024027330012EUR40472273508353472774734-7277/479063190034-7277/47 90631900               47               00000   38      00                              019900000000000000200000000000000000000                                                  20210521000000000
002DESADV403607600200240291631100014036076002002403607600200200000000000004036076002002000000000000002021052820210528                                                                      0                                             15                                   000 00000000000000000000000000000083760372021083760370015111234                2021024027330012EUR40472273508423472774734-7277/479063190034-7277/47 90631900               47               00000   40      00                              019900000000000000200000000000000000000                                                  20210521000000000
002DESADV403607600200240291631100014036076002002403607600200200000000000004036076002002000000000000002021052820210528                                                                      0                                             15                                   000 00000000000000000000000000000083760372021083760370015111234                2021024027330012EUR40472278980923472774734-7277/479063190034-7277/47 90631900               47               00000   42      00                              019900000000000000200000000000000000000                                                  20210521000000000
002DESADV403607600200240291631100014036076002002403607600200200000000000004036076002002000000000000002021052820210528                                                                      0                                             15                                   000 00000000000000000000000000000083760372021083760370015111234                2021024027330012EUR40472278981083472774734-7277/479063190034-7277/47 90631900               47               00000   44      00                              019900000000000000200000000000000000000                                                  20210521000000000
002DESADV403607600200240291631100014036076002002403607600200200000000000004036076002002000000000000002021052820210528                                                                      0                                             15                                   000 00000000000000000000000000000083760372021083760370015111234                2021024027330012EUR40472278981153472774734-7277/479063190034-7277/47 90631900               47               00000   46      00                              019900000000000000100000000000000000000                                                  20210521000000000
002DESADV403607600200240291631100014036076002002403607600200200000000000004036076002002000000000000002021052820210528                                                                      0                                             15                                   000 00000000000000000000000000000083760372021083760370015111234                2021024027330012EUR40472278981223472774734-7277/479063190034-7277/47 90631900               47               00000   48      00                              019900000000000000100000000000000000000                                                  20210521000000000
002DESADV403607600200240291631100014036076002002403607600200200000000000004036076002002000000000000002021052820210528                                                                      0                                             15                                   000 00000000000000000000000000000083760372021083760370015111234                2021024027330013EUR40472280008763490973334-9097/339032160034-9097/33 90321600               33               00000   36      00                              041850000000000000100000000000000000000                                                  20210521000000000
002DESADV403607600200240291631100014036076002002403607600200200000000000004036076002002000000000000002021052820210528                                                                      0                                             15                                   000 00000000000000000000000000000083760372021083760370015111234                2021024027330013EUR40472280008833490973334-9097/339032160034-9097/33 90321600               33               00000   38      00                              041850000000000000200000000000000000000                                                  20210521000000000
002DESADV403607600200240291631100014036076002002403607600200200000000000004036076002002000000000000002021052820210528                                                                      0                                             15                                   000 00000000000000000000000000000083760372021083760370015111234                2021024027330013EUR40472280008903490973334-9097/339032160034-9097/33 90321600               33               00000   40      00                              041850000000000000200000000000000000000                                                  20210521000000000
002DESADV403607600200240291631100014036076002002403607600200200000000000004036076002002000000000000002021052820210528                                                                      0                                             15                                   000 00000000000000000000000000000083760372021083760370015111234                2021024027330013EUR40472280009063490973334-9097/339032160034-9097/33 90321600               33               00000   42      00                              041850000000000000200000000000000000000                                                  20210521000000000
002DESADV403607600200240291631100014036076002002403607600200200000000000004036076002002000000000000002021052820210528                                                                      0                                             15                                   000 00000000000000000000000000000083760372021083760370015111234                2021024027330013EUR40472280009133490973334-9097/339032160034-9097/33 90321600               33               00000   44      00                              041850000000000000200000000000000000000                                                  20210521000000000
002DESADV403607600200240291631100014036076002002403607600200200000000000004036076002002000000000000002021052820210528                                                                      0                                             15                                   000 00000000000000000000000000000083760372021083760370015111234                2021024027330013EUR40472280009203490973334-9097/339032160034-9097/33 90321600               33               00000   46      00                              041850000000000000100000000000000000000                                                  20210521000000000
003DESADV403607600200240291631100014036076002002403607600200200000000000004036076002002000000000000002021052820210528                                                                      0                                             15                                   000 0000000000000000000000000000008376037202108376037001511                    0000000000000000EUR000000000000000000000          00000000                                  00               00000           00                              000000000000000013900000000000000000000                                                  00000000000000000
001DESADV403607600200240291631100014036076002002403607600200200000000000004036076002002000000000000002021052820210528                                                                      0                                             15                                   000 0000000000000000000000000000008376094202108376094001511                    0000000000000000EUR000000000000000000000          00000000                                  00               00000           00                              000000000000000000000000000000000000000                                                  00000000000000000
002DESADV403607600200240291631100014036076002002403607600200200000000000004036076002002000000000000002021052820210528                                                                      0                                             15                                   000 00000000000000000000000000000083760942021083760940015111234                2021024061540005EUR40448194929973272274332-7227/439061500032-7227/43 90615000               43               00000   36      00                              032400000000000000100000000000000000000                                                  20210527000000000
002DESADV403607600200240291631100014036076002002403607600200200000000000004036076002002000000000000002021052820210528                                                                      0                                             15                                   000 00000000000000000000000000000083760942021083760940015111234                2021024061540005EUR40448193884673272274332-7227/439061500032-7227/43 90615000               43               00000   38      00                              032400000000000000200000000000000000000                                                  20210527000000000
002DESADV403607600200240291631100014036076002002403607600200200000000000004036076002002000000000000002021052820210528                                                                      0                                             15                                   000 00000000000000000000000000000083760942021083760940015111234                2021024061540005EUR40448193884743272274332-7227/439061500032-7227/43 90615000               43               00000   40      00                              032400000000000000200000000000000000000                                                  20210527000000000
002DESADV403607600200240291631100014036076002002403607600200200000000000004036076002002000000000000002021052820210528                                                                      0                                             15                                   000 00000000000000000000000000000083760942021083760940015111234                2021024061540005EUR40448194930003272274332-7227/439061500032-7227/43 90615000               43               00000   42      00                              032400000000000000200000000000000000000                                                  20210527000000000
002DESADV403607600200240291631100014036076002002403607600200200000000000004036076002002000000000000002021052820210528                                                                      0                                             15                                   000 00000000000000000000000000000083760942021083760940015111234                2021024061540005EUR40448194930173272274332-7227/439061500032-7227/43 90615000               43               00000   44      00                              032400000000000000200000000000000000000                                                  20210527000000000
002DESADV403607600200240291631100014036076002002403607600200200000000000004036076002002000000000000002021052820210528                                                                      0                                             15                                   000 00000000000000000000000000000083760942021083760940015111234                2021024061540005EUR40448194930553272274332-7227/439061500032-7227/43 90615000               43               00000   46      00                              032400000000000000100000000000000000000                                                  20210527000000000
002DESADV403607600200240291631100014036076002002403607600200200000000000004036076002002000000000000002021052820210528                                                                      0                                             15                                   000 00000000000000000000000000000083760942021083760940015111234                2021024061540005EUR40448194930623272274332-7227/439061500032-7227/43 90615000               43               00000   48      00                              032400000000000000100000000000000000000                                                  20210527000000000
002DESADV403607600200240291631100014036076002002403607600200200000000000004036076002002000000000000002021052820210528                                                                      0                                             15                                   000 00000000000000000000000000000083760942021083760940015111234                2021024061540006EUR40472230107573272678532-7267/859062130032-7267/85 90621300               85               00000   36      00                              032400000000000000100000000000000000000                                                  20210527000000000
002DESADV403607600200240291631100014036076002002403607600200200000000000004036076002002000000000000002021052820210528                                                                      0                                             15                                   000 00000000000000000000000000000083760942021083760940015111234                2021024061540006EUR40472230107643272678532-7267/859062130032-7267/85 90621300               85               00000   38      00                              032400000000000000200000000000000000000                                                  20210527000000000
002DESADV403607600200240291631100014036076002002403607600200200000000000004036076002002000000000000002021052820210528                                                                      0                                             15                                   000 00000000000000000000000000000083760942021083760940015111234                2021024061540006EUR40472230107713272678532-7267/859062130032-7267/85 90621300               85               00000   40      00                              032400000000000000200000000000000000000                                                  20210527000000000
002DESADV403607600200240291631100014036076002002403607600200200000000000004036076002002000000000000002021052820210528                                                                      0                                             15                                   000 00000000000000000000000000000083760942021083760940015111234                2021024061540006EUR40472230107883272678532-7267/859062130032-7267/85 90621300               85               00000   42      00                              032400000000000000200000000000000000000                                                  20210527000000000
002DESADV403607600200240291631100014036076002002403607600200200000000000004036076002002000000000000002021052820210528                                                                      0                                             15                                   000 00000000000000000000000000000083760942021083760940015111234                2021024061540006EUR40472230107953272678532-7267/859062130032-7267/85 90621300               85               00000   44      00                              032400000000000000200000000000000000000                                                  20210527000000000
002DESADV403607600200240291631100014036076002002403607600200200000000000004036076002002000000000000002021052820210528                                                                      0                                             15                                   000 00000000000000000000000000000083760942021083760940015111234                2021024061540006EUR40472230108013272678532-7267/859062130032-7267/85 90621300               85               00000   46      00                              032400000000000000100000000000000000000                                                  20210527000000000
003DESADV403607600200240291631100014036076002002403607600200200000000000004036076002002000000000000002021052820210528                                                                      0                                             15                                   000 0000000000000000000000000000008376094202108376094001511                    0000000000000000EUR000000000000000000000          00000000                                  00               00000           00                              000000000000000002100000000000000000000                                                  00000000000000000
001DESADV403607600200240291631100014036076002002403607600200200000000000004036076002002000000000000002021052720210527                                                                      0                                             15                                   000 0000000000000000000000000000009264408202109264408001511                    0000000000000000EUR000000000000000000000          00000000                                  00               00000           00                              000000000000000000000000000000000000000                                                  00000000000000000
002DESADV403607600200240291631100014036076002002403607600200200000000000004036076002002000000000000002021052720210527                                                                      0                                             15                                   000 0000000000000000000000000000009264408202109264408001511RT800046_1511_1     2021004050810002EUR40371236121518060002480-6000/240796442080-6000/24 07964420STYLE.COOPER DE24               0000036/34      00                              040200000000000000100000000000000000000                                                  20210525000000121
002DESADV403607600200240291631100014036076002002403607600200200000000000004036076002002000000000000002021052720210527                                                                      0                                             15                                   000 0000000000000000000000000000009264408202109264408001511RT800046_1511_1     2021004050810004EUR40644997900228212070782-1207/070788202082-1207/07 07882020STYLE.FABIO IN 07               0000036/32      00                              040200000000000000100000000000000000000                                                  20210525000000121
002DESADV403607600200240291631100014036076002002403607600200200000000000004036076002002000000000000002021052720210527                                                                      0                                             15                                   000 0000000000000000000000000000009264408202109264408001511RT800046_1511_1     2021004050810005EUR40644997906028212072382-1207/230788202082-1207/23 07882020STYLE.FABIO IN 23               0000032/32      00                              040200000000000000100000000000000000000                                                  20210525000000121
002DESADV403607600200240291631100014036076002002403607600200200000000000004036076002002000000000000002021052720210527                                                                      0                                             15                                   000 0000000000000000000000000000009264408202109264408001511RT800046_1511_1     2021004050810005EUR40644997908008212072382-1207/230788202082-1207/23 07882020STYLE.FABIO IN 23               0000036/34      00                              040200000000000000100000000000000000000                                                  20210525000000121
002DESADV403607600200240291631100014036076002002403607600200200000000000004036076002002000000000000002021052720210527                                                                      0                                             15                                   000 0000000000000000000000000000009264408202109264408001511RT800046_1511_1     2021004050810006EUR40472249234698214570282-1457/020788202082-1457/02 07882020STYLE.FABIO IN 02               0000034/32      00                              040200000000000000100000000000000000000                                                  20210525000000121
002DESADV403607600200240291631100014036076002002403607600200200000000000004036076002002000000000000002021052720210527                                                                      0                                             15                                   000 0000000000000000000000000000009264408202109264408001511RT800046_1511_1     2021004050810011EUR40472232076528464572684-6457/260795302084-6457/26 07953020STYLE.CHUCK    26               0000034/34      00                              048000000000000000100000000000000000000                                                  20210525000000121
002DESADV403607600200240291631100014036076002002403607600200200000000000004036076002002000000000000002021052720210527                                                                      0                                             15                                   000 0000000000000000000000000000009264408202109264408001511RT800046_1511_1     2021004050810011EUR40472232076838464572684-6457/260795302084-6457/26 07953020STYLE.CHUCK    26               0000038/34      00                              048000000000000000100000000000000000000                                                  20210525000000121
002DESADV403607600200240291631100014036076002002403607600200200000000000004036076002002000000000000002021052720210527                                                                      0                                             15                                   000 0000000000000000000000000000009264408202109264408001511RT800046_1511_1     2021004050810013EUR40472279750838563072385-6307/230796082085-6307/23 07960820STYLE.CHRIS    23               0000034/32      00                              026000000000000000100000000000000000000                                                  20210525000000121
003DESADV403607600200240291631100014036076002002403607600200200000000000004036076002002000000000000002021052720210527                                                                      0                                             15                                   000 0000000000000000000000000000009264408202109264408001511                    0000000000000000EUR000000000000000000000          00000000                                  00               00000           00                              000000000000000000800000000000000000000                                                  00000000000000000
001DESADV403607600200240291631100014036076002002403607600200200000000000004036076002002000000000000002021052720210527                                                                      0                                             15                                   000 0000000000000000000000000000009264409202109264409001511                    0000000000000000EUR000000000000000000000          00000000                                  00               00000           00                              000000000000000000000000000000000000000                                                  00000000000000000
002DESADV403607600200240291631100014036076002002403607600200200000000000004036076002002000000000000002021052720210527                                                                      0                                             15                                   000 0000000000000000000000000000009264409202109264409001511RT656049_1511_1     2021004051060005EUR40644997741837215075972-1507/590983602072-1507/59 09836020STYLE.MARA S   59               00000   36      00                              040200000000000000100000000000000000000                                                  20210525000000121
002DESADV403607600200240291631100014036076002002403607600200200000000000004036076002002000000000000002021052720210527                                                                      0                                             15                                   000 0000000000000000000000000000009264409202109264409001511RT656049_1511_1     2021004051060009EUR40644997788917261575372-6157/530993862072-6157/53 09938620STYLE.SHAKIRA S53               00000   38      00                              040200000000000000100000000000000000000                                                  20210525000000121
002DESADV403607600200240291631100014036076002002403607600200200000000000004036076002002000000000000002021052720210527                                                                      0                                             15                                   000 0000000000000000000000000000009264409202109264409001511RT656049_1511_1     2021004051060009EUR40644997790727261575372-6157/530993862072-6157/53 09938620STYLE.SHAKIRA S53               00000  36K      00                              040200000000000000100000000000000000000                                                  20210525000000121
002DESADV403607600200240291631100014036076002002403607600200200000000000004036076002002000000000000002021052720210527                                                                      0                                             15                                   000 0000000000000000000000000000009264409202109264409001511RT656049_1511_1     2021004051060012EUR40472279226437412073374-1207/330983842074-1207/33 09838420STYLE.MARY S   33               00000   46      00                              026000000000000000100000000000000000000                                                  20210525000000121
002DESADV403607600200240291631100014036076002002403607600200200000000000004036076002002000000000000002021052720210527                                                                      0                                             15                                   000 0000000000000000000000000000009264409202109264409001511RT656049_1511_1     2021004051060013EUR40472232889037415072374-1507/230986412074-1507/23 09864120STYLE.MARA S   23               00000   38      00                              040200000000000000100000000000000000000                                                  20210525000000121
002DESADV403607600200240291631100014036076002002403607600200200000000000004036076002002000000000000002021052720210527                                                                      0                                             15                                   000 0000000000000000000000000000009264409202109264409001511RT656049_1511_1     2021004051060013EUR40472232889107415072374-1507/230986412074-1507/23 09864120STYLE.MARA S   23               00000   40      00                              040200000000000000100000000000000000000                                                  20210525000000121
002DESADV403607600200240291631100014036076002002403607600200200000000000004036076002002000000000000002021052720210527                                                                      0                                             15                                   000 0000000000000000000000000000009264409202109264409001511RT656049_1511_1     2021004051060014EUR40472232929487415078474-1507/840986412074-1507/84 09864120STYLE.MARA S   84               00000  36K      00                              040200000000000000100000000000000000000                                                  20210525000000121
002DESADV403607600200240291631100014036076002002403607600200200000000000004036076002002000000000000002021052720210527                                                                      0                                             15                                   000 0000000000000000000000000000009264409202109264409001511RT656049_1511_1     2021004051060015EUR40472259690397415573774-1557/370983602074-1557/37 09836020STYLE.MARA S   37               00000   42      00                              036300000000000000200000000000000000000                                                  20210525000000121
002DESADV403607600200240291631100014036076002002403607600200200000000000004036076002002000000000000002021052720210527                                                                      0                                             15                                   000 0000000000000000000000000000009264409202109264409001511RT656049_1511_1     2021004051060016EUR40472234168947415574374-1557/430983602074-1557/43 09836020STYLE.MARA S   43               00000   36      00                              036300000000000000100000000000000000000                                                  20210525000000121
002DESADV403607600200240291631100014036076002002403607600200200000000000004036076002002000000000000002021052720210527                                                                      0                                             15                                   000 0000000000000000000000000000009264409202109264409001511RT656049_1511_1     2021004051060017EUR40472259698007415576574-1557/650983602074-1557/65 09836020STYLE.MARA S   65               00000   36      00                              036300000000000000100000000000000000000                                                  20210525000000121
002DESADV403607600200240291631100014036076002002403607600200200000000000004036076002002000000000000002021052720210527                                                                      0                                             15                                   000 0000000000000000000000000000009264409202109264409001511RT656049_1511_1     2021004051060019EUR40472258603127460872974-6087/290999012074-6087/29 09990120STYLE.SHAKIRA  29               00000   40      00                              040200000000000000200000000000000000000                                                  20210525000000121
002DESADV403607600200240291631100014036076002002403607600200200000000000004036076002002000000000000002021052720210527                                                                      0                                             15                                   000 0000000000000000000000000000009264409202109264409001511RT656049_1511_1     2021004051060019EUR40472258603437460872974-6087/290999012074-6087/29 09990120STYLE.SHAKIRA  29               00000   46      00                              040200000000000000100000000000000000000                                                  20210525000000121
002DESADV403607600200240291631100014036076002002403607600200200000000000004036076002002000000000000002021052720210527                                                                      0                                             15                                   000 0000000000000000000000000000009264409202109264409001511RT656049_1511_1     2021004051060020EUR40472256843527463079774-6307/970995332074-6307/97 09953320STYLE.SHAKIRA S97               00000  44K      00                              026000000000000000100000000000000000000                                                  20210525000000121
002DESADV403607600200240291631100014036076002002403607600200200000000000004036076002002000000000000002021052720210527                                                                      0                                             15                                   000 0000000000000000000000000000009264409202109264409001511RT656049_1511_1     2021004051060021EUR40472258801367466572374-6657/230993702074-6657/23 09937020STYLE.MARY     23               00000  40K      00                              026000000000000000100000000000000000000                                                  20210525000000121
003DESADV403607600200240291631100014036076002002403607600200200000000000004036076002002000000000000002021052720210527                                                                      0                                             15                                   000 0000000000000000000000000000009264409202109264409001511                    0000000000000000EUR000000000000000000000          00000000                                  00               00000           00                              000000000000000001600000000000000000000                                                  00000000000000000
001DESADV403607600200240291631100014036076002002403607600200200000000000004036076002002000000000000002021052720210527                                                                      0                                             15                                   000 0000000000000000000000000000009264470202109264470001511                    0000000000000000EUR000000000000000000000          00000000                                  00               00000           00                              000000000000000000000000000000000000000                                                  00000000000000000
002DESADV403607600200240291631100014036076002002403607600200200000000000004036076002002000000000000002021052720210527                                                                      0                                             15                                   000 0000000000000000000000000000009264470202109264470001511RT800046_1511_1     2021004050810012EUR40472279876428563070385-6307/030796082085-6307/03 07960820STYLE.CHRIS    03               0000034/32      00                              026000000000000000100000000000000000000                                                  20210525000000121
003DESADV403607600200240291631100014036076002002403607600200200000000000004036076002002000000000000002021052720210527                                                                      0                                             15                                   000 0000000000000000000000000000009264470202109264470001511                    0000000000000000EUR000000000000000000000          00000000                                  00               00000           00                              000000000000000000100000000000000000000                                                  00000000000000000
001DESADV403607600200240291631100014036076002002403607600200200000000000004036076002002000000000000002021052820210528                                                                      0                                             15                                   000 0000000000000000000000000000009264642202109264642001511                    0000000000000000EUR000000000000000000000          00000000                                  00               00000           00                              000000000000000000000000000000000000000                                                  00000000000000000
002DESADV403607600200240291631100014036076002002403607600200200000000000004036076002002000000000000002021052820210528                                                                      0                                             15                                   000 0000000000000000000000000000009264642202109264642001511406089              2021004060890001EUR40472279877588563070385-6307/030796082085-6307/03 07960820STYLE.CHRIS    03               0000032/32      00                              026000000000000000300000000000000000000                                                  20210527000000121
002DESADV403607600200240291631100014036076002002403607600200200000000000004036076002002000000000000002021052820210528                                                                      0                                             15                                   000 0000000000000000000000000000009264642202109264642001511406089              2021004060890001EUR40472279876428563070385-6307/030796082085-6307/03 07960820STYLE.CHRIS    03               0000034/32      00                              026000000000000000300000000000000000000                                                  20210527000000121
002DESADV403607600200240291631100014036076002002403607600200200000000000004036076002002000000000000002021052820210528                                                                      0                                             15                                   000 0000000000000000000000000000009264642202109264642001511406089              2021004060890001EUR40472279876598563070385-6307/030796082085-6307/03 07960820STYLE.CHRIS    03               0000036/32      00                              026000000000000000300000000000000000000                                                  20210527000000121
002DESADV403607600200240291631100014036076002002403607600200200000000000004036076002002000000000000002021052820210528                                                                      0                                             15                                   000 0000000000000000000000000000009264642202109264642001511406089              2021004060890002EUR40472279750768563072385-6307/230796082085-6307/23 07960820STYLE.CHRIS    23               0000032/32      00                              026000000000000000300000000000000000000                                                  20210527000000121
002DESADV403607600200240291631100014036076002002403607600200200000000000004036076002002000000000000002021052820210528                                                                      0                                             15                                   000 0000000000000000000000000000009264642202109264642001511406089              2021004060890002EUR40472279750838563072385-6307/230796082085-6307/23 07960820STYLE.CHRIS    23               0000034/32      00                              026000000000000000300000000000000000000                                                  20210527000000121
002DESADV403607600200240291631100014036076002002403607600200200000000000004036076002002000000000000002021052820210528                                                                      0                                             15                                   000 0000000000000000000000000000009264642202109264642001511406089              2021004060890002EUR40472279750908563072385-6307/230796082085-6307/23 07960820STYLE.CHRIS    23               0000036/32      00                              026000000000000000300000000000000000000                                                  20210527000000121
002DESADV403607600200240291631100014036076002002403607600200200000000000004036076002002000000000000002021052820210528                                                                      0                                             15                                   000 0000000000000000000000000000009264642202109264642001511406089              2021004060890003EUR40472282828458563072585-6307/250796082085-6307/25 07960820STYLE.CHRIS    25               0000032/32      00                              026000000000000000300000000000000000000                                                  20210527000000121
002DESADV403607600200240291631100014036076002002403607600200200000000000004036076002002000000000000002021052820210528                                                                      0                                             15                                   000 0000000000000000000000000000009264642202109264642001511406089              2021004060890003EUR40472279751138563072585-6307/250796082085-6307/25 07960820STYLE.CHRIS    25               0000034/32      00                              026000000000000000300000000000000000000                                                  20210527000000121
002DESADV403607600200240291631100014036076002002403607600200200000000000004036076002002000000000000002021052820210528                                                                      0                                             15                                   000 0000000000000000000000000000009264642202109264642001511406089              2021004060890003EUR40472279751208563072585-6307/250796082085-6307/25 07960820STYLE.CHRIS    25               0000036/32      00                              026000000000000000300000000000000000000                                                  20210527000000121
002DESADV403607600200240291631100014036076002002403607600200200000000000004036076002002000000000000002021052820210528                                                                      0                                             15                                   000 0000000000000000000000000000009264642202109264642001511406089              2021004060890004EUR40472282789098563070585-6307/050796082085-6307/05 07960820STYLE.CHRIS    05               0000031/30      00                              026000000000000000100000000000000000000                                                  20210527000000121
