001DESADV403607600200240291631100014036076002002403607600200200000000000004036076002002000000000000002021052620210526                                                                      0                                             15                                   000 0000000000000000000000000000009264347202109264347001511                    0000000000000000EUR000000000000000000000          00000000                                  00               00000           00                              000000000000000000000000000000000000000                                                  00000000000000000
002DESADV403607600200240291631100014036076002002403607600200200000000000004036076002002000000000000002021052620210526                                                                      0                                             15                                   000 00000000000000000000000000000092643472021092643470015110402780             2021004027800001EUR40472256317528413872484-1387/240788752084-1387/24 07887520STYLE.FEY      24               00000   24      00                              052000000000000000200000000000000000000                                                  20210521000000121
002DESADV403607600200240291631100014036076002002403607600200200000000000004036076002002000000000000002021052620210526                                                                      0                                             15                                   000 00000000000000000000000000000092643472021092643470015110402780             2021004027800001EUR40472256317698413872484-1387/240788752084-1387/24 07887520STYLE.FEY      24               00000   25      00                              052000000000000000300000000000000000000                                                  20210521000000121
002DESADV403607600200240291631100014036076002002403607600200200000000000004036076002002000000000000002021052620210526                                                                      0                                             15                                   000 00000000000000000000000000000092643472021092643470015110402780             2021004027800001EUR40472256318068413872484-1387/240788752084-1387/24 07887520STYLE.FEY      24               00000   26      00                              052000000000000000300000000000000000000                                                  20210521000000121
002DESADV403607600200240291631100014036076002002403607600200200000000000004036076002002000000000000002021052620210526                                                                      0                                             15                                   000 00000000000000000000000000000092643472021092643470015110402780             2021004027800001EUR40472256318138413872484-1387/240788752084-1387/24 07887520STYLE.FEY      24               00000   27      00                              052000000000000000200000000000000000000                                                  20210521000000121
002DESADV403607600200240291631100014036076002002403607600200200000000000004036076002002000000000000002021052620210526                                                                      0                                             15                                   000 00000000000000000000000000000092643472021092643470015110402780             2021004027800001EUR40472235131598413872484-1387/240788752084-1387/24 07887520STYLE.FEY      24               00000   48      00                              052000000000000000200000000000000000000                                                  20210521000000121
002DESADV403607600200240291631100014036076002002403607600200200000000000004036076002002000000000000002021052620210526                                                                      0                                             15                                   000 00000000000000000000000000000092643472021092643470015110402780             2021004027800001EUR40472235131668413872484-1387/240788752084-1387/24 07887520STYLE.FEY      24               00000   50      00                              052000000000000000200000000000000000000                                                  20210521000000121
002DESADV403607600200240291631100014036076002002403607600200200000000000004036076002002000000000000002021052620210526                                                                      0                                             15                                   000 00000000000000000000000000000092643472021092643470015110402780             2021004027800001EUR40472235131738413872484-1387/240788752084-1387/24 07887520STYLE.FEY      24               00000   52      00                              052000000000000000300000000000000000000                                                  20210521000000121
002DESADV403607600200240291631100014036076002002403607600200200000000000004036076002002000000000000002021052620210526                                                                      0                                             15                                   000 00000000000000000000000000000092643472021092643470015110402780             2021004027800001EUR40472256315168413872484-1387/240788752084-1387/24 07887520STYLE.FEY      24               00000   54      00                              052000000000000000300000000000000000000                                                  20210521000000121
002DESADV403607600200240291631100014036076002002403607600200200000000000004036076002002000000000000002021052620210526                                                                      0                                             15                                   000 00000000000000000000000000000092643472021092643470015110402780             2021004027800001EUR40472256315308413872484-1387/240788752084-1387/24 07887520STYLE.FEY      24               00000   56      00                              057200000000000000200000000000000000000                                                  20210521000000121
002DESADV403607600200240291631100014036076002002403607600200200000000000004036076002002000000000000002021052620210526                                                                      0                                             15                                   000 00000000000000000000000000000092643472021092643470015110402780             2021004027800001EUR40472256316158413872484-1387/240788752084-1387/24 07887520STYLE.FEY      24               00000   98      00                              052000000000000000200000000000000000000                                                  20210521000000121
002DESADV403607600200240291631100014036076002002403607600200200000000000004036076002002000000000000002021052620210526                                                                      0                                             15                                   000 00000000000000000000000000000092643472021092643470015110402780             2021004027800001EUR40472256316228413872484-1387/240788752084-1387/24 07887520STYLE.FEY      24               00000  102      00                              052000000000000000200000000000000000000                                                  20210521000000121
002DESADV403607600200240291631100014036076002002403607600200200000000000004036076002002000000000000002021052620210526                                                                      0                                             15                                   000 00000000000000000000000000000092643472021092643470015110402780             2021004027800001EUR40472256316398413872484-1387/240788752084-1387/24 07887520STYLE.FEY      24               00000  106      00                              052000000000000000200000000000000000000                                                  20210521000000121
002DESADV403607600200240291631100014036076002002403607600200200000000000004036076002002000000000000002021052620210526                                                                      0                                             15                                   000 00000000000000000000000000000092643472021092643470015110402780             2021004027800002EUR40472256535018418670684-1867/060788712084-1867/06 07887120STYLE.FEY      06               00000   24      00                              048000000000000000200000000000000000000                                                  20210521000000121
002DESADV403607600200240291631100014036076002002403607600200200000000000004036076002002000000000000002021052620210526                                                                      0                                             15                                   000 00000000000000000000000000000092643472021092643470015110402780             2021004027800002EUR40472256535188418670684-1867/060788712084-1867/06 07887120STYLE.FEY      06               00000   25      00                              048000000000000000300000000000000000000                                                  20210521000000121
002DESADV403607600200240291631100014036076002002403607600200200000000000004036076002002000000000000002021052620210526                                                                      0                                             15                                   000 00000000000000000000000000000092643472021092643470015110402780             2021004027800002EUR40472256535328418670684-1867/060788712084-1867/06 07887120STYLE.FEY      06               00000   26      00                              048000000000000000300000000000000000000                                                  20210521000000121
002DESADV403607600200240291631100014036076002002403607600200200000000000004036076002002000000000000002021052620210526                                                                      0                                             15                                   000 00000000000000000000000000000092643472021092643470015110402780             2021004027800002EUR40472256535498418670684-1867/060788712084-1867/06 07887120STYLE.FEY      06               00000   27      00                              048000000000000000300000000000000000000                                                  20210521000000121
002DESADV403607600200240291631100014036076002002403607600200200000000000004036076002002000000000000002021052620210526                                                                      0                                             15                                   000 00000000000000000000000000000092643472021092643470015110402780             2021004027800002EUR40472256535568418670684-1867/060788712084-1867/06 07887120STYLE.FEY      06               00000   28      00                              052800000000000000300000000000000000000                                                  20210521000000121
002DESADV403607600200240291631100014036076002002403607600200200000000000004036076002002000000000000002021052620210526                                                                      0                                             15                                   000 00000000000000000000000000000092643472021092643470015110402780             2021004027800002EUR40472256535638418670684-1867/060788712084-1867/06 07887120STYLE.FEY      06               00000   29      00                              052800000000000000200000000000000000000                                                  20210521000000121
002DESADV403607600200240291631100014036076002002403607600200200000000000004036076002002000000000000002021052620210526                                                                      0                                             15                                   000 00000000000000000000000000000092643472021092643470015110402780             2021004027800002EUR40472235128628418670684-1867/060788712084-1867/06 07887120STYLE.FEY      06               00000   48      00                              048000000000000000200000000000000000000                                                  20210521000000121
002DESADV403607600200240291631100014036076002002403607600200200000000000004036076002002000000000000002021052620210526                                                                      0                                             15                                   000 00000000000000000000000000000092643472021092643470015110402780             2021004027800002EUR40472235128798418670684-1867/060788712084-1867/06 07887120STYLE.FEY      06               00000   50      00                              048000000000000000200000000000000000000                                                  20210521000000121
002DESADV403607600200240291631100014036076002002403607600200200000000000004036076002002000000000000002021052620210526                                                                      0                                             15                                   000 00000000000000000000000000000092643472021092643470015110402780             2021004027800002EUR40472235128868418670684-1867/060788712084-1867/06 07887120STYLE.FEY      06               00000   52      00                              048000000000000000300000000000000000000                                                  20210521000000121
002DESADV403607600200240291631100014036076002002403607600200200000000000004036076002002000000000000002021052620210526                                                                      0                                             15                                   000 00000000000000000000000000000092643472021092643470015110402780             2021004027800002EUR40472256532048418670684-1867/060788712084-1867/06 07887120STYLE.FEY      06               00000   54      00                              048000000000000000300000000000000000000                                                  20210521000000121
002DESADV403607600200240291631100014036076002002403607600200200000000000004036076002002000000000000002021052620210526                                                                      0                                             15                                   000 00000000000000000000000000000092643472021092643470015110402780             2021004027800002EUR40472256532118418670684-1867/060788712084-1867/06 07887120STYLE.FEY      06               00000   56      00                              052800000000000000200000000000000000000                                                  20210521000000121
002DESADV403607600200240291631100014036076002002403607600200200000000000004036076002002000000000000002021052620210526                                                                      0                                             15                                   000 00000000000000000000000000000092643472021092643470015110402780             2021004027800002EUR40472256532738418670684-1867/060788712084-1867/06 07887120STYLE.FEY      06               00000   58      00                              052800000000000000200000000000000000000                                                  20210521000000121
002DESADV403607600200240291631100014036076002002403607600200200000000000004036076002002000000000000002021052620210526                                                                      0                                             15                                   000 00000000000000000000000000000092643472021092643470015110402780             2021004027800002EUR40472256533728418670684-1867/060788712084-1867/06 07887120STYLE.FEY      06               00000   98      00                              048000000000000000200000000000000000000                                                  20210521000000121
002DESADV403607600200240291631100014036076002002403607600200200000000000004036076002002000000000000002021052620210526                                                                      0                                             15                                   000 00000000000000000000000000000092643472021092643470015110402780             2021004027800002EUR40472256533898418670684-1867/060788712084-1867/06 07887120STYLE.FEY      06               00000  102      00                              048000000000000000200000000000000000000                                                  20210521000000121
002DESADV403607600200240291631100014036076002002403607600200200000000000004036076002002000000000000002021052620210526                                                                      0                                             15                                   000 00000000000000000000000000000092643472021092643470015110402780             2021004027800002EUR40472256533968418670684-1867/060788712084-1867/06 07887120STYLE.FEY      06               00000  106      00                              048000000000000000200000000000000000000                                                  20210521000000121
003DESADV403607600200240291631100014036076002002403607600200200000000000004036076002002000000000000002021052620210526                                                                      0                                             15                                   000 0000000000000000000000000000009264347202109264347001511                    0000000000000000EUR000000000000000000000          00000000                                  00               00000           00                              000000000000000006400000000000000000000                                                  00000000000000000
