001DESADV403607600200240291630000054036076002002403607600200200000000000004036076002002000000000000002021051920210519                                                                      0                                             99                                   000 0000000000000000000000000000006195892202106195892001511                    0000000000000000EUR000000000000000000000          00000000                                  00               00000           00                              000000000000000000000000000000000000000                                                  00000000000000000
002DESADV403607600200240291630000054036076002002403607600200200000000000004036076002002000000000000002021051920210519                                                                      0                                             99                                   000 0000000000000000000000000000006195892202106195892001511                    2021003898870001EUR40472285264825509073255-0907/329100099055-0907/32 91000990DOB GÜRTEL     32               00000   80      00                              010000000000000000200000000000000000000                                                  20210426000000121
002DESADV403607600200240291630000054036076002002403607600200200000000000004036076002002000000000000002021051920210519                                                                      0                                             99                                   000 0000000000000000000000000000006195892202106195892001511                    2021003898870001EUR40472279357595509073255-0907/329100099055-0907/32 91000990DOB GÜRTEL     32               00000   85      00                              010000000000000000200000000000000000000                                                  20210426000000121
002DESADV403607600200240291630000054036076002002403607600200200000000000004036076002002000000000000002021051920210519                                                                      0                                             99                                   000 0000000000000000000000000000006195892202106195892001511                    2021003898870001EUR40472279357665509073255-0907/329100099055-0907/32 91000990DOB GÜRTEL     32               00000   90      00                              010000000000000000200000000000000000000                                                  20210426000000121
002DESADV403607600200240291630000054036076002002403607600200200000000000004036076002002000000000000002021051920210519                                                                      0                                             99                                   000 0000000000000000000000000000006195892202106195892001511                    2021003898870001EUR40472285264995509073255-0907/329100099055-0907/32 91000990DOB GÜRTEL     32               00000   95      00                              010000000000000000200000000000000000000                                                  20210426000000121
002DESADV403607600200240291630000054036076002002403607600200200000000000004036076002002000000000000002021051920210519                                                                      0                                             99                                   000 0000000000000000000000000000006195892202106195892001511                    2021003898870001EUR40472285265055509073255-0907/329100099055-0907/32 91000990DOB GÜRTEL     32               00000  100      00                              010000000000000000200000000000000000000                                                  20210426000000121
002DESADV403607600200240291630000054036076002002403607600200200000000000004036076002002000000000000002021051920210519                                                                      0                                             99                                   000 0000000000000000000000000000006195892202106195892001511                    2021003898870002EUR40472285265365509074255-0907/429100099055-0907/42 91000990DOB GÜRTEL     42               00000   80      00                              010000000000000000200000000000000000000                                                  20210426000000121
002DESADV403607600200240291630000054036076002002403607600200200000000000004036076002002000000000000002021051920210519                                                                      0                                             99                                   000 0000000000000000000000000000006195892202106195892001511                    2021003898870002EUR40472279357735509074255-0907/429100099055-0907/42 91000990DOB GÜRTEL     42               00000   85      00                              010000000000000000200000000000000000000                                                  20210426000000121
002DESADV403607600200240291630000054036076002002403607600200200000000000004036076002002000000000000002021051920210519                                                                      0                                             99                                   000 0000000000000000000000000000006195892202106195892001511                    2021003898870002EUR40472279357805509074255-0907/429100099055-0907/42 91000990DOB GÜRTEL     42               00000   90      00                              010000000000000000200000000000000000000                                                  20210426000000121
002DESADV403607600200240291630000054036076002002403607600200200000000000004036076002002000000000000002021051920210519                                                                      0                                             99                                   000 0000000000000000000000000000006195892202106195892001511                    2021003898870002EUR40472285265435509074255-0907/429100099055-0907/42 91000990DOB GÜRTEL     42               00000   95      00                              010000000000000000200000000000000000000                                                  20210426000000121
002DESADV403607600200240291630000054036076002002403607600200200000000000004036076002002000000000000002021051920210519                                                                      0                                             99                                   000 0000000000000000000000000000006195892202106195892001511                    2021003898870002EUR40472285265505509074255-0907/429100099055-0907/42 91000990DOB GÜRTEL     42               00000  100      00                              010000000000000000200000000000000000000                                                  20210426000000121
002DESADV403607600200240291630000054036076002002403607600200200000000000004036076002002000000000000002021051920210519                                                                      0                                             99                                   000 0000000000000000000000000000006195892202106195892001511                    2021003898870002EUR40472285265675509074255-0907/429100099055-0907/42 91000990DOB GÜRTEL     42               00000  105      00                              010000000000000000200000000000000000000                                                  20210426000000121
002DESADV403607600200240291630000054036076002002403607600200200000000000004036076002002000000000000002021051920210519                                                                      0                                             99                                   000 0000000000000000000000000000006195892202106195892001511                    2021003898870003EUR40472285259355508670255-0867/029100099055-0867/02 91000990DOB GÜRTEL     02               00000   80      00                              012500000000000000200000000000000000000                                                  20210426000000121
002DESADV403607600200240291630000054036076002002403607600200200000000000004036076002002000000000000002021051920210519                                                                      0                                             99                                   000 0000000000000000000000000000006195892202106195892001511                    2021003898870003EUR40472279355515508670255-0867/029100099055-0867/02 91000990DOB GÜRTEL     02               00000   85      00                              012500000000000000200000000000000000000                                                  20210426000000121
002DESADV403607600200240291630000054036076002002403607600200200000000000004036076002002000000000000002021051920210519                                                                      0                                             99                                   000 0000000000000000000000000000006195892202106195892001511                    2021003898870003EUR40472279355685508670255-0867/029100099055-0867/02 91000990DOB GÜRTEL     02               00000   90      00                              012500000000000000200000000000000000000                                                  20210426000000121
002DESADV403607600200240291630000054036076002002403607600200200000000000004036076002002000000000000002021051920210519                                                                      0                                             99                                   000 0000000000000000000000000000006195892202106195892001511                    2021003898870003EUR40472285259425508670255-0867/029100099055-0867/02 91000990DOB GÜRTEL     02               00000   95      00                              012500000000000000200000000000000000000                                                  20210426000000121
002DESADV403607600200240291630000054036076002002403607600200200000000000004036076002002000000000000002021051920210519                                                                      0                                             99                                   000 0000000000000000000000000000006195892202106195892001511                    2021003898870003EUR40472285259595508670255-0867/029100099055-0867/02 91000990DOB GÜRTEL     02               00000  100      00                              012500000000000000200000000000000000000                                                  20210426000000121
002DESADV403607600200240291630000054036076002002403607600200200000000000004036076002002000000000000002021051920210519                                                                      0                                             99                                   000 0000000000000000000000000000006195892202106195892001511                    2021003898870003EUR40472285259665508670255-0867/029100099055-0867/02 91000990DOB GÜRTEL     02               00000  105      00                              012500000000000000200000000000000000000                                                  20210426000000121
002DESADV403607600200240291630000054036076002002403607600200200000000000004036076002002000000000000002021051920210519                                                                      0                                             99                                   000 0000000000000000000000000000006195892202106195892001511                    2021003898870004EUR40472285259805508675255-0867/529100099055-0867/52 91000990DOB GÜRTEL     52               00000   80      00                              012500000000000000200000000000000000000                                                  20210426000000121
002DESADV403607600200240291630000054036076002002403607600200200000000000004036076002002000000000000002021051920210519                                                                      0                                             99                                   000 0000000000000000000000000000006195892202106195892001511                    2021003898870004EUR40472279355755508675255-0867/529100099055-0867/52 91000990DOB GÜRTEL     52               00000   85      00                              012500000000000000200000000000000000000                                                  20210426000000121
002DESADV403607600200240291630000054036076002002403607600200200000000000004036076002002000000000000002021051920210519                                                                      0                                             99                                   000 0000000000000000000000000000006195892202106195892001511                    2021003898870004EUR40472279355825508675255-0867/529100099055-0867/52 91000990DOB GÜRTEL     52               00000   90      00                              012500000000000000200000000000000000000                                                  20210426000000121
002DESADV403607600200240291630000054036076002002403607600200200000000000004036076002002000000000000002021051920210519                                                                      0                                             99                                   000 0000000000000000000000000000006195892202106195892001511                    2021003898870004EUR40472285259975508675255-0867/529100099055-0867/52 91000990DOB GÜRTEL     52               00000   95      00                              012500000000000000200000000000000000000                                                  20210426000000121
002DESADV403607600200240291630000054036076002002403607600200200000000000004036076002002000000000000002021051920210519                                                                      0                                             99                                   000 0000000000000000000000000000006195892202106195892001511                    2021003898870004EUR40472285260005508675255-0867/529100099055-0867/52 91000990DOB GÜRTEL     52               00000  100      00                              012500000000000000200000000000000000000                                                  20210426000000121
002DESADV403607600200240291630000054036076002002403607600200200000000000004036076002002000000000000002021051920210519                                                                      0                                             99                                   000 0000000000000000000000000000006195892202106195892001511                    2021003898870004EUR40472285260175508675255-0867/529100099055-0867/52 91000990DOB GÜRTEL     52               00000  105      00                              012500000000000000200000000000000000000                                                  20210426000000121
002DESADV403607600200240291630000054036076002002403607600200200000000000004036076002002000000000000002021051920210519                                                                      0                                             99                                   000 0000000000000000000000000000006195892202106195892001511                    2021003898870005EUR40472291714215509270255-0927/029100099055-0927/02 91000990DOB GÜRTEL     02               00000   80      00                              010000000000000000200000000000000000000                                                  20210426000000121
002DESADV403607600200240291630000054036076002002403607600200200000000000004036076002002000000000000002021051920210519                                                                      0                                             99                                   000 0000000000000000000000000000006195892202106195892001511                    2021003898870005EUR40472291714385509270255-0927/029100099055-0927/02 91000990DOB GÜRTEL     02               00000   85      00                              010000000000000000200000000000000000000                                                  20210426000000121
002DESADV403607600200240291630000054036076002002403607600200200000000000004036076002002000000000000002021051920210519                                                                      0                                             99                                   000 0000000000000000000000000000006195892202106195892001511                    2021003898870005EUR40472291714455509270255-0927/029100099055-0927/02 91000990DOB GÜRTEL     02               00000   90      00                              010000000000000000200000000000000000000                                                  20210426000000121
002DESADV403607600200240291630000054036076002002403607600200200000000000004036076002002000000000000002021051920210519                                                                      0                                             99                                   000 0000000000000000000000000000006195892202106195892001511                    2021003898870005EUR40472291714525509270255-0927/029100099055-0927/02 91000990DOB GÜRTEL     02               00000   95      00                              010000000000000000200000000000000000000                                                  20210426000000121
002DESADV403607600200240291630000054036076002002403607600200200000000000004036076002002000000000000002021051920210519                                                                      0                                             99                                   000 0000000000000000000000000000006195892202106195892001511                    2021003898870005EUR40472291714695509270255-0927/029100099055-0927/02 91000990DOB GÜRTEL     02               00000  100      00                              010000000000000000200000000000000000000                                                  20210426000000121
002DESADV403607600200240291630000054036076002002403607600200200000000000004036076002002000000000000002021051920210519                                                                      0                                             99                                   000 0000000000000000000000000000006195892202106195892001511                    2021003898870006EUR40472285267725509272255-0927/229100099055-0927/22 91000990DOB GÜRTEL     22               00000   75      00                              010000000000000000200000000000000000000                                                  20210426000000121
002DESADV403607600200240291630000054036076002002403607600200200000000000004036076002002000000000000002021051920210519                                                                      0                                             99                                   000 0000000000000000000000000000006195892202106195892001511                    2021003898870006EUR40472285267895509272255-0927/229100099055-0927/22 91000990DOB GÜRTEL     22               00000   80      00                              010000000000000000200000000000000000000                                                  20210426000000121
002DESADV403607600200240291630000054036076002002403607600200200000000000004036076002002000000000000002021051920210519                                                                      0                                             99                                   000 0000000000000000000000000000006195892202106195892001511                    2021003898870006EUR40472279352305509272255-0927/229100099055-0927/22 91000990DOB GÜRTEL     22               00000   85      00                              010000000000000000200000000000000000000                                                  20210426000000121
002DESADV403607600200240291630000054036076002002403607600200200000000000004036076002002000000000000002021051920210519                                                                      0                                             99                                   000 0000000000000000000000000000006195892202106195892001511                    2021003898870006EUR40472279352475509272255-0927/229100099055-0927/22 91000990DOB GÜRTEL     22               00000   90      00                              010000000000000000200000000000000000000                                                  20210426000000121
002DESADV403607600200240291630000054036076002002403607600200200000000000004036076002002000000000000002021051920210519                                                                      0                                             99                                   000 0000000000000000000000000000006195892202106195892001511                    2021003898870006EUR40472285267965509272255-0927/229100099055-0927/22 91000990DOB GÜRTEL     22               00000   95      00                              010000000000000000200000000000000000000                                                  20210426000000121
002DESADV403607600200240291630000054036076002002403607600200200000000000004036076002002000000000000002021051920210519                                                                      0                                             99                                   000 0000000000000000000000000000006195892202106195892001511                    2021003898870006EUR40472285268025509272255-0927/229100099055-0927/22 91000990DOB GÜRTEL     22               00000  100      00                              010000000000000000200000000000000000000                                                  20210426000000121
002DESADV403607600200240291630000054036076002002403607600200200000000000004036076002002000000000000002021051920210519                                                                      0                                             99                                   000 0000000000000000000000000000006195892202106195892001511                    2021003898870007EUR40472285269705509276555-0927/659100099055-0927/65 91000990DOB GÜRTEL     65               00000   75      00                              010000000000000000200000000000000000000                                                  20210426000000121
002DESADV403607600200240291630000054036076002002403607600200200000000000004036076002002000000000000002021051920210519                                                                      0                                             99                                   000 0000000000000000000000000000006195892202106195892001511                    2021003898870007EUR40472285269875509276555-0927/659100099055-0927/65 91000990DOB GÜRTEL     65               00000   80      00                              010000000000000000200000000000000000000                                                  20210426000000121
002DESADV403607600200240291630000054036076002002403607600200200000000000004036076002002000000000000002021051920210519                                                                      0                                             99                                   000 0000000000000000000000000000006195892202106195892001511                    2021003898870007EUR40472279353155509276555-0927/659100099055-0927/65 91000990DOB GÜRTEL     65               00000   85      00                              010000000000000000200000000000000000000                                                  20210426000000121
002DESADV403607600200240291630000054036076002002403607600200200000000000004036076002002000000000000002021051920210519                                                                      0                                             99                                   000 0000000000000000000000000000006195892202106195892001511                    2021003898870007EUR40472279353225509276555-0927/659100099055-0927/65 91000990DOB GÜRTEL     65               00000   90      00                              010000000000000000200000000000000000000                                                  20210426000000121
002DESADV403607600200240291630000054036076002002403607600200200000000000004036076002002000000000000002021051920210519                                                                      0                                             99                                   000 0000000000000000000000000000006195892202106195892001511                    2021003898870007EUR40472285269945509276555-0927/659100099055-0927/65 91000990DOB GÜRTEL     65               00000   95      00                              010000000000000000200000000000000000000                                                  20210426000000121
002DESADV403607600200240291630000054036076002002403607600200200000000000004036076002002000000000000002021051920210519                                                                      0                                             99                                   000 0000000000000000000000000000006195892202106195892001511                    2021003898870007EUR40472285270075509276555-0927/659100099055-0927/65 91000990DOB GÜRTEL     65               00000  100      00                              010000000000000000200000000000000000000                                                  20210426000000121
002DESADV403607600200240291630000054036076002002403607600200200000000000004036076002002000000000000002021051920210519                                                                      0                                             99                                   000 0000000000000000000000000000006195892202106195892001511                    2021003898870007EUR40472285270145509276555-0927/659100099055-0927/65 91000990DOB GÜRTEL     65               00000  105      00                              010000000000000000100000000000000000000                                                  20210426000000121
003DESADV403607600200240291630000054036076002002403607600200200000000000004036076002002000000000000002021051920210519                                                                      0                                             99                                   000 0000000000000000000000000000006195892202106195892001511                    0000000000000000EUR000000000000000000000          00000000                                  00               00000           00                              000000000000000008100000000000000000000                                                  00000000000000000
001DESADV403607600200240291631100014036076002002403607600200200000000000004036076002002000000000000002021051820210518                                                                      0                                             99                                   000 0000000000000000000000000000006196361202106196361001511                    0000000000000000EUR000000000000000000000          00000000                                  00               00000           00                              000000000000000000000000000000000000000                                                  00000000000000000
002DESADV403607600200240291631100014036076002002403607600200200000000000004036076002002000000000000002021051820210518                                                                      0                                             99                                   000 0000000000000000000000000000006196361202106196361001511400330              2021004003300001EUR40645021654725403970254-0397/027100079054-0397/02 71000790BRAX HAKAGÜRTEL02               00000   90      00                              014300000000000000200000000000000000000                                                  20210517000000121
002DESADV403607600200240291631100014036076002002403607600200200000000000004036076002002000000000000002021051820210518                                                                      0                                             99                                   000 0000000000000000000000000000006196361202106196361001511400330              2021004003300001EUR40645021654895403970254-0397/027100079054-0397/02 71000790BRAX HAKAGÜRTEL02               00000   95      00                              014300000000000000300000000000000000000                                                  20210517000000121
002DESADV403607600200240291631100014036076002002403607600200200000000000004036076002002000000000000002021051820210518                                                                      0                                             99                                   000 0000000000000000000000000000006196361202106196361001511400330              2021004003300001EUR40645021654965403970254-0397/027100079054-0397/02 71000790BRAX HAKAGÜRTEL02               00000  100      00                              014300000000000000300000000000000000000                                                  20210517000000121
002DESADV403607600200240291631100014036076002002403607600200200000000000004036076002002000000000000002021051820210518                                                                      0                                             99                                   000 0000000000000000000000000000006196361202106196361001511400330              2021004003300001EUR40645021655025403970254-0397/027100079054-0397/02 71000790BRAX HAKAGÜRTEL02               00000  105      00                              014300000000000000300000000000000000000                                                  20210517000000121
002DESADV403607600200240291631100014036076002002403607600200200000000000004036076002002000000000000002021051820210518                                                                      0                                             99                                   000 0000000000000000000000000000006196361202106196361001511400330              2021004003300001EUR40645021655195403970254-0397/027100079054-0397/02 71000790BRAX HAKAGÜRTEL02               00000  110      00                              014300000000000000300000000000000000000                                                  20210517000000121
002DESADV403607600200240291631100014036076002002403607600200200000000000004036076002002000000000000002021051820210518                                                                      0                                             99                                   000 0000000000000000000000000000006196361202106196361001511400330              2021004003300001EUR40645021655265403970254-0397/027100079054-0397/02 71000790BRAX HAKAGÜRTEL02               00000  115      00                              014300000000000000200000000000000000000                                                  20210517000000121
002DESADV403607600200240291631100014036076002002403607600200200000000000004036076002002000000000000002021051820210518                                                                      0                                             99                                   000 0000000000000000000000000000006196361202106196361001511400330              2021004003300001EUR40645021655335403970254-0397/027100079054-0397/02 71000790BRAX HAKAGÜRTEL02               00000  120      00                              014300000000000000200000000000000000000                                                  20210517000000121
002DESADV403607600200240291631100014036076002002403607600200200000000000004036076002002000000000000002021051820210518                                                                      0                                             99                                   000 0000000000000000000000000000006196361202106196361001511400330              2021004003300002EUR40645021655575403972254-0397/227100079054-0397/22 71000790BRAX HAKAGÜRTEL22               00000   90      00                              014300000000000000200000000000000000000                                                  20210517000000121
002DESADV403607600200240291631100014036076002002403607600200200000000000004036076002002000000000000002021051820210518                                                                      0                                             99                                   000 0000000000000000000000000000006196361202106196361001511400330              2021004003300002EUR40645021655645403972254-0397/227100079054-0397/22 71000790BRAX HAKAGÜRTEL22               00000   95      00                              014300000000000000300000000000000000000                                                  20210517000000121
002DESADV403607600200240291631100014036076002002403607600200200000000000004036076002002000000000000002021051820210518                                                                      0                                             99                                   000 0000000000000000000000000000006196361202106196361001511400330              2021004003300002EUR40645021655715403972254-0397/227100079054-0397/22 71000790BRAX HAKAGÜRTEL22               00000  100      00                              014300000000000000300000000000000000000                                                  20210517000000121
002DESADV403607600200240291631100014036076002002403607600200200000000000004036076002002000000000000002021051820210518                                                                      0                                             99                                   000 0000000000000000000000000000006196361202106196361001511400330              2021004003300002EUR40645021655885403972254-0397/227100079054-0397/22 71000790BRAX HAKAGÜRTEL22               00000  105      00                              014300000000000000300000000000000000000                                                  20210517000000121
002DESADV403607600200240291631100014036076002002403607600200200000000000004036076002002000000000000002021051820210518                                                                      0                                             99                                   000 0000000000000000000000000000006196361202106196361001511400330              2021004003300002EUR40645021655955403972254-0397/227100079054-0397/22 71000790BRAX HAKAGÜRTEL22               00000  110      00                              014300000000000000300000000000000000000                                                  20210517000000121
002DESADV403607600200240291631100014036076002002403607600200200000000000004036076002002000000000000002021051820210518                                                                      0                                             99                                   000 0000000000000000000000000000006196361202106196361001511400330              2021004003300002EUR40645021656015403972254-0397/227100079054-0397/22 71000790BRAX HAKAGÜRTEL22               00000  115      00                              014300000000000000200000000000000000000                                                  20210517000000121
002DESADV403607600200240291631100014036076002002403607600200200000000000004036076002002000000000000002021051820210518                                                                      0                                             99                                   000 0000000000000000000000000000006196361202106196361001511400330              2021004003300003EUR40645021656255403975254-0397/527100079054-0397/52 71000790BRAX HAKAGÜRTEL52               00000   90      00                              014300000000000000200000000000000000000                                                  20210517000000121
002DESADV403607600200240291631100014036076002002403607600200200000000000004036076002002000000000000002021051820210518                                                                      0                                             99                                   000 0000000000000000000000000000006196361202106196361001511400330              2021004003300003EUR40645021656325403975254-0397/527100079054-0397/52 71000790BRAX HAKAGÜRTEL52               00000   95      00                              014300000000000000300000000000000000000                                                  20210517000000121
002DESADV403607600200240291631100014036076002002403607600200200000000000004036076002002000000000000002021051820210518                                                                      0                                             99                                   000 0000000000000000000000000000006196361202106196361001511400330              2021004003300003EUR40645021656495403975254-0397/527100079054-0397/52 71000790BRAX HAKAGÜRTEL52               00000  100      00                              014300000000000000300000000000000000000                                                  20210517000000121
002DESADV403607600200240291631100014036076002002403607600200200000000000004036076002002000000000000002021051820210518                                                                      0                                             99                                   000 0000000000000000000000000000006196361202106196361001511400330              2021004003300003EUR40645021656565403975254-0397/527100079054-0397/52 71000790BRAX HAKAGÜRTEL52               00000  105      00                              014300000000000000300000000000000000000                                                  20210517000000121
002DESADV403607600200240291631100014036076002002403607600200200000000000004036076002002000000000000002021051820210518                                                                      0                                             99                                   000 0000000000000000000000000000006196361202106196361001511400330              2021004003300003EUR40645021656635403975254-0397/527100079054-0397/52 71000790BRAX HAKAGÜRTEL52               00000  110      00                              014300000000000000300000000000000000000                                                  20210517000000121
002DESADV403607600200240291631100014036076002002403607600200200000000000004036076002002000000000000002021051820210518                                                                      0                                             99                                   000 0000000000000000000000000000006196361202106196361001511400330              2021004003300003EUR40645021656705403975254-0397/527100079054-0397/52 71000790BRAX HAKAGÜRTEL52               00000  115      00                              014300000000000000200000000000000000000                                                  20210517000000121
002DESADV403607600200240291631100014036076002002403607600200200000000000004036076002002000000000000002021051820210518                                                                      0                                             99                                   000 0000000000000000000000000000006196361202106196361001511400330              2021004003300004EUR40645021656945403975554-0397/557100079054-0397/55 71000790BRAX HAKAGÜRTEL55               00000   90      00                              014300000000000000200000000000000000000                                                  20210517000000121
002DESADV403607600200240291631100014036076002002403607600200200000000000004036076002002000000000000002021051820210518                                                                      0                                             99                                   000 0000000000000000000000000000006196361202106196361001511400330              2021004003300004EUR40645021657005403975554-0397/557100079054-0397/55 71000790BRAX HAKAGÜRTEL55               00000   95      00                              014300000000000000300000000000000000000                                                  20210517000000121
002DESADV403607600200240291631100014036076002002403607600200200000000000004036076002002000000000000002021051820210518                                                                      0                                             99                                   000 0000000000000000000000000000006196361202106196361001511400330              2021004003300004EUR40645021657175403975554-0397/557100079054-0397/55 71000790BRAX HAKAGÜRTEL55               00000  100      00                              014300000000000000300000000000000000000                                                  20210517000000121
002DESADV403607600200240291631100014036076002002403607600200200000000000004036076002002000000000000002021051820210518                                                                      0                                             99                                   000 0000000000000000000000000000006196361202106196361001511400330              2021004003300004EUR40645021657245403975554-0397/557100079054-0397/55 71000790BRAX HAKAGÜRTEL55               00000  105      00                              014300000000000000300000000000000000000                                                  20210517000000121
002DESADV403607600200240291631100014036076002002403607600200200000000000004036076002002000000000000002021051820210518                                                                      0                                             99                                   000 0000000000000000000000000000006196361202106196361001511400330              2021004003300004EUR40645021657315403975554-0397/557100079054-0397/55 71000790BRAX HAKAGÜRTEL55               00000  110      00                              014300000000000000300000000000000000000                                                  20210517000000121
002DESADV403607600200240291631100014036076002002403607600200200000000000004036076002002000000000000002021051820210518                                                                      0                                             99                                   000 0000000000000000000000000000006196361202106196361001511400330              2021004003300004EUR40645021657485403975554-0397/557100079054-0397/55 71000790BRAX HAKAGÜRTEL55               00000  115      00                              014300000000000000200000000000000000000                                                  20210517000000121
002DESADV403607600200240291631100014036076002002403607600200200000000000004036076002002000000000000002021051820210518                                                                      0                                             99                                   000 0000000000000000000000000000006196361202106196361001511400330              2021004003300004EUR40645021657555403975554-0397/557100079054-0397/55 71000790BRAX HAKAGÜRTEL55               00000  120      00                              014300000000000000200000000000000000000                                                  20210517000000121
003DESADV403607600200240291631100014036076002002403607600200200000000000004036076002002000000000000002021051820210518                                                                      0                                             99                                   000 0000000000000000000000000000006196361202106196361001511                    0000000000000000EUR000000000000000000000          00000000                                  00               00000           00                              000000000000000006800000000000000000000                                                  00000000000000000
