001DESADV403607600200240291631100014036076002002403607600200200000000000004036076002002000000000000002021062220210622                                                                      0                                             15                                   000 0000000000000000000000000000005821976202105821976001511                    0000000000000000EUR000000000000000000000          00000000                                  00               00000           00                              000000000000000000000000000000000000000                                                  00000000000000000
002DESADV403607600200240291631100014036076002002403607600200200000000000004036076002002000000000000002021062220210622                                                                      0                                             15                                   000 0000000000000000000000000000005821976202105821976001511                    2021004154420005EUR40644987236708411542384-1154/230788412084-1154/23 07884120STYLE.CADIZ U  23               0000036/34      00                              040200000000000000100000000000000000000                                                  20210611000000121
003DESADV403607600200240291631100014036076002002403607600200200000000000004036076002002000000000000002021062220210622                                                                      0                                             15                                   000 0000000000000000000000000000005821976202105821976001511                    0000000000000000EUR000000000000000000000          00000000                                  00               00000           00                              000000000000000000100000000000000000000                                                  00000000000000000
001DESADV403607600200240291631100014036076002002403607600200200000000000004036076002002000000000000002021062220210622                                                                      0                                             15                                   000 0000000000000000000000000000005823688202105823688001511                    0000000000000000EUR000000000000000000000          00000000                                  00               00000           00                              000000000000000000000000000000000000000                                                  00000000000000000
002DESADV403607600200240291631100014036076002002403607600200200000000000004036076002002000000000000002021062220210622                                                                      0                                             15                                   000 0000000000000000000000000000005823688202105823688001511RT685049_1511_1     2021004239740001EUR40644998241234270172342-7017/239411740042-7017/23 94117400STYLE.VICTORIA 23               00000   44      00                              036300000000000000100000000000000000000                                                  20210621000000121
002DESADV403607600200240291631100014036076002002403607600200200000000000004036076002002000000000000002021062220210622                                                                      0                                             15                                   000 0000000000000000000000000000005823688202105823688001511RT685049_1511_1     2021004239740002EUR40644998243384270172342-7017/239416800042-7017/23 94168000STYLE.VELIA    23               00000   38      00                              032400000000000000100000000000000000000                                                  20210621000000121
002DESADV403607600200240291631100014036076002002403607600200200000000000004036076002002000000000000002021062220210622                                                                      0                                             15                                   000 0000000000000000000000000000005823688202105823688001511RT685049_1511_1     2021004239740002EUR40644998243694270172342-7017/239416800042-7017/23 94168000STYLE.VELIA    23               00000   44      00                              032400000000000000100000000000000000000                                                  20210621000000121
002DESADV403607600200240291631100014036076002002403607600200200000000000004036076002002000000000000002021062220210622                                                                      0                                             15                                   000 0000000000000000000000000000005823688202105823688001511RT685049_1511_1     2021004239740003EUR40644998244134270174742-7017/479416800042-7017/47 94168000STYLE.VELIA    47               00000   38      00                              032400000000000000100000000000000000000                                                  20210621000000121
002DESADV403607600200240291631100014036076002002403607600200200000000000004036076002002000000000000002021062220210622                                                                      0                                             15                                   000 0000000000000000000000000000005823688202105823688001511RT685049_1511_1     2021004239740004EUR40644998242844270179942-7017/999411740042-7017/99 94117400STYLE.VICTORIA 99               00000   44      00                              036300000000000000100000000000000000000                                                  20210621000000121
002DESADV403607600200240291631100014036076002002403607600200200000000000004036076002002000000000000002021062220210622                                                                      0                                             15                                   000 0000000000000000000000000000005823688202105823688001511RT685049_1511_1     2021004239740005EUR40644998246734270179942-7017/999416800042-7017/99 94168000STYLE.VELIA    99               00000   42      00                              032400000000000000100000000000000000000                                                  20210621000000121
002DESADV403607600200240291631100014036076002002403607600200200000000000004036076002002000000000000002021062220210622                                                                      0                                             15                                   000 0000000000000000000000000000005823688202105823688001511RT685049_1511_1     2021004239740006EUR40472285320564468176344-6817/639415250044-6817/63 94152500STYLE.VELIA    63               00000   46      00                              020600000000000000100000000000000000000                                                  20210621000000121
002DESADV403607600200240291631100014036076002002403607600200200000000000004036076002002000000000000002021062220210622                                                                      0                                             15                                   000 0000000000000000000000000000005823688202105823688001511RT685049_1511_1     2021004239740009EUR40472259323164475478544-7547/859415710044-7547/85 94157100STYLE.VAL      85               00000   44      00                              025400000000000000100000000000000000000                                                  20210621000000121
002DESADV403607600200240291631100014036076002002403607600200200000000000004036076002002000000000000002021062220210622                                                                      0                                             15                                   000 0000000000000000000000000000005823688202105823688001511RT685049_1511_1     2021004239740009EUR40472259323234475478544-7547/859415710044-7547/85 94157100STYLE.VAL      85               00000   46      00                              025400000000000000100000000000000000000                                                  20210621000000121
002DESADV403607600200240291631100014036076002002403607600200200000000000004036076002002000000000000002021062220210622                                                                      0                                             15                                   000 0000000000000000000000000000005823688202105823688001511RT685049_1511_1     2021004239740010EUR40472285766164475574744-7557/479411450044-7557/47 94114500STYLE. VIANA   47               00000   44      00                              032400000000000000100000000000000000000                                                  20210621000000121
003DESADV403607600200240291631100014036076002002403607600200200000000000004036076002002000000000000002021062220210622                                                                      0                                             15                                   000 0000000000000000000000000000005823688202105823688001511                    0000000000000000EUR000000000000000000000          00000000                                  00               00000           00                              000000000000000001000000000000000000000                                                  00000000000000000
001DESADV403607600200240291631100014036076002002403607600200200000000000004036076002002000000000000002021062220210622                                                                      0                                             15                                   000 0000000000000000000000000000008378525202108378525001511                    0000000000000000EUR000000000000000000000          00000000                                  00               00000           00                              000000000000000000000000000000000000000                                                  00000000000000000
002DESADV403607600200240291631100014036076002002403607600200200000000000004036076002002000000000000002021062220210622                                                                      0                                             15                                   000 0000000000000000000000000000008378525202108378525001511RT821046_1511_1     2021004237520001EUR40644998150152245071822-4507/187043400022-4507/18 70434000STYLE.PETE     18               00000    L      00                              028400000000000000100000000000000000000                                                  20210621000000121
002DESADV403607600200240291631100014036076002002403607600200200000000000004036076002002000000000000002021062220210622                                                                      0                                             15                                   000 0000000000000000000000000000008378525202108378525001511RT821046_1511_1     2021004237520002EUR40644998151142245072322-4507/237043400022-4507/23 70434000STYLE.PETE     23               00000    L      00                              028400000000000000100000000000000000000                                                  20210621000000121
002DESADV403607600200240291631100014036076002002403607600200200000000000004036076002002000000000000002021062220210622                                                                      0                                             15                                   000 0000000000000000000000000000008378525202108378525001511RT821046_1511_1     2021004237520002EUR40644998151382245072322-4507/237043400022-4507/23 70434000STYLE.PETE     23               00000  XXL      00                              028400000000000000200000000000000000000                                                  20210621000000121
002DESADV403607600200240291631100014036076002002403607600200200000000000004036076002002000000000000002021062220210622                                                                      0                                             15                                   000 0000000000000000000000000000008378525202108378525001511RT821046_1511_1     2021004237520003EUR40644998157252247672322-4767/237043890022-4767/23 70438900STYLE.POLLUX   23               00000   XL      00                              032400000000000000100000000000000000000                                                  20210621000000121
002DESADV403607600200240291631100014036076002002403607600200200000000000004036076002002000000000000002021062220210622                                                                      0                                             15                                   000 0000000000000000000000000000008378525202108378525001511RT821046_1511_1     2021004237520003EUR40644998157322247672322-4767/237043890022-4767/23 70438900STYLE.POLLUX   23               00000  XXL      00                              032400000000000000200000000000000000000                                                  20210621000000121
002DESADV403607600200240291631100014036076002002403607600200200000000000004036076002002000000000000002021062220210622                                                                      0                                             15                                   000 0000000000000000000000000000008378525202108378525001511RT821046_1511_1     2021004237520004EUR40644998159162247672622-4767/267043840022-4767/26 70438400STYLE.PETTER   26               00000    L      00                              015000000000000000100000000000000000000                                                  20210621000000121
002DESADV403607600200240291631100014036076002002403607600200200000000000004036076002002000000000000002021062220210622                                                                      0                                             15                                   000 0000000000000000000000000000008378525202108378525001511RT821046_1511_1     2021004237520006EUR40448192851792247675322-4767/537043840022-4767/53 70438400STYLE.PETTER   53               00000   XL      00                              015000000000000000100000000000000000000                                                  20210621000000121
002DESADV403607600200240291631100014036076002002403607600200200000000000004036076002002000000000000002021062220210622                                                                      0                                             15                                   000 0000000000000000000000000000008378525202108378525001511RT821046_1511_1     2021004237520007EUR40644998162412247872322-4787/237043830022-4787/23 70438300STYLE.PIETER   23               00000 XXXL      00                              035650000000000000100000000000000000000                                                  20210621000000121
003DESADV403607600200240291631100014036076002002403607600200200000000000004036076002002000000000000002021062220210622                                                                      0                                             15                                   000 0000000000000000000000000000008378525202108378525001511                    0000000000000000EUR000000000000000000000          00000000                                  00               00000           00                              000000000000000001000000000000000000000                                                  00000000000000000
001DESADV403607600200240291631100014036076002002403607600200200000000000004036076002002000000000000002021062220210622                                                                      0                                             15                                   000 0000000000000000000000000000008378526202108378526001511                    0000000000000000EUR000000000000000000000          00000000                                  00               00000           00                              000000000000000000000000000000000000000                                                  00000000000000000
002DESADV403607600200240291631100014036076002002403607600200200000000000004036076002002000000000000002021062220210622                                                                      0                                             15                                   000 0000000000000000000000000000008378526202108378526001511RT684049_1511_1     2021004239580001EUR40644998233173234374632-3437/469064580032-3437/46 90645800STYLE.CLEO     46               00000   42      00                              024500000000000000100000000000000000000                                                  20210621000000121
002DESADV403607600200240291631100014036076002002403607600200200000000000004036076002002000000000000002021062220210622                                                                      0                                             15                                   000 0000000000000000000000000000008378526202108378526001511RT684049_1511_1     2021004239580003EUR40644998234783234378632-3437/869064580032-3437/86 90645800STYLE.CLEO     86               00000   42      00                              024500000000000000100000000000000000000                                                  20210621000000121
002DESADV403607600200240291631100014036076002002403607600200200000000000004036076002002000000000000002021062220210622                                                                      0                                             15                                   000 0000000000000000000000000000008378526202108378526001511RT684049_1511_1     2021004239580004EUR40644998236383234378832-3437/889064580032-3437/88 90645800STYLE.CLEO     88               00000   42      00                              024500000000000000100000000000000000000                                                  20210621000000121
002DESADV403607600200240291631100014036076002002403607600200200000000000004036076002002000000000000002021062220210622                                                                      0                                             15                                   000 0000000000000000000000000000008378526202108378526001511RT684049_1511_1     2021004239580005EUR40644998240313234478832-3447/889064590032-3447/88 90645900STYLE.CLEO     88               00000   42      00                              028400000000000000100000000000000000000                                                  20210621000000121
002DESADV403607600200240291631100014036076002002403607600200200000000000004036076002002000000000000002021062220210622                                                                      0                                             15                                   000 0000000000000000000000000000008378526202108378526001511RT684049_1511_1     2021004239580006EUR40448192434213272179932-7217/999061270032-7217/99 90612700STYLE.RACHEL   99               0000040-42      00                              032400000000000000100000000000000000000                                                  20210621000000121
002DESADV403607600200240291631100014036076002002403607600200200000000000004036076002002000000000000002021062220210622                                                                      0                                             15                                   000 0000000000000000000000000000008378526202108378526001511RT684049_1511_1     2021004239580006EUR40448193392783272179932-7217/999061270032-7217/99 90612700STYLE.RACHEL   99               0000044-46      00                              032400000000000000100000000000000000000                                                  20210621000000121
002DESADV403607600200240291631100014036076002002403607600200200000000000004036076002002000000000000002021062220210622                                                                      0                                             15                                   000 0000000000000000000000000000008378526202108378526001511RT684049_1511_1     2021004239580007EUR40472273506513435873334-3587/339063120034-3587/33 90631200STYLE.COLLETTE 33               00000   40      00                              024500000000000000100000000000000000000                                                  20210621000000121
002DESADV403607600200240291631100014036076002002403607600200200000000000004036076002002000000000000002021062220210622                                                                      0                                             15                                   000 0000000000000000000000000000008378526202108378526001511RT684049_1511_1     2021004239580008EUR40472234374243452079834-5207/989062770034-5207/98 90627700STYLE.CAELEN   98               00000   40      00                              020600000000000000100000000000000000000                                                  20210621000000121
002DESADV403607600200240291631100014036076002002403607600200200000000000004036076002002000000000000002021062220210622                                                                      0                                             15                                   000 0000000000000000000000000000008378526202108378526001511RT684049_1511_1     2021004239580009EUR40472259291013472372334-7237/239062800034-7237/23 90628000STYLE.RACHEL   23               0000044-46      00                              022700000000000000100000000000000000000                                                  20210621000000121
002DESADV403607600200240291631100014036076002002403607600200200000000000004036076002002000000000000002021062220210622                                                                      0                                             15                                   000 0000000000000000000000000000008378526202108378526001511RT684049_1511_1     2021004239580010EUR40472285498493472574534-7257/459063160034-7257/45 90631600STYLE.RACHEL   45               00000   44      00                              032400000000000000100000000000000000000                                                  20210621000000121
002DESADV403607600200240291631100014036076002002403607600200200000000000004036076002002000000000000002021062220210622                                                                      0                                             15                                   000 0000000000000000000000000000008378526202108378526001511RT684049_1511_1     2021004239580011EUR40472285692123472772334-7277/239063190034-7277/23 90631900STYLE.CATHY    23               00000   40      00                              019900000000000000100000000000000000000                                                  20210621000000121
002DESADV403607600200240291631100014036076002002403607600200200000000000004036076002002000000000000002021062220210622                                                                      0                                             15                                   000 0000000000000000000000000000008378526202108378526001511RT684049_1511_1     2021004239580012EUR40472273508593472775834-7277/589063190034-7277/58 90631900STYLE.CATHY    58               00000   38      00                              019900000000000000100000000000000000000                                                  20210621000000121
003DESADV403607600200240291631100014036076002002403607600200200000000000004036076002002000000000000002021062220210622                                                                      0                                             15                                   000 0000000000000000000000000000008378526202108378526001511                    0000000000000000EUR000000000000000000000          00000000                                  00               00000           00                              000000000000000001200000000000000000000                                                  00000000000000000
