001DESADV403607600200240291631100014036076002002403607600200200000000000004036076002002000000000000002021060920210609                                                                      0                                             15                                   000 0000000000000000000000000000009265741202109265741001511                    0000000000000000EUR000000000000000000000          00000000                                  00               00000           00                              000000000000000000000000000000000000000                                                  00000000000000000
002DESADV403607600200240291631100014036076002002403607600200200000000000004036076002002000000000000002021060920210609                                                                      0                                             15                                   000 0000000000000000000000000000009265741202109265741001511RT661049_1511_1     2021004130690003EUR40472226361877060000270-6000/020999002070-6000/02 09990020STYLE.MARY     02               00000  46K      00                              040200000000000000100000000000000000000                                                  20210607000000121
002DESADV403607600200240291631100014036076002002403607600200200000000000004036076002002000000000000002021060920210609                                                                      0                                             15                                   000 0000000000000000000000000000009265741202109265741001511RT661049_1511_1     2021004130690004EUR40472260520827060002470-6000/240999002070-6000/24 09990020STYLE.MARY     24               00000   44      00                              040200000000000000100000000000000000000                                                  20210607000000121
002DESADV403607600200240291631100014036076002002403607600200200000000000004036076002002000000000000002021060920210609                                                                      0                                             15                                   000 0000000000000000000000000000009265741202109265741001511RT661049_1511_1     2021004130690004EUR40472260529217060002470-6000/240999002070-6000/24 09990020STYLE.MARY     24               00000  48K      00                              040200000000000000100000000000000000000                                                  20210607000000121
002DESADV403607600200240291631100014036076002002403607600200200000000000004036076002002000000000000002021060920210609                                                                      0                                             15                                   000 0000000000000000000000000000009265741202109265741001511RT661049_1511_1     2021004130690005EUR40472226357847060002470-6000/240999482070-6000/24 09994820STYLE.CAROLA   24               00000  42K      00                              040200000000000000100000000000000000000                                                  20210607000000121
002DESADV403607600200240291631100014036076002002403607600200200000000000004036076002002000000000000002021060920210609                                                                      0                                             15                                   000 0000000000000000000000000000009265741202109265741001511RT661049_1511_1     2021004130690005EUR40472226359377060002470-6000/240999482070-6000/24 09994820STYLE.CAROLA   24               00000  42L      00                              040200000000000000100000000000000000000                                                  20210607000000121
002DESADV403607600200240291631100014036076002002403607600200200000000000004036076002002000000000000002021060920210609                                                                      0                                             15                                   000 0000000000000000000000000000009265741202109265741001511RT661049_1511_1     2021004130690005EUR40472226357917060002470-6000/240999482070-6000/24 09994820STYLE.CAROLA   24               00000  44K      00                              040200000000000000100000000000000000000                                                  20210607000000121
002DESADV403607600200240291631100014036076002002403607600200200000000000004036076002002000000000000002021060920210609                                                                      0                                             15                                   000 0000000000000000000000000000009265741202109265741001511RT661049_1511_1     2021004130690009EUR40472244635907215570172-1557/010989482072-1557/01 09894820STYLE.CAROLA   01               00000   40      00                              040200000000000000100000000000000000000                                                  20210607000000121
002DESADV403607600200240291631100014036076002002403607600200200000000000004036076002002000000000000002021060920210609                                                                      0                                             15                                   000 0000000000000000000000000000009265741202109265741001511RT661049_1511_1     2021004130690017EUR40644997789217261575372-6157/530993862072-6157/53 09938620STYLE.SHAKIRA S53               00000   44      00                              039200000000000000200000000000000000000                                                  20210607000000121
002DESADV403607600200240291631100014036076002002403607600200200000000000004036076002002000000000000002021060920210609                                                                      0                                             15                                   000 0000000000000000000000000000009265741202109265741001511RT661049_1511_1     2021004130690017EUR40644997790897261575372-6157/530993862072-6157/53 09938620STYLE.SHAKIRA S53               00000  38K      00                              039200000000000000100000000000000000000                                                  20210607000000121
002DESADV403607600200240291631100014036076002002403607600200200000000000004036076002002000000000000002021060920210609                                                                      0                                             15                                   000 0000000000000000000000000000009265741202109265741001511RT661049_1511_1     2021004130690017EUR40644997790967261575372-6157/530993862072-6157/53 09938620STYLE.SHAKIRA S53               00000  40K      00                              039200000000000000100000000000000000000                                                  20210607000000121
002DESADV403607600200240291631100014036076002002403607600200200000000000004036076002002000000000000002021060920210609                                                                      0                                             15                                   000 0000000000000000000000000000009265741202109265741001511RT661049_1511_1     2021004130690018EUR40472257466927267670472-6767/040999752072-6767/04 09997520STYLE.CARO     04               00000   42      00                              039200000000000000100000000000000000000                                                  20210607000000121
002DESADV403607600200240291631100014036076002002403607600200200000000000004036076002002000000000000002021060920210609                                                                      0                                             15                                   000 0000000000000000000000000000009265741202109265741001511RT661049_1511_1     2021004130690022EUR40644997807887269474572-6947/450993862072-6947/45 09938620STYLE.SHAKIRA S45               00000   44      00                              039200000000000000100000000000000000000                                                  20210607000000121
002DESADV403607600200240291631100014036076002002403607600200200000000000004036076002002000000000000002021060920210609                                                                      0                                             15                                   000 0000000000000000000000000000009265741202109265741001511RT661049_1511_1     2021004130690022EUR40644997809797269474572-6947/450993862072-6947/45 09938620STYLE.SHAKIRA S45               00000  44K      00                              039200000000000000100000000000000000000                                                  20210607000000121
002DESADV403607600200240291631100014036076002002403607600200200000000000004036076002002000000000000002021060920210609                                                                      0                                             15                                   000 0000000000000000000000000000009265741202109265741001511RT661049_1511_1     2021004130690023EUR40644997810377269474772-6947/470993862072-6947/47 09938620STYLE.SHAKIRA S47               00000   36      00                              039200000000000000100000000000000000000                                                  20210607000000121
002DESADV403607600200240291631100014036076002002403607600200200000000000004036076002002000000000000002021060920210609                                                                      0                                             15                                   000 0000000000000000000000000000009265741202109265741001511RT661049_1511_1     2021004130690024EUR40472230102457410372374-1037/230986412074-1037/23 09864120STYLE.MARA S   23               00000   38      00                              040200000000000000100000000000000000000                                                  20210607000000121
002DESADV403607600200240291631100014036076002002403607600200200000000000004036076002002000000000000002021060920210609                                                                      0                                             15                                   000 0000000000000000000000000000009265741202109265741001511RT661049_1511_1     2021004130690024EUR40472232884607410372374-1037/230986412074-1037/23 09864120STYLE.MARA S   23               00000   42      00                              040200000000000000100000000000000000000                                                  20210607000000121
002DESADV403607600200240291631100014036076002002403607600200200000000000004036076002002000000000000002021060920210609                                                                      0                                             15                                   000 0000000000000000000000000000009265741202109265741001511RT661049_1511_1     2021004130690025EUR40472272223787412070274-1207/020985282074-1207/02 09852820STYLE.CAROLA   02               00000  46K      00                              040200000000000000100000000000000000000                                                  20210607000000121
002DESADV403607600200240291631100014036076002002403607600200200000000000004036076002002000000000000002021060920210609                                                                      0                                             15                                   000 0000000000000000000000000000009265741202109265741001511RT661049_1511_1     2021004130690026EUR40472259519597412072374-1207/230983842074-1207/23 09838420STYLE.MARY S   23               00000  38K      00                              026000000000000000100000000000000000000                                                  20210607000000121
002DESADV403607600200240291631100014036076002002403607600200200000000000004036076002002000000000000002021060920210609                                                                      0                                             15                                   000 0000000000000000000000000000009265741202109265741001511RT661049_1511_1     2021004130690027EUR40472259521787412072374-1207/230985272074-1207/23 09852720STYLE.CARO S   23               00000   46      00                              036300000000000000100000000000000000000                                                  20210607000000121
002DESADV403607600200240291631100014036076002002403607600200200000000000004036076002002000000000000002021060920210609                                                                      0                                             15                                   000 0000000000000000000000000000009265741202109265741001511RT661049_1511_1     2021004130690028EUR40472279226127412073374-1207/330983842074-1207/33 09838420STYLE.MARY S   33               00000   40      00                              026000000000000000100000000000000000000                                                  20210607000000121
002DESADV403607600200240291631100014036076002002403607600200200000000000004036076002002000000000000002021060920210609                                                                      0                                             15                                   000 0000000000000000000000000000009265741202109265741001511RT661049_1511_1     2021004130690028EUR40472279226297412073374-1207/330983842074-1207/33 09838420STYLE.MARY S   33               00000   42      00                              026000000000000000100000000000000000000                                                  20210607000000121
002DESADV403607600200240291631100014036076002002403607600200200000000000004036076002002000000000000002021060920210609                                                                      0                                             15                                   000 0000000000000000000000000000009265741202109265741001511RT661049_1511_1     2021004130690029EUR40472285314627412073374-1207/330985192074-1207/33 09851920STYLE.MARY C   33               00000   42      00                              032400000000000000100000000000000000000                                                  20210607000000121
002DESADV403607600200240291631100014036076002002403607600200200000000000004036076002002000000000000002021060920210609                                                                      0                                             15                                   000 0000000000000000000000000000009265741202109265741001511RT661049_1511_1     2021004130690030EUR40472279228897412073374-1207/330985272074-1207/33 09852720STYLE.CARO S   33               00000   42      00                              036300000000000000100000000000000000000                                                  20210607000000121
002DESADV403607600200240291631100014036076002002403607600200200000000000004036076002002000000000000002021060920210609                                                                      0                                             15                                   000 0000000000000000000000000000009265741202109265741001511RT661049_1511_1     2021004130690031EUR40472279233817412074574-1207/450985272074-1207/45 09852720STYLE.CARO S   45               00000   40      00                              036300000000000000100000000000000000000                                                  20210607000000121
002DESADV403607600200240291631100014036076002002403607600200200000000000004036076002002000000000000002021060920210609                                                                      0                                             15                                   000 0000000000000000000000000000009265741202109265741001511RT661049_1511_1     2021004130690032EUR40472232889587415072374-1507/230986412074-1507/23 09864120STYLE.MARA S   23               00000   42      00                              040200000000000000200000000000000000000                                                  20210607000000121
002DESADV403607600200240291631100014036076002002403607600200200000000000004036076002002000000000000002021060920210609                                                                      0                                             15                                   000 0000000000000000000000000000009265741202109265741001511RT661049_1511_1     2021004130690034EUR40472222451297415078474-1507/840986412074-1507/84 09864120STYLE.MARA S   84               00000   40      00                              040200000000000000100000000000000000000                                                  20210607000000121
002DESADV403607600200240291631100014036076002002403607600200200000000000004036076002002000000000000002021060920210609                                                                      0                                             15                                   000 0000000000000000000000000000009265741202109265741001511RT661049_1511_1     2021004130690035EUR40472259690227415573774-1557/370983602074-1557/37 09836020STYLE.MARA S   37               00000   40      00                              036300000000000000100000000000000000000                                                  20210607000000121
002DESADV403607600200240291631100014036076002002403607600200200000000000004036076002002000000000000002021060920210609                                                                      0                                             15                                   000 0000000000000000000000000000009265741202109265741001511RT661049_1511_1     2021004130690036EUR40472234171297415574374-1557/430983602074-1557/43 09836020STYLE.MARA S   43               00000   38      00                              036300000000000000100000000000000000000                                                  20210607000000121
002DESADV403607600200240291631100014036076002002403607600200200000000000004036076002002000000000000002021060920210609                                                                      0                                             15                                   000 0000000000000000000000000000009265741202109265741001511RT661049_1511_1     2021004130690036EUR40472234171367415574374-1557/430983602074-1557/43 09836020STYLE.MARA S   43               00000   40      00                              036300000000000000100000000000000000000                                                  20210607000000121
002DESADV403607600200240291631100014036076002002403607600200200000000000004036076002002000000000000002021060920210609                                                                      0                                             15                                   000 0000000000000000000000000000009265741202109265741001511RT661049_1511_1     2021004130690037EUR40472231548647419479974-1947/990983602074-1947/99 09836020STYLE.MARA S   99               00000   40      00                              040200000000000000100000000000000000000                                                  20210607000000121
002DESADV403607600200240291631100014036076002002403607600200200000000000004036076002002000000000000002021060920210609                                                                      0                                             15                                   000 0000000000000000000000000000009265741202109265741001511RT661049_1511_1     2021004130690038EUR40472258371617440072974-4007/290994242074-4007/29 09942420STYLE.MARY     29               00000   46      00                              040200000000000000100000000000000000000                                                  20210607000000121
002DESADV403607600200240291631100014036076002002403607600200200000000000004036076002002000000000000002021060920210609                                                                      0                                             15                                   000 0000000000000000000000000000009265741202109265741001511RT661049_1511_1     2021004130690038EUR40472258372777440072974-4007/290994242074-4007/29 09942420STYLE.MARY     29               00000  36K      00                              040200000000000000100000000000000000000                                                  20210607000000121
002DESADV403607600200240291631100014036076002002403607600200200000000000004036076002002000000000000002021060920210609                                                                      0                                             15                                   000 0000000000000000000000000000009265741202109265741001511RT661049_1511_1     2021004130690039EUR40472258492327440076574-4007/650991852074-4007/65 09918520STYLE.CAROLA   65               00000  46K      00                              036300000000000000100000000000000000000                                                  20210607000000121
002DESADV403607600200240291631100014036076002002403607600200200000000000004036076002002000000000000002021060920210609                                                                      0                                             15                                   000 0000000000000000000000000000009265741202109265741001511RT661049_1511_1     2021004130690040EUR40472258604977460872974-6087/290999012074-6087/29 09990120STYLE.SHAKIRA  29               00000  44K      00                              040200000000000000200000000000000000000                                                  20210607000000121
002DESADV403607600200240291631100014036076002002403607600200200000000000004036076002002000000000000002021060920210609                                                                      0                                             15                                   000 0000000000000000000000000000009265741202109265741001511RT661049_1511_1     2021004130690041EUR40472234848487461972574-6197/250999262074-6197/25 09992620STYLE.MARY S   25               00000   36      00                              040200000000000000100000000000000000000                                                  20210607000000121
002DESADV403607600200240291631100014036076002002403607600200200000000000004036076002002000000000000002021060920210609                                                                      0                                             15                                   000 0000000000000000000000000000009265741202109265741001511RT661049_1511_1     2021004130690041EUR40472234848867461972574-6197/250999262074-6197/25 09992620STYLE.MARY S   25               00000   40      00                              040200000000000000100000000000000000000                                                  20210607000000121
002DESADV403607600200240291631100014036076002002403607600200200000000000004036076002002000000000000002021060920210609                                                                      0                                             15                                   000 0000000000000000000000000000009265741202109265741001511RT661049_1511_1     2021004130690042EUR40472258784167466476574-6647/650993842074-6647/65 09938420STYLE.MARY S   65               00000   40      00                              036300000000000000100000000000000000000                                                  20210607000000121
002DESADV403607600200240291631100014036076002002403607600200200000000000004036076002002000000000000002021060920210609                                                                      0                                             15                                   000 0000000000000000000000000000009265741202109265741001511RT661049_1511_1     2021004130690043EUR40472234849477466478574-6647/850993842074-6647/85 09938420STYLE.MARY S   85               00000   40      00                              036300000000000000100000000000000000000                                                  20210607000000121
002DESADV403607600200240291631100014036076002002403607600200200000000000004036076002002000000000000002021060920210609                                                                      0                                             15                                   000 0000000000000000000000000000009265741202109265741001511RT661049_1511_1     2021004130690044EUR40472258799877466572374-6657/230993702074-6657/23 09937020STYLE.MARY     23               00000   42      00                              026000000000000000100000000000000000000                                                  20210607000000121
002DESADV403607600200240291631100014036076002002403607600200200000000000004036076002002000000000000002021060920210609                                                                      0                                             15                                   000 0000000000000000000000000000009265741202109265741001511RT661049_1511_1     2021004130690044EUR40472258801677466572374-6657/230993702074-6657/23 09937020STYLE.MARY     23               00000  46K      00                              026000000000000000100000000000000000000                                                  20210607000000121
002DESADV403607600200240291631100014036076002002403607600200200000000000004036076002002000000000000002021060920210609                                                                      0                                             15                                   000 0000000000000000000000000000009265741202109265741001511RT661049_1511_1     2021004130690045EUR40472285343577466572374-6657/230995192074-6657/23 09951920STYLE.MARY C   23               00000   42      00                              032400000000000000200000000000000000000                                                  20210607000000121
002DESADV403607600200240291631100014036076002002403607600200200000000000004036076002002000000000000002021060920210609                                                                      0                                             15                                   000 0000000000000000000000000000009265741202109265741001511RT661049_1511_1     2021004130690046EUR40472258816767466572674-6657/260993702074-6657/26 09937020STYLE.MARY     26               00000   44      00                              026000000000000000200000000000000000000                                                  20210607000000121
002DESADV403607600200240291631100014036076002002403607600200200000000000004036076002002000000000000002021060920210609                                                                      0                                             15                                   000 0000000000000000000000000000009265741202109265741001511RT661049_1511_1     2021004130690046EUR40472258818297466572674-6657/260993702074-6657/26 09937020STYLE.MARY     26               00000  42K      00                              026000000000000000100000000000000000000                                                  20210607000000121
002DESADV403607600200240291631100014036076002002403607600200200000000000004036076002002000000000000002021060920210609                                                                      0                                             15                                   000 0000000000000000000000000000009265741202109265741001511RT661049_1511_1     2021004130690047EUR40472285344637466572874-6657/280995192074-6657/28 09951920STYLE.MARY C   28               00000   42      00                              032400000000000000100000000000000000000                                                  20210607000000121
002DESADV403607600200240291631100014036076002002403607600200200000000000004036076002002000000000000002021060920210609                                                                      0                                             15                                   000 0000000000000000000000000000009265741202109265741001511RT661049_1511_1     2021004130690048EUR40472285345797466579974-6657/990995192074-6657/99 09951920STYLE.MARY C   99               00000   42      00                              032400000000000000100000000000000000000                                                  20210607000000121
002DESADV403607600200240291631100014036076002002403607600200200000000000004036076002002000000000000002021060920210609                                                                      0                                             15                                   000 0000000000000000000000000000009265741202109265741001511RT661049_1511_1     2021004130690048EUR40472285345867466579974-6657/990995192074-6657/99 09951920STYLE.MARY C   99               00000   44      00                              032400000000000000100000000000000000000                                                  20210607000000121
003DESADV403607600200240291631100014036076002002403607600200200000000000004036076002002000000000000002021060920210609                                                                      0                                             15                                   000 0000000000000000000000000000009265741202109265741001511                    0000000000000000EUR000000000000000000000          00000000                                  00               00000           00                              000000000000000005100000000000000000000                                                  00000000000000000
