001DESADV403607600200240291631100014036076002002403607600200200000000000004036076002002000000000000002021061020210610                                                                      0                                             15                                   000 0000000000000000000000000000005816739202105816739001511                    0000000000000000EUR000000000000000000000          00000000                                  00               00000           00                              000000000000000000000000000000000000000                                                  00000000000000000
002DESADV403607600200240291631100014036076002002403607600200200000000000004036076002002000000000000002021061020210610                                                                      0                                             15                                   000 0000000000000000000000000000005816739202105816739001511RT663049_1511_1     2021004130890011EUR40472259322484475472344-7547/239415710044-7547/23 94157100STYLE.VAL      23               00000   46      00                              025400000000000000100000000000000000000                                                  20210607000000121
003DESADV403607600200240291631100014036076002002403607600200200000000000004036076002002000000000000002021061020210610                                                                      0                                             15                                   000 0000000000000000000000000000005816739202105816739001511                    0000000000000000EUR000000000000000000000          00000000                                  00               00000           00                              000000000000000000100000000000000000000                                                  00000000000000000
001DESADV403607600200240291631100014036076002002403607600200200000000000004036076002002000000000000002021060920210609                                                                      0                                             15                                   000 0000000000000000000000000000008376867202108376867001511                    0000000000000000EUR000000000000000000000          00000000                                  00               00000           00                              000000000000000000000000000000000000000                                                  00000000000000000
002DESADV403607600200240291631100014036076002002403607600200200000000000004036076002002000000000000002021060920210609                                                                      0                                             15                                   000 0000000000000000000000000000008376867202108376867001511RT667049_1511_1     2021004127430001EUR40644998231573234372332-3437/239064580032-3437/23 90645800STYLE.CLEO     23               00000   42      00                              024500000000000000100000000000000000000                                                  20210607000000121
002DESADV403607600200240291631100014036076002002403607600200200000000000004036076002002000000000000002021060920210609                                                                      0                                             15                                   000 0000000000000000000000000000008376867202108376867001511RT667049_1511_1     2021004127430001EUR40644998231643234372332-3437/239064580032-3437/23 90645800STYLE.CLEO     23               00000   44      00                              024500000000000000200000000000000000000                                                  20210607000000121
002DESADV403607600200240291631100014036076002002403607600200200000000000004036076002002000000000000002021060920210609                                                                      0                                             15                                   000 0000000000000000000000000000008376867202108376867001511RT667049_1511_1     2021004127430003EUR40644998233863234378532-3437/859064580032-3437/85 90645800STYLE.CLEO     85               00000   40      00                              024500000000000000100000000000000000000                                                  20210607000000121
002DESADV403607600200240291631100014036076002002403607600200200000000000004036076002002000000000000002021060920210609                                                                      0                                             15                                   000 0000000000000000000000000000008376867202108376867001511RT667049_1511_1     2021004127430004EUR40644998235393234378732-3437/879064580032-3437/87 90645800STYLE.CLEO     87               00000   38      00                              024500000000000000100000000000000000000                                                  20210607000000121
002DESADV403607600200240291631100014036076002002403607600200200000000000004036076002002000000000000002021060920210609                                                                      0                                             15                                   000 0000000000000000000000000000008376867202108376867001511RT667049_1511_1     2021004127430004EUR40644998235533234378732-3437/879064580032-3437/87 90645800STYLE.CLEO     87               00000   42      00                              024500000000000000100000000000000000000                                                  20210607000000121
002DESADV403607600200240291631100014036076002002403607600200200000000000004036076002002000000000000002021060920210609                                                                      0                                             15                                   000 0000000000000000000000000000008376867202108376867001511RT667049_1511_1     2021004127430004EUR40644998235603234378732-3437/879064580032-3437/87 90645800STYLE.CLEO     87               00000   44      00                              024500000000000000100000000000000000000                                                  20210607000000121
002DESADV403607600200240291631100014036076002002403607600200200000000000004036076002002000000000000002021060920210609                                                                      0                                             15                                   000 0000000000000000000000000000008376867202108376867001511RT667049_1511_1     2021004127430004EUR40644998235773234378732-3437/879064580032-3437/87 90645800STYLE.CLEO     87               00000   46      00                              024500000000000000100000000000000000000                                                  20210607000000121
002DESADV403607600200240291631100014036076002002403607600200200000000000004036076002002000000000000002021060920210609                                                                      0                                             15                                   000 0000000000000000000000000000008376867202108376867001511RT667049_1511_1     2021004127430005EUR40644998236903234379932-3437/999064580032-3437/99 90645800STYLE.CLEO     99               00000   38      00                              024500000000000000100000000000000000000                                                  20210607000000121
002DESADV403607600200240291631100014036076002002403607600200200000000000004036076002002000000000000002021060920210609                                                                      0                                             15                                   000 0000000000000000000000000000008376867202108376867001511RT667049_1511_1     2021004127430005EUR40644998237203234379932-3437/999064580032-3437/99 90645800STYLE.CLEO     99               00000   44      00                              024500000000000000100000000000000000000                                                  20210607000000121
002DESADV403607600200240291631100014036076002002403607600200200000000000004036076002002000000000000002021060920210609                                                                      0                                             15                                   000 0000000000000000000000000000008376867202108376867001511RT667049_1511_1     2021004127430006EUR40644998238053234472332-3447/239064590032-3447/23 90645900STYLE.CLEO     23               00000   44      00                              028400000000000000100000000000000000000                                                  20210607000000121
002DESADV403607600200240291631100014036076002002403607600200200000000000004036076002002000000000000002021060920210609                                                                      0                                             15                                   000 0000000000000000000000000000008376867202108376867001511RT667049_1511_1     2021004127430007EUR40472273504153436274734-3627/479063060034-3627/47 90630600STYLE.CATHY    47               00000   40      00                              014400000000000000100000000000000000000                                                  20210607000000121
002DESADV403607600200240291631100014036076002002403607600200200000000000004036076002002000000000000002021060920210609                                                                      0                                             15                                   000 0000000000000000000000000000008376867202108376867001511RT667049_1511_1     2021004127430008EUR40472259266743452079834-5207/989062770034-5207/98 90627700STYLE.CAELEN   98               00000   42      00                              020600000000000000100000000000000000000                                                  20210607000000121
002DESADV403607600200240291631100014036076002002403607600200200000000000004036076002002000000000000002021060920210609                                                                      0                                             15                                   000 0000000000000000000000000000008376867202108376867001511RT667049_1511_1     2021004127430009EUR40472273762933456572634-5657/269019440034-5657/26 90194400STYLE.JANINE   26               000000SIZE      00                              014700000000000000100000000000000000000                                                  20210607000000121
002DESADV403607600200240291631100014036076002002403607600200200000000000004036076002002000000000000002021060920210609                                                                      0                                             15                                   000 0000000000000000000000000000008376867202108376867001511RT667049_1511_1     2021004127430010EUR40472234471333472372334-7237/239062800034-7237/23 90628000STYLE.RACHEL   23               0000036-38      00                              022700000000000000100000000000000000000                                                  20210607000000121
002DESADV403607600200240291631100014036076002002403607600200200000000000004036076002002000000000000002021060920210609                                                                      0                                             15                                   000 0000000000000000000000000000008376867202108376867001511RT667049_1511_1     2021004127430011EUR40472234562103478072534-7807/259012360034-7807/25 90123600STYLE.LIZ      25               00000   38      00                              033600000000000000100000000000000000000                                                  20210607000000121
003DESADV403607600200240291631100014036076002002403607600200200000000000004036076002002000000000000002021060920210609                                                                      0                                             15                                   000 0000000000000000000000000000008376867202108376867001511                    0000000000000000EUR000000000000000000000          00000000                                  00               00000           00                              000000000000000001600000000000000000000                                                  00000000000000000
001DESADV403607600200240291631100014036076002002403607600200200000000000004036076002002000000000000002021060920210609                                                                      0                                             15                                   000 0000000000000000000000000000008376938202108376938001511                    0000000000000000EUR000000000000000000000          00000000                                  00               00000           00                              000000000000000000000000000000000000000                                                  00000000000000000
002DESADV403607600200240291631100014036076002002403607600200200000000000004036076002002000000000000002021060920210609                                                                      0                                             15                                   000 0000000000000000000000000000008376938202108376938001511RT815046_1511_1     2021004129320001EUR40644998149192245070222-4507/027043400022-4507/02 70434000STYLE.PETE     02               00000    L      00                              028400000000000000100000000000000000000                                                  20210607000000121
002DESADV403607600200240291631100014036076002002403607600200200000000000004036076002002000000000000002021060920210609                                                                      0                                             15                                   000 0000000000000000000000000000008376938202108376938001511RT815046_1511_1     2021004129320002EUR40644998150152245071822-4507/187043400022-4507/18 70434000STYLE.PETE     18               00000    L      00                              028400000000000000100000000000000000000                                                  20210607000000121
002DESADV403607600200240291631100014036076002002403607600200200000000000004036076002002000000000000002021060920210609                                                                      0                                             15                                   000 0000000000000000000000000000008376938202108376938001511RT815046_1511_1     2021004129320003EUR40644998152132245073322-4507/337043400022-4507/33 70434000STYLE.PETE     33               00000    L      00                              028400000000000000200000000000000000000                                                  20210607000000121
002DESADV403607600200240291631100014036076002002403607600200200000000000004036076002002000000000000002021060920210609                                                                      0                                             15                                   000 0000000000000000000000000000008376938202108376938001511RT815046_1511_1     2021004129320004EUR40644998154112245079922-4507/997043400022-4507/99 70434000STYLE.PETE     99               00000    L      00                              028400000000000000100000000000000000000                                                  20210607000000121
002DESADV403607600200240291631100014036076002002403607600200200000000000004036076002002000000000000002021060920210609                                                                      0                                             15                                   000 0000000000000000000000000000008376938202108376938001511RT815046_1511_1     2021004129320005EUR40448191887842247672322-4767/237043840022-4767/23 70438400STYLE.PETTER   23               00000    L      00                              015000000000000000100000000000000000000                                                  20210607000000121
002DESADV403607600200240291631100014036076002002403607600200200000000000004036076002002000000000000002021060920210609                                                                      0                                             15                                   000 0000000000000000000000000000008376938202108376938001511RT815046_1511_1     2021004129320005EUR40448191887772247672322-4767/237043840022-4767/23 70438400STYLE.PETTER   23               00000    M      00                              015000000000000000200000000000000000000                                                  20210607000000121
002DESADV403607600200240291631100014036076002002403607600200200000000000004036076002002000000000000002021060920210609                                                                      0                                             15                                   000 0000000000000000000000000000008376938202108376938001511RT815046_1511_1     2021004129320006EUR40644998157182247672322-4767/237043890022-4767/23 70438900STYLE.POLLUX   23               00000    L      00                              032400000000000000100000000000000000000                                                  20210607000000121
002DESADV403607600200240291631100014036076002002403607600200200000000000004036076002002000000000000002021060920210609                                                                      0                                             15                                   000 0000000000000000000000000000008376938202108376938001511RT815046_1511_1     2021004129320006EUR40644998157252247672322-4767/237043890022-4767/23 70438900STYLE.POLLUX   23               00000   XL      00                              032400000000000000100000000000000000000                                                  20210607000000121
002DESADV403607600200240291631100014036076002002403607600200200000000000004036076002002000000000000002021060920210609                                                                      0                                             15                                   000 0000000000000000000000000000008376938202108376938001511RT815046_1511_1     2021004129320006EUR40644998157322247672322-4767/237043890022-4767/23 70438900STYLE.POLLUX   23               00000  XXL      00                              032400000000000000100000000000000000000                                                  20210607000000121
002DESADV403607600200240291631100014036076002002403607600200200000000000004036076002002000000000000002021060920210609                                                                      0                                             15                                   000 0000000000000000000000000000008376938202108376938001511RT815046_1511_1     2021004129320007EUR40644998158002247672422-4767/247043840022-4767/24 70438400STYLE.PETTER   24               00000    M      00                              015000000000000000100000000000000000000                                                  20210607000000121
002DESADV403607600200240291631100014036076002002403607600200200000000000004036076002002000000000000002021060920210609                                                                      0                                             15                                   000 0000000000000000000000000000008376938202108376938001511RT815046_1511_1     2021004129320008EUR40644998159092247672622-4767/267043840022-4767/26 70438400STYLE.PETTER   26               00000    M      00                              015000000000000000100000000000000000000                                                  20210607000000121
002DESADV403607600200240291631100014036076002002403607600200200000000000004036076002002000000000000002021060920210609                                                                      0                                             15                                   000 0000000000000000000000000000008376938202108376938001511RT815046_1511_1     2021004129320009EUR40644998161112247673322-4767/337043890022-4767/33 70438900STYLE.POLLUX   33               00000    L      00                              032400000000000000100000000000000000000                                                  20210607000000121
002DESADV403607600200240291631100014036076002002403607600200200000000000004036076002002000000000000002021060920210609                                                                      0                                             15                                   000 0000000000000000000000000000008376938202108376938001511RT815046_1511_1     2021004129320009EUR40644998161282247673322-4767/337043890022-4767/33 70438900STYLE.POLLUX   33               00000   XL      00                              032400000000000000100000000000000000000                                                  20210607000000121
002DESADV403607600200240291631100014036076002002403607600200200000000000004036076002002000000000000002021060920210609                                                                      0                                             15                                   000 0000000000000000000000000000008376938202108376938001511RT815046_1511_1     2021004129320009EUR40644998161352247673322-4767/337043890022-4767/33 70438900STYLE.POLLUX   33               00000  XXL      00                              032400000000000000100000000000000000000                                                  20210607000000121
002DESADV403607600200240291631100014036076002002403607600200200000000000004036076002002000000000000002021060920210609                                                                      0                                             15                                   000 0000000000000000000000000000008376938202108376938001511RT815046_1511_1     2021004129320010EUR40448192851552247675322-4767/537043840022-4767/53 70438400STYLE.PETTER   53               00000    M      00                              015000000000000000100000000000000000000                                                  20210607000000121
002DESADV403607600200240291631100014036076002002403607600200200000000000004036076002002000000000000002021060920210609                                                                      0                                             15                                   000 0000000000000000000000000000008376938202108376938001511RT815046_1511_1     2021004129320011EUR40644998248642252570422-5257/047068250022-5257/04 70682500STYLE.SCOTT    04               00000   XL      00                              028000000000000000100000000000000000000                                                  20210607000000121
002DESADV403607600200240291631100014036076002002403607600200200000000000004036076002002000000000000002021060920210609                                                                      0                                             15                                   000 0000000000000000000000000000008376938202108376938001511RT815046_1511_1     2021004129320012EUR40644998163022257072322-5707/237043700022-5707/23 70437000STYLE.PELé     23               00000    M      00                              024500000000000000100000000000000000000                                                  20210607000000121
002DESADV403607600200240291631100014036076002002403607600200200000000000004036076002002000000000000002021060920210609                                                                      0                                             15                                   000 0000000000000000000000000000008376938202108376938001511RT815046_1511_1     2021004129320012EUR40644998163402257072322-5707/237043700022-5707/23 70437000STYLE.PELé     23               00000 XXXL      00                              026950000000000000100000000000000000000                                                  20210607000000121
002DESADV403607600200240291631100014036076002002403607600200200000000000004036076002002000000000000002021060920210609                                                                      0                                             15                                   000 0000000000000000000000000000008376938202108376938001511RT815046_1511_1     2021004129320013EUR40644999821132258240322-5824/037062920022-5824/03 70629200STYLE.SAWYER   03               00000  XXL      00                              036300000000000000100000000000000000000                                                  20210607000000121
002DESADV403607600200240291631100014036076002002403607600200200000000000004036076002002000000000000002021060920210609                                                                      0                                             15                                   000 0000000000000000000000000000008376938202108376938001511RT815046_1511_1     2021004129320014EUR40644999820522258240322-5824/037068960022-5824/03 70689600STYLE.SAN DIEGO03               00000  XXL      00                              052000000000000000100000000000000000000                                                  20210607000000121
002DESADV403607600200240291631100014036076002002403607600200200000000000004036076002002000000000000002021060920210609                                                                      0                                             15                                   000 0000000000000000000000000000008376938202108376938001511RT815046_1511_1     2021004129320015EUR40644998249492258242322-5824/237062920022-5824/23 70629200STYLE.SAWYER   23               00000    M      00                              036300000000000000200000000000000000000                                                  20210607000000121
002DESADV403607600200240291631100014036076002002403607600200200000000000004036076002002000000000000002021060920210609                                                                      0                                             15                                   000 0000000000000000000000000000008376938202108376938001511RT815046_1511_1     2021004129320015EUR40644998249702258242322-5824/237062920022-5824/23 70629200STYLE.SAWYER   23               00000  XXL      00                              036300000000000000100000000000000000000                                                  20210607000000121
002DESADV403607600200240291631100014036076002002403607600200200000000000004036076002002000000000000002021060920210609                                                                      0                                             15                                   000 0000000000000000000000000000008376938202108376938001511RT815046_1511_1     2021004129320016EUR40644998250212258242322-5824/237068960022-5824/23 70689600STYLE.SAN DIEGO23               00000    L      00                              052000000000000000100000000000000000000                                                  20210607000000121
002DESADV403607600200240291631100014036076002002403607600200200000000000004036076002002000000000000002021060920210609                                                                      0                                             15                                   000 0000000000000000000000000000008376938202108376938001511RT815046_1511_1     2021004129320016EUR40644998250452258242322-5824/237068960022-5824/23 70689600STYLE.SAN DIEGO23               00000  XXL      00                              052000000000000000300000000000000000000                                                  20210607000000121
002DESADV403607600200240291631100014036076002002403607600200200000000000004036076002002000000000000002021060920210609                                                                      0                                             15                                   000 0000000000000000000000000000008376938202108376938001511RT815046_1511_1     2021004129320017EUR40644998251132267242322-6724/237068720022-6724/23 70687200STYLE.SKY      23               00000    M      00                              055900000000000000100000000000000000000                                                  20210607000000121
003DESADV403607600200240291631100014036076002002403607600200200000000000004036076002002000000000000002021060920210609                                                                      0                                             15                                   000 0000000000000000000000000000008376938202108376938001511                    0000000000000000EUR000000000000000000000          00000000                                  00               00000           00                              000000000000000003000000000000000000000                                                  00000000000000000
001DESADV403607600200240291631100014036076002002403607600200200000000000004036076002002000000000000002021060920210609                                                                      0                                             15                                   000 0000000000000000000000000000008376939202108376939001511                    0000000000000000EUR000000000000000000000          00000000                                  00               00000           00                              000000000000000000000000000000000000000                                                  00000000000000000
002DESADV403607600200240291631100014036076002002403607600200200000000000004036076002002000000000000002021060920210609                                                                      0                                             15                                   000 0000000000000000000000000000008376939202108376939001511RT817046_1511_1     2021004129650001EUR40472291671724240972542-4097/257443010042-4097/25 74430100STYLE.HAROLD   25               00000    M      00                              024500000000000000100000000000000000000                                                  20210607000000121
002DESADV403607600200240291631100014036076002002403607600200200000000000004036076002002000000000000002021060920210609                                                                      0                                             15                                   000 0000000000000000000000000000008376939202108376939001511RT817046_1511_1     2021004129650001EUR40472291671654240972542-4097/257443010042-4097/25 74430100STYLE.HAROLD   25               00000    S      00                              024500000000000000100000000000000000000                                                  20210607000000121
002DESADV403607600200240291631100014036076002002403607600200200000000000004036076002002000000000000002021060920210609                                                                      0                                             15                                   000 0000000000000000000000000000008376939202108376939001511RT817046_1511_1     2021004129650002EUR40472291671274241579942-4157/997443010042-4157/99 74430100STYLE.HAROLD   99               00000    L      00                              024500000000000000100000000000000000000                                                  20210607000000121
003DESADV403607600200240291631100014036076002002403607600200200000000000004036076002002000000000000002021060920210609                                                                      0                                             15                                   000 0000000000000000000000000000008376939202108376939001511                    0000000000000000EUR000000000000000000000          00000000                                  00               00000           00                              000000000000000000300000000000000000000                                                  00000000000000000
001DESADV403607600200240291631100014036076002002403607600200200000000000004036076002002000000000000002021060820210608                                                                      0                                             15                                   000 0000000000000000000000000000009265516202109265516001511                    0000000000000000EUR000000000000000000000          00000000                                  00               00000           00                              000000000000000000000000000000000000000                                                  00000000000000000
002DESADV403607600200240291631100014036076002002403607600200200000000000004036076002002000000000000002021060820210608                                                                      0                                             15                                   000 00000000000000000000000000000092655162021092655160015111234                2021024126230001EUR40472244654577215575472-1557/540989482072-1557/54 09894820STYLE.CAROLA   54               00000  46L      00                              040200000000000000100000000000000000000                                                  20210607000000000
002DESADV403607600200240291631100014036076002002403607600200200000000000004036076002002000000000000002021060820210608                                                                      0                                             15                                   000 00000000000000000000000000000092655162021092655160015111234                2021024126230002EUR40472259530387412072374-1207/230985282074-1207/23 09852820               23               00000  46L      00                              040200000000000000100000000000000000000                                                  20210607000000000
003DESADV403607600200240291631100014036076002002403607600200200000000000004036076002002000000000000002021060820210608                                                                      0                                             15                                   000 0000000000000000000000000000009265516202109265516001511                    0000000000000000EUR000000000000000000000          00000000                                  00               00000           00                              000000000000000000200000000000000000000                                                  00000000000000000
001DESADV403607600200240291631100014036076002002403607600200200000000000004036076002002000000000000002021060820210608                                                                      0                                             15                                   000 0000000000000000000000000000009265547202109265547001511                    0000000000000000EUR000000000000000000000          00000000                                  00               00000           00                              000000000000000000000000000000000000000                                                  00000000000000000
002DESADV403607600200240291631100014036076002002403607600200200000000000004036076002002000000000000002021060820210608                                                                      0                                             15                                   000 0000000000000000000000000000009265547202109265547001511RT666049_1511_1     2021004127170003EUR40472226357227060000270-6000/020999482070-6000/02 09994820STYLE.CAROLA   02               00000  42L      00                              040200000000000000100000000000000000000                                                  20210607000000121
002DESADV403607600200240291631100014036076002002403607600200200000000000004036076002002000000000000002021060820210608                                                                      0                                             15                                   000 0000000000000000000000000000009265547202109265547001511RT666049_1511_1     2021004127170004EUR40472260523417060002470-6000/240999002070-6000/24 09990020STYLE.MARY     24               00000  38L      00                              040200000000000000100000000000000000000                                                  20210607000000121
002DESADV403607600200240291631100014036076002002403607600200200000000000004036076002002000000000000002021060820210608                                                                      0                                             15                                   000 0000000000000000000000000000009265547202109265547001511RT666049_1511_1     2021004127170004EUR40472260524267060002470-6000/240999002070-6000/24 09990020STYLE.MARY     24               00000  40L      00                              040200000000000000100000000000000000000                                                  20210607000000121
002DESADV403607600200240291631100014036076002002403607600200200000000000004036076002002000000000000002021060820210608                                                                      0                                             15                                   000 0000000000000000000000000000009265547202109265547001511RT666049_1511_1     2021004127170004EUR40472260526867060002470-6000/240999002070-6000/24 09990020STYLE.MARY     24               00000  42K      00                              040200000000000000100000000000000000000                                                  20210607000000121
002DESADV403607600200240291631100014036076002002403607600200200000000000004036076002002000000000000002021060820210608                                                                      0                                             15                                   000 0000000000000000000000000000009265547202109265547001511RT666049_1511_1     2021004127170005EUR40472226358217060002470-6000/240999482070-6000/24 09994820STYLE.CAROLA   24               00000   38      00                              040200000000000000200000000000000000000                                                  20210607000000121
002DESADV403607600200240291631100014036076002002403607600200200000000000004036076002002000000000000002021060820210608                                                                      0                                             15                                   000 0000000000000000000000000000009265547202109265547001511RT666049_1511_1     2021004127170005EUR40472226358767060002470-6000/240999482070-6000/24 09994820STYLE.CAROLA   24               00000   42      00                              040200000000000000100000000000000000000                                                  20210607000000121
002DESADV403607600200240291631100014036076002002403607600200200000000000004036076002002000000000000002021060820210608                                                                      0                                             15                                   000 0000000000000000000000000000009265547202109265547001511RT666049_1511_1     2021004127170008EUR40644997742997215075972-1507/590983602072-1507/59 09836020STYLE.MARA S   59               00000  36K      00                              040200000000000000100000000000000000000                                                  20210607000000121
002DESADV403607600200240291631100014036076002002403607600200200000000000004036076002002000000000000002021060820210608                                                                      0                                             15                                   000 0000000000000000000000000000009265547202109265547001511RT666049_1511_1     2021004127170009EUR40472244653277215575472-1557/540989482072-1557/54 09894820STYLE.CAROLA   54               00000   38      00                              040200000000000000100000000000000000000                                                  20210607000000121
002DESADV403607600200240291631100014036076002002403607600200200000000000004036076002002000000000000002021060820210608                                                                      0                                             15                                   000 0000000000000000000000000000009265547202109265547001511RT666049_1511_1     2021004127170009EUR40472244653417215575472-1557/540989482072-1557/54 09894820STYLE.CAROLA   54               00000   42      00                              040200000000000000100000000000000000000                                                  20210607000000121
002DESADV403607600200240291631100014036076002002403607600200200000000000004036076002002000000000000002021060820210608                                                                      0                                             15                                   000 0000000000000000000000000000009265547202109265547001511RT666049_1511_1     2021004127170011EUR40644997753337221075672-2107/560986952072-2107/56 09869520STYLE.MAINE S  56               00000  44K      00                              040200000000000000100000000000000000000                                                  20210607000000121
002DESADV403607600200240291631100014036076002002403607600200200000000000004036076002002000000000000002021060820210608                                                                      0                                             15                                   000 0000000000000000000000000000009265547202109265547001511RT666049_1511_1     2021004127170012EUR40472234749867222070972-2207/090981462072-2207/09 09814620STYLE.MAINE    09               00000   42      00                              040200000000000000100000000000000000000                                                  20210607000000121
002DESADV403607600200240291631100014036076002002403607600200200000000000004036076002002000000000000002021060820210608                                                                      0                                             15                                   000 0000000000000000000000000000009265547202109265547001511RT666049_1511_1     2021004127170013EUR40644997753957222074372-2207/430986952072-2207/43 09869520STYLE.MAINE S  43               00000   40      00                              040200000000000000100000000000000000000                                                  20210607000000121
002DESADV403607600200240291631100014036076002002403607600200200000000000004036076002002000000000000002021060820210608                                                                      0                                             15                                   000 0000000000000000000000000000009265547202109265547001511RT666049_1511_1     2021004127170014EUR40472234764097222075472-2207/540981462072-2207/54 09814620STYLE.MAINE    54               00000   46      00                              040200000000000000100000000000000000000                                                  20210607000000121
002DESADV403607600200240291631100014036076002002403607600200200000000000004036076002002000000000000002021060820210608                                                                      0                                             15                                   000 0000000000000000000000000000009265547202109265547001511RT666049_1511_1     2021004127170023EUR40644997807647269474572-6947/450993862072-6947/45 09938620STYLE.SHAKIRA S45               00000   40      00                              040200000000000000100000000000000000000                                                  20210607000000121
002DESADV403607600200240291631100014036076002002403607600200200000000000004036076002002000000000000002021060820210608                                                                      0                                             15                                   000 0000000000000000000000000000009265547202109265547001511RT666049_1511_1     2021004127170023EUR40644997807717269474572-6947/450993862072-6947/45 09938620STYLE.SHAKIRA S45               00000   42      00                              040200000000000000100000000000000000000                                                  20210607000000121
002DESADV403607600200240291631100014036076002002403607600200200000000000004036076002002000000000000002021060820210608                                                                      0                                             15                                   000 0000000000000000000000000000009265547202109265547001511RT666049_1511_1     2021004127170024EUR40472272221707412070274-1207/020985282074-1207/02 09852820STYLE.CAROLA   02               00000   38      00                              040200000000000000100000000000000000000                                                  20210607000000121
002DESADV403607600200240291631100014036076002002403607600200200000000000004036076002002000000000000002021060820210608                                                                      0                                             15                                   000 0000000000000000000000000000009265547202109265547001511RT666049_1511_1     2021004127170025EUR40472234201987412072374-1207/230983842074-1207/23 09838420STYLE.MARY S   23               00000   38      00                              026000000000000000100000000000000000000                                                  20210607000000121
002DESADV403607600200240291631100014036076002002403607600200200000000000004036076002002000000000000002021060820210608                                                                      0                                             15                                   000 0000000000000000000000000000009265547202109265547001511RT666049_1511_1     2021004127170025EUR40472259519737412072374-1207/230983842074-1207/23 09838420STYLE.MARY S   23               00000  42K      00                              026000000000000000100000000000000000000                                                  20210607000000121
002DESADV403607600200240291631100014036076002002403607600200200000000000004036076002002000000000000002021060820210608                                                                      0                                             15                                   000 0000000000000000000000000000009265547202109265547001511RT666049_1511_1     2021004127170026EUR40472259525987412072374-1207/230985272074-1207/23 09852720STYLE.CARO S   23               00000  46K      00                              036300000000000000100000000000000000000                                                  20210607000000121
002DESADV403607600200240291631100014036076002002403607600200200000000000004036076002002000000000000002021060820210608                                                                      0                                             15                                   000 0000000000000000000000000000009265547202109265547001511RT666049_1511_1     2021004127170027EUR40472279226367412073374-1207/330983842074-1207/33 09838420STYLE.MARY S   33               00000   44      00                              026000000000000000100000000000000000000                                                  20210607000000121
002DESADV403607600200240291631100014036076002002403607600200200000000000004036076002002000000000000002021060820210608                                                                      0                                             15                                   000 0000000000000000000000000000009265547202109265547001511RT666049_1511_1     2021004127170028EUR40472285314627412073374-1207/330985192074-1207/33 09851920STYLE.MARY C   33               00000   42      00                              032400000000000000100000000000000000000                                                  20210607000000121
002DESADV403607600200240291631100014036076002002403607600200200000000000004036076002002000000000000002021060820210608                                                                      0                                             15                                   000 0000000000000000000000000000009265547202109265547001511RT666049_1511_1     2021004127170029EUR40472279233747412074574-1207/450985272074-1207/45 09852720STYLE.CARO S   45               00000   38      00                              036300000000000000100000000000000000000                                                  20210607000000121
002DESADV403607600200240291631100014036076002002403607600200200000000000004036076002002000000000000002021060820210608                                                                      0                                             15                                   000 0000000000000000000000000000009265547202109265547001511RT666049_1511_1     2021004127170030EUR40472232889107415072374-1507/230986412074-1507/23 09864120STYLE.MARA S   23               00000   40      00                              040200000000000000100000000000000000000                                                  20210607000000121
002DESADV403607600200240291631100014036076002002403607600200200000000000004036076002002000000000000002021060820210608                                                                      0                                             15                                   000 0000000000000000000000000000009265547202109265547001511RT666049_1511_1     2021004127170033EUR40472256827547415574374-1557/430983602074-1557/43 09836020STYLE.MARA S   43               00000   44      00                              036300000000000000100000000000000000000                                                  20210607000000121
002DESADV403607600200240291631100014036076002002403607600200200000000000004036076002002000000000000002021060820210608                                                                      0                                             15                                   000 0000000000000000000000000000009265547202109265547001511RT666049_1511_1     2021004127170034EUR40472259755117422078574-2207/850986952074-2207/85 09869520STYLE.MAINE S  85               00000  36K      00                              040200000000000000100000000000000000000                                                  20210607000000121
002DESADV403607600200240291631100014036076002002403607600200200000000000004036076002002000000000000002021060820210608                                                                      0                                             15                                   000 0000000000000000000000000000009265547202109265547001511RT666049_1511_1     2021004127170036EUR40472258534517440079974-4007/990994242074-4007/99 09942420STYLE.MARY     99               00000   44      00                              040200000000000000100000000000000000000                                                  20210607000000121
002DESADV403607600200240291631100014036076002002403607600200200000000000004036076002002000000000000002021060820210608                                                                      0                                             15                                   000 0000000000000000000000000000009265547202109265547001511RT666049_1511_1     2021004127170037EUR40472258603057460872974-6087/290999012074-6087/29 09990120STYLE.SHAKIRA  29               00000   38      00                              040200000000000000100000000000000000000                                                  20210607000000121
002DESADV403607600200240291631100014036076002002403607600200200000000000004036076002002000000000000002021060820210608                                                                      0                                             15                                   000 0000000000000000000000000000009265547202109265547001511RT666049_1511_1     2021004127170037EUR40472258604667460872974-6087/290999012074-6087/29 09990120STYLE.SHAKIRA  29               00000  38K      00                              040200000000000000100000000000000000000                                                  20210607000000121
002DESADV403607600200240291631100014036076002002403607600200200000000000004036076002002000000000000002021060820210608                                                                      0                                             15                                   000 0000000000000000000000000000009265547202109265547001511RT666049_1511_1     2021004127170038EUR40472256843527463079774-6307/970995332074-6307/97 09953320STYLE.SHAKIRA S97               00000  44K      00                              026000000000000000100000000000000000000                                                  20210607000000121
002DESADV403607600200240291631100014036076002002403607600200200000000000004036076002002000000000000002021060820210608                                                                      0                                             15                                   000 0000000000000000000000000000009265547202109265547001511RT666049_1511_1     2021004127170039EUR40472257572307466478574-6647/850993842074-6647/85 09938420STYLE.MARY S   85               00000   42      00                              036300000000000000100000000000000000000                                                  20210607000000121
002DESADV403607600200240291631100014036076002002403607600200200000000000004036076002002000000000000002021060820210608                                                                      0                                             15                                   000 0000000000000000000000000000009265547202109265547001511RT666049_1511_1     2021004127170040EUR40472258801297466572374-6657/230993702074-6657/23 09937020STYLE.MARY     23               00000  38K      00                              026000000000000000100000000000000000000                                                  20210607000000121
002DESADV403607600200240291631100014036076002002403607600200200000000000004036076002002000000000000002021060820210608                                                                      0                                             15                                   000 0000000000000000000000000000009265547202109265547001511RT666049_1511_1     2021004127170040EUR40472258801437466572374-6657/230993702074-6657/23 09937020STYLE.MARY     23               00000  42K      00                              026000000000000000100000000000000000000                                                  20210607000000121
002DESADV403607600200240291631100014036076002002403607600200200000000000004036076002002000000000000002021060820210608                                                                      0                                             15                                   000 0000000000000000000000000000009265547202109265547001511RT666049_1511_1     2021004127170041EUR40472258814547466572674-6657/260993702074-6657/26 09937020STYLE.MARY     26               00000   42      00                              026000000000000000100000000000000000000                                                  20210607000000121
002DESADV403607600200240291631100014036076002002403607600200200000000000004036076002002000000000000002021060820210608                                                                      0                                             15                                   000 0000000000000000000000000000009265547202109265547001511RT666049_1511_1     2021004127170041EUR40472258816837466572674-6657/260993702074-6657/26 09937020STYLE.MARY     26               00000   46      00                              026000000000000000100000000000000000000                                                  20210607000000121
002DESADV403607600200240291631100014036076002002403607600200200000000000004036076002002000000000000002021060820210608                                                                      0                                             15                                   000 0000000000000000000000000000009265547202109265547001511RT666049_1511_1     2021004127170041EUR40472258818367466572674-6657/260993702074-6657/26 09937020STYLE.MARY     26               00000  44K      00                              026000000000000000100000000000000000000                                                  20210607000000121
002DESADV403607600200240291631100014036076002002403607600200200000000000004036076002002000000000000002021060820210608                                                                      0                                             15                                   000 0000000000000000000000000000009265547202109265547001511RT666049_1511_1     2021004127170043EUR40472285345627466579974-6657/990995192074-6657/99 09951920STYLE.MARY C   99               00000   40      00                              032400000000000000100000000000000000000                                                  20210607000000121
002DESADV403607600200240291631100014036076002002403607600200200000000000004036076002002000000000000002021060820210608                                                                      0                                             15                                   000 0000000000000000000000000000009265547202109265547001511RT666049_1511_1     2021004127170043EUR40472285345797466579974-6657/990995192074-6657/99 09951920STYLE.MARY C   99               00000   42      00                              032400000000000000100000000000000000000                                                  20210607000000121
002DESADV403607600200240291631100014036076002002403607600200200000000000004036076002002000000000000002021060820210608                                                                      0                                             15                                   000 0000000000000000000000000000009265547202109265547001511RT666049_1511_1     2021004127170043EUR40472285345867466579974-6657/990995192074-6657/99 09951920STYLE.MARY C   99               00000   44      00                              032400000000000000100000000000000000000                                                  20210607000000121
003DESADV403607600200240291631100014036076002002403607600200200000000000004036076002002000000000000002021060820210608                                                                      0                                             15                                   000 0000000000000000000000000000009265547202109265547001511                    0000000000000000EUR000000000000000000000          00000000                                  00               00000           00                              000000000000000003900000000000000000000                                                  00000000000000000
001DESADV403607600200240291631100014036076002002403607600200200000000000004036076002002000000000000002021060820210608                                                                      0                                             15                                   000 0000000000000000000000000000009265594202109265594001511                    0000000000000000EUR000000000000000000000          00000000                                  00               00000           00                              000000000000000000000000000000000000000                                                  00000000000000000
002DESADV403607600200240291631100014036076002002403607600200200000000000004036076002002000000000000002021060820210608                                                                      0                                             15                                   000 000000000000000000000000000000926559420210926559400151172985               2021004127970001EUR40472275565348413472384-1347/230786412084-1347/23 07864120STYLE.CADIZ    23               0000038/36      00                              029000000000000000100000000000000000000                                                  20210607000000121
002DESADV403607600200240291631100014036076002002403607600200200000000000004036076002002000000000000002021060820210608                                                                      0                                             15                                   000 000000000000000000000000000000926559420210926559400151172985               2021004127970002EUR40472275578218413472484-1347/240786412084-1347/24 07864120STYLE.CADIZ    24               0000038/36      00                              029000000000000000100000000000000000000                                                  20210607000000121
003DESADV403607600200240291631100014036076002002403607600200200000000000004036076002002000000000000002021060820210608                                                                      0                                             15                                   000 0000000000000000000000000000009265594202109265594001511                    0000000000000000EUR000000000000000000000          00000000                                  00               00000           00                              000000000000000000200000000000000000000                                                  00000000000000000
001DESADV403607600200240291631100014036076002002403607600200200000000000004036076002002000000000000002021060820210608                                                                      0                                             15                                   000 0000000000000000000000000000009265595202109265595001511                    0000000000000000EUR000000000000000000000          00000000                                  00               00000           00                              000000000000000000000000000000000000000                                                  00000000000000000
002DESADV403607600200240291631100014036076002002403607600200200000000000004036076002002000000000000002021060820210608                                                                      0                                             15                                   000 000000000000000000000000000000926559520210926559500151172985               2021004127980001EUR40644981527228562470585-6247/050796222085-6247/05 07962220STYLE.CADIZ    05               0000038/36      00                              036300000000000000100000000000000000000                                                  20210607000000121
003DESADV403607600200240291631100014036076002002403607600200200000000000004036076002002000000000000002021060820210608                                                                      0                                             15                                   000 0000000000000000000000000000009265595202109265595001511                    0000000000000000EUR000000000000000000000          00000000                                  00               00000           00                              000000000000000000100000000000000000000                                                  00000000000000000
