001DESADV403607600200240291631100014036076002002403607600200200000000000004036076002002000000000000002021061520210615                                                                      0                                             15                                   000 0000000000000000000000000000005819119202105819119001511                    0000000000000000EUR000000000000000000000          00000000                                  00               00000           00                              000000000000000000000000000000000000000                                                  00000000000000000
002DESADV403607600200240291631100014036076002002403607600200200000000000004036076002002000000000000002021061520210615                                                                      0                                             15                                   000 0000000000000000000000000000005819119202105819119001511                    2021004154420004EUR40644987218988411540784-1154/070788412084-1154/07 07884120STYLE.CADIZ U  07               0000034/34      00                              040200000000000000100000000000000000000                                                  20210611000000121
003DESADV403607600200240291631100014036076002002403607600200200000000000004036076002002000000000000002021061520210615                                                                      0                                             15                                   000 0000000000000000000000000000005819119202105819119001511                    0000000000000000EUR000000000000000000000          00000000                                  00               00000           00                              000000000000000000100000000000000000000                                                  00000000000000000
001DESADV403607600200240291631100014036076002002403607600200200000000000004036076002002000000000000002021061520210615                                                                      0                                             15                                   000 0000000000000000000000000000005819120202105819120001511                    0000000000000000EUR000000000000000000000          00000000                                  00               00000           00                              000000000000000000000000000000000000000                                                  00000000000000000
002DESADV403607600200240291631100014036076002002403607600200200000000000004036076002002000000000000002021061520210615                                                                      0                                             15                                   000 0000000000000000000000000000005819120202105819120001511RT672049_1511_1     2021004183080002EUR40644984472938060002680-6000/260796442080-6000/26 07964420STYLE.COOPER DE26               0000033/30      00                              040200000000000000100000000000000000000                                                  20210614000000121
002DESADV403607600200240291631100014036076002002403607600200200000000000004036076002002000000000000002021061520210615                                                                      0                                             15                                   000 0000000000000000000000000000005819120202105819120001511RT672049_1511_1     2021004183080004EUR40644997889688202072482-0207/240786322082-0207/24 07863220STYLE.COOPER FA24               0000038/34      00                              040200000000000000100000000000000000000                                                  20210614000000121
002DESADV403607600200240291631100014036076002002403607600200200000000000004036076002002000000000000002021061520210615                                                                      0                                             15                                   000 0000000000000000000000000000005819120202105819120001511RT672049_1511_1     2021004183080005EUR40644997892318202075682-0207/560786322082-0207/56 07863220STYLE.COOPER FA56               0000033/30      00                              040200000000000000100000000000000000000                                                  20210614000000121
002DESADV403607600200240291631100014036076002002403607600200200000000000004036076002002000000000000002021061520210615                                                                      0                                             15                                   000 0000000000000000000000000000005819120202105819120001511RT672049_1511_1     2021004183080005EUR40644997893618202075682-0207/560786322082-0207/56 07863220STYLE.COOPER FA56               0000033/32      00                              040200000000000000100000000000000000000                                                  20210614000000121
002DESADV403607600200240291631100014036076002002403607600200200000000000004036076002002000000000000002021061520210615                                                                      0                                             15                                   000 0000000000000000000000000000005819120202105819120001511RT672049_1511_1     2021004183080005EUR40644997895768202075682-0207/560786322082-0207/56 07863220STYLE.COOPER FA56               0000038/34      00                              040200000000000000200000000000000000000                                                  20210614000000121
002DESADV403607600200240291631100014036076002002403607600200200000000000004036076002002000000000000002021061520210615                                                                      0                                             15                                   000 0000000000000000000000000000005819120202105819120001511RT672049_1511_1     2021004183080009EUR40644997928358260072382-6007/230796222082-6007/23 07962220STYLE.CADIZ    23               0000036/30      00                              040200000000000000100000000000000000000                                                  20210614000000121
002DESADV403607600200240291631100014036076002002403607600200200000000000004036076002002000000000000002021061520210615                                                                      0                                             15                                   000 0000000000000000000000000000005819120202105819120001511RT672049_1511_1     2021004183080010EUR40644997937648260072582-6007/250796222082-6007/25 07962220STYLE.CADIZ    25               0000034/30      00                              040200000000000000200000000000000000000                                                  20210614000000121
002DESADV403607600200240291631100014036076002002403607600200200000000000004036076002002000000000000002021061520210615                                                                      0                                             15                                   000 0000000000000000000000000000005819120202105819120001511RT672049_1511_1     2021004183080010EUR40644997937888260072582-6007/250796222082-6007/25 07962220STYLE.CADIZ    25               0000036/30      00                              040200000000000000100000000000000000000                                                  20210614000000121
002DESADV403607600200240291631100014036076002002403607600200200000000000004036076002002000000000000002021061520210615                                                                      0                                             15                                   000 0000000000000000000000000000005819120202105819120001511RT672049_1511_1     2021004183080013EUR40644998320818263472382-6347/230795302082-6347/23 07953020STYLE.CHUCK    23               0000033/30      00                              040200000000000000100000000000000000000                                                  20210614000000121
002DESADV403607600200240291631100014036076002002403607600200200000000000004036076002002000000000000002021061520210615                                                                      0                                             15                                   000 0000000000000000000000000000005819120202105819120001511RT672049_1511_1     2021004183080015EUR40644998204158265472282-6547/220796222082-6547/22 07962220STYLE.CADIZ    22               0000033/30      00                              040200000000000000100000000000000000000                                                  20210614000000121
002DESADV403607600200240291631100014036076002002403607600200200000000000004036076002002000000000000002021061520210615                                                                      0                                             15                                   000 0000000000000000000000000000005819120202105819120001511RT672049_1511_1     2021004183080015EUR40644998206138265472282-6547/220796222082-6547/22 07962220STYLE.CADIZ    22               0000034/32      00                              040200000000000000100000000000000000000                                                  20210614000000121
002DESADV403607600200240291631100014036076002002403607600200200000000000004036076002002000000000000002021061520210615                                                                      0                                             15                                   000 0000000000000000000000000000005819120202105819120001511RT672049_1511_1     2021004183080016EUR40644998213688265472582-6547/250796222082-6547/25 07962220STYLE.CADIZ    25               0000033/30      00                              040200000000000000100000000000000000000                                                  20210614000000121
003DESADV403607600200240291631100014036076002002403607600200200000000000004036076002002000000000000002021061520210615                                                                      0                                             15                                   000 0000000000000000000000000000005819120202105819120001511                    0000000000000000EUR000000000000000000000          00000000                                  00               00000           00                              000000000000000001400000000000000000000                                                  00000000000000000
001DESADV403607600200240291631100014036076002002403607600200200000000000004036076002002000000000000002021061520210615                                                                      0                                             15                                   000 0000000000000000000000000000005819121202105819121001511                    0000000000000000EUR000000000000000000000          00000000                                  00               00000           00                              000000000000000000000000000000000000000                                                  00000000000000000
002DESADV403607600200240291631100014036076002002403607600200200000000000004036076002002000000000000002021061520210615                                                                      0                                             15                                   000 0000000000000000000000000000005819121202105819121001511RT671049_1511_1     2021004183170001EUR40448140352367059000270-5900/020927412070-5900/02 09274120STYLE.STELLA   02               00000   38      00                              026000000000000000100000000000000000000                                                  20210614000000121
002DESADV403607600200240291631100014036076002002403607600200200000000000004036076002002000000000000002021061520210615                                                                      0                                             15                                   000 0000000000000000000000000000005819121202105819121001511RT671049_1511_1     2021004183170002EUR40472226360647060002770-6000/270999482070-6000/27 09994820STYLE.CAROLA   27               00000   44      00                              040200000000000000100000000000000000000                                                  20210614000000121
002DESADV403607600200240291631100014036076002002403607600200200000000000004036076002002000000000000002021061520210615                                                                      0                                             15                                   000 0000000000000000000000000000005819121202105819121001511RT671049_1511_1     2021004183170002EUR40472226360717060002770-6000/270999482070-6000/27 09994820STYLE.CAROLA   27               00000   46      00                              040200000000000000100000000000000000000                                                  20210614000000121
002DESADV403607600200240291631100014036076002002403607600200200000000000004036076002002000000000000002021061520210615                                                                      0                                             15                                   000 0000000000000000000000000000005819121202105819121001511RT671049_1511_1     2021004183170002EUR40472226461797060002770-6000/270999482070-6000/27 09994820STYLE.CAROLA   27               00000  46L      00                              040200000000000000100000000000000000000                                                  20210614000000121
002DESADV403607600200240291631100014036076002002403607600200200000000000004036076002002000000000000002021061520210615                                                                      0                                             15                                   000 0000000000000000000000000000005819121202105819121001511RT671049_1511_1     2021004183170007EUR40644997751667221072372-2107/230986952072-2107/23 09869520STYLE.MAINE S  23               00000  42K      00                              040200000000000000100000000000000000000                                                  20210614000000121
002DESADV403607600200240291631100014036076002002403607600200200000000000004036076002002000000000000002021061520210615                                                                      0                                             15                                   000 0000000000000000000000000000005819121202105819121001511RT671049_1511_1     2021004183170011EUR40644997770617261072772-6107/270993892072-6107/27 09938920STYLE.MARY S   27               00000  40K      00                              040200000000000000200000000000000000000                                                  20210614000000121
002DESADV403607600200240291631100014036076002002403607600200200000000000004036076002002000000000000002021061520210615                                                                      0                                             15                                   000 0000000000000000000000000000005819121202105819121001511RT671049_1511_1     2021004183170011EUR40644997770927261072772-6107/270993892072-6107/27 09938920STYLE.MARY S   27               00000  46K      00                              040200000000000000100000000000000000000                                                  20210614000000121
002DESADV403607600200240291631100014036076002002403607600200200000000000004036076002002000000000000002021061520210615                                                                      0                                             15                                   000 0000000000000000000000000000005819121202105819121001511RT671049_1511_1     2021004183170012EUR40644997779317261572772-6157/270993862072-6157/27 09938620STYLE.SHAKIRA S27               00000  40K      00                              040200000000000000200000000000000000000                                                  20210614000000121
002DESADV403607600200240291631100014036076002002403607600200200000000000004036076002002000000000000002021061520210615                                                                      0                                             15                                   000 0000000000000000000000000000005819121202105819121001511RT671049_1511_1     2021004183170013EUR40644997798437268079972-6807/990993892072-6807/99 09938920STYLE.MARY S   99               00000   36      00                              040200000000000000100000000000000000000                                                  20210614000000121
002DESADV403607600200240291631100014036076002002403607600200200000000000004036076002002000000000000002021061520210615                                                                      0                                             15                                   000 0000000000000000000000000000005819121202105819121001511RT671049_1511_1     2021004183170013EUR40644997798677268079972-6807/990993892072-6807/99 09938920STYLE.MARY S   99               00000   40      00                              040200000000000000100000000000000000000                                                  20210614000000121
002DESADV403607600200240291631100014036076002002403607600200200000000000004036076002002000000000000002021061520210615                                                                      0                                             15                                   000 0000000000000000000000000000005819121202105819121001511RT671049_1511_1     2021004183170013EUR40644997800857268079972-6807/990993892072-6807/99 09938920STYLE.MARY S   99               00000  40K      00                              040200000000000000200000000000000000000                                                  20210614000000121
002DESADV403607600200240291631100014036076002002403607600200200000000000004036076002002000000000000002021061520210615                                                                      0                                             15                                   000 0000000000000000000000000000005819121202105819121001511RT671049_1511_1     2021004183170014EUR40644997801847268179972-6817/990993862072-6817/99 09938620STYLE.SHAKIRA S99               00000   40      00                              040200000000000000100000000000000000000                                                  20210614000000121
002DESADV403607600200240291631100014036076002002403607600200200000000000004036076002002000000000000002021061520210615                                                                      0                                             15                                   000 0000000000000000000000000000005819121202105819121001511RT671049_1511_1     2021004183170015EUR40644997806657269472472-6947/240993862072-6947/24 09938620STYLE.SHAKIRA S24               00000  40K      00                              040200000000000000100000000000000000000                                                  20210614000000121
003DESADV403607600200240291631100014036076002002403607600200200000000000004036076002002000000000000002021061520210615                                                                      0                                             15                                   000 0000000000000000000000000000005819121202105819121001511                    0000000000000000EUR000000000000000000000          00000000                                  00               00000           00                              000000000000000001600000000000000000000                                                  00000000000000000
