001DESADV403607600200240291631100014036076002002403607600200200000000000004036076002002000000000000002021062220210622                                                                      0                                             15                                   000 0000000000000000000000000000005819236202105819236001511                    0000000000000000EUR000000000000000000000          00000000                                  00               00000           00                              000000000000000000000000000000000000000                                                  00000000000000000
002DESADV403607600200240291631100014036076002002403607600200200000000000004036076002002000000000000002021062220210622                                                                      0                                             15                                   000 0000000000000000000000000000005819236202105819236001511RT675049_1511_1     2021004186260001EUR40644998240864270172342-7017/239411740042-7017/23 94117400STYLE.VICTORIA 23               00000   36      00                              036300000000000000100000000000000000000                                                  20210614000000121
002DESADV403607600200240291631100014036076002002403607600200200000000000004036076002002000000000000002021062220210622                                                                      0                                             15                                   000 0000000000000000000000000000005819236202105819236001511RT675049_1511_1     2021004186260001EUR40644998241094270172342-7017/239411740042-7017/23 94117400STYLE.VICTORIA 23               00000   40      00                              036300000000000000100000000000000000000                                                  20210614000000121
002DESADV403607600200240291631100014036076002002403607600200200000000000004036076002002000000000000002021062220210622                                                                      0                                             15                                   000 0000000000000000000000000000005819236202105819236001511RT675049_1511_1     2021004186260001EUR40644998241234270172342-7017/239411740042-7017/23 94117400STYLE.VICTORIA 23               00000   44      00                              036300000000000000100000000000000000000                                                  20210614000000121
002DESADV403607600200240291631100014036076002002403607600200200000000000004036076002002000000000000002021062220210622                                                                      0                                             15                                   000 0000000000000000000000000000005819236202105819236001511RT675049_1511_1     2021004186260002EUR40644998243524270172342-7017/239416800042-7017/23 94168000STYLE.VELIA    23               00000   42      00                              032400000000000000200000000000000000000                                                  20210614000000121
002DESADV403607600200240291631100014036076002002403607600200200000000000004036076002002000000000000002021062220210622                                                                      0                                             15                                   000 0000000000000000000000000000005819236202105819236001511RT675049_1511_1     2021004186260003EUR40644998245984270178842-7017/889416800042-7017/88 94168000STYLE.VELIA    88               00000   42      00                              032400000000000000100000000000000000000                                                  20210614000000121
003DESADV403607600200240291631100014036076002002403607600200200000000000004036076002002000000000000002021062220210622                                                                      0                                             15                                   000 0000000000000000000000000000005819236202105819236001511                    0000000000000000EUR000000000000000000000          00000000                                  00               00000           00                              000000000000000000600000000000000000000                                                  00000000000000000
001DESADV403607600200240291631100014036076002002403607600200200000000000004036076002002000000000000002021062220210622                                                                      0                                             15                                   000 0000000000000000000000000000005819237202105819237001511                    0000000000000000EUR000000000000000000000          00000000                                  00               00000           00                              000000000000000000000000000000000000000                                                  00000000000000000
002DESADV403607600200240291631100014036076002002403607600200200000000000004036076002002000000000000002021062220210622                                                                      0                                             15                                   000 00000000000000000000000000000058192372021058192370015111234                2021024184130006EUR40644998243524270172342-7017/239416800042-7017/23 94168000STYLE.VELIA    23               00000   42      00                              032400000000000000200000000000000000000                                                  20210614000000000
002DESADV403607600200240291631100014036076002002403607600200200000000000004036076002002000000000000002021062220210622                                                                      0                                             15                                   000 00000000000000000000000000000058192372021058192370015111234                2021024184130007EUR40472259314874470176544-7017/659411740044-7017/65 94117400STYLE.VICTORIA 65               00000   34      00                              032400000000000000100000000000000000000                                                  20210614000000000
002DESADV403607600200240291631100014036076002002403607600200200000000000004036076002002000000000000002021062220210622                                                                      0                                             15                                   000 00000000000000000000000000000058192372021058192370015111234                2021024184130007EUR40472234797144470176544-7017/659411740044-7017/65 94117400STYLE.VICTORIA 65               00000   36      00                              032400000000000000100000000000000000000                                                  20210614000000000
002DESADV403607600200240291631100014036076002002403607600200200000000000004036076002002000000000000002021062220210622                                                                      0                                             15                                   000 00000000000000000000000000000058192372021058192370015111234                2021024184130007EUR40472234797214470176544-7017/659411740044-7017/65 94117400STYLE.VICTORIA 65               00000   38      00                              032400000000000000100000000000000000000                                                  20210614000000000
002DESADV403607600200240291631100014036076002002403607600200200000000000004036076002002000000000000002021062220210622                                                                      0                                             15                                   000 00000000000000000000000000000058192372021058192370015111234                2021024184130007EUR40472234797384470176544-7017/659411740044-7017/65 94117400STYLE.VICTORIA 65               00000   40      00                              032400000000000000200000000000000000000                                                  20210614000000000
002DESADV403607600200240291631100014036076002002403607600200200000000000004036076002002000000000000002021062220210622                                                                      0                                             15                                   000 00000000000000000000000000000058192372021058192370015111234                2021024184130007EUR40472259314944470176544-7017/659411740044-7017/65 94117400STYLE.VICTORIA 65               00000   42      00                              032400000000000000200000000000000000000                                                  20210614000000000
002DESADV403607600200240291631100014036076002002403607600200200000000000004036076002002000000000000002021062220210622                                                                      0                                             15                                   000 00000000000000000000000000000058192372021058192370015111234                2021024184130007EUR40472259315004470176544-7017/659411740044-7017/65 94117400STYLE.VICTORIA 65               00000   44      00                              032400000000000000200000000000000000000                                                  20210614000000000
002DESADV403607600200240291631100014036076002002403607600200200000000000004036076002002000000000000002021062220210622                                                                      0                                             15                                   000 00000000000000000000000000000058192372021058192370015111234                2021024184130007EUR40472259315174470176544-7017/659411740044-7017/65 94117400STYLE.VICTORIA 65               00000   46      00                              032400000000000000100000000000000000000                                                  20210614000000000
002DESADV403607600200240291631100014036076002002403607600200200000000000004036076002002000000000000002021062220210622                                                                      0                                             15                                   000 00000000000000000000000000000058192372021058192370015111234                2021024184130007EUR40472259315244470176544-7017/659411740044-7017/65 94117400STYLE.VICTORIA 65               00000   48      00                              032400000000000000100000000000000000000                                                  20210614000000000
003DESADV403607600200240291631100014036076002002403607600200200000000000004036076002002000000000000002021062220210622                                                                      0                                             15                                   000 0000000000000000000000000000005819237202105819237001511                    0000000000000000EUR000000000000000000000          00000000                                  00               00000           00                              000000000000000001300000000000000000000                                                  00000000000000000
