001DESADV403607600200240291631100014036076002002403607600200200000000000004036076002002000000000000002021052720210527                                                                      0                                             15                                   000 0000000000000000000000000000005809248202105809248001511                    0000000000000000EUR000000000000000000000          00000000                                  00               00000           00                              000000000000000000000000000000000000000                                                  00000000000000000
002DESADV403607600200240291631100014036076002002403607600200200000000000004036076002002000000000000002021052720210527                                                                      0                                             15                                   000 0000000000000000000000000000005809248202105809248001511RT800046_1511_1     2021004050810001EUR40371226348338060000280-6000/020796442080-6000/02 07964420STYLE.COOPER DE02               0000034/32      00                              040200000000000000100000000000000000000                                                  20210525000000121
002DESADV403607600200240291631100014036076002002403607600200200000000000004036076002002000000000000002021052720210527                                                                      0                                             15                                   000 0000000000000000000000000000005809248202105809248001511RT800046_1511_1     2021004050810001EUR40371226362268060000280-6000/020796442080-6000/02 07964420STYLE.COOPER DE02               0000036/34      00                              040200000000000000100000000000000000000                                                  20210525000000121
002DESADV403607600200240291631100014036076002002403607600200200000000000004036076002002000000000000002021052720210527                                                                      0                                             15                                   000 0000000000000000000000000000005809248202105809248001511RT800046_1511_1     2021004050810003EUR40644997893788202075682-0207/560786322082-0207/56 07863220STYLE.COOPER FA56               0000034/32      00                              040200000000000000100000000000000000000                                                  20210525000000121
002DESADV403607600200240291631100014036076002002403607600200200000000000004036076002002000000000000002021052720210527                                                                      0                                             15                                   000 0000000000000000000000000000005809248202105809248001511RT800046_1511_1     2021004050810007EUR40644998303848263470582-6347/050795302082-6347/05 07953020STYLE.CHUCK    05               0000034/32      00                              040200000000000000100000000000000000000                                                  20210525000000121
002DESADV403607600200240291631100014036076002002403607600200200000000000004036076002002000000000000002021052720210527                                                                      0                                             15                                   000 0000000000000000000000000000005809248202105809248001511RT800046_1511_1     2021004050810007EUR40644998303918263470582-6347/050795302082-6347/05 07953020STYLE.CHUCK    05               0000035/32      00                              040200000000000000100000000000000000000                                                  20210525000000121
002DESADV403607600200240291631100014036076002002403607600200200000000000004036076002002000000000000002021052720210527                                                                      0                                             15                                   000 0000000000000000000000000000005809248202105809248001511RT800046_1511_1     2021004050810007EUR40644998304218263470582-6347/050795302082-6347/05 07953020STYLE.CHUCK    05               0000040/32      00                              040200000000000000100000000000000000000                                                  20210525000000121
002DESADV403607600200240291631100014036076002002403607600200200000000000004036076002002000000000000002021052720210527                                                                      0                                             15                                   000 0000000000000000000000000000005809248202105809248001511RT800046_1511_1     2021004050810008EUR40644998313368263472282-6347/220795302082-6347/22 07953020STYLE.CHUCK    22               0000034/32      00                              040200000000000000100000000000000000000                                                  20210525000000121
002DESADV403607600200240291631100014036076002002403607600200200000000000004036076002002000000000000002021052720210527                                                                      0                                             15                                   000 0000000000000000000000000000005809248202105809248001511RT800046_1511_1     2021004050810008EUR40644998313748263472282-6347/220795302082-6347/22 07953020STYLE.CHUCK    22               0000040/32      00                              040200000000000000100000000000000000000                                                  20210525000000121
002DESADV403607600200240291631100014036076002002403607600200200000000000004036076002002000000000000002021052720210527                                                                      0                                             15                                   000 0000000000000000000000000000005809248202105809248001511RT800046_1511_1     2021004050810009EUR40644998204468265472282-6547/220796222082-6547/22 07962220STYLE.CADIZ    22               0000036/30      00                              040200000000000000100000000000000000000                                                  20210525000000121
003DESADV403607600200240291631100014036076002002403607600200200000000000004036076002002000000000000002021052720210527                                                                      0                                             15                                   000 0000000000000000000000000000005809248202105809248001511                    0000000000000000EUR000000000000000000000          00000000                                  00               00000           00                              000000000000000000900000000000000000000                                                  00000000000000000
001DESADV403607600200240291631100014036076002002403607600200200000000000004036076002002000000000000002021052720210527                                                                      0                                             15                                   000 0000000000000000000000000000005809250202105809250001511                    0000000000000000EUR000000000000000000000          00000000                                  00               00000           00                              000000000000000000000000000000000000000                                                  00000000000000000
002DESADV403607600200240291631100014036076002002403607600200200000000000004036076002002000000000000002021052720210527                                                                      0                                             15                                   000 0000000000000000000000000000005809250202105809250001511RT656049_1511_1     2021004051060003EUR40472260544517060002770-6000/270999002070-6000/27 09990020STYLE.MARY     27               00000  42K      00                              040200000000000000200000000000000000000                                                  20210525000000121
002DESADV403607600200240291631100014036076002002403607600200200000000000004036076002002000000000000002021052720210527                                                                      0                                             15                                   000 0000000000000000000000000000005809250202105809250001511RT656049_1511_1     2021004051060004EUR40644997739027212179972-1217/990923862072-1217/99 09238620STYLE.SHAKIRA S99               00000   40      00                              040200000000000000100000000000000000000                                                  20210525000000121
002DESADV403607600200240291631100014036076002002403607600200200000000000004036076002002000000000000002021052720210527                                                                      0                                             15                                   000 0000000000000000000000000000005809250202105809250001511RT656049_1511_1     2021004051060006EUR40644997765077228075872-2807/580986522072-2807/58 09865220STYLE.FARINA   58               00000   36      00                              040200000000000000100000000000000000000                                                  20210525000000121
002DESADV403607600200240291631100014036076002002403607600200200000000000004036076002002000000000000002021052720210527                                                                      0                                             15                                   000 0000000000000000000000000000005809250202105809250001511RT656049_1511_1     2021004051060007EUR40644997777407261572772-6157/270993862072-6157/27 09938620STYLE.SHAKIRA S27               00000   40      00                              040200000000000000100000000000000000000                                                  20210525000000121
002DESADV403607600200240291631100014036076002002403607600200200000000000004036076002002000000000000002021052720210527                                                                      0                                             15                                   000 0000000000000000000000000000005809250202105809250001511RT656049_1511_1     2021004051060007EUR40644997779247261572772-6157/270993862072-6157/27 09938620STYLE.SHAKIRA S27               00000  38K      00                              040200000000000000100000000000000000000                                                  20210525000000121
002DESADV403607600200240291631100014036076002002403607600200200000000000004036076002002000000000000002021052720210527                                                                      0                                             15                                   000 0000000000000000000000000000005809250202105809250001511RT656049_1511_1     2021004051060008EUR40644997782427261573572-6157/350993862072-6157/35 09938620STYLE.SHAKIRA S35               00000  44K      00                              040200000000000000100000000000000000000                                                  20210525000000121
002DESADV403607600200240291631100014036076002002403607600200200000000000004036076002002000000000000002021052720210527                                                                      0                                             15                                   000 0000000000000000000000000000005809250202105809250001511RT656049_1511_1     2021004051060010EUR40644997798747268079972-6807/990993892072-6807/99 09938920STYLE.MARY S   99               00000   42      00                              040200000000000000100000000000000000000                                                  20210525000000121
002DESADV403607600200240291631100014036076002002403607600200200000000000004036076002002000000000000002021052720210527                                                                      0                                             15                                   000 0000000000000000000000000000005809250202105809250001511RT656049_1511_1     2021004051060011EUR40644997803687268179972-6817/990993862072-6817/99 09938620STYLE.SHAKIRA S99               00000  38K      00                              040200000000000000100000000000000000000                                                  20210525000000121
003DESADV403607600200240291631100014036076002002403607600200200000000000004036076002002000000000000002021052720210527                                                                      0                                             15                                   000 0000000000000000000000000000005809250202105809250001511                    0000000000000000EUR000000000000000000000          00000000                                  00               00000           00                              000000000000000000900000000000000000000                                                  00000000000000000
001DESADV403607600200240291631100014036076002002403607600200200000000000004036076002002000000000000002021052720210527                                                                      0                                             15                                   000 0000000000000000000000000000005809332202105809332001511                    0000000000000000EUR000000000000000000000          00000000                                  00               00000           00                              000000000000000000000000000000000000000                                                  00000000000000000
002DESADV403607600200240291631100014036076002002403607600200200000000000004036076002002000000000000002021052720210527                                                                      0                                             15                                   000 0000000000000000000000000000005809332202105809332001511RT656049_1511_1     2021004051060001EUR40371239365097049500270-4950/020993202070-4950/02 09932020STYLE.SHAKIRA  02               00000   40      00                              026000000000000000100000000000000000000                                                  20210525000000121
002DESADV403607600200240291631100014036076002002403607600200200000000000004036076002002000000000000002021052720210527                                                                      0                                             15                                   000 0000000000000000000000000000005809332202105809332001511RT656049_1511_1     2021004051060002EUR40371239365307049502270-4950/220993202070-4950/22 09932020STYLE.SHAKIRA  22               00000   40      00                              026000000000000000100000000000000000000                                                  20210525000000121
002DESADV403607600200240291631100014036076002002403607600200200000000000004036076002002000000000000002021052720210527                                                                      0                                             15                                   000 0000000000000000000000000000005809332202105809332001511RT656049_1511_1     2021004051060002EUR40448097001497049502270-4950/220993202070-4950/22 09932020STYLE.SHAKIRA  22               00000   42      00                              026000000000000000100000000000000000000                                                  20210525000000121
002DESADV403607600200240291631100014036076002002403607600200200000000000004036076002002000000000000002021052720210527                                                                      0                                             15                                   000 0000000000000000000000000000005809332202105809332001511RT656049_1511_1     2021004051060002EUR40448097001567049502270-4950/220993202070-4950/22 09932020STYLE.SHAKIRA  22               00000   44      00                              026000000000000000100000000000000000000                                                  20210525000000121
002DESADV403607600200240291631100014036076002002403607600200200000000000004036076002002000000000000002021052720210527                                                                      0                                             15                                   000 0000000000000000000000000000005809332202105809332001511RT656049_1511_1     2021004051060002EUR40448097001947049502270-4950/220993202070-4950/22 09932020STYLE.SHAKIRA  22               00000  36K      00                              026000000000000000100000000000000000000                                                  20210525000000121
003DESADV403607600200240291631100014036076002002403607600200200000000000004036076002002000000000000002021052720210527                                                                      0                                             15                                   000 0000000000000000000000000000005809332202105809332001511                    0000000000000000EUR000000000000000000000          00000000                                  00               00000           00                              000000000000000000500000000000000000000                                                  00000000000000000
001DESADV403607600200240291631100014036076002002403607600200200000000000004036076002002000000000000002021052720210527                                                                      0                                             15                                   000 0000000000000000000000000000005809333202105809333001511                    0000000000000000EUR000000000000000000000          00000000                                  00               00000           00                              000000000000000000000000000000000000000                                                  00000000000000000
002DESADV403607600200240291631100014036076002002403607600200200000000000004036076002002000000000000002021052720210527                                                                      0                                             15                                   000 0000000000000000000000000000005809333202105809333001511RT658049_1511_1     2021004052440001EUR40644998241164270172342-7017/239411740042-7017/23 94117400STYLE.VICTORIA 23               00000   42      00                              036300000000000000100000000000000000000                                                  20210525000000121
002DESADV403607600200240291631100014036076002002403607600200200000000000004036076002002000000000000002021052720210527                                                                      0                                             15                                   000 0000000000000000000000000000005809333202105809333001511RT658049_1511_1     2021004052440002EUR40644998245124270175542-7017/559416800042-7017/55 94168000STYLE.VELIA    55               00000   42      00                              032400000000000000100000000000000000000                                                  20210525000000121
002DESADV403607600200240291631100014036076002002403607600200200000000000004036076002002000000000000002021052720210527                                                                      0                                             15                                   000 0000000000000000000000000000005809333202105809333001511RT658049_1511_1     2021004052440003EUR40644998246734270179942-7017/999416800042-7017/99 94168000STYLE.VELIA    99               00000   42      00                              032400000000000000100000000000000000000                                                  20210525000000121
002DESADV403607600200240291631100014036076002002403607600200200000000000004036076002002000000000000002021052720210527                                                                      0                                             15                                   000 0000000000000000000000000000005809333202105809333001511RT658049_1511_1     2021004052440004EUR40472285320254468176344-6817/639415250044-6817/63 94152500STYLE.VELIA    63               00000   40      00                              020600000000000000100000000000000000000                                                  20210525000000121
002DESADV403607600200240291631100014036076002002403607600200200000000000004036076002002000000000000002021052720210527                                                                      0                                             15                                   000 0000000000000000000000000000005809333202105809333001511RT658049_1511_1     2021004052440005EUR40472234809324475472344-7547/239415710044-7547/23 94157100STYLE.VAL      23               00000   40      00                              025400000000000000100000000000000000000                                                  20210525000000121
003DESADV403607600200240291631100014036076002002403607600200200000000000004036076002002000000000000002021052720210527                                                                      0                                             15                                   000 0000000000000000000000000000005809333202105809333001511                    0000000000000000EUR000000000000000000000          00000000                                  00               00000           00                              000000000000000000500000000000000000000                                                  00000000000000000
001DESADV403607600200240291631100014036076002002403607600200200000000000004036076002002000000000000002021052820210528                                                                      0                                             15                                   000 0000000000000000000000000000008375923202108375923001511                    0000000000000000EUR000000000000000000000          00000000                                  00               00000           00                              000000000000000000000000000000000000000                                                  00000000000000000
002DESADV403607600200240291631100014036076002002403607600200200000000000004036076002002000000000000002021052820210528                                                                      0                                             15                                   000 0000000000000000000000000000008375923202108375923001511RT802046_1511_1     2021004051690001EUR40644998151142245072322-4507/237043400022-4507/23 70434000STYLE.PETE     23               00000    L      00                              028400000000000000100000000000000000000                                                  20210525000000121
002DESADV403607600200240291631100014036076002002403607600200200000000000004036076002002000000000000002021052820210528                                                                      0                                             15                                   000 0000000000000000000000000000008375923202108375923001511RT802046_1511_1     2021004051690002EUR40644998152132245073322-4507/337043400022-4507/33 70434000STYLE.PETE     33               00000    L      00                              028400000000000000100000000000000000000                                                  20210525000000121
002DESADV403607600200240291631100014036076002002403607600200200000000000004036076002002000000000000002021052820210528                                                                      0                                             15                                   000 0000000000000000000000000000008375923202108375923001511RT802046_1511_1     2021004051690004EUR40448192851622247675322-4767/537043840022-4767/53 70438400STYLE.PETTER   53               00000    L      00                              015000000000000000100000000000000000000                                                  20210525000000121
002DESADV403607600200240291631100014036076002002403607600200200000000000004036076002002000000000000002021052820210528                                                                      0                                             15                                   000 0000000000000000000000000000008375923202108375923001511RT802046_1511_1     2021004051690005EUR40644998248642252570422-5257/047068250022-5257/04 70682500STYLE.SCOTT    04               00000   XL      00                              028000000000000000100000000000000000000                                                  20210525000000121
002DESADV403607600200240291631100014036076002002403607600200200000000000004036076002002000000000000002021052820210528                                                                      0                                             15                                   000 0000000000000000000000000000008375923202108375923001511RT802046_1511_1     2021004051690006EUR40644999820382258240322-5824/037068960022-5824/03 70689600STYLE.SAN DIEGO03               00000    L      00                              052000000000000000200000000000000000000                                                  20210525000000121
002DESADV403607600200240291631100014036076002002403607600200200000000000004036076002002000000000000002021052820210528                                                                      0                                             15                                   000 0000000000000000000000000000008375923202108375923001511RT802046_1511_1     2021004051690006EUR40644999820212258240322-5824/037068960022-5824/03 70689600STYLE.SAN DIEGO03               00000    M      00                              052000000000000000100000000000000000000                                                  20210525000000121
002DESADV403607600200240291631100014036076002002403607600200200000000000004036076002002000000000000002021052820210528                                                                      0                                             15                                   000 0000000000000000000000000000008375923202108375923001511RT802046_1511_1     2021004051690007EUR40472278886802445273524-4527/357043220024-4527/35 70432200STYLE.PABLO    35               00000   XL      00                              019900000000000000100000000000000000000                                                  20210525000000121
003DESADV403607600200240291631100014036076002002403607600200200000000000004036076002002000000000000002021052820210528                                                                      0                                             15                                   000 0000000000000000000000000000008375923202108375923001511                    0000000000000000EUR000000000000000000000          00000000                                  00               00000           00                              000000000000000000800000000000000000000                                                  00000000000000000
001DESADV403607600200240291631100014036076002002403607600200200000000000004036076002002000000000000002021052820210528                                                                      0                                             15                                   000 0000000000000000000000000000008375974202108375974001511                    0000000000000000EUR000000000000000000000          00000000                                  00               00000           00                              000000000000000000000000000000000000000                                                  00000000000000000
002DESADV403607600200240291631100014036076002002403607600200200000000000004036076002002000000000000002021052820210528                                                                      0                                             15                                   000 0000000000000000000000000000008375974202108375974001511RT804046_1511_1     2021004052080001EUR40472291670734241572742-4157/277443010042-4157/27 74430100STYLE.HAROLD   27               00000   XL      00                              024500000000000000100000000000000000000                                                  20210525000000121
003DESADV403607600200240291631100014036076002002403607600200200000000000004036076002002000000000000002021052820210528                                                                      0                                             15                                   000 0000000000000000000000000000008375974202108375974001511                    0000000000000000EUR000000000000000000000          00000000                                  00               00000           00                              000000000000000000100000000000000000000                                                  00000000000000000
001DESADV403607600200240291631100014036076002002403607600200200000000000004036076002002000000000000002021052620210526                                                                      0                                             15                                   000 0000000000000000000000000000009264375202109264375001511                    0000000000000000EUR000000000000000000000          00000000                                  00               00000           00                              000000000000000000000000000000000000000                                                  00000000000000000
002DESADV403607600200240291631100014036076002002403607600200200000000000004036076002002000000000000002021052620210526                                                                      0                                             15                                   000 0000000000000000000000000000009264375202109264375001511RT659049_1511_1     2021004052570001EUR40472279015949460375894-6037/589596254094-6037/58 95962540STYLE.MIAMI LIG58               00000   40      00                              050100000000000000100000000000000000000                                                  20210525000000121
002DESADV403607600200240291631100014036076002002403607600200200000000000004036076002002000000000000002021052620210526                                                                      0                                             15                                   000 0000000000000000000000000000009264375202109264375001511RT659049_1511_1     2021004052570002EUR40472234284539463174394-6317/439596044094-6317/43 95960440STYLE.BERN     43               00000   38      00                              071600000000000000100000000000000000000                                                  20210525000000121
003DESADV403607600200240291631100014036076002002403607600200200000000000004036076002002000000000000002021052620210526                                                                      0                                             15                                   000 0000000000000000000000000000009264375202109264375001511                    0000000000000000EUR000000000000000000000          00000000                                  00               00000           00                              000000000000000000200000000000000000000                                                  00000000000000000
