001DESADV403607600200240291630000054036076002002403607600200200000000000004036076002002000000000000002021051820210518                                                                      0                                             99                                   000 0000000000000000000000000000008372577202108372577001511                    0000000000000000EUR000000000000000000000          00000000                                  00               00000           00                              000000000000000000000000000000000000000                                                  00000000000000000
002DESADV403607600200240291630000054036076002002403607600200200000000000004036076002002000000000000002021051820210518                                                                      0                                             99                                   000 0000000000000000000000000000008372577202108372577001511                    2021003878450005EUR40472260476824434472244-3447/227441110044-3447/22 74411100STYLE.KRIS     22               00000    L      00                              017150000000000000400000000000000000000                                                  20210422000000121
002DESADV403607600200240291630000054036076002002403607600200200000000000004036076002002000000000000002021051820210518                                                                      0                                             99                                   000 0000000000000000000000000000008372577202108372577001511                    2021003878450005EUR40472230410584434472244-3447/227441110044-3447/22 74411100STYLE.KRIS     22               00000    M      00                              017150000000000000300000000000000000000                                                  20210422000000121
002DESADV403607600200240291630000054036076002002403607600200200000000000004036076002002000000000000002021051820210518                                                                      0                                             99                                   000 0000000000000000000000000000008372577202108372577001511                    2021003878450005EUR40472260476754434472244-3447/227441110044-3447/22 74411100STYLE.KRIS     22               00000    S      00                              017150000000000000200000000000000000000                                                  20210422000000121
002DESADV403607600200240291630000054036076002002403607600200200000000000004036076002002000000000000002021051820210518                                                                      0                                             99                                   000 0000000000000000000000000000008372577202108372577001511                    2021003878450005EUR40472260476994434472244-3447/227441110044-3447/22 74411100STYLE.KRIS     22               00000   XL      00                              017150000000000000400000000000000000000                                                  20210422000000121
002DESADV403607600200240291630000054036076002002403607600200200000000000004036076002002000000000000002021051820210518                                                                      0                                             99                                   000 0000000000000000000000000000008372577202108372577001511                    2021003878450005EUR40472260477054434472244-3447/227441110044-3447/22 74411100STYLE.KRIS     22               00000  XXL      00                              017150000000000000300000000000000000000                                                  20210422000000121
002DESADV403607600200240291630000054036076002002403607600200200000000000004036076002002000000000000002021051820210518                                                                      0                                             99                                   000 0000000000000000000000000000008372577202108372577001511                    2021003878450005EUR40472260477124434472244-3447/227441110044-3447/22 74411100STYLE.KRIS     22               00000 XXXL      00                              018850000000000000100000000000000000000                                                  20210422000000121
002DESADV403607600200240291630000054036076002002403607600200200000000000004036076002002000000000000002021051820210518                                                                      0                                             99                                   000 0000000000000000000000000000008372577202108372577001511                    2021003878450006EUR40472260478354434472344-3447/237441110044-3447/23 74411100STYLE.KRIS     23               00000    L      00                              017150000000000000400000000000000000000                                                  20210422000000121
002DESADV403607600200240291630000054036076002002403607600200200000000000004036076002002000000000000002021051820210518                                                                      0                                             99                                   000 0000000000000000000000000000008372577202108372577001511                    2021003878450006EUR40472260478044434472344-3447/237441110044-3447/23 74411100STYLE.KRIS     23               00000    M      00                              017150000000000000300000000000000000000                                                  20210422000000121
002DESADV403607600200240291630000054036076002002403607600200200000000000004036076002002000000000000002021051820210518                                                                      0                                             99                                   000 0000000000000000000000000000008372577202108372577001511                    2021003878450006EUR40472260478424434472344-3447/237441110044-3447/23 74411100STYLE.KRIS     23               00000   XL      00                              017150000000000000400000000000000000000                                                  20210422000000121
002DESADV403607600200240291630000054036076002002403607600200200000000000004036076002002000000000000002021051820210518                                                                      0                                             99                                   000 0000000000000000000000000000008372577202108372577001511                    2021003878450006EUR40472260478594434472344-3447/237441110044-3447/23 74411100STYLE.KRIS     23               00000  XXL      00                              017150000000000000300000000000000000000                                                  20210422000000121
002DESADV403607600200240291630000054036076002002403607600200200000000000004036076002002000000000000002021051820210518                                                                      0                                             99                                   000 0000000000000000000000000000008372577202108372577001511                    2021003878450007EUR40472260479414434472444-3447/247441110044-3447/24 74411100STYLE.KRIS     24               00000    L      00                              017150000000000000400000000000000000000                                                  20210422000000121
002DESADV403607600200240291630000054036076002002403607600200200000000000004036076002002000000000000002021051820210518                                                                      0                                             99                                   000 0000000000000000000000000000008372577202108372577001511                    2021003878450007EUR40472260479344434472444-3447/247441110044-3447/24 74411100STYLE.KRIS     24               00000    M      00                              017150000000000000300000000000000000000                                                  20210422000000121
002DESADV403607600200240291630000054036076002002403607600200200000000000004036076002002000000000000002021051820210518                                                                      0                                             99                                   000 0000000000000000000000000000008372577202108372577001511                    2021003878450007EUR40472260479274434472444-3447/247441110044-3447/24 74411100STYLE.KRIS     24               00000    S      00                              017150000000000000100000000000000000000                                                  20210422000000121
002DESADV403607600200240291630000054036076002002403607600200200000000000004036076002002000000000000002021051820210518                                                                      0                                             99                                   000 0000000000000000000000000000008372577202108372577001511                    2021003878450007EUR40472260479964434472444-3447/247441110044-3447/24 74411100STYLE.KRIS     24               00000   XL      00                              017150000000000000400000000000000000000                                                  20210422000000121
002DESADV403607600200240291630000054036076002002403607600200200000000000004036076002002000000000000002021051820210518                                                                      0                                             99                                   000 0000000000000000000000000000008372577202108372577001511                    2021003878450007EUR40472260480094434472444-3447/247441110044-3447/24 74411100STYLE.KRIS     24               00000  XXL      00                              017150000000000000300000000000000000000                                                  20210422000000121
002DESADV403607600200240291630000054036076002002403607600200200000000000004036076002002000000000000002021051820210518                                                                      0                                             99                                   000 0000000000000000000000000000008372577202108372577001511                    2021003878450008EUR40472260483684434472844-3447/287441110044-3447/28 74411100STYLE.KRIS     28               00000    L      00                              017150000000000000400000000000000000000                                                  20210422000000121
002DESADV403607600200240291630000054036076002002403607600200200000000000004036076002002000000000000002021051820210518                                                                      0                                             99                                   000 0000000000000000000000000000008372577202108372577001511                    2021003878450008EUR40472230410654434472844-3447/287441110044-3447/28 74411100STYLE.KRIS     28               00000    M      00                              017150000000000000300000000000000000000                                                  20210422000000121
002DESADV403607600200240291630000054036076002002403607600200200000000000004036076002002000000000000002021051820210518                                                                      0                                             99                                   000 0000000000000000000000000000008372577202108372577001511                    2021003878450008EUR40472260483514434472844-3447/287441110044-3447/28 74411100STYLE.KRIS     28               00000    S      00                              017150000000000000100000000000000000000                                                  20210422000000121
002DESADV403607600200240291630000054036076002002403607600200200000000000004036076002002000000000000002021051820210518                                                                      0                                             99                                   000 0000000000000000000000000000008372577202108372577001511                    2021003878450008EUR40472260483754434472844-3447/287441110044-3447/28 74411100STYLE.KRIS     28               00000   XL      00                              017150000000000000400000000000000000000                                                  20210422000000121
002DESADV403607600200240291630000054036076002002403607600200200000000000004036076002002000000000000002021051820210518                                                                      0                                             99                                   000 0000000000000000000000000000008372577202108372577001511                    2021003878450008EUR40472260483994434472844-3447/287441110044-3447/28 74411100STYLE.KRIS     28               00000  XXL      00                              017150000000000000300000000000000000000                                                  20210422000000121
002DESADV403607600200240291630000054036076002002403607600200200000000000004036076002002000000000000002021051820210518                                                                      0                                             99                                   000 0000000000000000000000000000008372577202108372577001511                    2021003878450008EUR40472260484054434472844-3447/287441110044-3447/28 74411100STYLE.KRIS     28               00000 XXXL      00                              018850000000000000200000000000000000000                                                  20210422000000121
003DESADV403607600200240291630000054036076002002403607600200200000000000004036076002002000000000000002021051820210518                                                                      0                                             99                                   000 0000000000000000000000000000008372577202108372577001511                    0000000000000000EUR000000000000000000000          00000000                                  00               00000           00                              000000000000000006300000000000000000000                                                  00000000000000000
001DESADV403607600200240291630000054036076002002403607600200200000000000004036076002002000000000000002021051820210518                                                                      0                                             99                                   000 0000000000000000000000000000008372578202108372578001511                    0000000000000000EUR000000000000000000000          00000000                                  00               00000           00                              000000000000000000000000000000000000000                                                  00000000000000000
002DESADV403607600200240291630000054036076002002403607600200200000000000004036076002002000000000000002021051820210518                                                                      0                                             99                                   000 0000000000000000000000000000008372578202108372578001511                    2021003878450001EUR40472291671724240972542-4097/257443010042-4097/25 74430100STYLE.HAROLD   25               00000    M      00                              024500000000000000400000000000000000000                                                  20210422000000121
002DESADV403607600200240291630000054036076002002403607600200200000000000004036076002002000000000000002021051820210518                                                                      0                                             99                                   000 0000000000000000000000000000008372578202108372578001511                    2021003878450001EUR40472291671654240972542-4097/257443010042-4097/25 74430100STYLE.HAROLD   25               00000    S      00                              024500000000000000300000000000000000000                                                  20210422000000121
002DESADV403607600200240291630000054036076002002403607600200200000000000004036076002002000000000000002021051820210518                                                                      0                                             99                                   000 0000000000000000000000000000008372578202108372578001511                    2021003878450001EUR40472291671964240972542-4097/257443010042-4097/25 74430100STYLE.HAROLD   25               00000   XL      00                              024500000000000000100000000000000000000                                                  20210422000000121
002DESADV403607600200240291630000054036076002002403607600200200000000000004036076002002000000000000002021051820210518                                                                      0                                             99                                   000 0000000000000000000000000000008372578202108372578001511                    2021003878450001EUR40472291672024240972542-4097/257443010042-4097/25 74430100STYLE.HAROLD   25               00000  XXL      00                              024500000000000000300000000000000000000                                                  20210422000000121
002DESADV403607600200240291630000054036076002002403607600200200000000000004036076002002000000000000002021051820210518                                                                      0                                             99                                   000 0000000000000000000000000000008372578202108372578001511                    2021003878450002EUR40472291672404240972742-4097/277443010042-4097/27 74430100STYLE.HAROLD   27               00000    L      00                              024500000000000000400000000000000000000                                                  20210422000000121
002DESADV403607600200240291630000054036076002002403607600200200000000000004036076002002000000000000002021051820210518                                                                      0                                             99                                   000 0000000000000000000000000000008372578202108372578001511                    2021003878450002EUR40472291672334240972742-4097/277443010042-4097/27 74430100STYLE.HAROLD   27               00000    M      00                              024500000000000000300000000000000000000                                                  20210422000000121
002DESADV403607600200240291630000054036076002002403607600200200000000000004036076002002000000000000002021051820210518                                                                      0                                             99                                   000 0000000000000000000000000000008372578202108372578001511                    2021003878450002EUR40472291672264240972742-4097/277443010042-4097/27 74430100STYLE.HAROLD   27               00000    S      00                              024500000000000000200000000000000000000                                                  20210422000000121
002DESADV403607600200240291630000054036076002002403607600200200000000000004036076002002000000000000002021051820210518                                                                      0                                             99                                   000 0000000000000000000000000000008372578202108372578001511                    2021003878450002EUR40472291672574240972742-4097/277443010042-4097/27 74430100STYLE.HAROLD   27               00000   XL      00                              024500000000000000400000000000000000000                                                  20210422000000121
002DESADV403607600200240291630000054036076002002403607600200200000000000004036076002002000000000000002021051820210518                                                                      0                                             99                                   000 0000000000000000000000000000008372578202108372578001511                    2021003878450002EUR40472291672644240972742-4097/277443010042-4097/27 74430100STYLE.HAROLD   27               00000  XXL      00                              024500000000000000300000000000000000000                                                  20210422000000121
002DESADV403607600200240291630000054036076002002403607600200200000000000004036076002002000000000000002021051820210518                                                                      0                                             99                                   000 0000000000000000000000000000008372578202108372578001511                    2021003878450002EUR40472291672714240972742-4097/277443010042-4097/27 74430100STYLE.HAROLD   27               00000 XXXL      00                              026950000000000000200000000000000000000                                                  20210422000000121
002DESADV403607600200240291630000054036076002002403607600200200000000000004036076002002000000000000002021051820210518                                                                      0                                             99                                   000 0000000000000000000000000000008372578202108372578001511                    2021003878450003EUR40472291670664241572742-4157/277443010042-4157/27 74430100STYLE.HAROLD   27               00000    L      00                              024500000000000000400000000000000000000                                                  20210422000000121
002DESADV403607600200240291630000054036076002002403607600200200000000000004036076002002000000000000002021051820210518                                                                      0                                             99                                   000 0000000000000000000000000000008372578202108372578001511                    2021003878450003EUR40472291670594241572742-4157/277443010042-4157/27 74430100STYLE.HAROLD   27               00000    M      00                              024500000000000000300000000000000000000                                                  20210422000000121
002DESADV403607600200240291630000054036076002002403607600200200000000000004036076002002000000000000002021051820210518                                                                      0                                             99                                   000 0000000000000000000000000000008372578202108372578001511                    2021003878450003EUR40472291670424241572742-4157/277443010042-4157/27 74430100STYLE.HAROLD   27               00000    S      00                              024500000000000000200000000000000000000                                                  20210422000000121
002DESADV403607600200240291630000054036076002002403607600200200000000000004036076002002000000000000002021051820210518                                                                      0                                             99                                   000 0000000000000000000000000000008372578202108372578001511                    2021003878450003EUR40472291670734241572742-4157/277443010042-4157/27 74430100STYLE.HAROLD   27               00000   XL      00                              024500000000000000400000000000000000000                                                  20210422000000121
002DESADV403607600200240291630000054036076002002403607600200200000000000004036076002002000000000000002021051820210518                                                                      0                                             99                                   000 0000000000000000000000000000008372578202108372578001511                    2021003878450003EUR40472291670804241572742-4157/277443010042-4157/27 74430100STYLE.HAROLD   27               00000  XXL      00                              024500000000000000300000000000000000000                                                  20210422000000121
002DESADV403607600200240291630000054036076002002403607600200200000000000004036076002002000000000000002021051820210518                                                                      0                                             99                                   000 0000000000000000000000000000008372578202108372578001511                    2021003878450003EUR40472291670974241572742-4157/277443010042-4157/27 74430100STYLE.HAROLD   27               00000 XXXL      00                              026950000000000000200000000000000000000                                                  20210422000000121
002DESADV403607600200240291630000054036076002002403607600200200000000000004036076002002000000000000002021051820210518                                                                      0                                             99                                   000 0000000000000000000000000000008372578202108372578001511                    2021003878450004EUR40472291671274241579942-4157/997443010042-4157/99 74430100STYLE.HAROLD   99               00000    L      00                              024500000000000000400000000000000000000                                                  20210422000000121
002DESADV403607600200240291630000054036076002002403607600200200000000000004036076002002000000000000002021051820210518                                                                      0                                             99                                   000 0000000000000000000000000000008372578202108372578001511                    2021003878450004EUR40472291671104241579942-4157/997443010042-4157/99 74430100STYLE.HAROLD   99               00000    M      00                              024500000000000000300000000000000000000                                                  20210422000000121
002DESADV403607600200240291630000054036076002002403607600200200000000000004036076002002000000000000002021051820210518                                                                      0                                             99                                   000 0000000000000000000000000000008372578202108372578001511                    2021003878450004EUR40472291671034241579942-4157/997443010042-4157/99 74430100STYLE.HAROLD   99               00000    S      00                              024500000000000000200000000000000000000                                                  20210422000000121
002DESADV403607600200240291630000054036076002002403607600200200000000000004036076002002000000000000002021051820210518                                                                      0                                             99                                   000 0000000000000000000000000000008372578202108372578001511                    2021003878450004EUR40472291671344241579942-4157/997443010042-4157/99 74430100STYLE.HAROLD   99               00000   XL      00                              024500000000000000400000000000000000000                                                  20210422000000121
002DESADV403607600200240291630000054036076002002403607600200200000000000004036076002002000000000000002021051820210518                                                                      0                                             99                                   000 0000000000000000000000000000008372578202108372578001511                    2021003878450004EUR40472291671414241579942-4157/997443010042-4157/99 74430100STYLE.HAROLD   99               00000  XXL      00                              024500000000000000300000000000000000000                                                  20210422000000121
002DESADV403607600200240291630000054036076002002403607600200200000000000004036076002002000000000000002021051820210518                                                                      0                                             99                                   000 0000000000000000000000000000008372578202108372578001511                    2021003878450004EUR40472291671584241579942-4157/997443010042-4157/99 74430100STYLE.HAROLD   99               00000 XXXL      00                              026950000000000000200000000000000000000                                                  20210422000000121
003DESADV403607600200240291630000054036076002002403607600200200000000000004036076002002000000000000002021051820210518                                                                      0                                             99                                   000 0000000000000000000000000000008372578202108372578001511                    0000000000000000EUR000000000000000000000          00000000                                  00               00000           00                              000000000000000006500000000000000000000                                                  00000000000000000
001DESADV403607600200240291630000054036076002002403607600200200000000000004036076002002000000000000002021051820210518                                                                      0                                             99                                   000 0000000000000000000000000000008372579202108372579001511                    0000000000000000EUR000000000000000000000          00000000                                  00               00000           00                              000000000000000000000000000000000000000                                                  00000000000000000
002DESADV403607600200240291630000054036076002002403607600200200000000000004036076002002000000000000002021051820210518                                                                      0                                             99                                   000 0000000000000000000000000000008372579202108372579001511                    2021003877390001EUR40644998163192257072322-5707/237043700022-5707/23 70437000STYLE.PELé     23               00000    L      00                              024500000000000000500000000000000000000                                                  20210422000000121
002DESADV403607600200240291630000054036076002002403607600200200000000000004036076002002000000000000002021051820210518                                                                      0                                             99                                   000 0000000000000000000000000000008372579202108372579001511                    2021003877390001EUR40644998163022257072322-5707/237043700022-5707/23 70437000STYLE.PELé     23               00000    M      00                              024500000000000000400000000000000000000                                                  20210422000000121
002DESADV403607600200240291630000054036076002002403607600200200000000000004036076002002000000000000002021051820210518                                                                      0                                             99                                   000 0000000000000000000000000000008372579202108372579001511                    2021003877390001EUR40644998162962257072322-5707/237043700022-5707/23 70437000STYLE.PELé     23               00000    S      00                              024500000000000000300000000000000000000                                                  20210422000000121
002DESADV403607600200240291630000054036076002002403607600200200000000000004036076002002000000000000002021051820210518                                                                      0                                             99                                   000 0000000000000000000000000000008372579202108372579001511                    2021003877390001EUR40644998163262257072322-5707/237043700022-5707/23 70437000STYLE.PELé     23               00000   XL      00                              024500000000000000500000000000000000000                                                  20210422000000121
002DESADV403607600200240291630000054036076002002403607600200200000000000004036076002002000000000000002021051820210518                                                                      0                                             99                                   000 0000000000000000000000000000008372579202108372579001511                    2021003877390001EUR40644998163332257072322-5707/237043700022-5707/23 70437000STYLE.PELé     23               00000  XXL      00                              024500000000000000400000000000000000000                                                  20210422000000121
002DESADV403607600200240291630000054036076002002403607600200200000000000004036076002002000000000000002021051820210518                                                                      0                                             99                                   000 0000000000000000000000000000008372579202108372579001511                    2021003877390001EUR40644998163402257072322-5707/237043700022-5707/23 70437000STYLE.PELé     23               00000 XXXL      00                              026950000000000000300000000000000000000                                                  20210422000000121
002DESADV403607600200240291630000054036076002002403607600200200000000000004036076002002000000000000002021051820210518                                                                      0                                             99                                   000 0000000000000000000000000000008372579202108372579001511                    2021003877390002EUR40644998164182257072622-5707/267043700022-5707/26 70437000STYLE.PELé     26               00000    L      00                              024500000000000000500000000000000000000                                                  20210422000000121
002DESADV403607600200240291630000054036076002002403607600200200000000000004036076002002000000000000002021051820210518                                                                      0                                             99                                   000 0000000000000000000000000000008372579202108372579001511                    2021003877390002EUR40644998164012257072622-5707/267043700022-5707/26 70437000STYLE.PELé     26               00000    M      00                              024500000000000000400000000000000000000                                                  20210422000000121
002DESADV403607600200240291630000054036076002002403607600200200000000000004036076002002000000000000002021051820210518                                                                      0                                             99                                   000 0000000000000000000000000000008372579202108372579001511                    2021003877390002EUR40644998163952257072622-5707/267043700022-5707/26 70437000STYLE.PELé     26               00000    S      00                              024500000000000000300000000000000000000                                                  20210422000000121
002DESADV403607600200240291630000054036076002002403607600200200000000000004036076002002000000000000002021051820210518                                                                      0                                             99                                   000 0000000000000000000000000000008372579202108372579001511                    2021003877390002EUR40644998164252257072622-5707/267043700022-5707/26 70437000STYLE.PELé     26               00000   XL      00                              024500000000000000500000000000000000000                                                  20210422000000121
002DESADV403607600200240291630000054036076002002403607600200200000000000004036076002002000000000000002021051820210518                                                                      0                                             99                                   000 0000000000000000000000000000008372579202108372579001511                    2021003877390002EUR40644998164322257072622-5707/267043700022-5707/26 70437000STYLE.PELé     26               00000  XXL      00                              024500000000000000400000000000000000000                                                  20210422000000121
002DESADV403607600200240291630000054036076002002403607600200200000000000004036076002002000000000000002021051820210518                                                                      0                                             99                                   000 0000000000000000000000000000008372579202108372579001511                    2021003877390002EUR40644998164492257072622-5707/267043700022-5707/26 70437000STYLE.PELé     26               00000 XXXL      00                              026950000000000000300000000000000000000                                                  20210422000000121
002DESADV403607600200240291630000054036076002002403607600200200000000000004036076002002000000000000002021051820210518                                                                      0                                             99                                   000 0000000000000000000000000000008372579202108372579001511                    2021003877390003EUR40644998165172257073522-5707/357043700022-5707/35 70437000STYLE.PELé     35               00000    L      00                              024500000000000000500000000000000000000                                                  20210422000000121
002DESADV403607600200240291630000054036076002002403607600200200000000000004036076002002000000000000002021051820210518                                                                      0                                             99                                   000 0000000000000000000000000000008372579202108372579001511                    2021003877390003EUR40644998165002257073522-5707/357043700022-5707/35 70437000STYLE.PELé     35               00000    M      00                              024500000000000000400000000000000000000                                                  20210422000000121
002DESADV403607600200240291630000054036076002002403607600200200000000000004036076002002000000000000002021051820210518                                                                      0                                             99                                   000 0000000000000000000000000000008372579202108372579001511                    2021003877390003EUR40644998164942257073522-5707/357043700022-5707/35 70437000STYLE.PELé     35               00000    S      00                              024500000000000000300000000000000000000                                                  20210422000000121
002DESADV403607600200240291630000054036076002002403607600200200000000000004036076002002000000000000002021051820210518                                                                      0                                             99                                   000 0000000000000000000000000000008372579202108372579001511                    2021003877390003EUR40644998165242257073522-5707/357043700022-5707/35 70437000STYLE.PELé     35               00000   XL      00                              024500000000000000500000000000000000000                                                  20210422000000121
002DESADV403607600200240291630000054036076002002403607600200200000000000004036076002002000000000000002021051820210518                                                                      0                                             99                                   000 0000000000000000000000000000008372579202108372579001511                    2021003877390003EUR40644998165312257073522-5707/357043700022-5707/35 70437000STYLE.PELé     35               00000  XXL      00                              024500000000000000400000000000000000000                                                  20210422000000121
002DESADV403607600200240291630000054036076002002403607600200200000000000004036076002002000000000000002021051820210518                                                                      0                                             99                                   000 0000000000000000000000000000008372579202108372579001511                    2021003877390003EUR40644998165482257073522-5707/357043700022-5707/35 70437000STYLE.PELé     35               00000 XXXL      00                              026950000000000000300000000000000000000                                                  20210422000000121
002DESADV403607600200240291630000054036076002002403607600200200000000000004036076002002000000000000002021051820210518                                                                      0                                             99                                   000 0000000000000000000000000000008372579202108372579001511                    2021003877390004EUR40644998166162257076522-5707/657043700022-5707/65 70437000STYLE.PELé     65               00000    L      00                              024500000000000000500000000000000000000                                                  20210422000000121
002DESADV403607600200240291630000054036076002002403607600200200000000000004036076002002000000000000002021051820210518                                                                      0                                             99                                   000 0000000000000000000000000000008372579202108372579001511                    2021003877390004EUR40644998166092257076522-5707/657043700022-5707/65 70437000STYLE.PELé     65               00000    M      00                              024500000000000000400000000000000000000                                                  20210422000000121
002DESADV403607600200240291630000054036076002002403607600200200000000000004036076002002000000000000002021051820210518                                                                      0                                             99                                   000 0000000000000000000000000000008372579202108372579001511                    2021003877390004EUR40644998165932257076522-5707/657043700022-5707/65 70437000STYLE.PELé     65               00000    S      00                              024500000000000000300000000000000000000                                                  20210422000000121
002DESADV403607600200240291630000054036076002002403607600200200000000000004036076002002000000000000002021051820210518                                                                      0                                             99                                   000 0000000000000000000000000000008372579202108372579001511                    2021003877390004EUR40644998166232257076522-5707/657043700022-5707/65 70437000STYLE.PELé     65               00000   XL      00                              024500000000000000500000000000000000000                                                  20210422000000121
002DESADV403607600200240291630000054036076002002403607600200200000000000004036076002002000000000000002021051820210518                                                                      0                                             99                                   000 0000000000000000000000000000008372579202108372579001511                    2021003877390004EUR40644998166302257076522-5707/657043700022-5707/65 70437000STYLE.PELé     65               00000  XXL      00                              024500000000000000400000000000000000000                                                  20210422000000121
002DESADV403607600200240291630000054036076002002403607600200200000000000004036076002002000000000000002021051820210518                                                                      0                                             99                                   000 0000000000000000000000000000008372579202108372579001511                    2021003877390004EUR40644998166472257076522-5707/657043700022-5707/65 70437000STYLE.PELé     65               00000 XXXL      00                              026950000000000000300000000000000000000                                                  20210422000000121
002DESADV403607600200240291630000054036076002002403607600200200000000000004036076002002000000000000002021051820210518                                                                      0                                             99                                   000 0000000000000000000000000000008372579202108372579001511                    2021003877390005EUR40644998251202267242322-6724/237068720022-6724/23 70687200STYLE.SKY      23               00000    L      00                              055900000000000000300000000000000000000                                                  20210422000000121
002DESADV403607600200240291630000054036076002002403607600200200000000000004036076002002000000000000002021051820210518                                                                      0                                             99                                   000 0000000000000000000000000000008372579202108372579001511                    2021003877390005EUR40644998251132267242322-6724/237068720022-6724/23 70687200STYLE.SKY      23               00000    M      00                              055900000000000000200000000000000000000                                                  20210422000000121
002DESADV403607600200240291630000054036076002002403607600200200000000000004036076002002000000000000002021051820210518                                                                      0                                             99                                   000 0000000000000000000000000000008372579202108372579001511                    2021003877390005EUR40644998251372267242322-6724/237068720022-6724/23 70687200STYLE.SKY      23               00000   XL      00                              055900000000000000300000000000000000000                                                  20210422000000121
002DESADV403607600200240291630000054036076002002403607600200200000000000004036076002002000000000000002021051820210518                                                                      0                                             99                                   000 0000000000000000000000000000008372579202108372579001511                    2021003877390005EUR40644998251442267242322-6724/237068720022-6724/23 70687200STYLE.SKY      23               00000  XXL      00                              055900000000000000300000000000000000000                                                  20210422000000121
002DESADV403607600200240291630000054036076002002403607600200200000000000004036076002002000000000000002021051820210518                                                                      0                                             99                                   000 0000000000000000000000000000008372579202108372579001511                    2021003877390005EUR40644998251512267242322-6724/237068720022-6724/23 70687200STYLE.SKY      23               00000 XXXL      00                              061500000000000000200000000000000000000                                                  20210422000000121
002DESADV403607600200240291630000054036076002002403607600200200000000000004036076002002000000000000002021051820210518                                                                      0                                             99                                   000 0000000000000000000000000000008372579202108372579001511                    2021003877390006EUR40644998251992267243222-6724/327068720022-6724/32 70687200STYLE.SKY      32               00000    L      00                              055900000000000000300000000000000000000                                                  20210422000000121
002DESADV403607600200240291630000054036076002002403607600200200000000000004036076002002000000000000002021051820210518                                                                      0                                             99                                   000 0000000000000000000000000000008372579202108372579001511                    2021003877390006EUR40644998251822267243222-6724/327068720022-6724/32 70687200STYLE.SKY      32               00000    M      00                              055900000000000000200000000000000000000                                                  20210422000000121
002DESADV403607600200240291630000054036076002002403607600200200000000000004036076002002000000000000002021051820210518                                                                      0                                             99                                   000 0000000000000000000000000000008372579202108372579001511                    2021003877390006EUR40644998252052267243222-6724/327068720022-6724/32 70687200STYLE.SKY      32               00000   XL      00                              055900000000000000300000000000000000000                                                  20210422000000121
002DESADV403607600200240291630000054036076002002403607600200200000000000004036076002002000000000000002021051820210518                                                                      0                                             99                                   000 0000000000000000000000000000008372579202108372579001511                    2021003877390006EUR40644998252122267243222-6724/327068720022-6724/32 70687200STYLE.SKY      32               00000  XXL      00                              055900000000000000300000000000000000000                                                  20210422000000121
002DESADV403607600200240291630000054036076002002403607600200200000000000004036076002002000000000000002021051820210518                                                                      0                                             99                                   000 0000000000000000000000000000008372579202108372579001511                    2021003877390006EUR40644998252292267243222-6724/327068720022-6724/32 70687200STYLE.SKY      32               00000 XXXL      00                              061500000000000000200000000000000000000                                                  20210422000000121
002DESADV403607600200240291630000054036076002002403607600200200000000000004036076002002000000000000002021051820210518                                                                      0                                             99                                   000 0000000000000000000000000000008372579202108372579001511                    2021003877390007EUR40644998248572252570422-5257/047068250022-5257/04 70682500STYLE.SCOTT    04               00000    L      00                              028000000000000000300000000000000000000                                                  20210422000000121
002DESADV403607600200240291630000054036076002002403607600200200000000000004036076002002000000000000002021051820210518                                                                      0                                             99                                   000 0000000000000000000000000000008372579202108372579001511                    2021003877390007EUR40644998248402252570422-5257/047068250022-5257/04 70682500STYLE.SCOTT    04               00000    M      00                              028000000000000000200000000000000000000                                                  20210422000000121
002DESADV403607600200240291630000054036076002002403607600200200000000000004036076002002000000000000002021051820210518                                                                      0                                             99                                   000 0000000000000000000000000000008372579202108372579001511                    2021003877390007EUR40644998248642252570422-5257/047068250022-5257/04 70682500STYLE.SCOTT    04               00000   XL      00                              028000000000000000300000000000000000000                                                  20210422000000121
002DESADV403607600200240291630000054036076002002403607600200200000000000004036076002002000000000000002021051820210518                                                                      0                                             99                                   000 0000000000000000000000000000008372579202108372579001511                    2021003877390007EUR40644998248712252570422-5257/047068250022-5257/04 70682500STYLE.SCOTT    04               00000  XXL      00                              028000000000000000300000000000000000000                                                  20210422000000121
002DESADV403607600200240291630000054036076002002403607600200200000000000004036076002002000000000000002021051820210518                                                                      0                                             99                                   000 0000000000000000000000000000008372579202108372579001511                    2021003877390007EUR40644998248882252570422-5257/047068250022-5257/04 70682500STYLE.SCOTT    04               00000 XXXL      00                              030800000000000000200000000000000000000                                                  20210422000000121
003DESADV403607600200240291630000054036076002002403607600200200000000000004036076002002000000000000002021051820210518                                                                      0                                             99                                   000 0000000000000000000000000000008372579202108372579001511                    0000000000000000EUR000000000000000000000          00000000                                  00               00000           00                              000000000000000013500000000000000000000                                                  00000000000000000
001DESADV403607600200240291630000054036076002002403607600200200000000000004036076002002000000000000002021051820210518                                                                      0                                             99                                   000 0000000000000000000000000000008372580202108372580001511                    0000000000000000EUR000000000000000000000          00000000                                  00               00000           00                              000000000000000000000000000000000000000                                                  00000000000000000
002DESADV403607600200240291630000054036076002002403607600200200000000000004036076002002000000000000002021051820210518                                                                      0                                             99                                   000 0000000000000000000000000000008372580202108372580001511                    2021003877390008EUR40448191887842247672322-4767/237043840022-4767/23 70438400STYLE.PETTER   23               00000    L      00                              015000000000000000500000000000000000000                                                  20210422000000121
002DESADV403607600200240291630000054036076002002403607600200200000000000004036076002002000000000000002021051820210518                                                                      0                                             99                                   000 0000000000000000000000000000008372580202108372580001511                    2021003877390008EUR40448191887772247672322-4767/237043840022-4767/23 70438400STYLE.PETTER   23               00000    M      00                              015000000000000000400000000000000000000                                                  20210422000000121
002DESADV403607600200240291630000054036076002002403607600200200000000000004036076002002000000000000002021051820210518                                                                      0                                             99                                   000 0000000000000000000000000000008372580202108372580001511                    2021003877390008EUR40448192838092247672322-4767/237043840022-4767/23 70438400STYLE.PETTER   23               00000    S      00                              015000000000000000300000000000000000000                                                  20210422000000121
002DESADV403607600200240291630000054036076002002403607600200200000000000004036076002002000000000000002021051820210518                                                                      0                                             99                                   000 0000000000000000000000000000008372580202108372580001511                    2021003877390008EUR40448192838852247672322-4767/237043840022-4767/23 70438400STYLE.PETTER   23               00000   XL      00                              015000000000000000500000000000000000000                                                  20210422000000121
002DESADV403607600200240291630000054036076002002403607600200200000000000004036076002002000000000000002021051820210518                                                                      0                                             99                                   000 0000000000000000000000000000008372580202108372580001511                    2021003877390008EUR40448192838922247672322-4767/237043840022-4767/23 70438400STYLE.PETTER   23               00000  XXL      00                              015000000000000000400000000000000000000                                                  20210422000000121
002DESADV403607600200240291630000054036076002002403607600200200000000000004036076002002000000000000002021051820210518                                                                      0                                             99                                   000 0000000000000000000000000000008372580202108372580001511                    2021003877390008EUR40448192839152247672322-4767/237043840022-4767/23 70438400STYLE.PETTER   23               00000 XXXL      00                              016500000000000000100000000000000000000                                                  20210422000000121
002DESADV403607600200240291630000054036076002002403607600200200000000000004036076002002000000000000002021051820210518                                                                      0                                             99                                   000 0000000000000000000000000000008372580202108372580001511                    2021003877390009EUR40644998158172247672422-4767/247043840022-4767/24 70438400STYLE.PETTER   24               00000    L      00                              015000000000000000500000000000000000000                                                  20210422000000121
002DESADV403607600200240291630000054036076002002403607600200200000000000004036076002002000000000000002021051820210518                                                                      0                                             99                                   000 0000000000000000000000000000008372580202108372580001511                    2021003877390009EUR40644998158002247672422-4767/247043840022-4767/24 70438400STYLE.PETTER   24               00000    M      00                              015000000000000000400000000000000000000                                                  20210422000000121
002DESADV403607600200240291630000054036076002002403607600200200000000000004036076002002000000000000002021051820210518                                                                      0                                             99                                   000 0000000000000000000000000000008372580202108372580001511                    2021003877390009EUR40644998158242247672422-4767/247043840022-4767/24 70438400STYLE.PETTER   24               00000   XL      00                              015000000000000000500000000000000000000                                                  20210422000000121
002DESADV403607600200240291630000054036076002002403607600200200000000000004036076002002000000000000002021051820210518                                                                      0                                             99                                   000 0000000000000000000000000000008372580202108372580001511                    2021003877390009EUR40644998158312247672422-4767/247043840022-4767/24 70438400STYLE.PETTER   24               00000  XXL      00                              015000000000000000400000000000000000000                                                  20210422000000121
002DESADV403607600200240291630000054036076002002403607600200200000000000004036076002002000000000000002021051820210518                                                                      0                                             99                                   000 0000000000000000000000000000008372580202108372580001511                    2021003877390009EUR40644998158482247672422-4767/247043840022-4767/24 70438400STYLE.PETTER   24               00000 XXXL      00                              016500000000000000300000000000000000000                                                  20210422000000121
002DESADV403607600200240291630000054036076002002403607600200200000000000004036076002002000000000000002021051820210518                                                                      0                                             99                                   000 0000000000000000000000000000008372580202108372580001511                    2021003877390010EUR40644998159162247672622-4767/267043840022-4767/26 70438400STYLE.PETTER   26               00000    L      00                              015000000000000000500000000000000000000                                                  20210422000000121
002DESADV403607600200240291630000054036076002002403607600200200000000000004036076002002000000000000002021051820210518                                                                      0                                             99                                   000 0000000000000000000000000000008372580202108372580001511                    2021003877390010EUR40644998159092247672622-4767/267043840022-4767/26 70438400STYLE.PETTER   26               00000    M      00                              015000000000000000400000000000000000000                                                  20210422000000121
002DESADV403607600200240291630000054036076002002403607600200200000000000004036076002002000000000000002021051820210518                                                                      0                                             99                                   000 0000000000000000000000000000008372580202108372580001511                    2021003877390010EUR40644998158932247672622-4767/267043840022-4767/26 70438400STYLE.PETTER   26               00000    S      00                              015000000000000000300000000000000000000                                                  20210422000000121
002DESADV403607600200240291630000054036076002002403607600200200000000000004036076002002000000000000002021051820210518                                                                      0                                             99                                   000 0000000000000000000000000000008372580202108372580001511                    2021003877390010EUR40644998159232247672622-4767/267043840022-4767/26 70438400STYLE.PETTER   26               00000   XL      00                              015000000000000000500000000000000000000                                                  20210422000000121
002DESADV403607600200240291630000054036076002002403607600200200000000000004036076002002000000000000002021051820210518                                                                      0                                             99                                   000 0000000000000000000000000000008372580202108372580001511                    2021003877390010EUR40644998159302247672622-4767/267043840022-4767/26 70438400STYLE.PETTER   26               00000  XXL      00                              015000000000000000400000000000000000000                                                  20210422000000121
002DESADV403607600200240291630000054036076002002403607600200200000000000004036076002002000000000000002021051820210518                                                                      0                                             99                                   000 0000000000000000000000000000008372580202108372580001511                    2021003877390010EUR40644998159472247672622-4767/267043840022-4767/26 70438400STYLE.PETTER   26               00000 XXXL      00                              016500000000000000300000000000000000000                                                  20210422000000121
002DESADV403607600200240291630000054036076002002403607600200200000000000004036076002002000000000000002021051820210518                                                                      0                                             99                                   000 0000000000000000000000000000008372580202108372580001511                    2021003877390011EUR40644998160122247673322-4767/337043840022-4767/33 70438400STYLE.PETTER   33               00000    L      00                              015000000000000000500000000000000000000                                                  20210422000000121
002DESADV403607600200240291630000054036076002002403607600200200000000000004036076002002000000000000002021051820210518                                                                      0                                             99                                   000 0000000000000000000000000000008372580202108372580001511                    2021003877390011EUR40644998160052247673322-4767/337043840022-4767/33 70438400STYLE.PETTER   33               00000    M      00                              015000000000000000400000000000000000000                                                  20210422000000121
002DESADV403607600200240291630000054036076002002403607600200200000000000004036076002002000000000000002021051820210518                                                                      0                                             99                                   000 0000000000000000000000000000008372580202108372580001511                    2021003877390011EUR40644998160292247673322-4767/337043840022-4767/33 70438400STYLE.PETTER   33               00000   XL      00                              015000000000000000500000000000000000000                                                  20210422000000121
002DESADV403607600200240291630000054036076002002403607600200200000000000004036076002002000000000000002021051820210518                                                                      0                                             99                                   000 0000000000000000000000000000008372580202108372580001511                    2021003877390011EUR40644998160362247673322-4767/337043840022-4767/33 70438400STYLE.PETTER   33               00000  XXL      00                              015000000000000000400000000000000000000                                                  20210422000000121
002DESADV403607600200240291630000054036076002002403607600200200000000000004036076002002000000000000002021051820210518                                                                      0                                             99                                   000 0000000000000000000000000000008372580202108372580001511                    2021003877390011EUR40644998160432247673322-4767/337043840022-4767/33 70438400STYLE.PETTER   33               00000 XXXL      00                              016500000000000000300000000000000000000                                                  20210422000000121
002DESADV403607600200240291630000054036076002002403607600200200000000000004036076002002000000000000002021051820210518                                                                      0                                             99                                   000 0000000000000000000000000000008372580202108372580001511                    2021003877390012EUR40448192847382247674222-4767/427043840022-4767/42 70438400STYLE.PETTER   42               00000    L      00                              015000000000000000500000000000000000000                                                  20210422000000121
002DESADV403607600200240291630000054036076002002403607600200200000000000004036076002002000000000000002021051820210518                                                                      0                                             99                                   000 0000000000000000000000000000008372580202108372580001511                    2021003877390012EUR40448192847212247674222-4767/427043840022-4767/42 70438400STYLE.PETTER   42               00000    M      00                              015000000000000000400000000000000000000                                                  20210422000000121
002DESADV403607600200240291630000054036076002002403607600200200000000000004036076002002000000000000002021051820210518                                                                      0                                             99                                   000 0000000000000000000000000000008372580202108372580001511                    2021003877390012EUR40448192847452247674222-4767/427043840022-4767/42 70438400STYLE.PETTER   42               00000   XL      00                              015000000000000000500000000000000000000                                                  20210422000000121
002DESADV403607600200240291630000054036076002002403607600200200000000000004036076002002000000000000002021051820210518                                                                      0                                             99                                   000 0000000000000000000000000000008372580202108372580001511                    2021003877390012EUR40448192847522247674222-4767/427043840022-4767/42 70438400STYLE.PETTER   42               00000  XXL      00                              015000000000000000400000000000000000000                                                  20210422000000121
002DESADV403607600200240291630000054036076002002403607600200200000000000004036076002002000000000000002021051820210518                                                                      0                                             99                                   000 0000000000000000000000000000008372580202108372580001511                    2021003877390012EUR40448192847692247674222-4767/427043840022-4767/42 70438400STYLE.PETTER   42               00000 XXXL      00                              016500000000000000300000000000000000000                                                  20210422000000121
002DESADV403607600200240291630000054036076002002403607600200200000000000004036076002002000000000000002021051820210518                                                                      0                                             99                                   000 0000000000000000000000000000008372580202108372580001511                    2021003877390013EUR40448192851622247675322-4767/537043840022-4767/53 70438400STYLE.PETTER   53               00000    L      00                              015000000000000000500000000000000000000                                                  20210422000000121
002DESADV403607600200240291630000054036076002002403607600200200000000000004036076002002000000000000002021051820210518                                                                      0                                             99                                   000 0000000000000000000000000000008372580202108372580001511                    2021003877390013EUR40448192851552247675322-4767/537043840022-4767/53 70438400STYLE.PETTER   53               00000    M      00                              015000000000000000400000000000000000000                                                  20210422000000121
002DESADV403607600200240291630000054036076002002403607600200200000000000004036076002002000000000000002021051820210518                                                                      0                                             99                                   000 0000000000000000000000000000008372580202108372580001511                    2021003877390013EUR40448192851792247675322-4767/537043840022-4767/53 70438400STYLE.PETTER   53               00000   XL      00                              015000000000000000500000000000000000000                                                  20210422000000121
002DESADV403607600200240291630000054036076002002403607600200200000000000004036076002002000000000000002021051820210518                                                                      0                                             99                                   000 0000000000000000000000000000008372580202108372580001511                    2021003877390013EUR40448192851862247675322-4767/537043840022-4767/53 70438400STYLE.PETTER   53               00000  XXL      00                              015000000000000000400000000000000000000                                                  20210422000000121
002DESADV403607600200240291630000054036076002002403607600200200000000000004036076002002000000000000002021051820210518                                                                      0                                             99                                   000 0000000000000000000000000000008372580202108372580001511                    2021003877390013EUR40448192851932247675322-4767/537043840022-4767/53 70438400STYLE.PETTER   53               00000 XXXL      00                              016500000000000000300000000000000000000                                                  20210422000000121
002DESADV403607600200240291630000054036076002002403607600200200000000000004036076002002000000000000002021051820210518                                                                      0                                             99                                   000 0000000000000000000000000000008372580202108372580001511                    2021003877390014EUR40644998157182247672322-4767/237043890022-4767/23 70438900STYLE.POLLUX   23               00000    L      00                              032400000000000000500000000000000000000                                                  20210422000000121
002DESADV403607600200240291630000054036076002002403607600200200000000000004036076002002000000000000002021051820210518                                                                      0                                             99                                   000 0000000000000000000000000000008372580202108372580001511                    2021003877390014EUR40644998157012247672322-4767/237043890022-4767/23 70438900STYLE.POLLUX   23               00000    M      00                              032400000000000000400000000000000000000                                                  20210422000000121
002DESADV403607600200240291630000054036076002002403607600200200000000000004036076002002000000000000002021051820210518                                                                      0                                             99                                   000 0000000000000000000000000000008372580202108372580001511                    2021003877390014EUR40644998157252247672322-4767/237043890022-4767/23 70438900STYLE.POLLUX   23               00000   XL      00                              032400000000000000500000000000000000000                                                  20210422000000121
002DESADV403607600200240291630000054036076002002403607600200200000000000004036076002002000000000000002021051820210518                                                                      0                                             99                                   000 0000000000000000000000000000008372580202108372580001511                    2021003877390014EUR40644998157322247672322-4767/237043890022-4767/23 70438900STYLE.POLLUX   23               00000  XXL      00                              032400000000000000400000000000000000000                                                  20210422000000121
002DESADV403607600200240291630000054036076002002403607600200200000000000004036076002002000000000000002021051820210518                                                                      0                                             99                                   000 0000000000000000000000000000008372580202108372580001511                    2021003877390014EUR40644998157492247672322-4767/237043890022-4767/23 70438900STYLE.POLLUX   23               00000 XXXL      00                              035650000000000000300000000000000000000                                                  20210422000000121
002DESADV403607600200240291630000054036076002002403607600200200000000000004036076002002000000000000002021051820210518                                                                      0                                             99                                   000 0000000000000000000000000000008372580202108372580001511                    2021003877390015EUR40644998161112247673322-4767/337043890022-4767/33 70438900STYLE.POLLUX   33               00000    L      00                              032400000000000000500000000000000000000                                                  20210422000000121
002DESADV403607600200240291630000054036076002002403607600200200000000000004036076002002000000000000002021051820210518                                                                      0                                             99                                   000 0000000000000000000000000000008372580202108372580001511                    2021003877390015EUR40644998161042247673322-4767/337043890022-4767/33 70438900STYLE.POLLUX   33               00000    M      00                              032400000000000000400000000000000000000                                                  20210422000000121
002DESADV403607600200240291630000054036076002002403607600200200000000000004036076002002000000000000002021051820210518                                                                      0                                             99                                   000 0000000000000000000000000000008372580202108372580001511                    2021003877390015EUR40644998161282247673322-4767/337043890022-4767/33 70438900STYLE.POLLUX   33               00000   XL      00                              032400000000000000500000000000000000000                                                  20210422000000121
002DESADV403607600200240291630000054036076002002403607600200200000000000004036076002002000000000000002021051820210518                                                                      0                                             99                                   000 0000000000000000000000000000008372580202108372580001511                    2021003877390015EUR40644998161352247673322-4767/337043890022-4767/33 70438900STYLE.POLLUX   33               00000  XXL      00                              032400000000000000400000000000000000000                                                  20210422000000121
002DESADV403607600200240291630000054036076002002403607600200200000000000004036076002002000000000000002021051820210518                                                                      0                                             99                                   000 0000000000000000000000000000008372580202108372580001511                    2021003877390015EUR40644998161422247673322-4767/337043890022-4767/33 70438900STYLE.POLLUX   33               00000 XXXL      00                              035650000000000000300000000000000000000                                                  20210422000000121
003DESADV403607600200240291630000054036076002002403607600200200000000000004036076002002000000000000002021051820210518                                                                      0                                             99                                   000 0000000000000000000000000000008372580202108372580001511                    0000000000000000EUR000000000000000000000          00000000                                  00               00000           00                              000000000000000017200000000000000000000                                                  00000000000000000
001DESADV403607600200240291630000054036076002002403607600200200000000000004036076002002000000000000002021051820210518                                                                      0                                             99                                   000 0000000000000000000000000000008372588202108372588001511                    0000000000000000EUR000000000000000000000          00000000                                  00               00000           00                              000000000000000000000000000000000000000                                                  00000000000000000
002DESADV403607600200240291630000054036076002002403607600200200000000000004036076002002000000000000002021051820210518                                                                      0                                             99                                   000 0000000000000000000000000000008372588202108372588001511                    2021003877390016EUR40644998149192245070222-4507/027043400022-4507/02 70434000STYLE.PETE     02               00000    L      00                              028400000000000000500000000000000000000                                                  20210422000000121
002DESADV403607600200240291630000054036076002002403607600200200000000000004036076002002000000000000002021051820210518                                                                      0                                             99                                   000 0000000000000000000000000000008372588202108372588001511                    2021003877390016EUR40644998149022245070222-4507/027043400022-4507/02 70434000STYLE.PETE     02               00000    M      00                              028400000000000000400000000000000000000                                                  20210422000000121
002DESADV403607600200240291630000054036076002002403607600200200000000000004036076002002000000000000002021051820210518                                                                      0                                             99                                   000 0000000000000000000000000000008372588202108372588001511                    2021003877390016EUR40644998149262245070222-4507/027043400022-4507/02 70434000STYLE.PETE     02               00000   XL      00                              028400000000000000500000000000000000000                                                  20210422000000121
002DESADV403607600200240291630000054036076002002403607600200200000000000004036076002002000000000000002021051820210518                                                                      0                                             99                                   000 0000000000000000000000000000008372588202108372588001511                    2021003877390016EUR40644998149332245070222-4507/027043400022-4507/02 70434000STYLE.PETE     02               00000  XXL      00                              028400000000000000400000000000000000000                                                  20210422000000121
002DESADV403607600200240291630000054036076002002403607600200200000000000004036076002002000000000000002021051820210518                                                                      0                                             99                                   000 0000000000000000000000000000008372588202108372588001511                    2021003877390016EUR40644998149402245070222-4507/027043400022-4507/02 70434000STYLE.PETE     02               00000 XXXL      00                              031250000000000000300000000000000000000                                                  20210422000000121
002DESADV403607600200240291630000054036076002002403607600200200000000000004036076002002000000000000002021051820210518                                                                      0                                             99                                   000 0000000000000000000000000000008372588202108372588001511                    2021003877390017EUR40644998150152245071822-4507/187043400022-4507/18 70434000STYLE.PETE     18               00000    L      00                              028400000000000000500000000000000000000                                                  20210422000000121
002DESADV403607600200240291630000054036076002002403607600200200000000000004036076002002000000000000002021051820210518                                                                      0                                             99                                   000 0000000000000000000000000000008372588202108372588001511                    2021003877390017EUR40644998150082245071822-4507/187043400022-4507/18 70434000STYLE.PETE     18               00000    M      00                              028400000000000000400000000000000000000                                                  20210422000000121
002DESADV403607600200240291630000054036076002002403607600200200000000000004036076002002000000000000002021051820210518                                                                      0                                             99                                   000 0000000000000000000000000000008372588202108372588001511                    2021003877390017EUR40644998150222245071822-4507/187043400022-4507/18 70434000STYLE.PETE     18               00000   XL      00                              028400000000000000500000000000000000000                                                  20210422000000121
002DESADV403607600200240291630000054036076002002403607600200200000000000004036076002002000000000000002021051820210518                                                                      0                                             99                                   000 0000000000000000000000000000008372588202108372588001511                    2021003877390017EUR40644998150392245071822-4507/187043400022-4507/18 70434000STYLE.PETE     18               00000  XXL      00                              028400000000000000400000000000000000000                                                  20210422000000121
002DESADV403607600200240291630000054036076002002403607600200200000000000004036076002002000000000000002021051820210518                                                                      0                                             99                                   000 0000000000000000000000000000008372588202108372588001511                    2021003877390017EUR40644998150462245071822-4507/187043400022-4507/18 70434000STYLE.PETE     18               00000 XXXL      00                              031250000000000000300000000000000000000                                                  20210422000000121
002DESADV403607600200240291630000054036076002002403607600200200000000000004036076002002000000000000002021051820210518                                                                      0                                             99                                   000 0000000000000000000000000000008372588202108372588001511                    2021003877390018EUR40644998151142245072322-4507/237043400022-4507/23 70434000STYLE.PETE     23               00000    L      00                              028400000000000000500000000000000000000                                                  20210422000000121
002DESADV403607600200240291630000054036076002002403607600200200000000000004036076002002000000000000002021051820210518                                                                      0                                             99                                   000 0000000000000000000000000000008372588202108372588001511                    2021003877390018EUR40644998151072245072322-4507/237043400022-4507/23 70434000STYLE.PETE     23               00000    M      00                              028400000000000000400000000000000000000                                                  20210422000000121
002DESADV403607600200240291630000054036076002002403607600200200000000000004036076002002000000000000002021051820210518                                                                      0                                             99                                   000 0000000000000000000000000000008372588202108372588001511                    2021003877390018EUR40644998150912245072322-4507/237043400022-4507/23 70434000STYLE.PETE     23               00000    S      00                              028400000000000000300000000000000000000                                                  20210422000000121
002DESADV403607600200240291630000054036076002002403607600200200000000000004036076002002000000000000002021051820210518                                                                      0                                             99                                   000 0000000000000000000000000000008372588202108372588001511                    2021003877390018EUR40644998151212245072322-4507/237043400022-4507/23 70434000STYLE.PETE     23               00000   XL      00                              028400000000000000500000000000000000000                                                  20210422000000121
002DESADV403607600200240291630000054036076002002403607600200200000000000004036076002002000000000000002021051820210518                                                                      0                                             99                                   000 0000000000000000000000000000008372588202108372588001511                    2021003877390018EUR40644998151382245072322-4507/237043400022-4507/23 70434000STYLE.PETE     23               00000  XXL      00                              028400000000000000400000000000000000000                                                  20210422000000121
002DESADV403607600200240291630000054036076002002403607600200200000000000004036076002002000000000000002021051820210518                                                                      0                                             99                                   000 0000000000000000000000000000008372588202108372588001511                    2021003877390018EUR40644998151452245072322-4507/237043400022-4507/23 70434000STYLE.PETE     23               00000 XXXL      00                              031250000000000000300000000000000000000                                                  20210422000000121
002DESADV403607600200240291630000054036076002002403607600200200000000000004036076002002000000000000002021051820210518                                                                      0                                             99                                   000 0000000000000000000000000000008372588202108372588001511                    2021003877390019EUR40644998152132245073322-4507/337043400022-4507/33 70434000STYLE.PETE     33               00000    L      00                              028400000000000000500000000000000000000                                                  20210422000000121
002DESADV403607600200240291630000054036076002002403607600200200000000000004036076002002000000000000002021051820210518                                                                      0                                             99                                   000 0000000000000000000000000000008372588202108372588001511                    2021003877390019EUR40644998152062245073322-4507/337043400022-4507/33 70434000STYLE.PETE     33               00000    M      00                              028400000000000000400000000000000000000                                                  20210422000000121
002DESADV403607600200240291630000054036076002002403607600200200000000000004036076002002000000000000002021051820210518                                                                      0                                             99                                   000 0000000000000000000000000000008372588202108372588001511                    2021003877390019EUR40644998152202245073322-4507/337043400022-4507/33 70434000STYLE.PETE     33               00000   XL      00                              028400000000000000500000000000000000000                                                  20210422000000121
002DESADV403607600200240291630000054036076002002403607600200200000000000004036076002002000000000000002021051820210518                                                                      0                                             99                                   000 0000000000000000000000000000008372588202108372588001511                    2021003877390019EUR40644998152372245073322-4507/337043400022-4507/33 70434000STYLE.PETE     33               00000  XXL      00                              028400000000000000400000000000000000000                                                  20210422000000121
002DESADV403607600200240291630000054036076002002403607600200200000000000004036076002002000000000000002021051820210518                                                                      0                                             99                                   000 0000000000000000000000000000008372588202108372588001511                    2021003877390019EUR40644998152442245073322-4507/337043400022-4507/33 70434000STYLE.PETE     33               00000 XXXL      00                              031250000000000000300000000000000000000                                                  20210422000000121
002DESADV403607600200240291630000054036076002002403607600200200000000000004036076002002000000000000002021051820210518                                                                      0                                             99                                   000 0000000000000000000000000000008372588202108372588001511                    2021003877390020EUR40644998153122245074722-4507/477043400022-4507/47 70434000STYLE.PETE     47               00000    L      00                              028400000000000000500000000000000000000                                                  20210422000000121
002DESADV403607600200240291630000054036076002002403607600200200000000000004036076002002000000000000002021051820210518                                                                      0                                             99                                   000 0000000000000000000000000000008372588202108372588001511                    2021003877390020EUR40644998153052245074722-4507/477043400022-4507/47 70434000STYLE.PETE     47               00000    M      00                              028400000000000000400000000000000000000                                                  20210422000000121
002DESADV403607600200240291630000054036076002002403607600200200000000000004036076002002000000000000002021051820210518                                                                      0                                             99                                   000 0000000000000000000000000000008372588202108372588001511                    2021003877390020EUR40644998153292245074722-4507/477043400022-4507/47 70434000STYLE.PETE     47               00000   XL      00                              028400000000000000500000000000000000000                                                  20210422000000121
002DESADV403607600200240291630000054036076002002403607600200200000000000004036076002002000000000000002021051820210518                                                                      0                                             99                                   000 0000000000000000000000000000008372588202108372588001511                    2021003877390020EUR40644998153362245074722-4507/477043400022-4507/47 70434000STYLE.PETE     47               00000  XXL      00                              028400000000000000400000000000000000000                                                  20210422000000121
002DESADV403607600200240291630000054036076002002403607600200200000000000004036076002002000000000000002021051820210518                                                                      0                                             99                                   000 0000000000000000000000000000008372588202108372588001511                    2021003877390020EUR40644998153432245074722-4507/477043400022-4507/47 70434000STYLE.PETE     47               00000 XXXL      00                              031250000000000000200000000000000000000                                                  20210422000000121
002DESADV403607600200240291630000054036076002002403607600200200000000000004036076002002000000000000002021051820210518                                                                      0                                             99                                   000 0000000000000000000000000000008372588202108372588001511                    2021003877390021EUR40644998154112245079922-4507/997043400022-4507/99 70434000STYLE.PETE     99               00000    L      00                              028400000000000000500000000000000000000                                                  20210422000000121
002DESADV403607600200240291630000054036076002002403607600200200000000000004036076002002000000000000002021051820210518                                                                      0                                             99                                   000 0000000000000000000000000000008372588202108372588001511                    2021003877390021EUR40644998154042245079922-4507/997043400022-4507/99 70434000STYLE.PETE     99               00000    M      00                              028400000000000000400000000000000000000                                                  20210422000000121
002DESADV403607600200240291630000054036076002002403607600200200000000000004036076002002000000000000002021051820210518                                                                      0                                             99                                   000 0000000000000000000000000000008372588202108372588001511                    2021003877390021EUR40644998153982245079922-4507/997043400022-4507/99 70434000STYLE.PETE     99               00000    S      00                              028400000000000000100000000000000000000                                                  20210422000000121
002DESADV403607600200240291630000054036076002002403607600200200000000000004036076002002000000000000002021051820210518                                                                      0                                             99                                   000 0000000000000000000000000000008372588202108372588001511                    2021003877390021EUR40644998154282245079922-4507/997043400022-4507/99 70434000STYLE.PETE     99               00000   XL      00                              028400000000000000500000000000000000000                                                  20210422000000121
