001DESADV403607600200240291631100014036076002002403607600200200000000000004036076002002000000000000002021060220210602                                                                      0                                             15                                   000 0000000000000000000000000000005812488202105812488001511                    0000000000000000EUR000000000000000000000          00000000                                  00               00000           00                              000000000000000000000000000000000000000                                                  00000000000000000
002DESADV403607600200240291631100014036076002002403607600200200000000000004036076002002000000000000002021060220210602                                                                      0                                             15                                   000 0000000000000000000000000000005812488202105812488001511RT807046_1511_1     2021004086670001EUR40371226363638060000280-6000/020796442080-6000/02 07964420STYLE.COOPER DE02               0000040/32      00                              040200000000000000100000000000000000000                                                  20210531000000121
002DESADV403607600200240291631100014036076002002403607600200200000000000004036076002002000000000000002021060220210602                                                                      0                                             15                                   000 0000000000000000000000000000005812488202105812488001511RT807046_1511_1     2021004086670002EUR40371236117108060002280-6000/220796442080-6000/22 07964420STYLE.COOPER DE22               0000034/32      00                              040200000000000000100000000000000000000                                                  20210531000000121
002DESADV403607600200240291631100014036076002002403607600200200000000000004036076002002000000000000002021060220210602                                                                      0                                             15                                   000 0000000000000000000000000000005812488202105812488001511RT807046_1511_1     2021004086670002EUR40371236118028060002280-6000/220796442080-6000/22 07964420STYLE.COOPER DE22               0000036/32      00                              040200000000000000100000000000000000000                                                  20210531000000121
002DESADV403607600200240291631100014036076002002403607600200200000000000004036076002002000000000000002021060220210602                                                                      0                                             15                                   000 0000000000000000000000000000005812488202105812488001511RT807046_1511_1     2021004086670002EUR40371236118888060002280-6000/220796442080-6000/22 07964420STYLE.COOPER DE22               0000040/32      00                              040200000000000000100000000000000000000                                                  20210531000000121
002DESADV403607600200240291631100014036076002002403607600200200000000000004036076002002000000000000002021060220210602                                                                      0                                             15                                   000 0000000000000000000000000000005812488202105812488001511RT807046_1511_1     2021004086670002EUR40371236118958060002280-6000/220796442080-6000/22 07964420STYLE.COOPER DE22               0000040/34      00                              040200000000000000100000000000000000000                                                  20210531000000121
002DESADV403607600200240291631100014036076002002403607600200200000000000004036076002002000000000000002021060220210602                                                                      0                                             15                                   000 0000000000000000000000000000005812488202105812488001511RT807046_1511_1     2021004086670004EUR40644984474158060002680-6000/260796442080-6000/26 07964420STYLE.COOPER DE26               0000032/32      00                              040200000000000000100000000000000000000                                                  20210531000000121
002DESADV403607600200240291631100014036076002002403607600200200000000000004036076002002000000000000002021060220210602                                                                      0                                             15                                   000 0000000000000000000000000000005812488202105812488001511RT807046_1511_1     2021004086670004EUR40644984474228060002680-6000/260796442080-6000/26 07964420STYLE.COOPER DE26               0000033/32      00                              040200000000000000100000000000000000000                                                  20210531000000121
002DESADV403607600200240291631100014036076002002403607600200200000000000004036076002002000000000000002021060220210602                                                                      0                                             15                                   000 0000000000000000000000000000005812488202105812488001511RT807046_1511_1     2021004086670004EUR40644984473238060002680-6000/260796442080-6000/26 07964420STYLE.COOPER DE26               0000036/30      00                              040200000000000000100000000000000000000                                                  20210531000000121
002DESADV403607600200240291631100014036076002002403607600200200000000000004036076002002000000000000002021060220210602                                                                      0                                             15                                   000 0000000000000000000000000000005812488202105812488001511RT807046_1511_1     2021004086670004EUR40644984476378060002680-6000/260796442080-6000/26 07964420STYLE.COOPER DE26               0000036/34      00                              040200000000000000100000000000000000000                                                  20210531000000121
002DESADV403607600200240291631100014036076002002403607600200200000000000004036076002002000000000000002021060220210602                                                                      0                                             15                                   000 0000000000000000000000000000005812488202105812488001511RT807046_1511_1     2021004086670004EUR40644984473308060002680-6000/260796442080-6000/26 07964420STYLE.COOPER DE26               0000038/30      00                              040200000000000000100000000000000000000                                                  20210531000000121
002DESADV403607600200240291631100014036076002002403607600200200000000000004036076002002000000000000002021060220210602                                                                      0                                             15                                   000 0000000000000000000000000000005812488202105812488001511RT807046_1511_1     2021004086670004EUR40644984473478060002680-6000/260796442080-6000/26 07964420STYLE.COOPER DE26               0000040/30      00                              040200000000000000100000000000000000000                                                  20210531000000121
002DESADV403607600200240291631100014036076002002403607600200200000000000004036076002002000000000000002021060220210602                                                                      0                                             15                                   000 0000000000000000000000000000005812488202105812488001511RT807046_1511_1     2021004086670004EUR40644984474778060002680-6000/260796442080-6000/26 07964420STYLE.COOPER DE26               0000040/32      00                              040200000000000000100000000000000000000                                                  20210531000000121
002DESADV403607600200240291631100014036076002002403607600200200000000000004036076002002000000000000002021060220210602                                                                      0                                             15                                   000 0000000000000000000000000000005812488202105812488001511RT807046_1511_1     2021004086670005EUR40644997881808202070682-0207/060786322082-0207/06 07863220STYLE.COOPER FA06               0000038/32      00                              040200000000000000100000000000000000000                                                  20210531000000121
002DESADV403607600200240291631100014036076002002403607600200200000000000004036076002002000000000000002021060220210602                                                                      0                                             15                                   000 0000000000000000000000000000005812488202105812488001511RT807046_1511_1     2021004086670005EUR40644997881978202070682-0207/060786322082-0207/06 07863220STYLE.COOPER FA06               0000040/32      00                              040200000000000000100000000000000000000                                                  20210531000000121
002DESADV403607600200240291631100014036076002002403607600200200000000000004036076002002000000000000002021060220210602                                                                      0                                             15                                   000 0000000000000000000000000000005812488202105812488001511RT807046_1511_1     2021004086670006EUR40644997886238202072482-0207/240786322082-0207/24 07863220STYLE.COOPER FA24               0000033/30      00                              040200000000000000100000000000000000000                                                  20210531000000121
002DESADV403607600200240291631100014036076002002403607600200200000000000004036076002002000000000000002021060220210602                                                                      0                                             15                                   000 0000000000000000000000000000005812488202105812488001511RT807046_1511_1     2021004086670006EUR40644997886308202072482-0207/240786322082-0207/24 07863220STYLE.COOPER FA24               0000034/30      00                              040200000000000000100000000000000000000                                                  20210531000000121
002DESADV403607600200240291631100014036076002002403607600200200000000000004036076002002000000000000002021060220210602                                                                      0                                             15                                   000 0000000000000000000000000000005812488202105812488001511RT807046_1511_1     2021004086670006EUR40644997887608202072482-0207/240786322082-0207/24 07863220STYLE.COOPER FA24               0000034/32      00                              040200000000000000100000000000000000000                                                  20210531000000121
002DESADV403607600200240291631100014036076002002403607600200200000000000004036076002002000000000000002021060220210602                                                                      0                                             15                                   000 0000000000000000000000000000005812488202105812488001511RT807046_1511_1     2021004086670006EUR40644997886618202072482-0207/240786322082-0207/24 07863220STYLE.COOPER FA24               0000038/30      00                              040200000000000000200000000000000000000                                                  20210531000000121
002DESADV403607600200240291631100014036076002002403607600200200000000000004036076002002000000000000002021060220210602                                                                      0                                             15                                   000 0000000000000000000000000000005812488202105812488001511RT807046_1511_1     2021004086670007EUR40644997892488202075682-0207/560786322082-0207/56 07863220STYLE.COOPER FA56               0000034/30      00                              040200000000000000100000000000000000000                                                  20210531000000121
002DESADV403607600200240291631100014036076002002403607600200200000000000004036076002002000000000000002021060220210602                                                                      0                                             15                                   000 0000000000000000000000000000005812488202105812488001511RT807046_1511_1     2021004086670007EUR40644997892798202075682-0207/560786322082-0207/56 07863220STYLE.COOPER FA56               0000038/30      00                              040200000000000000100000000000000000000                                                  20210531000000121
002DESADV403607600200240291631100014036076002002403607600200200000000000004036076002002000000000000002021060220210602                                                                      0                                             15                                   000 0000000000000000000000000000005812488202105812488001511RT807046_1511_1     2021004086670011EUR40644997928358260072382-6007/230796222082-6007/23 07962220STYLE.CADIZ    23               0000036/30      00                              040200000000000000100000000000000000000                                                  20210531000000121
002DESADV403607600200240291631100014036076002002403607600200200000000000004036076002002000000000000002021060220210602                                                                      0                                             15                                   000 0000000000000000000000000000005812488202105812488001511RT807046_1511_1     2021004086670012EUR40644997939558260072582-6007/250796222082-6007/25 07962220STYLE.CADIZ    25               0000034/32      00                              040200000000000000100000000000000000000                                                  20210531000000121
002DESADV403607600200240291631100014036076002002403607600200200000000000004036076002002000000000000002021060220210602                                                                      0                                             15                                   000 0000000000000000000000000000005812488202105812488001511RT807046_1511_1     2021004086670012EUR40644997939798260072582-6007/250796222082-6007/25 07962220STYLE.CADIZ    25               0000036/32      00                              040200000000000000100000000000000000000                                                  20210531000000121
002DESADV403607600200240291631100014036076002002403607600200200000000000004036076002002000000000000002021060220210602                                                                      0                                             15                                   000 0000000000000000000000000000005812488202105812488001511RT807046_1511_1     2021004086670014EUR40644998311698263472282-6347/220795302082-6347/22 07953020STYLE.CHUCK    22               0000036/30      00                              040200000000000000100000000000000000000                                                  20210531000000121
002DESADV403607600200240291631100014036076002002403607600200200000000000004036076002002000000000000002021060220210602                                                                      0                                             15                                   000 0000000000000000000000000000005812488202105812488001511RT807046_1511_1     2021004086670014EUR40644998311768263472282-6347/220795302082-6347/22 07953020STYLE.CHUCK    22               0000038/30      00                              040200000000000000100000000000000000000                                                  20210531000000121
002DESADV403607600200240291631100014036076002002403607600200200000000000004036076002002000000000000002021060220210602                                                                      0                                             15                                   000 0000000000000000000000000000005812488202105812488001511RT807046_1511_1     2021004086670015EUR40644998323198263472382-6347/230795302082-6347/23 07953020STYLE.CHUCK    23               0000038/32      00                              040200000000000000100000000000000000000                                                  20210531000000121
002DESADV403607600200240291631100014036076002002403607600200200000000000004036076002002000000000000002021060220210602                                                                      0                                             15                                   000 0000000000000000000000000000005812488202105812488001511RT807046_1511_1     2021004086670016EUR40644998330338263472582-6347/250795302082-6347/25 07953020STYLE.CHUCK    25               0000033/30      00                              040200000000000000100000000000000000000                                                  20210531000000121
002DESADV403607600200240291631100014036076002002403607600200200000000000004036076002002000000000000002021060220210602                                                                      0                                             15                                   000 0000000000000000000000000000005812488202105812488001511RT807046_1511_1     2021004086670017EUR40644998196868265470582-6547/050796222082-6547/05 07962220STYLE.CADIZ    05               0000036/32      00                              040200000000000000100000000000000000000                                                  20210531000000121
002DESADV403607600200240291631100014036076002002403607600200200000000000004036076002002000000000000002021060220210602                                                                      0                                             15                                   000 0000000000000000000000000000005812488202105812488001511RT807046_1511_1     2021004086670018EUR40644998204088265472282-6547/220796222082-6547/22 07962220STYLE.CADIZ    22               0000032/30      00                              040200000000000000100000000000000000000                                                  20210531000000121
002DESADV403607600200240291631100014036076002002403607600200200000000000004036076002002000000000000002021060220210602                                                                      0                                             15                                   000 0000000000000000000000000000005812488202105812488001511RT807046_1511_1     2021004086670018EUR40644998206138265472282-6547/220796222082-6547/22 07962220STYLE.CADIZ    22               0000034/32      00                              040200000000000000100000000000000000000                                                  20210531000000121
002DESADV403607600200240291631100014036076002002403607600200200000000000004036076002002000000000000002021060220210602                                                                      0                                             15                                   000 0000000000000000000000000000005812488202105812488001511RT807046_1511_1     2021004086670018EUR40644998206378265472282-6547/220796222082-6547/22 07962220STYLE.CADIZ    22               0000036/32      00                              040200000000000000100000000000000000000                                                  20210531000000121
002DESADV403607600200240291631100014036076002002403607600200200000000000004036076002002000000000000002021060220210602                                                                      0                                             15                                   000 0000000000000000000000000000005812488202105812488001511RT807046_1511_1     2021004086670019EUR40644998213518265472582-6547/250796222082-6547/25 07962220STYLE.CADIZ    25               0000032/30      00                              040200000000000000100000000000000000000                                                  20210531000000121
002DESADV403607600200240291631100014036076002002403607600200200000000000004036076002002000000000000002021060220210602                                                                      0                                             15                                   000 0000000000000000000000000000005812488202105812488001511RT807046_1511_1     2021004086670019EUR40644998213998265472582-6547/250796222082-6547/25 07962220STYLE.CADIZ    25               0000036/30      00                              040200000000000000100000000000000000000                                                  20210531000000121
002DESADV403607600200240291631100014036076002002403607600200200000000000004036076002002000000000000002021060220210602                                                                      0                                             15                                   000 0000000000000000000000000000005812488202105812488001511RT807046_1511_1     2021004086670019EUR40644998215808265472582-6547/250796222082-6547/25 07962220STYLE.CADIZ    25               0000036/32      00                              040200000000000000100000000000000000000                                                  20210531000000121
003DESADV403607600200240291631100014036076002002403607600200200000000000004036076002002000000000000002021060220210602                                                                      0                                             15                                   000 0000000000000000000000000000005812488202105812488001511                    0000000000000000EUR000000000000000000000          00000000                                  00               00000           00                              000000000000000003500000000000000000000                                                  00000000000000000
001DESADV403607600200240291631100014036076002002403607600200200000000000004036076002002000000000000002021060120210601                                                                      0                                             15                                   000 0000000000000000000000000000008376338202108376338001511                    0000000000000000EUR000000000000000000000          00000000                                  00               00000           00                              000000000000000000000000000000000000000                                                  00000000000000000
002DESADV403607600200240291631100014036076002002403607600200200000000000004036076002002000000000000002021060120210601                                                                      0                                             15                                   000 0000000000000000000000000000008376338202108376338001511RT809046_1511_1     2021004086970001EUR40644998150222245071822-4507/187043400022-4507/18 70434000STYLE.PETE     18               00000   XL      00                              028400000000000000100000000000000000000                                                  20210531000000121
002DESADV403607600200240291631100014036076002002403607600200200000000000004036076002002000000000000002021060120210601                                                                      0                                             15                                   000 0000000000000000000000000000008376338202108376338001511RT809046_1511_1     2021004086970002EUR40644998151072245072322-4507/237043400022-4507/23 70434000STYLE.PETE     23               00000    M      00                              028400000000000000100000000000000000000                                                  20210531000000121
002DESADV403607600200240291631100014036076002002403607600200200000000000004036076002002000000000000002021060120210601                                                                      0                                             15                                   000 0000000000000000000000000000008376338202108376338001511RT809046_1511_1     2021004086970002EUR40644998151212245072322-4507/237043400022-4507/23 70434000STYLE.PETE     23               00000   XL      00                              028400000000000000100000000000000000000                                                  20210531000000121
002DESADV403607600200240291631100014036076002002403607600200200000000000004036076002002000000000000002021060120210601                                                                      0                                             15                                   000 0000000000000000000000000000008376338202108376338001511RT809046_1511_1     2021004086970002EUR40644998151382245072322-4507/237043400022-4507/23 70434000STYLE.PETE     23               00000  XXL      00                              028400000000000000100000000000000000000                                                  20210531000000121
002DESADV403607600200240291631100014036076002002403607600200200000000000004036076002002000000000000002021060120210601                                                                      0                                             15                                   000 0000000000000000000000000000008376338202108376338001511RT809046_1511_1     2021004086970002EUR40644998151452245072322-4507/237043400022-4507/23 70434000STYLE.PETE     23               00000 XXXL      00                              031250000000000000100000000000000000000                                                  20210531000000121
002DESADV403607600200240291631100014036076002002403607600200200000000000004036076002002000000000000002021060120210601                                                                      0                                             15                                   000 0000000000000000000000000000008376338202108376338001511RT809046_1511_1     2021004086970003EUR40644998152062245073322-4507/337043400022-4507/33 70434000STYLE.PETE     33               00000    M      00                              028400000000000000100000000000000000000                                                  20210531000000121
002DESADV403607600200240291631100014036076002002403607600200200000000000004036076002002000000000000002021060120210601                                                                      0                                             15                                   000 0000000000000000000000000000008376338202108376338001511RT809046_1511_1     2021004086970004EUR40644998153292245074722-4507/477043400022-4507/47 70434000STYLE.PETE     47               00000   XL      00                              028400000000000000100000000000000000000                                                  20210531000000121
002DESADV403607600200240291631100014036076002002403607600200200000000000004036076002002000000000000002021060120210601                                                                      0                                             15                                   000 0000000000000000000000000000008376338202108376338001511RT809046_1511_1     2021004086970005EUR40644998157182247672322-4767/237043890022-4767/23 70438900STYLE.POLLUX   23               00000    L      00                              032400000000000000200000000000000000000                                                  20210531000000121
002DESADV403607600200240291631100014036076002002403607600200200000000000004036076002002000000000000002021060120210601                                                                      0                                             15                                   000 0000000000000000000000000000008376338202108376338001511RT809046_1511_1     2021004086970005EUR40644998157252247672322-4767/237043890022-4767/23 70438900STYLE.POLLUX   23               00000   XL      00                              032400000000000000100000000000000000000                                                  20210531000000121
002DESADV403607600200240291631100014036076002002403607600200200000000000004036076002002000000000000002021060120210601                                                                      0                                             15                                   000 0000000000000000000000000000008376338202108376338001511RT809046_1511_1     2021004086970007EUR40644998159092247672622-4767/267043840022-4767/26 70438400STYLE.PETTER   26               00000    M      00                              015000000000000000100000000000000000000                                                  20210531000000121
002DESADV403607600200240291631100014036076002002403607600200200000000000004036076002002000000000000002021060120210601                                                                      0                                             15                                   000 0000000000000000000000000000008376338202108376338001511RT809046_1511_1     2021004086970008EUR40644998161112247673322-4767/337043890022-4767/33 70438900STYLE.POLLUX   33               00000    L      00                              032400000000000000100000000000000000000                                                  20210531000000121
002DESADV403607600200240291631100014036076002002403607600200200000000000004036076002002000000000000002021060120210601                                                                      0                                             15                                   000 0000000000000000000000000000008376338202108376338001511RT809046_1511_1     2021004086970008EUR40644998161042247673322-4767/337043890022-4767/33 70438900STYLE.POLLUX   33               00000    M      00                              032400000000000000100000000000000000000                                                  20210531000000121
002DESADV403607600200240291631100014036076002002403607600200200000000000004036076002002000000000000002021060120210601                                                                      0                                             15                                   000 0000000000000000000000000000008376338202108376338001511RT809046_1511_1     2021004086970009EUR40448192847212247674222-4767/427043840022-4767/42 70438400STYLE.PETTER   42               00000    M      00                              015000000000000000100000000000000000000                                                  20210531000000121
002DESADV403607600200240291631100014036076002002403607600200200000000000004036076002002000000000000002021060120210601                                                                      0                                             15                                   000 0000000000000000000000000000008376338202108376338001511RT809046_1511_1     2021004086970010EUR40644998162102247872322-4787/237043830022-4787/23 70438300STYLE.PIETER   23               00000    L      00                              032400000000000000100000000000000000000                                                  20210531000000121
002DESADV403607600200240291631100014036076002002403607600200200000000000004036076002002000000000000002021060120210601                                                                      0                                             15                                   000 0000000000000000000000000000008376338202108376338001511RT809046_1511_1     2021004086970010EUR40644998162412247872322-4787/237043830022-4787/23 70438300STYLE.PIETER   23               00000 XXXL      00                              035650000000000000100000000000000000000                                                  20210531000000121
002DESADV403607600200240291631100014036076002002403607600200200000000000004036076002002000000000000002021060120210601                                                                      0                                             15                                   000 0000000000000000000000000000008376338202108376338001511RT809046_1511_1     2021004086970011EUR40644998163022257072322-5707/237043700022-5707/23 70437000STYLE.PELé     23               00000    M      00                              024500000000000000100000000000000000000                                                  20210531000000121
002DESADV403607600200240291631100014036076002002403607600200200000000000004036076002002000000000000002021060120210601                                                                      0                                             15                                   000 0000000000000000000000000000008376338202108376338001511RT809046_1511_1     2021004086970012EUR40644998165312257073522-5707/357043700022-5707/35 70437000STYLE.PELé     35               00000  XXL      00                              024500000000000000100000000000000000000                                                  20210531000000121
002DESADV403607600200240291631100014036076002002403607600200200000000000004036076002002000000000000002021060120210601                                                                      0                                             15                                   000 0000000000000000000000000000008376338202108376338001511RT809046_1511_1     2021004086970013EUR40644998166302257076522-5707/657043700022-5707/65 70437000STYLE.PELé     65               00000  XXL      00                              024500000000000000100000000000000000000                                                  20210531000000121
002DESADV403607600200240291631100014036076002002403607600200200000000000004036076002002000000000000002021060120210601                                                                      0                                             15                                   000 0000000000000000000000000000008376338202108376338001511RT809046_1511_1     2021004086970014EUR40644999820902258240322-5824/037062920022-5824/03 70629200STYLE.SAWYER   03               00000    L      00                              036300000000000000100000000000000000000                                                  20210531000000121
002DESADV403607600200240291631100014036076002002403607600200200000000000004036076002002000000000000002021060120210601                                                                      0                                             15                                   000 0000000000000000000000000000008376338202108376338001511RT809046_1511_1     2021004086970015EUR40644998249702258242322-5824/237062920022-5824/23 70629200STYLE.SAWYER   23               00000  XXL      00                              036300000000000000100000000000000000000                                                  20210531000000121
002DESADV403607600200240291631100014036076002002403607600200200000000000004036076002002000000000000002021060120210601                                                                      0                                             15                                   000 0000000000000000000000000000008376338202108376338001511RT809046_1511_1     2021004086970016EUR40644998250382258242322-5824/237068960022-5824/23 70689600STYLE.SAN DIEGO23               00000   XL      00                              052000000000000000100000000000000000000                                                  20210531000000121
002DESADV403607600200240291631100014036076002002403607600200200000000000004036076002002000000000000002021060120210601                                                                      0                                             15                                   000 0000000000000000000000000000008376338202108376338001511RT809046_1511_1     2021004086970016EUR40644998250452258242322-5824/237068960022-5824/23 70689600STYLE.SAN DIEGO23               00000  XXL      00                              052000000000000000100000000000000000000                                                  20210531000000121
002DESADV403607600200240291631100014036076002002403607600200200000000000004036076002002000000000000002021060120210601                                                                      0                                             15                                   000 0000000000000000000000000000008376338202108376338001511RT809046_1511_1     2021004086970016EUR40644998250522258242322-5824/237068960022-5824/23 70689600STYLE.SAN DIEGO23               00000 XXXL      00                              057200000000000000100000000000000000000                                                  20210531000000121
002DESADV403607600200240291631100014036076002002403607600200200000000000004036076002002000000000000002021060120210601                                                                      0                                             15                                   000 0000000000000000000000000000008376338202108376338001511RT809046_1511_1     2021004086970017EUR40472272609742445273524-4527/357043220024-4527/35 70432200STYLE.PABLO    35               00000    L      00                              019900000000000000100000000000000000000                                                  20210531000000121
002DESADV403607600200240291631100014036076002002403607600200200000000000004036076002002000000000000002021060120210601                                                                      0                                             15                                   000 0000000000000000000000000000008376338202108376338001511RT809046_1511_1     2021004086970018EUR40472278890212445274324-4527/437043220024-4527/43 70432200STYLE.PABLO    43               00000 XXXL      00                              021900000000000000100000000000000000000                                                  20210531000000121
003DESADV403607600200240291631100014036076002002403607600200200000000000004036076002002000000000000002021060120210601                                                                      0                                             15                                   000 0000000000000000000000000000008376338202108376338001511                    0000000000000000EUR000000000000000000000          00000000                                  00               00000           00                              000000000000000002600000000000000000000                                                  00000000000000000
001DESADV403607600200240291631100014036076002002403607600200200000000000004036076002002000000000000002021060120210601                                                                      0                                             15                                   000 0000000000000000000000000000008376339202108376339001511                    0000000000000000EUR000000000000000000000          00000000                                  00               00000           00                              000000000000000000000000000000000000000                                                  00000000000000000
002DESADV403607600200240291631100014036076002002403607600200200000000000004036076002002000000000000002021060120210601                                                                      0                                             15                                   000 0000000000000000000000000000008376339202108376339001511RT811046_1511_1     2021004087300001EUR40472291671724240972542-4097/257443010042-4097/25 74430100STYLE.HAROLD   25               00000    M      00                              024500000000000000100000000000000000000                                                  20210531000000121
003DESADV403607600200240291631100014036076002002403607600200200000000000004036076002002000000000000002021060120210601                                                                      0                                             15                                   000 0000000000000000000000000000008376339202108376339001511                    0000000000000000EUR000000000000000000000          00000000                                  00               00000           00                              000000000000000000100000000000000000000                                                  00000000000000000
001DESADV403607600200240291631100014036076002002403607600200200000000000004036076002002000000000000002021060120210601                                                                      0                                             15                                   000 0000000000000000000000000000009264939202109264939001511                    0000000000000000EUR000000000000000000000          00000000                                  00               00000           00                              000000000000000000000000000000000000000                                                  00000000000000000
002DESADV403607600200240291631100014036076002002403607600200200000000000004036076002002000000000000002021060120210601                                                                      0                                             15                                   000 0000000000000000000000000000009264939202109264939001511RT812046_1511_1     2021004087410001EUR40472260951649420774494-2077/447504160094-2077/44 75041600STYLE.CREW     44               00000   56      00                              070050000000000000100000000000000000000                                                  20210531000000121
003DESADV403607600200240291631100014036076002002403607600200200000000000004036076002002000000000000002021060120210601                                                                      0                                             15                                   000 0000000000000000000000000000009264939202109264939001511                    0000000000000000EUR000000000000000000000          00000000                                  00               00000           00                              000000000000000000100000000000000000000                                                  00000000000000000
