001DESADV403607600200240291631100014036076002002403607600200200000000000004036076002002000000000000002021060120210601                                                                      0                                             15                                   000 0000000000000000000000000000005810812202105810812001511                    0000000000000000EUR000000000000000000000          00000000                                  00               00000           00                              000000000000000000000000000000000000000                                                  00000000000000000
002DESADV403607600200240291631100014036076002002403607600200200000000000004036076002002000000000000002021060120210601                                                                      0                                             15                                   000 00000000000000000000000000000058108122021058108120015111234                2021024065790012EUR40644998241094270172342-7017/239411740042-7017/23 94117400STYLE.VICTORIA 23               00000   40      00                              036300000000000000200000000000000000000                                                  20210528000000000
002DESADV403607600200240291631100014036076002002403607600200200000000000004036076002002000000000000002021060120210601                                                                      0                                             15                                   000 00000000000000000000000000000058108122021058108120015111234                2021024065790012EUR40644998241164270172342-7017/239411740042-7017/23 94117400STYLE.VICTORIA 23               00000   42      00                              036300000000000000100000000000000000000                                                  20210528000000000
002DESADV403607600200240291631100014036076002002403607600200200000000000004036076002002000000000000002021060120210601                                                                      0                                             15                                   000 00000000000000000000000000000058108122021058108120015111234                2021024065790012EUR40644998241474270172342-7017/239411740042-7017/23 94117400STYLE.VICTORIA 23               00000   48      00                              036300000000000000100000000000000000000                                                  20210528000000000
002DESADV403607600200240291631100014036076002002403607600200200000000000004036076002002000000000000002021060120210601                                                                      0                                             15                                   000 00000000000000000000000000000058108122021058108120015111234                2021024065790013EUR40644998241854270174742-7017/479411740042-7017/47 94117400STYLE.VICTORIA 47               00000   40      00                              036300000000000000100000000000000000000                                                  20210528000000000
002DESADV403607600200240291631100014036076002002403607600200200000000000004036076002002000000000000002021060120210601                                                                      0                                             15                                   000 00000000000000000000000000000058108122021058108120015111234                2021024065790013EUR40644998241924270174742-7017/479411740042-7017/47 94117400STYLE.VICTORIA 47               00000   42      00                              036300000000000000100000000000000000000                                                  20210528000000000
002DESADV403607600200240291631100014036076002002403607600200200000000000004036076002002000000000000002021060120210601                                                                      0                                             15                                   000 00000000000000000000000000000058108122021058108120015111234                2021024065790013EUR40644998242084270174742-7017/479411740042-7017/47 94117400STYLE.VICTORIA 47               00000   44      00                              036300000000000000100000000000000000000                                                  20210528000000000
002DESADV403607600200240291631100014036076002002403607600200200000000000004036076002002000000000000002021060120210601                                                                      0                                             15                                   000 00000000000000000000000000000058108122021058108120015111234                2021024065790014EUR40644998242844270179942-7017/999411740042-7017/99 94117400STYLE.VICTORIA 99               00000   44      00                              036300000000000000100000000000000000000                                                  20210528000000000
002DESADV403607600200240291631100014036076002002403607600200200000000000004036076002002000000000000002021060120210601                                                                      0                                             15                                   000 00000000000000000000000000000058108122021058108120015111234                2021024065790015EUR40644998243214270172342-7017/239416800042-7017/23 94168000STYLE.VELIA    23               00000   36      00                              032400000000000000100000000000000000000                                                  20210528000000000
002DESADV403607600200240291631100014036076002002403607600200200000000000004036076002002000000000000002021060120210601                                                                      0                                             15                                   000 00000000000000000000000000000058108122021058108120015111234                2021024065790015EUR40644998243764270172342-7017/239416800042-7017/23 94168000STYLE.VELIA    23               00000   46      00                              032400000000000000100000000000000000000                                                  20210528000000000
002DESADV403607600200240291631100014036076002002403607600200200000000000004036076002002000000000000002021060120210601                                                                      0                                             15                                   000 00000000000000000000000000000058108122021058108120015111234                2021024065790016EUR40644998244204270174742-7017/479416800042-7017/47 94168000STYLE.VELIA    47               00000   40      00                              032400000000000000100000000000000000000                                                  20210528000000000
002DESADV403607600200240291631100014036076002002403607600200200000000000004036076002002000000000000002021060120210601                                                                      0                                             15                                   000 00000000000000000000000000000058108122021058108120015111234                2021024065790016EUR40644998244514270174742-7017/479416800042-7017/47 94168000STYLE.VELIA    47               00000   46      00                              032400000000000000100000000000000000000                                                  20210528000000000
002DESADV403607600200240291631100014036076002002403607600200200000000000004036076002002000000000000002021060120210601                                                                      0                                             15                                   000 00000000000000000000000000000058108122021058108120015111234                2021024065790017EUR40644998245124270175542-7017/559416800042-7017/55 94168000STYLE.VELIA    55               00000   42      00                              032400000000000000100000000000000000000                                                  20210528000000000
002DESADV403607600200240291631100014036076002002403607600200200000000000004036076002002000000000000002021060120210601                                                                      0                                             15                                   000 00000000000000000000000000000058108122021058108120015111234                2021024065790017EUR40644998245294270175542-7017/559416800042-7017/55 94168000STYLE.VELIA    55               00000   44      00                              032400000000000000100000000000000000000                                                  20210528000000000
002DESADV403607600200240291631100014036076002002403607600200200000000000004036076002002000000000000002021060120210601                                                                      0                                             15                                   000 00000000000000000000000000000058108122021058108120015111234                2021024065790018EUR40644998246734270179942-7017/999416800042-7017/99 94168000STYLE.VELIA    99               00000   42      00                              032400000000000000100000000000000000000                                                  20210528000000000
002DESADV403607600200240291631100014036076002002403607600200200000000000004036076002002000000000000002021060120210601                                                                      0                                             15                                   000 00000000000000000000000000000058108122021058108120015111234                2021024065790018EUR40644998246804270179942-7017/999416800042-7017/99 94168000STYLE.VELIA    99               00000   44      00                              032400000000000000100000000000000000000                                                  20210528000000000
002DESADV403607600200240291631100014036076002002403607600200200000000000004036076002002000000000000002021060120210601                                                                      0                                             15                                   000 00000000000000000000000000000058108122021058108120015111234                2021024065790019EUR40644998246114270178842-7017/889416800042-7017/88 94168000STYLE.VELIA    88               00000   46      00                              032400000000000000100000000000000000000                                                  20210528000000000
003DESADV403607600200240291631100014036076002002403607600200200000000000004036076002002000000000000002021060120210601                                                                      0                                             15                                   000 0000000000000000000000000000005810812202105810812001511                    0000000000000000EUR000000000000000000000          00000000                                  00               00000           00                              000000000000000001700000000000000000000                                                  00000000000000000
001DESADV403607600200240291631100014036076002002403607600200200000000000004036076002002000000000000002021060120210601                                                                      0                                             15                                   000 0000000000000000000000000000005811325202105811325001511                    0000000000000000EUR000000000000000000000          00000000                                  00               00000           00                              000000000000000000000000000000000000000                                                  00000000000000000
002DESADV403607600200240291631100014036076002002403607600200200000000000004036076002002000000000000002021060120210601                                                                      0                                             15                                   000 00000000000000000000000000000058113252021058113250015111234                2021024066480001EUR40448158872927059000270-5900/020927412070-5900/02 09274120               02               00000   34      00                              026000000000000000100000000000000000000                                                  20210528000000000
002DESADV403607600200240291631100014036076002002403607600200200000000000004036076002002000000000000002021060120210601                                                                      0                                             15                                   000 00000000000000000000000000000058113252021058113250015111234                2021024066480001EUR40448140352297059000270-5900/020927412070-5900/02 09274120               02               00000   36      00                              026000000000000000100000000000000000000                                                  20210528000000000
002DESADV403607600200240291631100014036076002002403607600200200000000000004036076002002000000000000002021060120210601                                                                      0                                             15                                   000 00000000000000000000000000000058113252021058113250015111234                2021024066480001EUR40448140352367059000270-5900/020927412070-5900/02 09274120               02               00000   38      00                              026000000000000000200000000000000000000                                                  20210528000000000
002DESADV403607600200240291631100014036076002002403607600200200000000000004036076002002000000000000002021060120210601                                                                      0                                             15                                   000 00000000000000000000000000000058113252021058113250015111234                2021024066480001EUR40448140352437059000270-5900/020927412070-5900/02 09274120               02               00000   40      00                              026000000000000000200000000000000000000                                                  20210528000000000
002DESADV403607600200240291631100014036076002002403607600200200000000000004036076002002000000000000002021060120210601                                                                      0                                             15                                   000 00000000000000000000000000000058113252021058113250015111234                2021024066480001EUR40448158873087059000270-5900/020927412070-5900/02 09274120               02               00000   42      00                              026000000000000000200000000000000000000                                                  20210528000000000
002DESADV403607600200240291631100014036076002002403607600200200000000000004036076002002000000000000002021060120210601                                                                      0                                             15                                   000 00000000000000000000000000000058113252021058113250015111234                2021024066480001EUR40448158873227059000270-5900/020927412070-5900/02 09274120               02               00000   44      00                              026000000000000000200000000000000000000                                                  20210528000000000
002DESADV403607600200240291631100014036076002002403607600200200000000000004036076002002000000000000002021060120210601                                                                      0                                             15                                   000 00000000000000000000000000000058113252021058113250015111234                2021024066480001EUR40448158873777059000270-5900/020927412070-5900/02 09274120               02               00000   46      00                              026000000000000000100000000000000000000                                                  20210528000000000
002DESADV403607600200240291631100014036076002002403607600200200000000000004036076002002000000000000002021060120210601                                                                      0                                             15                                   000 00000000000000000000000000000058113252021058113250015111234                2021024066480001EUR40448158873847059000270-5900/020927412070-5900/02 09274120               02               00000   48      00                              026000000000000000100000000000000000000                                                  20210528000000000
002DESADV403607600200240291631100014036076002002403607600200200000000000004036076002002000000000000002021060120210601                                                                      0                                             15                                   000 00000000000000000000000000000058113252021058113250015111234                2021024066480002EUR40448140352507059002270-5900/220927412070-5900/22 09274120               22               00000   36      00                              026000000000000000100000000000000000000                                                  20210528000000000
002DESADV403607600200240291631100014036076002002403607600200200000000000004036076002002000000000000002021060120210601                                                                      0                                             15                                   000 00000000000000000000000000000058113252021058113250015111234                2021024066480002EUR40448140352677059002270-5900/220927412070-5900/22 09274120               22               00000   38      00                              026000000000000000200000000000000000000                                                  20210528000000000
002DESADV403607600200240291631100014036076002002403607600200200000000000004036076002002000000000000002021060120210601                                                                      0                                             15                                   000 00000000000000000000000000000058113252021058113250015111234                2021024066480002EUR40448140352747059002270-5900/220927412070-5900/22 09274120               22               00000   40      00                              026000000000000000200000000000000000000                                                  20210528000000000
002DESADV403607600200240291631100014036076002002403607600200200000000000004036076002002000000000000002021060120210601                                                                      0                                             15                                   000 00000000000000000000000000000058113252021058113250015111234                2021024066480002EUR40448158877287059002270-5900/220927412070-5900/22 09274120               22               00000   42      00                              026000000000000000200000000000000000000                                                  20210528000000000
002DESADV403607600200240291631100014036076002002403607600200200000000000004036076002002000000000000002021060120210601                                                                      0                                             15                                   000 00000000000000000000000000000058113252021058113250015111234                2021024066480002EUR40448158877357059002270-5900/220927412070-5900/22 09274120               22               00000   44      00                              026000000000000000200000000000000000000                                                  20210528000000000
002DESADV403607600200240291631100014036076002002403607600200200000000000004036076002002000000000000002021060120210601                                                                      0                                             15                                   000 00000000000000000000000000000058113252021058113250015111234                2021024066480002EUR40448158877427059002270-5900/220927412070-5900/22 09274120               22               00000   46      00                              026000000000000000100000000000000000000                                                  20210528000000000
002DESADV403607600200240291631100014036076002002403607600200200000000000004036076002002000000000000002021060120210601                                                                      0                                             15                                   000 00000000000000000000000000000058113252021058113250015111234                2021024066480002EUR40448158877597059002270-5900/220927412070-5900/22 09274120               22               00000   48      00                              026000000000000000100000000000000000000                                                  20210528000000000
003DESADV403607600200240291631100014036076002002403607600200200000000000004036076002002000000000000002021060120210601                                                                      0                                             15                                   000 0000000000000000000000000000005811325202105811325001511                    0000000000000000EUR000000000000000000000          00000000                                  00               00000           00                              000000000000000002300000000000000000000                                                  00000000000000000
001DESADV403607600200240291631100014036076002002403607600200200000000000004036076002002000000000000002021060120210601                                                                      0                                             15                                   000 0000000000000000000000000000005811326202105811326001511                    0000000000000000EUR000000000000000000000          00000000                                  00               00000           00                              000000000000000000000000000000000000000                                                  00000000000000000
002DESADV403607600200240291631100014036076002002403607600200200000000000004036076002002000000000000002021060120210601                                                                      0                                             15                                   000 00000000000000000000000000000058113262021058113260015111234                2021024066480022EUR40448187982984295079842-9507/989416550042-9507/98 94165500               98               00000   36      00                              020000000000000000100000000000000000000                                                  20210528000000000
002DESADV403607600200240291631100014036076002002403607600200200000000000004036076002002000000000000002021060120210601                                                                      0                                             15                                   000 00000000000000000000000000000058113262021058113260015111234                2021024066480022EUR40448187983354295079842-9507/989416550042-9507/98 94165500               98               00000   38      00                              020000000000000000200000000000000000000                                                  20210528000000000
002DESADV403607600200240291631100014036076002002403607600200200000000000004036076002002000000000000002021060120210601                                                                      0                                             15                                   000 00000000000000000000000000000058113262021058113260015111234                2021024066480022EUR40448187983424295079842-9507/989416550042-9507/98 94165500               98               00000   40      00                              020000000000000000200000000000000000000                                                  20210528000000000
002DESADV403607600200240291631100014036076002002403607600200200000000000004036076002002000000000000002021060120210601                                                                      0                                             15                                   000 00000000000000000000000000000058113262021058113260015111234                2021024066480022EUR40448187983594295079842-9507/989416550042-9507/98 94165500               98               00000   42      00                              020000000000000000200000000000000000000                                                  20210528000000000
002DESADV403607600200240291631100014036076002002403607600200200000000000004036076002002000000000000002021060120210601                                                                      0                                             15                                   000 00000000000000000000000000000058113262021058113260015111234                2021024066480022EUR40448187983664295079842-9507/989416550042-9507/98 94165500               98               00000   44      00                              020000000000000000200000000000000000000                                                  20210528000000000
002DESADV403607600200240291631100014036076002002403607600200200000000000004036076002002000000000000002021060120210601                                                                      0                                             15                                   000 00000000000000000000000000000058113262021058113260015111234                2021024066480022EUR40448187983734295079842-9507/989416550042-9507/98 94165500               98               00000   46      00                              020000000000000000100000000000000000000                                                  20210528000000000
002DESADV403607600200240291631100014036076002002403607600200200000000000004036076002002000000000000002021060120210601                                                                      0                                             15                                   000 00000000000000000000000000000058113262021058113260015111234                2021024066480023EUR40448193683394291472742-9147/279416360042-9147/27 94163600               27               00000   34      00                              032400000000000000100000000000000000000                                                  20210528000000000
002DESADV403607600200240291631100014036076002002403607600200200000000000004036076002002000000000000002021060120210601                                                                      0                                             15                                   000 00000000000000000000000000000058113262021058113260015111234                2021024066480023EUR40448193683464291472742-9147/279416360042-9147/27 94163600               27               00000   36      00                              032400000000000000100000000000000000000                                                  20210528000000000
002DESADV403607600200240291631100014036076002002403607600200200000000000004036076002002000000000000002021060120210601                                                                      0                                             15                                   000 00000000000000000000000000000058113262021058113260015111234                2021024066480023EUR40448193173754291472742-9147/279416360042-9147/27 94163600               27               00000   38      00                              032400000000000000200000000000000000000                                                  20210528000000000
002DESADV403607600200240291631100014036076002002403607600200200000000000004036076002002000000000000002021060120210601                                                                      0                                             15                                   000 00000000000000000000000000000058113262021058113260015111234                2021024066480023EUR40448193173824291472742-9147/279416360042-9147/27 94163600               27               00000   40      00                              032400000000000000200000000000000000000                                                  20210528000000000
002DESADV403607600200240291631100014036076002002403607600200200000000000004036076002002000000000000002021060120210601                                                                      0                                             15                                   000 00000000000000000000000000000058113262021058113260015111234                2021024066480023EUR40448193683534291472742-9147/279416360042-9147/27 94163600               27               00000   42      00                              032400000000000000200000000000000000000                                                  20210528000000000
002DESADV403607600200240291631100014036076002002403607600200200000000000004036076002002000000000000002021060120210601                                                                      0                                             15                                   000 00000000000000000000000000000058113262021058113260015111234                2021024066480023EUR40448193683604291472742-9147/279416360042-9147/27 94163600               27               00000   44      00                              032400000000000000200000000000000000000                                                  20210528000000000
002DESADV403607600200240291631100014036076002002403607600200200000000000004036076002002000000000000002021060120210601                                                                      0                                             15                                   000 00000000000000000000000000000058113262021058113260015111234                2021024066480023EUR40448193683774291472742-9147/279416360042-9147/27 94163600               27               00000   46      00                              032400000000000000100000000000000000000                                                  20210528000000000
002DESADV403607600200240291631100014036076002002403607600200200000000000004036076002002000000000000002021060120210601                                                                      0                                             15                                   000 00000000000000000000000000000058113262021058113260015111234                2021024066480023EUR40448193683844291472742-9147/279416360042-9147/27 94163600               27               00000   48      00                              032400000000000000100000000000000000000                                                  20210528000000000
003DESADV403607600200240291631100014036076002002403607600200200000000000004036076002002000000000000002021060120210601                                                                      0                                             15                                   000 0000000000000000000000000000005811326202105811326001511                    0000000000000000EUR000000000000000000000          00000000                                  00               00000           00                              000000000000000002200000000000000000000                                                  00000000000000000
001DESADV403607600200240291631100014036076002002403607600200200000000000004036076002002000000000000002021060120210601                                                                      0                                             15                                   000 0000000000000000000000000000006196641202106196641001511                    0000000000000000EUR000000000000000000000          00000000                                  00               00000           00                              000000000000000000000000000000000000000                                                  00000000000000000
002DESADV403607600200240291631100014036076002002403607600200200000000000004036076002002000000000000002021060120210601                                                                      0                                             15                                   000 0000000000000000000000000000006196641202106196641001511999999              2021004066430001EUR40448198251085202174452-0217/447100079052-0217/44 71000790BRAX HAKAGÜRTEL44               00000   95      00                              014300000000000000100000000000000000000                                                  20210528000000121
002DESADV403607600200240291631100014036076002002403607600200200000000000004036076002002000000000000002021060120210601                                                                      0                                             15                                   000 0000000000000000000000000000006196641202106196641001511999999              2021004066430001EUR40448198265015202174452-0217/447100079052-0217/44 71000790BRAX HAKAGÜRTEL44               00000  100      00                              014300000000000000200000000000000000000                                                  20210528000000121
002DESADV403607600200240291631100014036076002002403607600200200000000000004036076002002000000000000002021060120210601                                                                      0                                             15                                   000 0000000000000000000000000000006196641202106196641001511999999              2021004066430001EUR40448198265185202174452-0217/447100079052-0217/44 71000790BRAX HAKAGÜRTEL44               00000  105      00                              014300000000000000100000000000000000000                                                  20210528000000121
003DESADV403607600200240291631100014036076002002403607600200200000000000004036076002002000000000000002021060120210601                                                                      0                                             15                                   000 0000000000000000000000000000006196641202106196641001511                    0000000000000000EUR000000000000000000000          00000000                                  00               00000           00                              000000000000000000400000000000000000000                                                  00000000000000000
001DESADV403607600200240291631100014036076002002403607600200200000000000004036076002002000000000000002021060120210601                                                                      0                                             15                                   000 0000000000000000000000000000006196642202106196642001511                    0000000000000000EUR000000000000000000000          00000000                                  00               00000           00                              000000000000000000000000000000000000000                                                  00000000000000000
002DESADV403607600200240291631100014036076002002403607600200200000000000004036076002002000000000000002021060120210601                                                                      0                                             15                                   000 0000000000000000000000000000006196642202106196642001511999999              2021004066440001EUR40448198199545202272252-0227/227100079052-0227/22 71000790BRAX HAKAGÜRTEL22               00000   95      00                              010000000000000000200000000000000000000                                                  20210528000000121
002DESADV403607600200240291631100014036076002002403607600200200000000000004036076002002000000000000002021060120210601                                                                      0                                             15                                   000 0000000000000000000000000000006196642202106196642001511999999              2021004066440001EUR40448198199785202272252-0227/227100079052-0227/22 71000790BRAX HAKAGÜRTEL22               00000  100      00                              010000000000000000200000000000000000000                                                  20210528000000121
002DESADV403607600200240291631100014036076002002403607600200200000000000004036076002002000000000000002021060120210601                                                                      0                                             15                                   000 0000000000000000000000000000006196642202106196642001511999999              2021004066440001EUR40448198199855202272252-0227/227100079052-0227/22 71000790BRAX HAKAGÜRTEL22               00000  105      00                              010000000000000000200000000000000000000                                                  20210528000000121
002DESADV403607600200240291631100014036076002002403607600200200000000000004036076002002000000000000002021060120210601                                                                      0                                             15                                   000 0000000000000000000000000000006196642202106196642001511999999              2021004066440001EUR40448198199925202272252-0227/227100079052-0227/22 71000790BRAX HAKAGÜRTEL22               00000  110      00                              010000000000000000100000000000000000000                                                  20210528000000121
002DESADV403607600200240291631100014036076002002403607600200200000000000004036076002002000000000000002021060120210601                                                                      0                                             15                                   000 0000000000000000000000000000006196642202106196642001511999999              2021004066440001EUR40448198200115202272252-0227/227100079052-0227/22 71000790BRAX HAKAGÜRTEL22               00000  120      00                              010000000000000000100000000000000000000                                                  20210528000000121
002DESADV403607600200240291631100014036076002002403607600200200000000000004036076002002000000000000002021060120210601                                                                      0                                             15                                   000 0000000000000000000000000000006196642202106196642001511999999              2021004066440002EUR40448198266315202273252-0227/327100079052-0227/32 71000790BRAX HAKAGÜRTEL32               00000   85      00                              010000000000000000100000000000000000000                                                  20210528000000121
002DESADV403607600200240291631100014036076002002403607600200200000000000004036076002002000000000000002021060120210601                                                                      0                                             15                                   000 0000000000000000000000000000006196642202106196642001511999999              2021004066440002EUR40448198266485202273252-0227/327100079052-0227/32 71000790BRAX HAKAGÜRTEL32               00000   90      00                              010000000000000000100000000000000000000                                                  20210528000000121
002DESADV403607600200240291631100014036076002002403607600200200000000000004036076002002000000000000002021060120210601                                                                      0                                             15                                   000 0000000000000000000000000000006196642202106196642001511999999              2021004066440002EUR40448198266555202273252-0227/327100079052-0227/32 71000790BRAX HAKAGÜRTEL32               00000   95      00                              010000000000000000200000000000000000000                                                  20210528000000121
002DESADV403607600200240291631100014036076002002403607600200200000000000004036076002002000000000000002021060120210601                                                                      0                                             15                                   000 0000000000000000000000000000006196642202106196642001511999999              2021004066440002EUR40448198266795202273252-0227/327100079052-0227/32 71000790BRAX HAKAGÜRTEL32               00000  100      00                              010000000000000000200000000000000000000                                                  20210528000000121
002DESADV403607600200240291631100014036076002002403607600200200000000000004036076002002000000000000002021060120210601                                                                      0                                             15                                   000 0000000000000000000000000000006196642202106196642001511999999              2021004066440002EUR40448198266865202273252-0227/327100079052-0227/32 71000790BRAX HAKAGÜRTEL32               00000  105      00                              010000000000000000200000000000000000000                                                  20210528000000121
002DESADV403607600200240291631100014036076002002403607600200200000000000004036076002002000000000000002021060120210601                                                                      0                                             15                                   000 0000000000000000000000000000006196642202106196642001511999999              2021004066440003EUR40448198267235202274252-0227/427100079052-0227/42 71000790BRAX HAKAGÜRTEL42               00000   85      00                              010000000000000000100000000000000000000                                                  20210528000000121
002DESADV403607600200240291631100014036076002002403607600200200000000000004036076002002000000000000002021060120210601                                                                      0                                             15                                   000 0000000000000000000000000000006196642202106196642001511999999              2021004066440003EUR40448198267305202274252-0227/427100079052-0227/42 71000790BRAX HAKAGÜRTEL42               00000   90      00                              010000000000000000100000000000000000000                                                  20210528000000121
002DESADV403607600200240291631100014036076002002403607600200200000000000004036076002002000000000000002021060120210601                                                                      0                                             15                                   000 0000000000000000000000000000006196642202106196642001511999999              2021004066440003EUR40448198267475202274252-0227/427100079052-0227/42 71000790BRAX HAKAGÜRTEL42               00000   95      00                              010000000000000000200000000000000000000                                                  20210528000000121
002DESADV403607600200240291631100014036076002002403607600200200000000000004036076002002000000000000002021060120210601                                                                      0                                             15                                   000 0000000000000000000000000000006196642202106196642001511999999              2021004066440003EUR40448198267785202274252-0227/427100079052-0227/42 71000790BRAX HAKAGÜRTEL42               00000  100      00                              010000000000000000200000000000000000000                                                  20210528000000121
002DESADV403607600200240291631100014036076002002403607600200200000000000004036076002002000000000000002021060120210601                                                                      0                                             15                                   000 0000000000000000000000000000006196642202106196642001511999999              2021004066440003EUR40448198267855202274252-0227/427100079052-0227/42 71000790BRAX HAKAGÜRTEL42               00000  105      00                              010000000000000000200000000000000000000                                                  20210528000000121
002DESADV403607600200240291631100014036076002002403607600200200000000000004036076002002000000000000002021060120210601                                                                      0                                             15                                   000 0000000000000000000000000000006196642202106196642001511999999              2021004066440003EUR40448198267925202274252-0227/427100079052-0227/42 71000790BRAX HAKAGÜRTEL42               00000  110      00                              010000000000000000100000000000000000000                                                  20210528000000121
003DESADV403607600200240291631100014036076002002403607600200200000000000004036076002002000000000000002021060120210601                                                                      0                                             15                                   000 0000000000000000000000000000006196642202106196642001511                    0000000000000000EUR000000000000000000000          00000000                                  00               00000           00                              000000000000000002500000000000000000000                                                  00000000000000000
001DESADV403607600200240291631100014036076002002403607600200200000000000004036076002002000000000000002021060120210601                                                                      0                                             15                                   000 0000000000000000000000000000006196643202106196643001511                    0000000000000000EUR000000000000000000000          00000000                                  00               00000           00                              000000000000000000000000000000000000000                                                  00000000000000000
002DESADV403607600200240291631100014036076002002403607600200200000000000004036076002002000000000000002021060120210601                                                                      0                                             15                                   000 0000000000000000000000000000006196643202106196643001511999999              2021004066450001EUR40472249210905202970252-0297/027100079052-0297/02 71000790BRAX HAKAGÜRTEL02               00000   90      00                              010000000000000000300000000000000000000                                                  20210528000000121
003DESADV403607600200240291631100014036076002002403607600200200000000000004036076002002000000000000002021060120210601                                                                      0                                             15                                   000 0000000000000000000000000000006196643202106196643001511                    0000000000000000EUR000000000000000000000          00000000                                  00               00000           00                              000000000000000000300000000000000000000                                                  00000000000000000
001DESADV403607600200240291631100014036076002002403607600200200000000000004036076002002000000000000002021060120210601                                                                      0                                             15                                   000 0000000000000000000000000000008376183202108376183001511                    0000000000000000EUR000000000000000000000          00000000                                  00               00000           00                              000000000000000000000000000000000000000                                                  00000000000000000
002DESADV403607600200240291631100014036076002002403607600200200000000000004036076002002000000000000002021060120210601                                                                      0                                             15                                   000 0000000000000000000000000000008376183202108376183001511RT657049_1511_1     2021004052330004EUR40472273503923436274734-3627/479063060034-3627/47 90630600STYLE.CATHY    47               00000   36      00                              014400000000000000100000000000000000000                                                  20210525000000121
003DESADV403607600200240291631100014036076002002403607600200200000000000004036076002002000000000000002021060120210601                                                                      0                                             15                                   000 0000000000000000000000000000008376183202108376183001511                    0000000000000000EUR000000000000000000000          00000000                                  00               00000           00                              000000000000000000100000000000000000000                                                  00000000000000000
001DESADV403607600200240291631100014036076002002403607600200200000000000004036076002002000000000000002021060120210601                                                                      0                                             15                                   000 0000000000000000000000000000008376184202108376184001511                    0000000000000000EUR000000000000000000000          00000000                                  00               00000           00                              000000000000000000000000000000000000000                                                  00000000000000000
002DESADV403607600200240291631100014036076002002403607600200200000000000004036076002002000000000000002021060120210601                                                                      0                                             15                                   000 00000000000000000000000000000083761842021083761840015111234                2021024065790001EUR40644998233003234374632-3437/469064580032-3437/46 90645800STYLE.CLEO     46               00000   40      00                              024500000000000000100000000000000000000                                                  20210528000000000
002DESADV403607600200240291631100014036076002002403607600200200000000000004036076002002000000000000002021060120210601                                                                      0                                             15                                   000 00000000000000000000000000000083761842021083761840015111234                2021024065790002EUR40644998233933234378532-3437/859064580032-3437/85 90645800STYLE.CLEO     85               00000   42      00                              024500000000000000100000000000000000000                                                  20210528000000000
002DESADV403607600200240291631100014036076002002403607600200200000000000004036076002002000000000000002021060120210601                                                                      0                                             15                                   000 00000000000000000000000000000083761842021083761840015111234                2021024065790002EUR40644998234093234378532-3437/859064580032-3437/85 90645800STYLE.CLEO     85               00000   44      00                              024500000000000000200000000000000000000                                                  20210528000000000
002DESADV403607600200240291631100014036076002002403607600200200000000000004036076002002000000000000002021060120210601                                                                      0                                             15                                   000 00000000000000000000000000000083761842021083761840015111234                2021024065790002EUR40644998234163234378532-3437/859064580032-3437/85 90645800STYLE.CLEO     85               00000   46      00                              024500000000000000100000000000000000000                                                  20210528000000000
002DESADV403607600200240291631100014036076002002403607600200200000000000004036076002002000000000000002021060120210601                                                                      0                                             15                                   000 00000000000000000000000000000083761842021083761840015111234                2021024065790003EUR40644998237063234379932-3437/999064580032-3437/99 90645800STYLE.CLEO     99               00000   40      00                              024500000000000000100000000000000000000                                                  20210528000000000
002DESADV403607600200240291631100014036076002002403607600200200000000000004036076002002000000000000002021060120210601                                                                      0                                             15                                   000 00000000000000000000000000000083761842021083761840015111234                2021024065790004EUR40644998238053234472332-3447/239064590032-3447/23 90645900STYLE.CLEO     23               00000   44      00                              028400000000000000100000000000000000000                                                  20210528000000000
002DESADV403607600200240291631100014036076002002403607600200200000000000004036076002002000000000000002021060120210601                                                                      0                                             15                                   000 00000000000000000000000000000083761842021083761840015111234                2021024065790005EUR40644998238813234473332-3447/339064590032-3447/33 90645900STYLE.CLEO     33               00000   44      00                              028400000000000000100000000000000000000                                                  20210528000000000
002DESADV403607600200240291631100014036076002002403607600200200000000000004036076002002000000000000002021060120210601                                                                      0                                             15                                   000 00000000000000000000000000000083761842021083761840015111234                2021024065790006EUR40644998226313265072332-6507/239064600032-6507/23 90646000STYLE.CLARISSA 23               00000   34      00                              032400000000000000100000000000000000000                                                  20210528000000000
002DESADV403607600200240291631100014036076002002403607600200200000000000004036076002002000000000000002021060120210601                                                                      0                                             15                                   000 00000000000000000000000000000083761842021083761840015111234                2021024065790006EUR40644998226483265072332-6507/239064600032-6507/23 90646000STYLE.CLARISSA 23               00000   36      00                              032400000000000000100000000000000000000                                                  20210528000000000
002DESADV403607600200240291631100014036076002002403607600200200000000000004036076002002000000000000002021060120210601                                                                      0                                             15                                   000 00000000000000000000000000000083761842021083761840015111234                2021024065790006EUR40644998226553265072332-6507/239064600032-6507/23 90646000STYLE.CLARISSA 23               00000   38      00                              032400000000000000200000000000000000000                                                  20210528000000000
002DESADV403607600200240291631100014036076002002403607600200200000000000004036076002002000000000000002021060120210601                                                                      0                                             15                                   000 00000000000000000000000000000083761842021083761840015111234                2021024065790006EUR40644998226623265072332-6507/239064600032-6507/23 90646000STYLE.CLARISSA 23               00000   40      00                              032400000000000000200000000000000000000                                                  20210528000000000
002DESADV403607600200240291631100014036076002002403607600200200000000000004036076002002000000000000002021060120210601                                                                      0                                             15                                   000 00000000000000000000000000000083761842021083761840015111234                2021024065790006EUR40644998226793265072332-6507/239064600032-6507/23 90646000STYLE.CLARISSA 23               00000   42      00                              032400000000000000200000000000000000000                                                  20210528000000000
002DESADV403607600200240291631100014036076002002403607600200200000000000004036076002002000000000000002021060120210601                                                                      0                                             15                                   000 00000000000000000000000000000083761842021083761840015111234                2021024065790006EUR40644998226863265072332-6507/239064600032-6507/23 90646000STYLE.CLARISSA 23               00000   44      00                              032400000000000000200000000000000000000                                                  20210528000000000
002DESADV403607600200240291631100014036076002002403607600200200000000000004036076002002000000000000002021060120210601                                                                      0                                             15                                   000 00000000000000000000000000000083761842021083761840015111234                2021024065790006EUR40644998226933265072332-6507/239064600032-6507/23 90646000STYLE.CLARISSA 23               00000   46      00                              032400000000000000100000000000000000000                                                  20210528000000000
002DESADV403607600200240291631100014036076002002403607600200200000000000004036076002002000000000000002021060120210601                                                                      0                                             15                                   000 00000000000000000000000000000083761842021083761840015111234                2021024065790007EUR40644998227163265073332-6507/339064600032-6507/33 90646000STYLE.CLARISSA 33               00000   34      00                              032400000000000000100000000000000000000                                                  20210528000000000
002DESADV403607600200240291631100014036076002002403607600200200000000000004036076002002000000000000002021060120210601                                                                      0                                             15                                   000 00000000000000000000000000000083761842021083761840015111234                2021024065790007EUR40644998227233265073332-6507/339064600032-6507/33 90646000STYLE.CLARISSA 33               00000   36      00                              032400000000000000100000000000000000000                                                  20210528000000000
002DESADV403607600200240291631100014036076002002403607600200200000000000004036076002002000000000000002021060120210601                                                                      0                                             15                                   000 00000000000000000000000000000083761842021083761840015111234                2021024065790007EUR40644998227303265073332-6507/339064600032-6507/33 90646000STYLE.CLARISSA 33               00000   38      00                              032400000000000000200000000000000000000                                                  20210528000000000
002DESADV403607600200240291631100014036076002002403607600200200000000000004036076002002000000000000002021060120210601                                                                      0                                             15                                   000 00000000000000000000000000000083761842021083761840015111234                2021024065790007EUR40644998227473265073332-6507/339064600032-6507/33 90646000STYLE.CLARISSA 33               00000   40      00                              032400000000000000200000000000000000000                                                  20210528000000000
002DESADV403607600200240291631100014036076002002403607600200200000000000004036076002002000000000000002021060120210601                                                                      0                                             15                                   000 00000000000000000000000000000083761842021083761840015111234                2021024065790007EUR40644998227543265073332-6507/339064600032-6507/33 90646000STYLE.CLARISSA 33               00000   42      00                              032400000000000000200000000000000000000                                                  20210528000000000
002DESADV403607600200240291631100014036076002002403607600200200000000000004036076002002000000000000002021060120210601                                                                      0                                             15                                   000 00000000000000000000000000000083761842021083761840015111234                2021024065790007EUR40644998227613265073332-6507/339064600032-6507/33 90646000STYLE.CLARISSA 33               00000   44      00                              032400000000000000200000000000000000000                                                  20210528000000000
002DESADV403607600200240291631100014036076002002403607600200200000000000004036076002002000000000000002021060120210601                                                                      0                                             15                                   000 00000000000000000000000000000083761842021083761840015111234                2021024065790007EUR40644998227783265073332-6507/339064600032-6507/33 90646000STYLE.CLARISSA 33               00000   46      00                              032400000000000000100000000000000000000                                                  20210528000000000
002DESADV403607600200240291631100014036076002002403607600200200000000000004036076002002000000000000002021060120210601                                                                      0                                             15                                   000 00000000000000000000000000000083761842021083761840015111234                2021024065790008EUR40644998227923265078632-6507/869064600032-6507/86 90646000STYLE.CLARISSA 86               00000   34      00                              032400000000000000100000000000000000000                                                  20210528000000000
002DESADV403607600200240291631100014036076002002403607600200200000000000004036076002002000000000000002021060120210601                                                                      0                                             15                                   000 00000000000000000000000000000083761842021083761840015111234                2021024065790008EUR40644998228083265078632-6507/869064600032-6507/86 90646000STYLE.CLARISSA 86               00000   36      00                              032400000000000000100000000000000000000                                                  20210528000000000
002DESADV403607600200240291631100014036076002002403607600200200000000000004036076002002000000000000002021060120210601                                                                      0                                             15                                   000 00000000000000000000000000000083761842021083761840015111234                2021024065790008EUR40644998228153265078632-6507/869064600032-6507/86 90646000STYLE.CLARISSA 86               00000   38      00                              032400000000000000200000000000000000000                                                  20210528000000000
002DESADV403607600200240291631100014036076002002403607600200200000000000004036076002002000000000000002021060120210601                                                                      0                                             15                                   000 00000000000000000000000000000083761842021083761840015111234                2021024065790008EUR40644998228223265078632-6507/869064600032-6507/86 90646000STYLE.CLARISSA 86               00000   40      00                              032400000000000000200000000000000000000                                                  20210528000000000
002DESADV403607600200240291631100014036076002002403607600200200000000000004036076002002000000000000002021060120210601                                                                      0                                             15                                   000 00000000000000000000000000000083761842021083761840015111234                2021024065790008EUR40644998228393265078632-6507/869064600032-6507/86 90646000STYLE.CLARISSA 86               00000   42      00                              032400000000000000200000000000000000000                                                  20210528000000000
002DESADV403607600200240291631100014036076002002403607600200200000000000004036076002002000000000000002021060120210601                                                                      0                                             15                                   000 00000000000000000000000000000083761842021083761840015111234                2021024065790008EUR40644998228463265078632-6507/869064600032-6507/86 90646000STYLE.CLARISSA 86               00000   44      00                              032400000000000000200000000000000000000                                                  20210528000000000
002DESADV403607600200240291631100014036076002002403607600200200000000000004036076002002000000000000002021060120210601                                                                      0                                             15                                   000 00000000000000000000000000000083761842021083761840015111234                2021024065790008EUR40644998228533265078632-6507/869064600032-6507/86 90646000STYLE.CLARISSA 86               00000   46      00                              032400000000000000100000000000000000000                                                  20210528000000000
002DESADV403607600200240291631100014036076002002403607600200200000000000004036076002002000000000000002021060120210601                                                                      0                                             15                                   000 00000000000000000000000000000083761842021083761840015111234                2021024065790009EUR40644998228843244072432-4407/249064660032-4407/24 90646600STYLE.CLARISSA 24               00000   36      00                              032400000000000000100000000000000000000                                                  20210528000000000
002DESADV403607600200240291631100014036076002002403607600200200000000000004036076002002000000000000002021060120210601                                                                      0                                             15                                   000 00000000000000000000000000000083761842021083761840015111234                2021024065790009EUR40644998228913244072432-4407/249064660032-4407/24 90646600STYLE.CLARISSA 24               00000   38      00                              032400000000000000200000000000000000000                                                  20210528000000000
002DESADV403607600200240291631100014036076002002403607600200200000000000004036076002002000000000000002021060120210601                                                                      0                                             15                                   000 00000000000000000000000000000083761842021083761840015111234                2021024065790009EUR40644998229073244072432-4407/249064660032-4407/24 90646600STYLE.CLARISSA 24               00000   40      00                              032400000000000000200000000000000000000                                                  20210528000000000
002DESADV403607600200240291631100014036076002002403607600200200000000000004036076002002000000000000002021060120210601                                                                      0                                             15                                   000 00000000000000000000000000000083761842021083761840015111234                2021024065790009EUR40644998229143244072432-4407/249064660032-4407/24 90646600STYLE.CLARISSA 24               00000   42      00                              032400000000000000200000000000000000000                                                  20210528000000000
002DESADV403607600200240291631100014036076002002403607600200200000000000004036076002002000000000000002021060120210601                                                                      0                                             15                                   000 00000000000000000000000000000083761842021083761840015111234                2021024065790009EUR40644998229213244072432-4407/249064660032-4407/24 90646600STYLE.CLARISSA 24               00000   44      00                              032400000000000000200000000000000000000                                                  20210528000000000
002DESADV403607600200240291631100014036076002002403607600200200000000000004036076002002000000000000002021060120210601                                                                      0                                             15                                   000 00000000000000000000000000000083761842021083761840015111234                2021024065790009EUR40644998229383244072432-4407/249064660032-4407/24 90646600STYLE.CLARISSA 24               00000   46      00                              032400000000000000100000000000000000000                                                  20210528000000000
002DESADV403607600200240291631100014036076002002403607600200200000000000004036076002002000000000000002021060120210601                                                                      0                                             15                                   000 00000000000000000000000000000083761842021083761840015111234                2021024065790010EUR40644998229693244073732-4407/379064660032-4407/37 90646600STYLE.CLARISSA 37               00000   36      00                              032400000000000000100000000000000000000                                                  20210528000000000
002DESADV403607600200240291631100014036076002002403607600200200000000000004036076002002000000000000002021060120210601                                                                      0                                             15                                   000 00000000000000000000000000000083761842021083761840015111234                2021024065790010EUR40644998229763244073732-4407/379064660032-4407/37 90646600STYLE.CLARISSA 37               00000   38      00                              032400000000000000200000000000000000000                                                  20210528000000000
002DESADV403607600200240291631100014036076002002403607600200200000000000004036076002002000000000000002021060120210601                                                                      0                                             15                                   000 00000000000000000000000000000083761842021083761840015111234                2021024065790010EUR40644998229833244073732-4407/379064660032-4407/37 90646600STYLE.CLARISSA 37               00000   40      00                              032400000000000000200000000000000000000                                                  20210528000000000
002DESADV403607600200240291631100014036076002002403607600200200000000000004036076002002000000000000002021060120210601                                                                      0                                             15                                   000 00000000000000000000000000000083761842021083761840015111234                2021024065790010EUR40644998229903244073732-4407/379064660032-4407/37 90646600STYLE.CLARISSA 37               00000   42      00                              032400000000000000200000000000000000000                                                  20210528000000000
002DESADV403607600200240291631100014036076002002403607600200200000000000004036076002002000000000000002021060120210601                                                                      0                                             15                                   000 00000000000000000000000000000083761842021083761840015111234                2021024065790010EUR40644998230033244073732-4407/379064660032-4407/37 90646600STYLE.CLARISSA 37               00000   44      00                              032400000000000000200000000000000000000                                                  20210528000000000
002DESADV403607600200240291631100014036076002002403607600200200000000000004036076002002000000000000002021060120210601                                                                      0                                             15                                   000 00000000000000000000000000000083761842021083761840015111234                2021024065790010EUR40644998230103244073732-4407/379064660032-4407/37 90646600STYLE.CLARISSA 37               00000   46      00                              032400000000000000100000000000000000000                                                  20210528000000000
002DESADV403607600200240291631100014036076002002403607600200200000000000004036076002002000000000000002021060120210601                                                                      0                                             15                                   000 00000000000000000000000000000083761842021083761840015111234                2021024065790011EUR40644998230413244078332-4407/839064660032-4407/83 90646600STYLE.CLARISSA 83               00000   36      00                              032400000000000000100000000000000000000                                                  20210528000000000
002DESADV403607600200240291631100014036076002002403607600200200000000000004036076002002000000000000002021060120210601                                                                      0                                             15                                   000 00000000000000000000000000000083761842021083761840015111234                2021024065790011EUR40644998230583244078332-4407/839064660032-4407/83 90646600STYLE.CLARISSA 83               00000   38      00                              032400000000000000200000000000000000000                                                  20210528000000000
002DESADV403607600200240291631100014036076002002403607600200200000000000004036076002002000000000000002021060120210601                                                                      0                                             15                                   000 00000000000000000000000000000083761842021083761840015111234                2021024065790011EUR40644998230653244078332-4407/839064660032-4407/83 90646600STYLE.CLARISSA 83               00000   40      00                              032400000000000000200000000000000000000                                                  20210528000000000
002DESADV403607600200240291631100014036076002002403607600200200000000000004036076002002000000000000002021060120210601                                                                      0                                             15                                   000 00000000000000000000000000000083761842021083761840015111234                2021024065790011EUR40644998230723244078332-4407/839064660032-4407/83 90646600STYLE.CLARISSA 83               00000   42      00                              032400000000000000200000000000000000000                                                  20210528000000000
002DESADV403607600200240291631100014036076002002403607600200200000000000004036076002002000000000000002021060120210601                                                                      0                                             15                                   000 00000000000000000000000000000083761842021083761840015111234                2021024065790011EUR40644998230893244078332-4407/839064660032-4407/83 90646600STYLE.CLARISSA 83               00000   44      00                              032400000000000000200000000000000000000                                                  20210528000000000
002DESADV403607600200240291631100014036076002002403607600200200000000000004036076002002000000000000002021060120210601                                                                      0                                             15                                   000 00000000000000000000000000000083761842021083761840015111234                2021024065790011EUR40644998230963244078332-4407/839064660032-4407/83 90646600STYLE.CLARISSA 83               00000   46      00                              032400000000000000100000000000000000000                                                  20210528000000000
002DESADV403607600200240291631100014036076002002403607600200200000000000004036076002002000000000000002021060120210601                                                                      0                                             15                                   000 00000000000000000000000000000083761842021083761840015111234                2021024065790020EUR40644998224643231372432-3137/249064670032-3137/24 90646700STYLE.COLLETTA 24               00000   34      00                              028400000000000000100000000000000000000                                                  20210528000000000
002DESADV403607600200240291631100014036076002002403607600200200000000000004036076002002000000000000002021060120210601                                                                      0                                             15                                   000 00000000000000000000000000000083761842021083761840015111234                2021024065790020EUR40644998224713231372432-3137/249064670032-3137/24 90646700STYLE.COLLETTA 24               00000   36      00                              028400000000000000200000000000000000000                                                  20210528000000000
002DESADV403607600200240291631100014036076002002403607600200200000000000004036076002002000000000000002021060120210601                                                                      0                                             15                                   000 00000000000000000000000000000083761842021083761840015111234                2021024065790020EUR40644998224883231372432-3137/249064670032-3137/24 90646700STYLE.COLLETTA 24               00000   38      00                              028400000000000000200000000000000000000                                                  20210528000000000
002DESADV403607600200240291631100014036076002002403607600200200000000000004036076002002000000000000002021060120210601                                                                      0                                             15                                   000 00000000000000000000000000000083761842021083761840015111234                2021024065790020EUR40644998224953231372432-3137/249064670032-3137/24 90646700STYLE.COLLETTA 24               00000   40      00                              028400000000000000200000000000000000000                                                  20210528000000000
002DESADV403607600200240291631100014036076002002403607600200200000000000004036076002002000000000000002021060120210601                                                                      0                                             15                                   000 00000000000000000000000000000083761842021083761840015111234                2021024065790020EUR40644998225013231372432-3137/249064670032-3137/24 90646700STYLE.COLLETTA 24               00000   42      00                              028400000000000000200000000000000000000                                                  20210528000000000
002DESADV403607600200240291631100014036076002002403607600200200000000000004036076002002000000000000002021060120210601                                                                      0                                             15                                   000 00000000000000000000000000000083761842021083761840015111234                2021024065790020EUR40644998225183231372432-3137/249064670032-3137/24 90646700STYLE.COLLETTA 24               00000   44      00                              028400000000000000200000000000000000000                                                  20210528000000000
002DESADV403607600200240291631100014036076002002403607600200200000000000004036076002002000000000000002021060120210601                                                                      0                                             15                                   000 00000000000000000000000000000083761842021083761840015111234                2021024065790020EUR40644998225253231372432-3137/249064670032-3137/24 90646700STYLE.COLLETTA 24               00000   46      00                              028400000000000000100000000000000000000                                                  20210528000000000
002DESADV403607600200240291631100014036076002002403607600200200000000000004036076002002000000000000002021060120210601                                                                      0                                             15                                   000 00000000000000000000000000000083761842021083761840015111234                2021024065790020EUR40644998225323231372432-3137/249064670032-3137/24 90646700STYLE.COLLETTA 24               00000   48      00                              028400000000000000100000000000000000000                                                  20210528000000000
002DESADV403607600200240291631100014036076002002403607600200200000000000004036076002002000000000000002021060120210601                                                                      0                                             15                                   000 00000000000000000000000000000083761842021083761840015111234                2021024065790021EUR40644998225493231378532-3137/859064670032-3137/85 90646700STYLE.COLLETTA 85               00000   34      00                              028400000000000000100000000000000000000                                                  20210528000000000
002DESADV403607600200240291631100014036076002002403607600200200000000000004036076002002000000000000002021060120210601                                                                      0                                             15                                   000 00000000000000000000000000000083761842021083761840015111234                2021024065790021EUR40644998225563231378532-3137/859064670032-3137/85 90646700STYLE.COLLETTA 85               00000   36      00                              028400000000000000100000000000000000000                                                  20210528000000000
002DESADV403607600200240291631100014036076002002403607600200200000000000004036076002002000000000000002021060120210601                                                                      0                                             15                                   000 00000000000000000000000000000083761842021083761840015111234                2021024065790021EUR40644998225633231378532-3137/859064670032-3137/85 90646700STYLE.COLLETTA 85               00000   38      00                              028400000000000000200000000000000000000                                                  20210528000000000
002DESADV403607600200240291631100014036076002002403607600200200000000000004036076002002000000000000002021060120210601                                                                      0                                             15                                   000 00000000000000000000000000000083761842021083761840015111234                2021024065790021EUR40644998225703231378532-3137/859064670032-3137/85 90646700STYLE.COLLETTA 85               00000   40      00                              028400000000000000200000000000000000000                                                  20210528000000000
002DESADV403607600200240291631100014036076002002403607600200200000000000004036076002002000000000000002021060120210601                                                                      0                                             15                                   000 00000000000000000000000000000083761842021083761840015111234                2021024065790021EUR40644998225873231378532-3137/859064670032-3137/85 90646700STYLE.COLLETTA 85               00000   42      00                              028400000000000000200000000000000000000                                                  20210528000000000
002DESADV403607600200240291631100014036076002002403607600200200000000000004036076002002000000000000002021060120210601                                                                      0                                             15                                   000 00000000000000000000000000000083761842021083761840015111234                2021024065790021EUR40644998225943231378532-3137/859064670032-3137/85 90646700STYLE.COLLETTA 85               00000   44      00                              028400000000000000200000000000000000000                                                  20210528000000000
002DESADV403607600200240291631100014036076002002403607600200200000000000004036076002002000000000000002021060120210601                                                                      0                                             15                                   000 00000000000000000000000000000083761842021083761840015111234                2021024065790021EUR40644998226003231378532-3137/859064670032-3137/85 90646700STYLE.COLLETTA 85               00000   46      00                              028400000000000000100000000000000000000                                                  20210528000000000
002DESADV403607600200240291631100014036076002002403607600200200000000000004036076002002000000000000002021060120210601                                                                      0                                             15                                   000 00000000000000000000000000000083761842021083761840015111234                2021024065790021EUR40644998226173231378532-3137/859064670032-3137/85 90646700STYLE.COLLETTA 85               00000   48      00                              028400000000000000100000000000000000000                                                  20210528000000000
003DESADV403607600200240291631100014036076002002403607600200200000000000004036076002002000000000000002021060120210601                                                                      0                                             15                                   000 0000000000000000000000000000008376184202108376184001511                    0000000000000000EUR000000000000000000000          00000000                                  00               00000           00                              000000000000000009600000000000000000000                                                  00000000000000000
001DESADV403607600200240291631100014036076002002403607600200200000000000004036076002002000000000000002021060120210601                                                                      0                                             15                                   000 0000000000000000000000000000008376185202108376185001511                    0000000000000000EUR000000000000000000000          00000000                                  00               00000           00                              000000000000000000000000000000000000000                                                  00000000000000000
002DESADV403607600200240291631100014036076002002403607600200200000000000004036076002002000000000000002021060120210601                                                                      0                                             15                                   000 00000000000000000000000000000083761852021083761850015111234                2021024066480017EUR40472256613843272072632-7207/269061640032-7207/26 90616400               26               00000   36      00                              031400000000000000100000000000000000000                                                  20210528000000000
002DESADV403607600200240291631100014036076002002403607600200200000000000004036076002002000000000000002021060120210601                                                                      0                                             15                                   000 00000000000000000000000000000083761852021083761850015111234                2021024066480017EUR40472256613913272072632-7207/269061640032-7207/26 90616400               26               00000   38      00                              031400000000000000200000000000000000000                                                  20210528000000000
002DESADV403607600200240291631100014036076002002403607600200200000000000004036076002002000000000000002021060120210601                                                                      0                                             15                                   000 00000000000000000000000000000083761852021083761850015111234                2021024066480017EUR40472256614073272072632-7207/269061640032-7207/26 90616400               26               00000   40      00                              031400000000000000200000000000000000000                                                  20210528000000000
002DESADV403607600200240291631100014036076002002403607600200200000000000004036076002002000000000000002021060120210601                                                                      0                                             15                                   000 00000000000000000000000000000083761852021083761850015111234                2021024066480017EUR40472256614143272072632-7207/269061640032-7207/26 90616400               26               00000   42      00                              031400000000000000200000000000000000000                                                  20210528000000000
002DESADV403607600200240291631100014036076002002403607600200200000000000004036076002002000000000000002021060120210601                                                                      0                                             15                                   000 00000000000000000000000000000083761852021083761850015111234                2021024066480017EUR40472256614213272072632-7207/269061640032-7207/26 90616400               26               00000   44      00                              031400000000000000200000000000000000000                                                  20210528000000000
002DESADV403607600200240291631100014036076002002403607600200200000000000004036076002002000000000000002021060120210601                                                                      0                                             15                                   000 00000000000000000000000000000083761852021083761850015111234                2021024066480017EUR40472256614383272072632-7207/269061640032-7207/26 90616400               26               00000   46      00                              031400000000000000100000000000000000000                                                  20210528000000000
002DESADV403607600200240291631100014036076002002403607600200200000000000004036076002002000000000000002021060120210601                                                                      0                                             15                                   000 00000000000000000000000000000083761852021083761850015111234                2021024066480018EUR40472256621073272078532-7207/859061640032-7207/85 90616400               85               00000   36      00                              031400000000000000100000000000000000000                                                  20210528000000000
002DESADV403607600200240291631100014036076002002403607600200200000000000004036076002002000000000000002021060120210601                                                                      0                                             15                                   000 00000000000000000000000000000083761852021083761850015111234                2021024066480018EUR40472253690373272078532-7207/859061640032-7207/85 90616400               85               00000   38      00                              031400000000000000200000000000000000000                                                  20210528000000000
002DESADV403607600200240291631100014036076002002403607600200200000000000004036076002002000000000000002021060120210601                                                                      0                                             15                                   000 00000000000000000000000000000083761852021083761850015111234                2021024066480018EUR40472253690443272078532-7207/859061640032-7207/85 90616400               85               00000   40      00                              031400000000000000200000000000000000000                                                  20210528000000000
002DESADV403607600200240291631100014036076002002403607600200200000000000004036076002002000000000000002021060120210601                                                                      0                                             15                                   000 00000000000000000000000000000083761852021083761850015111234                2021024066480018EUR40472256621143272078532-7207/859061640032-7207/85 90616400               85               00000   42      00                              031400000000000000200000000000000000000                                                  20210528000000000
002DESADV403607600200240291631100014036076002002403607600200200000000000004036076002002000000000000002021060120210601                                                                      0                                             15                                   000 00000000000000000000000000000083761852021083761850015111234                2021024066480018EUR40472256621213272078532-7207/859061640032-7207/85 90616400               85               00000   44      00                              031400000000000000200000000000000000000                                                  20210528000000000
002DESADV403607600200240291631100014036076002002403607600200200000000000004036076002002000000000000002021060120210601                                                                      0                                             15                                   000 00000000000000000000000000000083761852021083761850015111234                2021024066480018EUR40472256622373272078532-7207/859061640032-7207/85 90616400               85               00000   46      00                              031400000000000000100000000000000000000                                                  20210528000000000
002DESADV403607600200240291631100014036076002002403607600200200000000000004036076002002000000000000002021060120210601                                                                      0                                             15                                   000 00000000000000000000000000000083761852021083761850015111234                2021024066480019EUR40448192433773272179932-7217/999061270032-7217/99 90612700               99               0000036-38      00                              032400000000000000300000000000000000000                                                  20210528000000000
002DESADV403607600200240291631100014036076002002403607600200200000000000004036076002002000000000000002021060120210601                                                                      0                                             15                                   000 00000000000000000000000000000083761852021083761850015111234                2021024066480019EUR40448192434213272179932-7217/999061270032-7217/99 90612700               99               0000040-42      00                              032400000000000000300000000000000000000                                                  20210528000000000
002DESADV403607600200240291631100014036076002002403607600200200000000000004036076002002000000000000002021060120210601                                                                      0                                             15                                   000 00000000000000000000000000000083761852021083761850015111234                2021024066480019EUR40448193392783272179932-7217/999061270032-7217/99 90612700               99               0000044-46      00                              032400000000000000300000000000000000000                                                  20210528000000000
002DESADV403607600200240291631100014036076002002403607600200200000000000004036076002002000000000000002021060120210601                                                                      0                                             15                                   000 00000000000000000000000000000083761852021083761850015111234                2021024066480020EUR40448192434383272474332-7247/439061270032-7247/43 90612700               43               0000036-38      00                              032400000000000000300000000000000000000                                                  20210528000000000
002DESADV403607600200240291631100014036076002002403607600200200000000000004036076002002000000000000002021060120210601                                                                      0                                             15                                   000 00000000000000000000000000000083761852021083761850015111234                2021024066480020EUR40448192434453272474332-7247/439061270032-7247/43 90612700               43               0000040-42      00                              032400000000000000300000000000000000000                                                  20210528000000000
002DESADV403607600200240291631100014036076002002403607600200200000000000004036076002002000000000000002021060120210601                                                                      0                                             15                                   000 00000000000000000000000000000083761852021083761850015111234                2021024066480020EUR40448193392853272474332-7247/439061270032-7247/43 90612700               43               0000044-46      00                              032400000000000000300000000000000000000                                                  20210528000000000
