001DESADV403607600200240291631100014036076002002403607600200200000000000004036076002002000000000000002021060220210602                                                                      0                                             15                                   000 0000000000000000000000000000009264948202109264948001511                    0000000000000000EUR000000000000000000000          00000000                                  00               00000           00                              000000000000000000000000000000000000000                                                  00000000000000000
002DESADV403607600200240291631100014036076002002403607600200200000000000004036076002002000000000000002021060220210602                                                                      0                                             15                                   000 0000000000000000000000000000009264948202109264948001511RT807046_1511_1     2021004086670003EUR40371236122298060002480-6000/240796442080-6000/24 07964420STYLE.COOPER DE24               0000040/32      00                              040200000000000000100000000000000000000                                                  20210531000000121
002DESADV403607600200240291631100014036076002002403607600200200000000000004036076002002000000000000002021060220210602                                                                      0                                             15                                   000 0000000000000000000000000000009264948202109264948001511RT807046_1511_1     2021004086670003EUR40371236122438060002480-6000/240796442080-6000/24 07964420STYLE.COOPER DE24               0000040/34      00                              040200000000000000100000000000000000000                                                  20210531000000121
002DESADV403607600200240291631100014036076002002403607600200200000000000004036076002002000000000000002021060220210602                                                                      0                                             15                                   000 0000000000000000000000000000009264948202109264948001511RT807046_1511_1     2021004086670010EUR40472249234838214570282-1457/020788202082-1457/02 07882020STYLE.FABIO IN 02               0000036/32      00                              040200000000000000100000000000000000000                                                  20210531000000121
002DESADV403607600200240291631100014036076002002403607600200200000000000004036076002002000000000000002021060220210602                                                                      0                                             15                                   000 0000000000000000000000000000009264948202109264948001511RT807046_1511_1     2021004086670020EUR40472272126148413575684-1357/560786302084-1357/56 07863020STYLE.CHUCK    56               0000036/32      00                              040200000000000000100000000000000000000                                                  20210531000000121
002DESADV403607600200240291631100014036076002002403607600200200000000000004036076002002000000000000002021060220210602                                                                      0                                             15                                   000 0000000000000000000000000000009264948202109264948001511RT807046_1511_1     2021004086670021EUR40472232050308464572384-6457/230795302084-6457/23 07953020STYLE.CHUCK    23               0000031/32      00                              048000000000000000100000000000000000000                                                  20210531000000121
002DESADV403607600200240291631100014036076002002403607600200200000000000004036076002002000000000000002021060220210602                                                                      0                                             15                                   000 0000000000000000000000000000009264948202109264948001511RT807046_1511_1     2021004086670021EUR40472228092608464572384-6457/230795302084-6457/23 07953020STYLE.CHUCK    23               0000034/32      00                              048000000000000000100000000000000000000                                                  20210531000000121
002DESADV403607600200240291631100014036076002002403607600200200000000000004036076002002000000000000002021060220210602                                                                      0                                             15                                   000 0000000000000000000000000000009264948202109264948001511RT807046_1511_1     2021004086670021EUR40472232049038464572384-6457/230795302084-6457/23 07953020STYLE.CHUCK    23               0000038/30      00                              048000000000000000100000000000000000000                                                  20210531000000121
002DESADV403607600200240291631100014036076002002403607600200200000000000004036076002002000000000000002021060220210602                                                                      0                                             15                                   000 0000000000000000000000000000009264948202109264948001511RT807046_1511_1     2021004086670021EUR40472232050788464572384-6457/230795302084-6457/23 07953020STYLE.CHUCK    23               0000040/32      00                              048000000000000000100000000000000000000                                                  20210531000000121
002DESADV403607600200240291631100014036076002002403607600200200000000000004036076002002000000000000002021060220210602                                                                      0                                             15                                   000 0000000000000000000000000000009264948202109264948001511RT807046_1511_1     2021004086670022EUR40472232070418464572684-6457/260795302084-6457/26 07953020STYLE.CHUCK    26               0000031/32      00                              048000000000000000100000000000000000000                                                  20210531000000121
002DESADV403607600200240291631100014036076002002403607600200200000000000004036076002002000000000000002021060220210602                                                                      0                                             15                                   000 0000000000000000000000000000009264948202109264948001511RT807046_1511_1     2021004086670022EUR40472228097418464572684-6457/260795302084-6457/26 07953020STYLE.CHUCK    26               0000034/32      00                              048000000000000000100000000000000000000                                                  20210531000000121
002DESADV403607600200240291631100014036076002002403607600200200000000000004036076002002000000000000002021060220210602                                                                      0                                             15                                   000 0000000000000000000000000000009264948202109264948001511RT807046_1511_1     2021004086670022EUR40472232076528464572684-6457/260795302084-6457/26 07953020STYLE.CHUCK    26               0000034/34      00                              048000000000000000100000000000000000000                                                  20210531000000121
002DESADV403607600200240291631100014036076002002403607600200200000000000004036076002002000000000000002021060220210602                                                                      0                                             15                                   000 0000000000000000000000000000009264948202109264948001511RT807046_1511_1     2021004086670022EUR40472232070968464572684-6457/260795302084-6457/26 07953020STYLE.CHUCK    26               0000042/32      00                              048000000000000000100000000000000000000                                                  20210531000000121
002DESADV403607600200240291631100014036076002002403607600200200000000000004036076002002000000000000002021060220210602                                                                      0                                             15                                   000 0000000000000000000000000000009264948202109264948001511RT807046_1511_1     2021004086670023EUR40472279877898563070385-6307/030796082085-6307/03 07960820STYLE.CHRIS    03               0000033/30      00                              026000000000000000100000000000000000000                                                  20210531000000121
002DESADV403607600200240291631100014036076002002403607600200200000000000004036076002002000000000000002021060220210602                                                                      0                                             15                                   000 0000000000000000000000000000009264948202109264948001511RT807046_1511_1     2021004086670024EUR40472282807978563072385-6307/230796082085-6307/23 07960820STYLE.CHRIS    23               0000033/30      00                              026000000000000000100000000000000000000                                                  20210531000000121
002DESADV403607600200240291631100014036076002002403607600200200000000000004036076002002000000000000002021060220210602                                                                      0                                             15                                   000 0000000000000000000000000000009264948202109264948001511RT807046_1511_1     2021004086670024EUR40472282808038563072385-6307/230796082085-6307/23 07960820STYLE.CHRIS    23               0000034/30      00                              026000000000000000100000000000000000000                                                  20210531000000121
002DESADV403607600200240291631100014036076002002403607600200200000000000004036076002002000000000000002021060220210602                                                                      0                                             15                                   000 0000000000000000000000000000009264948202109264948001511RT807046_1511_1     2021004086670024EUR40472282808108563072385-6307/230796082085-6307/23 07960820STYLE.CHRIS    23               0000035/30      00                              026000000000000000100000000000000000000                                                  20210531000000121
002DESADV403607600200240291631100014036076002002403607600200200000000000004036076002002000000000000002021060220210602                                                                      0                                             15                                   000 0000000000000000000000000000009264948202109264948001511RT807046_1511_1     2021004086670025EUR40472282828388563072585-6307/250796082085-6307/25 07960820STYLE.CHRIS    25               0000031/32      00                              026000000000000000100000000000000000000                                                  20210531000000121
002DESADV403607600200240291631100014036076002002403607600200200000000000004036076002002000000000000002021060220210602                                                                      0                                             15                                   000 0000000000000000000000000000009264948202109264948001511RT807046_1511_1     2021004086670025EUR40472279751068563072585-6307/250796082085-6307/25 07960820STYLE.CHRIS    25               0000033/32      00                              026000000000000000100000000000000000000                                                  20210531000000121
002DESADV403607600200240291631100014036076002002403607600200200000000000004036076002002000000000000002021060220210602                                                                      0                                             15                                   000 0000000000000000000000000000009264948202109264948001511RT807046_1511_1     2021004086670025EUR40472282830268563072585-6307/250796082085-6307/25 07960820STYLE.CHRIS    25               0000034/34      00                              026000000000000000100000000000000000000                                                  20210531000000121
003DESADV403607600200240291631100014036076002002403607600200200000000000004036076002002000000000000002021060220210602                                                                      0                                             15                                   000 0000000000000000000000000000009264948202109264948001511                    0000000000000000EUR000000000000000000000          00000000                                  00               00000           00                              000000000000000001900000000000000000000                                                  00000000000000000
001DESADV403607600200240291631100014036076002002403607600200200000000000004036076002002000000000000002021060220210602                                                                      0                                             15                                   000 0000000000000000000000000000009264949202109264949001511                    0000000000000000EUR000000000000000000000          00000000                                  00               00000           00                              000000000000000000000000000000000000000                                                  00000000000000000
002DESADV403607600200240291631100014036076002002403607600200200000000000004036076002002000000000000002021060220210602                                                                      0                                             15                                   000 00000000000000000000000000000092649492021092649490015111234                2021004086570001EUR40472244633237215570172-1557/010989002072-1557/01 09890020STYLE.MARY     01               00000   36      00                              040200000000000000100000000000000000000                                                  20210531000000121
002DESADV403607600200240291631100014036076002002403607600200200000000000004036076002002000000000000002021060220210602                                                                      0                                             15                                   000 00000000000000000000000000000092649492021092649490015111234                2021004086570001EUR40472244633307215570172-1557/010989002072-1557/01 09890020STYLE.MARY     01               00000   38      00                              040200000000000000100000000000000000000                                                  20210531000000121
002DESADV403607600200240291631100014036076002002403607600200200000000000004036076002002000000000000002021060220210602                                                                      0                                             15                                   000 00000000000000000000000000000092649492021092649490015111234                2021004086570001EUR40472244633477215570172-1557/010989002072-1557/01 09890020STYLE.MARY     01               00000   40      00                              040200000000000000200000000000000000000                                                  20210531000000121
002DESADV403607600200240291631100014036076002002403607600200200000000000004036076002002000000000000002021060220210602                                                                      0                                             15                                   000 00000000000000000000000000000092649492021092649490015111234                2021004086570001EUR40472244633547215570172-1557/010989002072-1557/01 09890020STYLE.MARY     01               00000   42      00                              040200000000000000200000000000000000000                                                  20210531000000121
002DESADV403607600200240291631100014036076002002403607600200200000000000004036076002002000000000000002021060220210602                                                                      0                                             15                                   000 00000000000000000000000000000092649492021092649490015111234                2021004086570001EUR40472244633617215570172-1557/010989002072-1557/01 09890020STYLE.MARY     01               00000   44      00                              040200000000000000200000000000000000000                                                  20210531000000121
002DESADV403607600200240291631100014036076002002403607600200200000000000004036076002002000000000000002021060220210602                                                                      0                                             15                                   000 00000000000000000000000000000092649492021092649490015111234                2021004086570001EUR40472244633787215570172-1557/010989002072-1557/01 09890020STYLE.MARY     01               00000   46      00                              040200000000000000100000000000000000000                                                  20210531000000121
002DESADV403607600200240291631100014036076002002403607600200200000000000004036076002002000000000000002021060220210602                                                                      0                                             15                                   000 00000000000000000000000000000092649492021092649490015111234                2021004086570001EUR40472244634847215570172-1557/010989002072-1557/01 09890020STYLE.MARY     01               00000  36K      00                              040200000000000000100000000000000000000                                                  20210531000000121
002DESADV403607600200240291631100014036076002002403607600200200000000000004036076002002000000000000002021060220210602                                                                      0                                             15                                   000 00000000000000000000000000000092649492021092649490015111234                2021004086570001EUR40472244634917215570172-1557/010989002072-1557/01 09890020STYLE.MARY     01               00000  38K      00                              040200000000000000100000000000000000000                                                  20210531000000121
002DESADV403607600200240291631100014036076002002403607600200200000000000004036076002002000000000000002021060220210602                                                                      0                                             15                                   000 00000000000000000000000000000092649492021092649490015111234                2021004086570001EUR40472244635077215570172-1557/010989002072-1557/01 09890020STYLE.MARY     01               00000  40K      00                              040200000000000000200000000000000000000                                                  20210531000000121
002DESADV403607600200240291631100014036076002002403607600200200000000000004036076002002000000000000002021060220210602                                                                      0                                             15                                   000 00000000000000000000000000000092649492021092649490015111234                2021004086570001EUR40472244635147215570172-1557/010989002072-1557/01 09890020STYLE.MARY     01               00000  42K      00                              040200000000000000200000000000000000000                                                  20210531000000121
002DESADV403607600200240291631100014036076002002403607600200200000000000004036076002002000000000000002021060220210602                                                                      0                                             15                                   000 00000000000000000000000000000092649492021092649490015111234                2021004086570001EUR40472244635217215570172-1557/010989002072-1557/01 09890020STYLE.MARY     01               00000  44K      00                              040200000000000000200000000000000000000                                                  20210531000000121
002DESADV403607600200240291631100014036076002002403607600200200000000000004036076002002000000000000002021060220210602                                                                      0                                             15                                   000 00000000000000000000000000000092649492021092649490015111234                2021004086570001EUR40472244635387215570172-1557/010989002072-1557/01 09890020STYLE.MARY     01               00000  46K      00                              040200000000000000100000000000000000000                                                  20210531000000121
003DESADV403607600200240291631100014036076002002403607600200200000000000004036076002002000000000000002021060220210602                                                                      0                                             15                                   000 0000000000000000000000000000009264949202109264949001511                    0000000000000000EUR000000000000000000000          00000000                                  00               00000           00                              000000000000000001800000000000000000000                                                  00000000000000000
