001DESADV403607600200240291631100014036076002002403607600200200000000000004036076002002000000000000002021061620210616                                                                      0                                             15                                   000 0000000000000000000000000000008377631202108377631001511                    0000000000000000EUR000000000000000000000          00000000                                  00               00000           00                              000000000000000000000000000000000000000                                                  00000000000000000
002DESADV403607600200240291631100014036076002002403607600200200000000000004036076002002000000000000002021061620210616                                                                      0                                             15                                   000 0000000000000000000000000000008377631202108377631001511                    2021004154820001EUR40644984197712447672324-4767/237043880024-4767/23 70438800STYLE.PERRY    23               00000    L      00                              019900000000000000300000000000000000000                                                  20210611000000121
002DESADV403607600200240291631100014036076002002403607600200200000000000004036076002002000000000000002021061620210616                                                                      0                                             15                                   000 0000000000000000000000000000008377631202108377631001511                    2021004154820001EUR40644984197642447672324-4767/237043880024-4767/23 70438800STYLE.PERRY    23               00000    M      00                              019900000000000000200000000000000000000                                                  20210611000000121
002DESADV403607600200240291631100014036076002002403607600200200000000000004036076002002000000000000002021061620210616                                                                      0                                             15                                   000 0000000000000000000000000000008377631202108377631001511                    2021004154820001EUR40644995443282447672324-4767/237043880024-4767/23 70438800STYLE.PERRY    23               00000   XL      00                              019900000000000000300000000000000000000                                                  20210611000000121
002DESADV403607600200240291631100014036076002002403607600200200000000000004036076002002000000000000002021061620210616                                                                      0                                             15                                   000 0000000000000000000000000000008377631202108377631001511                    2021004154820001EUR40644995443352447672324-4767/237043880024-4767/23 70438800STYLE.PERRY    23               00000  XXL      00                              019900000000000000200000000000000000000                                                  20210611000000121
002DESADV403607600200240291631100014036076002002403607600200200000000000004036076002002000000000000002021061620210616                                                                      0                                             15                                   000 0000000000000000000000000000008377631202108377631001511                    2021004154820001EUR40644995443422447672324-4767/237043880024-4767/23 70438800STYLE.PERRY    23               00000 XXXL      00                              021900000000000000100000000000000000000                                                  20210611000000121
002DESADV403607600200240291631100014036076002002403607600200200000000000004036076002002000000000000002021061620210616                                                                      0                                             15                                   000 0000000000000000000000000000008377631202108377631001511                    2021004154820002EUR40644984184842455341824-5534/187043250024-5534/18 70432500STYLE.PADDY    18               00000    L      00                              014400000000000000300000000000000000000                                                  20210611000000121
002DESADV403607600200240291631100014036076002002403607600200200000000000004036076002002000000000000002021061620210616                                                                      0                                             15                                   000 0000000000000000000000000000008377631202108377631001511                    2021004154820002EUR40644984184772455341824-5534/187043250024-5534/18 70432500STYLE.PADDY    18               00000    M      00                              014400000000000000200000000000000000000                                                  20210611000000121
002DESADV403607600200240291631100014036076002002403607600200200000000000004036076002002000000000000002021061620210616                                                                      0                                             15                                   000 0000000000000000000000000000008377631202108377631001511                    2021004154820002EUR40644995464142455341824-5534/187043250024-5534/18 70432500STYLE.PADDY    18               00000   XL      00                              014400000000000000300000000000000000000                                                  20210611000000121
002DESADV403607600200240291631100014036076002002403607600200200000000000004036076002002000000000000002021061620210616                                                                      0                                             15                                   000 0000000000000000000000000000008377631202108377631001511                    2021004154820002EUR40644995464212455341824-5534/187043250024-5534/18 70432500STYLE.PADDY    18               00000  XXL      00                              014400000000000000200000000000000000000                                                  20210611000000121
002DESADV403607600200240291631100014036076002002403607600200200000000000004036076002002000000000000002021061620210616                                                                      0                                             15                                   000 0000000000000000000000000000008377631202108377631001511                    2021004154820003EUR40644984185072455342424-5534/247043250024-5534/24 70432500STYLE.PADDY    24               00000    L      00                              014400000000000000300000000000000000000                                                  20210611000000121
002DESADV403607600200240291631100014036076002002403607600200200000000000004036076002002000000000000002021061620210616                                                                      0                                             15                                   000 0000000000000000000000000000008377631202108377631001511                    2021004154820003EUR40644984184912455342424-5534/247043250024-5534/24 70432500STYLE.PADDY    24               00000    M      00                              014400000000000000200000000000000000000                                                  20210611000000121
002DESADV403607600200240291631100014036076002002403607600200200000000000004036076002002000000000000002021061620210616                                                                      0                                             15                                   000 0000000000000000000000000000008377631202108377631001511                    2021004154820003EUR40644995465752455342424-5534/247043250024-5534/24 70432500STYLE.PADDY    24               00000   XL      00                              014400000000000000300000000000000000000                                                  20210611000000121
002DESADV403607600200240291631100014036076002002403607600200200000000000004036076002002000000000000002021061620210616                                                                      0                                             15                                   000 0000000000000000000000000000008377631202108377631001511                    2021004154820003EUR40644995465822455342424-5534/247043250024-5534/24 70432500STYLE.PADDY    24               00000  XXL      00                              014400000000000000200000000000000000000                                                  20210611000000121
003DESADV403607600200240291631100014036076002002403607600200200000000000004036076002002000000000000002021061620210616                                                                      0                                             15                                   000 0000000000000000000000000000008377631202108377631001511                    0000000000000000EUR000000000000000000000          00000000                                  00               00000           00                              000000000000000003100000000000000000000                                                  00000000000000000
001DESADV403607600200240291631100014036076002002403607600200200000000000004036076002002000000000000002021061620210616                                                                      0                                             15                                   000 0000000000000000000000000000008377632202108377632001511                    0000000000000000EUR000000000000000000000          00000000                                  00               00000           00                              000000000000000000000000000000000000000                                                  00000000000000000
002DESADV403607600200240291631100014036076002002403607600200200000000000004036076002002000000000000002021061620210616                                                                      0                                             15                                   000 0000000000000000000000000000008377632202108377632001511RT674049_1511_1     2021004185570001EUR40644998151382245072322-4507/237043400022-4507/23 70434000STYLE.PETE     23               00000  XXL      00                              028400000000000000100000000000000000000                                                  20210614000000121
002DESADV403607600200240291631100014036076002002403607600200200000000000004036076002002000000000000002021061620210616                                                                      0                                             15                                   000 0000000000000000000000000000008377632202108377632001511RT674049_1511_1     2021004185570004EUR40448191887772247672322-4767/237043840022-4767/23 70438400STYLE.PETTER   23               00000    M      00                              015000000000000000100000000000000000000                                                  20210614000000121
002DESADV403607600200240291631100014036076002002403607600200200000000000004036076002002000000000000002021061620210616                                                                      0                                             15                                   000 0000000000000000000000000000008377632202108377632001511RT674049_1511_1     2021004185570005EUR40644998157012247672322-4767/237043890022-4767/23 70438900STYLE.POLLUX   23               00000    M      00                              032400000000000000100000000000000000000                                                  20210614000000121
002DESADV403607600200240291631100014036076002002403607600200200000000000004036076002002000000000000002021061620210616                                                                      0                                             15                                   000 0000000000000000000000000000008377632202108377632001511RT674049_1511_1     2021004185570005EUR40644998157252247672322-4767/237043890022-4767/23 70438900STYLE.POLLUX   23               00000   XL      00                              032400000000000000200000000000000000000                                                  20210614000000121
002DESADV403607600200240291631100014036076002002403607600200200000000000004036076002002000000000000002021061620210616                                                                      0                                             15                                   000 0000000000000000000000000000008377632202108377632001511RT674049_1511_1     2021004185570005EUR40644998157322247672322-4767/237043890022-4767/23 70438900STYLE.POLLUX   23               00000  XXL      00                              032400000000000000100000000000000000000                                                  20210614000000121
002DESADV403607600200240291631100014036076002002403607600200200000000000004036076002002000000000000002021061620210616                                                                      0                                             15                                   000 0000000000000000000000000000008377632202108377632001511RT674049_1511_1     2021004185570006EUR40644998158002247672422-4767/247043840022-4767/24 70438400STYLE.PETTER   24               00000    M      00                              015000000000000000100000000000000000000                                                  20210614000000121
002DESADV403607600200240291631100014036076002002403607600200200000000000004036076002002000000000000002021061620210616                                                                      0                                             15                                   000 0000000000000000000000000000008377632202108377632001511RT674049_1511_1     2021004185570007EUR40644998160052247673322-4767/337043840022-4767/33 70438400STYLE.PETTER   33               00000    M      00                              015000000000000000100000000000000000000                                                  20210614000000121
002DESADV403607600200240291631100014036076002002403607600200200000000000004036076002002000000000000002021061620210616                                                                      0                                             15                                   000 0000000000000000000000000000008377632202108377632001511RT674049_1511_1     2021004185570009EUR40448192847452247674222-4767/427043840022-4767/42 70438400STYLE.PETTER   42               00000   XL      00                              015000000000000000100000000000000000000                                                  20210614000000121
002DESADV403607600200240291631100014036076002002403607600200200000000000004036076002002000000000000002021061620210616                                                                      0                                             15                                   000 0000000000000000000000000000008377632202108377632001511RT674049_1511_1     2021004185570010EUR40644998163022257072322-5707/237043700022-5707/23 70437000STYLE.PELé     23               00000    M      00                              024500000000000000100000000000000000000                                                  20210614000000121
002DESADV403607600200240291631100014036076002002403607600200200000000000004036076002002000000000000002021061620210616                                                                      0                                             15                                   000 0000000000000000000000000000008377632202108377632001511RT674049_1511_1     2021004185570011EUR40644998250142258242322-5824/237068960022-5824/23 70689600STYLE.SAN DIEGO23               00000    M      00                              052000000000000000100000000000000000000                                                  20210614000000121
003DESADV403607600200240291631100014036076002002403607600200200000000000004036076002002000000000000002021061620210616                                                                      0                                             15                                   000 0000000000000000000000000000008377632202108377632001511                    0000000000000000EUR000000000000000000000          00000000                                  00               00000           00                              000000000000000001100000000000000000000                                                  00000000000000000
001DESADV403607600200240291631100014036076002002403607600200200000000000004036076002002000000000000002021061620210616                                                                      0                                             15                                   000 0000000000000000000000000000008377633202108377633001511                    0000000000000000EUR000000000000000000000          00000000                                  00               00000           00                              000000000000000000000000000000000000000                                                  00000000000000000
002DESADV403607600200240291631100014036076002002403607600200200000000000004036076002002000000000000002021061620210616                                                                      0                                             15                                   000 0000000000000000000000000000008377633202108377633001511111111              2021024157090001EUR40472259948262445079924-4507/997043400024-4507/99 70434000STYLE.PETE     99               00000   XS      00                              015900000000000000100000000000000000000                                                  20210611000000000
002DESADV403607600200240291631100014036076002002403607600200200000000000004036076002002000000000000002021061620210616                                                                      0                                             15                                   000 0000000000000000000000000000008377633202108377633001511111111              2021024157090002EUR40472246639832245070322-4507/037043600022-4507/03 70436000               03               00000   XS      00                              015000000000000000100000000000000000000                                                  20210611000000000
002DESADV403607600200240291631100014036076002002403607600200200000000000004036076002002000000000000002021061620210616                                                                      0                                             15                                   000 0000000000000000000000000000008377633202108377633001511111111              2021024157090003EUR40448191109692245072722-4507/277043600022-4507/27 70436000               27               00000   XS      00                              015000000000000000100000000000000000000                                                  20210611000000000
002DESADV403607600200240291631100014036076002002403607600200200000000000004036076002002000000000000002021061620210616                                                                      0                                             15                                   000 0000000000000000000000000000008377633202108377633001511111111              2021024157090004EUR40448191168172245074222-4507/427043600022-4507/42 70436000               42               00000   XS      00                              015000000000000000100000000000000000000                                                  20210611000000000
002DESADV403607600200240291631100014036076002002403607600200200000000000004036076002002000000000000002021061620210616                                                                      0                                             15                                   000 0000000000000000000000000000008377633202108377633001511111111              2021024157090005EUR40472246642872258770322-5877/037062880022-5877/03 70628800               03               00000   XS      00                              026000000000000000100000000000000000000                                                  20210611000000000
002DESADV403607600200240291631100014036076002002403607600200200000000000004036076002002000000000000002021061620210616                                                                      0                                             15                                   000 0000000000000000000000000000008377633202108377633001511111111              2021024157090006EUR40448195801372258772222-5877/227062880022-5877/22 70628800               22               00000   XS      00                              026000000000000000100000000000000000000                                                  20210611000000000
002DESADV403607600200240291631100014036076002002403607600200200000000000004036076002002000000000000002021061620210616                                                                      0                                             15                                   000 0000000000000000000000000000008377633202108377633001511111111              2021024157090007EUR40472246644852258772522-5877/257062880022-5877/25 70628800               25               00000   XS      00                              026000000000000000100000000000000000000                                                  20210611000000000
003DESADV403607600200240291631100014036076002002403607600200200000000000004036076002002000000000000002021061620210616                                                                      0                                             15                                   000 0000000000000000000000000000008377633202108377633001511                    0000000000000000EUR000000000000000000000          00000000                                  00               00000           00                              000000000000000000700000000000000000000                                                  00000000000000000
001DESADV403607600200240291631100014036076002002403607600200200000000000004036076002002000000000000002021061620210616                                                                      0                                             15                                   000 0000000000000000000000000000008377691202108377691001511                    0000000000000000EUR000000000000000000000          00000000                                  00               00000           00                              000000000000000000000000000000000000000                                                  00000000000000000
002DESADV403607600200240291631100014036076002002403607600200200000000000004036076002002000000000000002021061620210616                                                                      0                                             15                                   000 0000000000000000000000000000008377691202108377691001511                    2021004154990001EUR40644984232664432342644-3234/267442250044-3234/26 74422500STYLE.DANIEL   26               00000    L      00                              016500000000000000300000000000000000000                                                  20210611000000121
002DESADV403607600200240291631100014036076002002403607600200200000000000004036076002002000000000000002021061620210616                                                                      0                                             15                                   000 0000000000000000000000000000008377691202108377691001511                    2021004154990001EUR40644984232594432342644-3234/267442250044-3234/26 74422500STYLE.DANIEL   26               00000    M      00                              016500000000000000200000000000000000000                                                  20210611000000121
002DESADV403607600200240291631100014036076002002403607600200200000000000004036076002002000000000000002021061620210616                                                                      0                                             15                                   000 0000000000000000000000000000008377691202108377691001511                    2021004154990001EUR40644995555844432342644-3234/267442250044-3234/26 74422500STYLE.DANIEL   26               00000   XL      00                              016500000000000000300000000000000000000                                                  20210611000000121
002DESADV403607600200240291631100014036076002002403607600200200000000000004036076002002000000000000002021061620210616                                                                      0                                             15                                   000 0000000000000000000000000000008377691202108377691001511                    2021004154990001EUR40644995555914432342644-3234/267442250044-3234/26 74422500STYLE.DANIEL   26               00000  XXL      00                              016500000000000000200000000000000000000                                                  20210611000000121
002DESADV403607600200240291631100014036076002002403607600200200000000000004036076002002000000000000002021061620210616                                                                      0                                             15                                   000 0000000000000000000000000000008377691202108377691001511                    2021004154990002EUR40644984155754448642244-4864/227442220044-4864/22 74422200STYLE.DANIEL   22               00000    L      00                              024500000000000000300000000000000000000                                                  20210611000000121
002DESADV403607600200240291631100014036076002002403607600200200000000000004036076002002000000000000002021061620210616                                                                      0                                             15                                   000 0000000000000000000000000000008377691202108377691001511                    2021004154990002EUR40644984155684448642244-4864/227442220044-4864/22 74422200STYLE.DANIEL   22               00000    M      00                              024500000000000000200000000000000000000                                                  20210611000000121
002DESADV403607600200240291631100014036076002002403607600200200000000000004036076002002000000000000002021061620210616                                                                      0                                             15                                   000 0000000000000000000000000000008377691202108377691001511                    2021004154990002EUR40644984155514448642244-4864/227442220044-4864/22 74422200STYLE.DANIEL   22               00000    S      00                              024500000000000000100000000000000000000                                                  20210611000000121
002DESADV403607600200240291631100014036076002002403607600200200000000000004036076002002000000000000002021061620210616                                                                      0                                             15                                   000 0000000000000000000000000000008377691202108377691001511                    2021004154990002EUR40644984155824448642244-4864/227442220044-4864/22 74422200STYLE.DANIEL   22               00000   XL      00                              024500000000000000300000000000000000000                                                  20210611000000121
002DESADV403607600200240291631100014036076002002403607600200200000000000004036076002002000000000000002021061620210616                                                                      0                                             15                                   000 0000000000000000000000000000008377691202108377691001511                    2021004154990002EUR40644984155994448642244-4864/227442220044-4864/22 74422200STYLE.DANIEL   22               00000  XXL      00                              024500000000000000200000000000000000000                                                  20210611000000121
002DESADV403607600200240291631100014036076002002403607600200200000000000004036076002002000000000000002021061620210616                                                                      0                                             15                                   000 0000000000000000000000000000008377691202108377691001511                    2021004154990002EUR40644984156054448642244-4864/227442220044-4864/22 74422200STYLE.DANIEL   22               00000 XXXL      00                              026950000000000000100000000000000000000                                                  20210611000000121
002DESADV403607600200240291631100014036076002002403607600200200000000000004036076002002000000000000002021061620210616                                                                      0                                             15                                   000 0000000000000000000000000000008377691202108377691001511                    2021004154990003EUR40644984156364448642344-4864/237442220044-4864/23 74422200STYLE.DANIEL   23               00000    L      00                              024500000000000000300000000000000000000                                                  20210611000000121
002DESADV403607600200240291631100014036076002002403607600200200000000000004036076002002000000000000002021061620210616                                                                      0                                             15                                   000 0000000000000000000000000000008377691202108377691001511                    2021004154990003EUR40644984156294448642344-4864/237442220044-4864/23 74422200STYLE.DANIEL   23               00000    M      00                              024500000000000000200000000000000000000                                                  20210611000000121
002DESADV403607600200240291631100014036076002002403607600200200000000000004036076002002000000000000002021061620210616                                                                      0                                             15                                   000 0000000000000000000000000000008377691202108377691001511                    2021004154990003EUR40644984156434448642344-4864/237442220044-4864/23 74422200STYLE.DANIEL   23               00000   XL      00                              024500000000000000300000000000000000000                                                  20210611000000121
002DESADV403607600200240291631100014036076002002403607600200200000000000004036076002002000000000000002021061620210616                                                                      0                                             15                                   000 0000000000000000000000000000008377691202108377691001511                    2021004154990003EUR40644984156504448642344-4864/237442220044-4864/23 74422200STYLE.DANIEL   23               00000  XXL      00                              024500000000000000200000000000000000000                                                  20210611000000121
003DESADV403607600200240291631100014036076002002403607600200200000000000004036076002002000000000000002021061620210616                                                                      0                                             15                                   000 0000000000000000000000000000008377691202108377691001511                    0000000000000000EUR000000000000000000000          00000000                                  00               00000           00                              000000000000000003200000000000000000000                                                  00000000000000000
001DESADV403607600200240291631100014036076002002403607600200200000000000004036076002002000000000000002021061620210616                                                                      0                                             15                                   000 0000000000000000000000000000008377692202108377692001511                    0000000000000000EUR000000000000000000000          00000000                                  00               00000           00                              000000000000000000000000000000000000000                                                  00000000000000000
002DESADV403607600200240291631100014036076002002403607600200200000000000004036076002002000000000000002021061620210616                                                                      0                                             15                                   000 0000000000000000000000000000008377692202108377692001511                    2021004156930001EUR40472260527924436073344-3607/337442560044-3607/33 74425600STYLE.DIRK     33               00000    L      00                              019900000000000000300000000000000000000                                                  20210611000000121
002DESADV403607600200240291631100014036076002002403607600200200000000000004036076002002000000000000002021061620210616                                                                      0                                             15                                   000 0000000000000000000000000000008377692202108377692001511                    2021004156930001EUR40472230430144436073344-3607/337442560044-3607/33 74425600STYLE.DIRK     33               00000    M      00                              019900000000000000200000000000000000000                                                  20210611000000121
002DESADV403607600200240291631100014036076002002403607600200200000000000004036076002002000000000000002021061620210616                                                                      0                                             15                                   000 0000000000000000000000000000008377692202108377692001511                    2021004156930001EUR40472260528084436073344-3607/337442560044-3607/33 74425600STYLE.DIRK     33               00000   XL      00                              019900000000000000300000000000000000000                                                  20210611000000121
002DESADV403607600200240291631100014036076002002403607600200200000000000004036076002002000000000000002021061620210616                                                                      0                                             15                                   000 0000000000000000000000000000008377692202108377692001511                    2021004156930001EUR40472260528154436073344-3607/337442560044-3607/33 74425600STYLE.DIRK     33               00000  XXL      00                              019900000000000000100000000000000000000                                                  20210611000000121
002DESADV403607600200240291631100014036076002002403607600200200000000000004036076002002000000000000002021061620210616                                                                      0                                             15                                   000 0000000000000000000000000000008377692202108377692001511                    2021004156930002EUR40472260541784436079944-3607/997442560044-3607/99 74425600STYLE.DIRK     99               00000    L      00                              019900000000000000300000000000000000000                                                  20210611000000121
002DESADV403607600200240291631100014036076002002403607600200200000000000004036076002002000000000000002021061620210616                                                                      0                                             15                                   000 0000000000000000000000000000008377692202108377692001511                    2021004156930002EUR40472260541854436079944-3607/997442560044-3607/99 74425600STYLE.DIRK     99               00000   XL      00                              019900000000000000300000000000000000000                                                  20210611000000121
002DESADV403607600200240291631100014036076002002403607600200200000000000004036076002002000000000000002021061620210616                                                                      0                                             15                                   000 0000000000000000000000000000008377692202108377692001511                    2021004156930002EUR40472260541924436079944-3607/997442560044-3607/99 74425600STYLE.DIRK     99               00000  XXL      00                              019900000000000000100000000000000000000                                                  20210611000000121
003DESADV403607600200240291631100014036076002002403607600200200000000000004036076002002000000000000002021061620210616                                                                      0                                             15                                   000 0000000000000000000000000000008377692202108377692001511                    0000000000000000EUR000000000000000000000          00000000                                  00               00000           00                              000000000000000001600000000000000000000                                                  00000000000000000
001DESADV403607600200240291631100014036076002002403607600200200000000000004036076002002000000000000002021061620210616                                                                      0                                             15                                   000 0000000000000000000000000000008377693202108377693001511                    0000000000000000EUR000000000000000000000          00000000                                  00               00000           00                              000000000000000000000000000000000000000                                                  00000000000000000
002DESADV403607600200240291631100014036076002002403607600200200000000000004036076002002000000000000002021061620210616                                                                      0                                             15                                   000 0000000000000000000000000000008377693202108377693001511RT676049_1511_1     2021004185900001EUR40472291671344241579942-4157/997443010042-4157/99 74430100STYLE.HAROLD   99               00000   XL      00                              024500000000000000100000000000000000000                                                  20210614000000121
003DESADV403607600200240291631100014036076002002403607600200200000000000004036076002002000000000000002021061620210616                                                                      0                                             15                                   000 0000000000000000000000000000008377693202108377693001511                    0000000000000000EUR000000000000000000000          00000000                                  00               00000           00                              000000000000000000100000000000000000000                                                  00000000000000000
001DESADV403607600200240291631100014036076002002403607600200200000000000004036076002002000000000000002021061620210616                                                                      0                                             15                                   000 0000000000000000000000000000008377724202108377724001511                    0000000000000000EUR000000000000000000000          00000000                                  00               00000           00                              000000000000000000000000000000000000000                                                  00000000000000000
002DESADV403607600200240291631100014036076002002403607600200200000000000004036076002002000000000000002021061620210616                                                                      0                                             15                                   000 0000000000000000000000000000008377724202108377724001511RT673049_1511_1     2021004186120001EUR40644998224713231372432-3137/249064670032-3137/24 90646700STYLE.COLLETTA 24               00000   36      00                              028400000000000000100000000000000000000                                                  20210614000000121
002DESADV403607600200240291631100014036076002002403607600200200000000000004036076002002000000000000002021061620210616                                                                      0                                             15                                   000 0000000000000000000000000000008377724202108377724001511RT673049_1511_1     2021004186120002EUR40644998235533234378732-3437/879064580032-3437/87 90645800STYLE.CLEO     87               00000   42      00                              024500000000000000100000000000000000000                                                  20210614000000121
002DESADV403607600200240291631100014036076002002403607600200200000000000004036076002002000000000000002021061620210616                                                                      0                                             15                                   000 0000000000000000000000000000008377724202108377724001511RT673049_1511_1     2021004186120003EUR40644998236523234378832-3437/889064580032-3437/88 90645800STYLE.CLEO     88               00000   46      00                              024500000000000000100000000000000000000                                                  20210614000000121
002DESADV403607600200240291631100014036076002002403607600200200000000000004036076002002000000000000002021061620210616                                                                      0                                             15                                   000 0000000000000000000000000000008377724202108377724001511RT673049_1511_1     2021004186120004EUR40644998237823234472332-3447/239064590032-3447/23 90645900STYLE.CLEO     23               00000   40      00                              028400000000000000100000000000000000000                                                  20210614000000121
002DESADV403607600200240291631100014036076002002403607600200200000000000004036076002002000000000000002021061620210616                                                                      0                                             15                                   000 0000000000000000000000000000008377724202108377724001511RT673049_1511_1     2021004186120005EUR40644998238813234473332-3447/339064590032-3447/33 90645900STYLE.CLEO     33               00000   44      00                              028400000000000000100000000000000000000                                                  20210614000000121
002DESADV403607600200240291631100014036076002002403607600200200000000000004036076002002000000000000002021061620210616                                                                      0                                             15                                   000 0000000000000000000000000000008377724202108377724001511RT673049_1511_1     2021004186120006EUR40644998240173234478832-3447/889064590032-3447/88 90645900STYLE.CLEO     88               00000   38      00                              028400000000000000100000000000000000000                                                  20210614000000121
002DESADV403607600200240291631100014036076002002403607600200200000000000004036076002002000000000000002021061620210616                                                                      0                                             15                                   000 0000000000000000000000000000008377724202108377724001511RT673049_1511_1     2021004186120007EUR40448194929973272274332-7227/439061500032-7227/43 90615000STYLE.CLAIRE   43               00000   36      00                              032400000000000000100000000000000000000                                                  20210614000000121
002DESADV403607600200240291631100014036076002002403607600200200000000000004036076002002000000000000002021061620210616                                                                      0                                             15                                   000 0000000000000000000000000000008377724202108377724001511RT673049_1511_1     2021004186120008EUR40472285352933425273334-2527/339012580034-2527/33 90125800STYLE.LISA     33               00000   40      00                              040200000000000000100000000000000000000                                                  20210614000000121
002DESADV403607600200240291631100014036076002002403607600200200000000000004036076002002000000000000002021061620210616                                                                      0                                             15                                   000 0000000000000000000000000000008377724202108377724001511RT673049_1511_1     2021004186120009EUR40472278963883435873334-3587/339063120034-3587/33 90631200STYLE.COLLETTE 33               00000   42      00                              024500000000000000100000000000000000000                                                  20210614000000121
002DESADV403607600200240291631100014036076002002403607600200200000000000004036076002002000000000000002021061620210616                                                                      0                                             15                                   000 0000000000000000000000000000008377724202108377724001511RT673049_1511_1     2021004186120010EUR40472273505073436279934-3627/999063060034-3627/99 90630600STYLE.CATHY    99               00000   40      00                              014400000000000000100000000000000000000                                                  20210614000000121
002DESADV403607600200240291631100014036076002002403607600200200000000000004036076002002000000000000002021061620210616                                                                      0                                             15                                   000 0000000000000000000000000000008377724202108377724001511RT673049_1511_1     2021004186120011EUR40472278973613444479934-4447/999063220034-4447/99 90632200STYLE.CAELEN   99               00000   36      00                              024500000000000000100000000000000000000                                                  20210614000000121
002DESADV403607600200240291631100014036076002002403607600200200000000000004036076002002000000000000002021061620210616                                                                      0                                             15                                   000 0000000000000000000000000000008377724202108377724001511RT673049_1511_1     2021004186120012EUR40472273511773452079934-5207/999063360034-5207/99 90633600STYLE.CATHY    99               00000   38      00                              020600000000000000100000000000000000000                                                  20210614000000121
002DESADV403607600200240291631100014036076002002403607600200200000000000004036076002002000000000000002021061620210616                                                                      0                                             15                                   000 0000000000000000000000000000008377724202108377724001511RT673049_1511_1     2021004186120013EUR40472234470583456172334-5617/239019390034-5617/23 90193900STYLE.JANINE   23               000000SIZE      00                              014400000000000000100000000000000000000                                                  20210614000000121
002DESADV403607600200240291631100014036076002002403607600200200000000000004036076002002000000000000002021061620210616                                                                      0                                             15                                   000 0000000000000000000000000000008377724202108377724001511RT673049_1511_1     2021004186120014EUR40472234471403472372334-7237/239062800034-7237/23 90628000STYLE.RACHEL   23               0000040-42      00                              022700000000000000200000000000000000000                                                  20210614000000121
002DESADV403607600200240291631100014036076002002403607600200200000000000004036076002002000000000000002021061620210616                                                                      0                                             15                                   000 0000000000000000000000000000008377724202108377724001511RT673049_1511_1     2021004186120015EUR40472285498013472574534-7257/459063160034-7257/45 90631600STYLE.RACHEL   45               00000   36      00                              032400000000000000100000000000000000000                                                  20210614000000121
002DESADV403607600200240291631100014036076002002403607600200200000000000004036076002002000000000000002021061620210616                                                                      0                                             15                                   000 0000000000000000000000000000008377724202108377724001511RT673049_1511_1     2021004186120016EUR40472285692123472772334-7277/239063190034-7277/23 90631900STYLE.CATHY    23               00000   40      00                              019900000000000000100000000000000000000                                                  20210614000000121
003DESADV403607600200240291631100014036076002002403607600200200000000000004036076002002000000000000002021061620210616                                                                      0                                             15                                   000 0000000000000000000000000000008377724202108377724001511                    0000000000000000EUR000000000000000000000          00000000                                  00               00000           00                              000000000000000001700000000000000000000                                                  00000000000000000
001DESADV403607600200240291631100014036076002002403607600200200000000000004036076002002000000000000002021061620210616                                                                      0                                             15                                   000 0000000000000000000000000000008377725202108377725001511                    0000000000000000EUR000000000000000000000          00000000                                  00               00000           00                              000000000000000000000000000000000000000                                                  00000000000000000
002DESADV403607600200240291631100014036076002002403607600200200000000000004036076002002000000000000002021061620210616                                                                      0                                             15                                   000 00000000000000000000000000000083777252021083777250015111234                2021024184130002EUR40472259192253435376534-3537/659062570034-3537/65 90625700               65               00000   34      00                              020600000000000000100000000000000000000                                                  20210614000000000
002DESADV403607600200240291631100014036076002002403607600200200000000000004036076002002000000000000002021061620210616                                                                      0                                             15                                   000 00000000000000000000000000000083777252021083777250015111234                2021024184130002EUR40472234369083435376534-3537/659062570034-3537/65 90625700               65               00000   36      00                              020600000000000000100000000000000000000                                                  20210614000000000
002DESADV403607600200240291631100014036076002002403607600200200000000000004036076002002000000000000002021061620210616                                                                      0                                             15                                   000 00000000000000000000000000000083777252021083777250015111234                2021024184130002EUR40472234369153435376534-3537/659062570034-3537/65 90625700               65               00000   38      00                              020600000000000000100000000000000000000                                                  20210614000000000
002DESADV403607600200240291631100014036076002002403607600200200000000000004036076002002000000000000002021061620210616                                                                      0                                             15                                   000 00000000000000000000000000000083777252021083777250015111234                2021024184130002EUR40472234369603435376534-3537/659062570034-3537/65 90625700               65               00000   40      00                              020600000000000000100000000000000000000                                                  20210614000000000
002DESADV403607600200240291631100014036076002002403607600200200000000000004036076002002000000000000002021061620210616                                                                      0                                             15                                   000 00000000000000000000000000000083777252021083777250015111234                2021024184130003EUR40472259279303472076534-7207/659062810034-7207/65 90628100STYLE.CATHY    65               00000   34      00                              028400000000000000100000000000000000000                                                  20210614000000000
002DESADV403607600200240291631100014036076002002403607600200200000000000004036076002002000000000000002021061620210616                                                                      0                                             15                                   000 00000000000000000000000000000083777252021083777250015111234                2021024184130003EUR40472259279543472076534-7207/659062810034-7207/65 90628100STYLE.CATHY    65               00000   36      00                              028400000000000000100000000000000000000                                                  20210614000000000
002DESADV403607600200240291631100014036076002002403607600200200000000000004036076002002000000000000002021061620210616                                                                      0                                             15                                   000 00000000000000000000000000000083777252021083777250015111234                2021024184130003EUR40472234418723472076534-7207/659062810034-7207/65 90628100STYLE.CATHY    65               00000   38      00                              028400000000000000100000000000000000000                                                  20210614000000000
002DESADV403607600200240291631100014036076002002403607600200200000000000004036076002002000000000000002021061620210616                                                                      0                                             15                                   000 00000000000000000000000000000083777252021083777250015111234                2021024184130003EUR40472234418893472076534-7207/659062810034-7207/65 90628100STYLE.CATHY    65               00000   40      00                              028400000000000000200000000000000000000                                                  20210614000000000
002DESADV403607600200240291631100014036076002002403607600200200000000000004036076002002000000000000002021061620210616                                                                      0                                             15                                   000 00000000000000000000000000000083777252021083777250015111234                2021024184130003EUR40472259279613472076534-7207/659062810034-7207/65 90628100STYLE.CATHY    65               00000   42      00                              028400000000000000200000000000000000000                                                  20210614000000000
002DESADV403607600200240291631100014036076002002403607600200200000000000004036076002002000000000000002021061620210616                                                                      0                                             15                                   000 00000000000000000000000000000083777252021083777250015111234                2021024184130003EUR40472259279783472076534-7207/659062810034-7207/65 90628100STYLE.CATHY    65               00000   44      00                              028400000000000000200000000000000000000                                                  20210614000000000
002DESADV403607600200240291631100014036076002002403607600200200000000000004036076002002000000000000002021061620210616                                                                      0                                             15                                   000 00000000000000000000000000000083777252021083777250015111234                2021024184130003EUR40472259279853472076534-7207/659062810034-7207/65 90628100STYLE.CATHY    65               00000   46      00                              028400000000000000100000000000000000000                                                  20210614000000000
002DESADV403607600200240291631100014036076002002403607600200200000000000004036076002002000000000000002021061620210616                                                                      0                                             15                                   000 00000000000000000000000000000083777252021083777250015111234                2021024184130003EUR40472259279923472076534-7207/659062810034-7207/65 90628100STYLE.CATHY    65               00000   48      00                              028400000000000000100000000000000000000                                                  20210614000000000
002DESADV403607600200240291631100014036076002002403607600200200000000000004036076002002000000000000002021061620210616                                                                      0                                             15                                   000 00000000000000000000000000000083777252021083777250015111234                2021024184130004EUR40472259174433433076534-3307/659062650034-3307/65 90626500STYLE.CLEO     65               00000   34      00                              020600000000000000100000000000000000000                                                  20210614000000000
002DESADV403607600200240291631100014036076002002403607600200200000000000004036076002002000000000000002021061620210616                                                                      0                                             15                                   000 00000000000000000000000000000083777252021083777250015111234                2021024184130004EUR40472234255443433076534-3307/659062650034-3307/65 90626500STYLE.CLEO     65               00000   36      00                              020600000000000000100000000000000000000                                                  20210614000000000
002DESADV403607600200240291631100014036076002002403607600200200000000000004036076002002000000000000002021061620210616                                                                      0                                             15                                   000 00000000000000000000000000000083777252021083777250015111234                2021024184130004EUR40472234255513433076534-3307/659062650034-3307/65 90626500STYLE.CLEO     65               00000   38      00                              020600000000000000100000000000000000000                                                  20210614000000000
002DESADV403607600200240291631100014036076002002403607600200200000000000004036076002002000000000000002021061620210616                                                                      0                                             15                                   000 00000000000000000000000000000083777252021083777250015111234                2021024184130004EUR40472234255683433076534-3307/659062650034-3307/65 90626500STYLE.CLEO     65               00000   40      00                              020600000000000000200000000000000000000                                                  20210614000000000
002DESADV403607600200240291631100014036076002002403607600200200000000000004036076002002000000000000002021061620210616                                                                      0                                             15                                   000 00000000000000000000000000000083777252021083777250015111234                2021024184130004EUR40472259174503433076534-3307/659062650034-3307/65 90626500STYLE.CLEO     65               00000   42      00                              020600000000000000200000000000000000000                                                  20210614000000000
002DESADV403607600200240291631100014036076002002403607600200200000000000004036076002002000000000000002021061620210616                                                                      0                                             15                                   000 00000000000000000000000000000083777252021083777250015111234                2021024184130004EUR40472259174673433076534-3307/659062650034-3307/65 90626500STYLE.CLEO     65               00000   44      00                              020600000000000000200000000000000000000                                                  20210614000000000
002DESADV403607600200240291631100014036076002002403607600200200000000000004036076002002000000000000002021061620210616                                                                      0                                             15                                   000 00000000000000000000000000000083777252021083777250015111234                2021024184130004EUR40472259174743433076534-3307/659062650034-3307/65 90626500STYLE.CLEO     65               00000   46      00                              020600000000000000100000000000000000000                                                  20210614000000000
002DESADV403607600200240291631100014036076002002403607600200200000000000004036076002002000000000000002021061620210616                                                                      0                                             15                                   000 00000000000000000000000000000083777252021083777250015111234                2021024184130004EUR40472259174813433076534-3307/659062650034-3307/65 90626500STYLE.CLEO     65               00000   48      00                              020600000000000000100000000000000000000                                                  20210614000000000
002DESADV403607600200240291631100014036076002002403607600200200000000000004036076002002000000000000002021061620210616                                                                      0                                             15                                   000 00000000000000000000000000000083777252021083777250015111234                2021024184130005EUR40472234256743433176534-3317/659062660034-3317/65 90626600STYLE.CLEO     65               00000   36      00                              024500000000000000100000000000000000000                                                  20210614000000000
002DESADV403607600200240291631100014036076002002403607600200200000000000004036076002002000000000000002021061620210616                                                                      0                                             15                                   000 00000000000000000000000000000083777252021083777250015111234                2021024184130005EUR40472234256813433176534-3317/659062660034-3317/65 90626600STYLE.CLEO     65               00000   38      00                              024500000000000000100000000000000000000                                                  20210614000000000
002DESADV403607600200240291631100014036076002002403607600200200000000000004036076002002000000000000002021061620210616                                                                      0                                             15                                   000 00000000000000000000000000000083777252021083777250015111234                2021024184130005EUR40472234256983433176534-3317/659062660034-3317/65 90626600STYLE.CLEO     65               00000   40      00                              024500000000000000200000000000000000000                                                  20210614000000000
002DESADV403607600200240291631100014036076002002403607600200200000000000004036076002002000000000000002021061620210616                                                                      0                                             15                                   000 00000000000000000000000000000083777252021083777250015111234                2021024184130005EUR40472259180373433176534-3317/659062660034-3317/65 90626600STYLE.CLEO     65               00000   42      00                              024500000000000000200000000000000000000                                                  20210614000000000
002DESADV403607600200240291631100014036076002002403607600200200000000000004036076002002000000000000002021061620210616                                                                      0                                             15                                   000 00000000000000000000000000000083777252021083777250015111234                2021024184130005EUR40472259180443433176534-3317/659062660034-3317/65 90626600STYLE.CLEO     65               00000   44      00                              024500000000000000200000000000000000000                                                  20210614000000000
002DESADV403607600200240291631100014036076002002403607600200200000000000004036076002002000000000000002021061620210616                                                                      0                                             15                                   000 00000000000000000000000000000083777252021083777250015111234                2021024184130005EUR40472259180513433176534-3317/659062660034-3317/65 90626600STYLE.CLEO     65               00000   46      00                              024500000000000000100000000000000000000                                                  20210614000000000
002DESADV403607600200240291631100014036076002002403607600200200000000000004036076002002000000000000002021061620210616                                                                      0                                             15                                   000 00000000000000000000000000000083777252021083777250015111234                2021024184130005EUR40472259180683433176534-3317/659062660034-3317/65 90626600STYLE.CLEO     65               00000   48      00                              024500000000000000100000000000000000000                                                  20210614000000000
003DESADV403607600200240291631100014036076002002403607600200200000000000004036076002002000000000000002021061620210616                                                                      0                                             15                                   000 0000000000000000000000000000008377725202108377725001511                    0000000000000000EUR000000000000000000000          00000000                                  00               00000           00                              000000000000000003600000000000000000000                                                  00000000000000000
001DESADV403607600200240291631100014036076002002403607600200200000000000004036076002002000000000000002021061620210616                                                                      0                                             15                                   000 0000000000000000000000000000009266802202109266802001511                    0000000000000000EUR000000000000000000000          00000000                                  00               00000           00                              000000000000000000000000000000000000000                                                  00000000000000000
002DESADV403607600200240291631100014036076002002403607600200200000000000004036076002002000000000000002021061620210616                                                                      0                                             15                                   000 0000000000000000000000000000009266802202109266802001511RT672049_1511_1     2021004183080006EUR40644997904978212072382-1207/230788202082-1207/23 07882020STYLE.FABIO IN 23               0000034/30      00                              040200000000000000100000000000000000000                                                  20210614000000121
002DESADV403607600200240291631100014036076002002403607600200200000000000004036076002002000000000000002021061620210616                                                                      0                                             15                                   000 0000000000000000000000000000009266802202109266802001511RT672049_1511_1     2021004183080006EUR40644997906578212072382-1207/230788202082-1207/23 07882020STYLE.FABIO IN 23               0000038/32      00                              040200000000000000100000000000000000000                                                  20210614000000121
002DESADV403607600200240291631100014036076002002403607600200200000000000004036076002002000000000000002021061620210616                                                                      0                                             15                                   000 0000000000000000000000000000009266802202109266802001511RT672049_1511_1     2021004183080017EUR40472272125918413575684-1357/560786302084-1357/56 07863020STYLE.CHUCK    56               0000034/32      00                              040200000000000000100000000000000000000                                                  20210614000000121
002DESADV403607600200240291631100014036076002002403607600200200000000000004036076002002000000000000002021061620210616                                                                      0                                             15                                   000 0000000000000000000000000000009266802202109266802001511RT672049_1511_1     2021004183080017EUR40472272126218413575684-1357/560786302084-1357/56 07863020STYLE.CHUCK    56               0000038/32      00                              040200000000000000100000000000000000000                                                  20210614000000121
002DESADV403607600200240291631100014036076002002403607600200200000000000004036076002002000000000000002021061620210616                                                                      0                                             15                                   000 0000000000000000000000000000009266802202109266802001511RT672049_1511_1     2021004183080018EUR40472232070898464572684-6457/260795302084-6457/26 07953020STYLE.CHUCK    26               0000040/32      00                              048000000000000000100000000000000000000                                                  20210614000000121
002DESADV403607600200240291631100014036076002002403607600200200000000000004036076002002000000000000002021061620210616                                                                      0                                             15                                   000 0000000000000000000000000000009266802202109266802001511RT672049_1511_1     2021004183080019EUR40472279879188563070385-6307/030796082085-6307/03 07960820STYLE.CHRIS    03               0000038/34      00                              026000000000000000100000000000000000000                                                  20210614000000121
002DESADV403607600200240291631100014036076002002403607600200200000000000004036076002002000000000000002021061620210616                                                                      0                                             15                                   000 0000000000000000000000000000009266802202109266802001511RT672049_1511_1     2021004183080020EUR40472282808108563072385-6307/230796082085-6307/23 07960820STYLE.CHRIS    23               0000035/30      00                              026000000000000000100000000000000000000                                                  20210614000000121
003DESADV403607600200240291631100014036076002002403607600200200000000000004036076002002000000000000002021061620210616                                                                      0                                             15                                   000 0000000000000000000000000000009266802202109266802001511                    0000000000000000EUR000000000000000000000          00000000                                  00               00000           00                              000000000000000000700000000000000000000                                                  00000000000000000
001DESADV403607600200240291631100014036076002002403607600200200000000000004036076002002000000000000002021061620210616                                                                      0                                             15                                   000 0000000000000000000000000000009266803202109266803001511                    0000000000000000EUR000000000000000000000          00000000                                  00               00000           00                              000000000000000000000000000000000000000                                                  00000000000000000
002DESADV403607600200240291631100014036076002002403607600200200000000000004036076002002000000000000002021061620210616                                                                      0                                             15                                   000 0000000000000000000000000000009266803202109266803001511RT671049_1511_1     2021004183170003EUR40644997743057215075972-1507/590983602072-1507/59 09836020STYLE.MARA S   59               00000  38K      00                              040200000000000000100000000000000000000                                                  20210614000000121
002DESADV403607600200240291631100014036076002002403607600200200000000000004036076002002000000000000002021061620210616                                                                      0                                             15                                   000 0000000000000000000000000000009266803202109266803001511RT671049_1511_1     2021004183170004EUR40472244633787215570172-1557/010989002072-1557/01 09890020STYLE.MARY     01               00000   46      00                              040200000000000000100000000000000000000                                                  20210614000000121
002DESADV403607600200240291631100014036076002002403607600200200000000000004036076002002000000000000002021061620210616                                                                      0                                             15                                   000 0000000000000000000000000000009266803202109266803001511RT671049_1511_1     2021004183170006EUR40472244654577215575472-1557/540989482072-1557/54 09894820STYLE.CAROLA   54               00000  46L      00                              040200000000000000100000000000000000000                                                  20210614000000121
002DESADV403607600200240291631100014036076002002403607600200200000000000004036076002002000000000000002021061620210616                                                                      0                                             15                                   000 0000000000000000000000000000009266803202109266803001511RT671049_1511_1     2021004183170008EUR40472234731877222070272-2207/020981462072-2207/02 09814620STYLE.MAINE    02               00000   44      00                              040200000000000000100000000000000000000                                                  20210614000000121
002DESADV403607600200240291631100014036076002002403607600200200000000000004036076002002000000000000002021061620210616                                                                      0                                             15                                   000 0000000000000000000000000000009266803202109266803001511RT671049_1511_1     2021004183170009EUR40472234749937222070972-2207/090981462072-2207/09 09814620STYLE.MAINE    09               00000   44      00                              040200000000000000100000000000000000000                                                  20210614000000121
002DESADV403607600200240291631100014036076002002403607600200200000000000004036076002002000000000000002021061620210616                                                                      0                                             15                                   000 0000000000000000000000000000009266803202109266803001511RT671049_1511_1     2021004183170010EUR40472234754337222070972-2207/090983932072-2207/09 09839320STYLE.MAINE S  09               00000   38      00                              032400000000000000100000000000000000000                                                  20210614000000121
002DESADV403607600200240291631100014036076002002403607600200200000000000004036076002002000000000000002021061620210616                                                                      0                                             15                                   000 0000000000000000000000000000009266803202109266803001511RT671049_1511_1     2021004183170016EUR40644997809557269474572-6947/450993862072-6947/45 09938620STYLE.SHAKIRA S45               00000  40K      00                              040200000000000000100000000000000000000                                                  20210614000000121
002DESADV403607600200240291631100014036076002002403607600200200000000000004036076002002000000000000002021061620210616                                                                      0                                             15                                   000 0000000000000000000000000000009266803202109266803001511RT671049_1511_1     2021004183170017EUR40644997810447269474772-6947/470993862072-6947/47 09938620STYLE.SHAKIRA S47               00000   38      00                              040200000000000000100000000000000000000                                                  20210614000000121
002DESADV403607600200240291631100014036076002002403607600200200000000000004036076002002000000000000002021061620210616                                                                      0                                             15                                   000 0000000000000000000000000000009266803202109266803001511RT671049_1511_1     2021004183170017EUR40644997812427269474772-6947/470993862072-6947/47 09938620STYLE.SHAKIRA S47               00000  40K      00                              040200000000000000100000000000000000000                                                  20210614000000121
002DESADV403607600200240291631100014036076002002403607600200200000000000004036076002002000000000000002021061620210616                                                                      0                                             15                                   000 0000000000000000000000000000009266803202109266803001511RT671049_1511_1     2021004183170018EUR40644983971097410042974-1004/290994742074-1004/29 09947420STYLE.SHAKIRA  29               00000  38K      00                              022000000000000000100000000000000000000                                                  20210614000000121
002DESADV403607600200240291631100014036076002002403607600200200000000000004036076002002000000000000002021061620210616                                                                      0                                             15                                   000 0000000000000000000000000000009266803202109266803001511RT671049_1511_1     2021004183170019EUR40472234201817412072374-1207/230983842074-1207/23 09838420STYLE.MARY S   23               00000   36      00                              026000000000000000100000000000000000000                                                  20210614000000121
002DESADV403607600200240291631100014036076002002403607600200200000000000004036076002002000000000000002021061620210616                                                                      0                                             15                                   000 0000000000000000000000000000009266803202109266803001511RT671049_1511_1     2021004183170019EUR40472259519667412072374-1207/230983842074-1207/23 09838420STYLE.MARY S   23               00000  40K      00                              026000000000000000100000000000000000000                                                  20210614000000121
002DESADV403607600200240291631100014036076002002403607600200200000000000004036076002002000000000000002021061620210616                                                                      0                                             15                                   000 0000000000000000000000000000009266803202109266803001511RT671049_1511_1     2021004183170019EUR40472259519807412072374-1207/230983842074-1207/23 09838420STYLE.MARY S   23               00000  44K      00                              026000000000000000100000000000000000000                                                  20210614000000121
002DESADV403607600200240291631100014036076002002403607600200200000000000004036076002002000000000000002021061620210616                                                                      0                                             15                                   000 0000000000000000000000000000009266803202109266803001511RT671049_1511_1     2021004183170023EUR40472259754367422078574-2207/850986952074-2207/85 09869520STYLE.MAINE S  85               00000   42      00                              040200000000000000100000000000000000000                                                  20210614000000121
002DESADV403607600200240291631100014036076002002403607600200200000000000004036076002002000000000000002021061620210616                                                                      0                                             15                                   000 0000000000000000000000000000009266803202109266803001511RT671049_1511_1     2021004183170024EUR40472242568957440072974-4007/290994242074-4007/29 09942420STYLE.MARY     29               00000   38      00                              040200000000000000100000000000000000000                                                  20210614000000121
002DESADV403607600200240291631100014036076002002403607600200200000000000004036076002002000000000000002021061620210616                                                                      0                                             15                                   000 0000000000000000000000000000009266803202109266803001511RT671049_1511_1     2021004183170025EUR40472234848867461972574-6197/250999262074-6197/25 09992620STYLE.MARY S   25               00000   40      00                              040200000000000000100000000000000000000                                                  20210614000000121
002DESADV403607600200240291631100014036076002002403607600200200000000000004036076002002000000000000002021061620210616                                                                      0                                             15                                   000 0000000000000000000000000000009266803202109266803001511RT671049_1511_1     2021004183170027EUR40472285343337466572374-6657/230995192074-6657/23 09951920STYLE.MARY C   23               00000   38      00                              032400000000000000100000000000000000000                                                  20210614000000121
002DESADV403607600200240291631100014036076002002403607600200200000000000004036076002002000000000000002021061620210616                                                                      0                                             15                                   000 0000000000000000000000000000009266803202109266803001511RT671049_1511_1     2021004183170027EUR40472285343407466572374-6657/230995192074-6657/23 09951920STYLE.MARY C   23               00000   40      00                              032400000000000000100000000000000000000                                                  20210614000000121
002DESADV403607600200240291631100014036076002002403607600200200000000000004036076002002000000000000002021061620210616                                                                      0                                             15                                   000 0000000000000000000000000000009266803202109266803001511RT671049_1511_1     2021004183170028EUR40472258814477466572674-6657/260993702074-6657/26 09937020STYLE.MARY     26               00000   40      00                              026000000000000000200000000000000000000                                                  20210614000000121
003DESADV403607600200240291631100014036076002002403607600200200000000000004036076002002000000000000002021061620210616                                                                      0                                             15                                   000 0000000000000000000000000000009266803202109266803001511                    0000000000000000EUR000000000000000000000          00000000                                  00               00000           00                              000000000000000002000000000000000000000                                                  00000000000000000
001DESADV403607600200240291631100014036076002002403607600200200000000000004036076002002000000000000002021061620210616                                                                      0                                             15                                   000 0000000000000000000000000000009266804202109266804001511                    0000000000000000EUR000000000000000000000          00000000                                  00               00000           00                              000000000000000000000000000000000000000                                                  00000000000000000
002DESADV403607600200240291631100014036076002002403607600200200000000000004036076002002000000000000002021061620210616                                                                      0                                             15                                   000 00000000000000000000000000000092668042021092668040015111234                2021024184130001EUR40472258987047469172574-6917/250993862074-6917/25 09938620STYLE.SHAKIRA S25               00000   36      00                              040200000000000000100000000000000000000                                                  20210614000000000
002DESADV403607600200240291631100014036076002002403607600200200000000000004036076002002000000000000002021061620210616                                                                      0                                             15                                   000 00000000000000000000000000000092668042021092668040015111234                2021024184130001EUR40472258987287469172574-6917/250993862074-6917/25 09938620STYLE.SHAKIRA S25               00000   40      00                              040200000000000000200000000000000000000                                                  20210614000000000
002DESADV403607600200240291631100014036076002002403607600200200000000000004036076002002000000000000002021061620210616                                                                      0                                             15                                   000 00000000000000000000000000000092668042021092668040015111234                2021024184130001EUR40472258987357469172574-6917/250993862074-6917/25 09938620STYLE.SHAKIRA S25               00000   42      00                              040200000000000000200000000000000000000                                                  20210614000000000
002DESADV403607600200240291631100014036076002002403607600200200000000000004036076002002000000000000002021061620210616                                                                      0                                             15                                   000 00000000000000000000000000000092668042021092668040015111234                2021024184130001EUR40472258987667469172574-6917/250993862074-6917/25 09938620STYLE.SHAKIRA S25               00000   44      00                              040200000000000000200000000000000000000                                                  20210614000000000
002DESADV403607600200240291631100014036076002002403607600200200000000000004036076002002000000000000002021061620210616                                                                      0                                             15                                   000 00000000000000000000000000000092668042021092668040015111234                2021024184130001EUR40472258987737469172574-6917/250993862074-6917/25 09938620STYLE.SHAKIRA S25               00000   46      00                              040200000000000000100000000000000000000                                                  20210614000000000
002DESADV403607600200240291631100014036076002002403607600200200000000000004036076002002000000000000002021061620210616                                                                      0                                             15                                   000 00000000000000000000000000000092668042021092668040015111234                2021024184130001EUR40472258987807469172574-6917/250993862074-6917/25 09938620STYLE.SHAKIRA S25               00000   48      00                              040200000000000000100000000000000000000                                                  20210614000000000
002DESADV403607600200240291631100014036076002002403607600200200000000000004036076002002000000000000002021061620210616                                                                      0                                             15                                   000 00000000000000000000000000000092668042021092668040015111234                2021024184130001EUR40472258989027469172574-6917/250993862074-6917/25 09938620STYLE.SHAKIRA S25               00000  34K      00                              040200000000000000100000000000000000000                                                  20210614000000000
002DESADV403607600200240291631100014036076002002403607600200200000000000004036076002002000000000000002021061620210616                                                                      0                                             15                                   000 00000000000000000000000000000092668042021092668040015111234                2021024184130001EUR40472258989197469172574-6917/250993862074-6917/25 09938620STYLE.SHAKIRA S25               00000  36K      00                              040200000000000000100000000000000000000                                                  20210614000000000
002DESADV403607600200240291631100014036076002002403607600200200000000000004036076002002000000000000002021061620210616                                                                      0                                             15                                   000 00000000000000000000000000000092668042021092668040015111234                2021024184130001EUR40472258989267469172574-6917/250993862074-6917/25 09938620STYLE.SHAKIRA S25               00000  38K      00                              040200000000000000100000000000000000000                                                  20210614000000000
002DESADV403607600200240291631100014036076002002403607600200200000000000004036076002002000000000000002021061620210616                                                                      0                                             15                                   000 00000000000000000000000000000092668042021092668040015111234                2021024184130001EUR40472258989337469172574-6917/250993862074-6917/25 09938620STYLE.SHAKIRA S25               00000  40K      00                              040200000000000000200000000000000000000                                                  20210614000000000
002DESADV403607600200240291631100014036076002002403607600200200000000000004036076002002000000000000002021061620210616                                                                      0                                             15                                   000 00000000000000000000000000000092668042021092668040015111234                2021024184130001EUR40472258989647469172574-6917/250993862074-6917/25 09938620STYLE.SHAKIRA S25               00000  42K      00                              040200000000000000200000000000000000000                                                  20210614000000000
002DESADV403607600200240291631100014036076002002403607600200200000000000004036076002002000000000000002021061620210616                                                                      0                                             15                                   000 00000000000000000000000000000092668042021092668040015111234                2021024184130001EUR40472258989717469172574-6917/250993862074-6917/25 09938620STYLE.SHAKIRA S25               00000  44K      00                              040200000000000000200000000000000000000                                                  20210614000000000
002DESADV403607600200240291631100014036076002002403607600200200000000000004036076002002000000000000002021061620210616                                                                      0                                             15                                   000 00000000000000000000000000000092668042021092668040015111234                2021024184130001EUR40472258989887469172574-6917/250993862074-6917/25 09938620STYLE.SHAKIRA S25               00000  46K      00                              040200000000000000100000000000000000000                                                  20210614000000000
002DESADV403607600200240291631100014036076002002403607600200200000000000004036076002002000000000000002021061620210616                                                                      0                                             15                                   000 00000000000000000000000000000092668042021092668040015111234                2021024184130001EUR40472258989957469172574-6917/250993862074-6917/25 09938620STYLE.SHAKIRA S25               00000  48K      00                              040200000000000000100000000000000000000                                                  20210614000000000
003DESADV403607600200240291631100014036076002002403607600200200000000000004036076002002000000000000002021061620210616                                                                      0                                             15                                   000 0000000000000000000000000000009266804202109266804001511                    0000000000000000EUR000000000000000000000          00000000                                  00               00000           00                              000000000000000002000000000000000000000                                                  00000000000000000
001DESADV403607600200240291631100014036076002002403607600200200000000000004036076002002000000000000002021061620210616                                                                      0                                             15                                   000 0000000000000000000000000000009266837202109266837001511                    0000000000000000EUR000000000000000000000          00000000                                  00               00000           00                              000000000000000000000000000000000000000                                                  00000000000000000
002DESADV403607600200240291631100014036076002002403607600200200000000000004036076002002000000000000002021061620210616                                                                      0                                             15                                   000 0000000000000000000000000000009266837202109266837001511RT679049_1511_1     2021004186410001EUR40472272507089460872794-6087/279596114094-6087/27 95961140STYLE.MIAMI    27               00000   42      00                              055900000000000000100000000000000000000                                                  20210614000000121
003DESADV403607600200240291631100014036076002002403607600200200000000000004036076002002000000000000002021061620210616                                                                      0                                             15                                   000 0000000000000000000000000000009266837202109266837001511                    0000000000000000EUR000000000000000000000          00000000                                  00               00000           00                              000000000000000000100000000000000000000                                                  00000000000000000
