001DESADV403607600200240291631100014036076002002403607600200200000000000004036076002002000000000000002021060820210608                                                                      0                                             15                                   000 0000000000000000000000000000005815287202105815287001511                    0000000000000000EUR000000000000000000000          00000000                                  00               00000           00                              000000000000000000000000000000000000000                                                  00000000000000000
002DESADV403607600200240291631100014036076002002403607600200200000000000004036076002002000000000000002021060820210608                                                                      0                                             15                                   000 00000000000000000000000000000058152872021058152870015111234                2021024126230003EUR40472226461797060002770-6000/270999482070-6000/27 09994820STYLE.CAROLA   27               00000  46L      00                              040200000000000000100000000000000000000                                                  20210607000000000
003DESADV403607600200240291631100014036076002002403607600200200000000000004036076002002000000000000002021060820210608                                                                      0                                             15                                   000 0000000000000000000000000000005815287202105815287001511                    0000000000000000EUR000000000000000000000          00000000                                  00               00000           00                              000000000000000000100000000000000000000                                                  00000000000000000
001DESADV403607600200240291631100014036076002002403607600200200000000000004036076002002000000000000002021060820210608                                                                      0                                             15                                   000 0000000000000000000000000000005815539202105815539001511                    0000000000000000EUR000000000000000000000          00000000                                  00               00000           00                              000000000000000000000000000000000000000                                                  00000000000000000
002DESADV403607600200240291631100014036076002002403607600200200000000000004036076002002000000000000002021060820210608                                                                      0                                             15                                   000 0000000000000000000000000000005815539202105815539001511RT666049_1511_1     2021004127170001EUR40371239365097049500270-4950/020993202070-4950/02 09932020STYLE.SHAKIRA  02               00000   40      00                              026000000000000000100000000000000000000                                                  20210607000000121
002DESADV403607600200240291631100014036076002002403607600200200000000000004036076002002000000000000002021060820210608                                                                      0                                             15                                   000 0000000000000000000000000000005815539202105815539001511RT666049_1511_1     2021004127170001EUR40448097000267049500270-4950/020993202070-4950/02 09932020STYLE.SHAKIRA  02               00000  40K      00                              026000000000000000100000000000000000000                                                  20210607000000121
002DESADV403607600200240291631100014036076002002403607600200200000000000004036076002002000000000000002021060820210608                                                                      0                                             15                                   000 0000000000000000000000000000005815539202105815539001511RT666049_1511_1     2021004127170002EUR40448097002317049502270-4950/220993202070-4950/22 09932020STYLE.SHAKIRA  22               00000  38K      00                              026000000000000000100000000000000000000                                                  20210607000000121
002DESADV403607600200240291631100014036076002002403607600200200000000000004036076002002000000000000002021060820210608                                                                      0                                             15                                   000 0000000000000000000000000000005815539202105815539001511RT666049_1511_1     2021004127170006EUR40472260544827060002770-6000/270999002070-6000/27 09990020STYLE.MARY     27               00000  48K      00                              040200000000000000100000000000000000000                                                  20210607000000121
002DESADV403607600200240291631100014036076002002403607600200200000000000004036076002002000000000000002021060820210608                                                                      0                                             15                                   000 0000000000000000000000000000005815539202105815539001511RT666049_1511_1     2021004127170007EUR40472226360717060002770-6000/270999482070-6000/27 09994820STYLE.CAROLA   27               00000   46      00                              040200000000000000100000000000000000000                                                  20210607000000121
002DESADV403607600200240291631100014036076002002403607600200200000000000004036076002002000000000000002021060820210608                                                                      0                                             15                                   000 0000000000000000000000000000005815539202105815539001511RT666049_1511_1     2021004127170010EUR40644997751737221072372-2107/230986952072-2107/23 09869520STYLE.MAINE S  23               00000  44K      00                              040200000000000000100000000000000000000                                                  20210607000000121
002DESADV403607600200240291631100014036076002002403607600200200000000000004036076002002000000000000002021060820210608                                                                      0                                             15                                   000 0000000000000000000000000000005815539202105815539001511RT666049_1511_1     2021004127170015EUR40644997761257228070272-2807/020986522072-2807/02 09865220STYLE.FARINA   02               00000  46K      00                              040200000000000000100000000000000000000                                                  20210607000000121
002DESADV403607600200240291631100014036076002002403607600200200000000000004036076002002000000000000002021060820210608                                                                      0                                             15                                   000 0000000000000000000000000000005815539202105815539001511RT666049_1511_1     2021004127170016EUR40644997765217228075872-2807/580986522072-2807/58 09865220STYLE.FARINA   58               00000   40      00                              040200000000000000100000000000000000000                                                  20210607000000121
002DESADV403607600200240291631100014036076002002403607600200200000000000004036076002002000000000000002021060820210608                                                                      0                                             15                                   000 0000000000000000000000000000005815539202105815539001511RT666049_1511_1     2021004127170017EUR40644997770477261072772-6107/270993892072-6107/27 09938920STYLE.MARY S   27               00000  36K      00                              040200000000000000100000000000000000000                                                  20210607000000121
002DESADV403607600200240291631100014036076002002403607600200200000000000004036076002002000000000000002021060820210608                                                                      0                                             15                                   000 0000000000000000000000000000005815539202105815539001511RT666049_1511_1     2021004127170018EUR40644997771917261072772-6107/270995312072-6107/27 09953120STYLE.CARO S   27               00000   46      00                              040200000000000000100000000000000000000                                                  20210607000000121
002DESADV403607600200240291631100014036076002002403607600200200000000000004036076002002000000000000002021060820210608                                                                      0                                             15                                   000 0000000000000000000000000000005815539202105815539001511RT666049_1511_1     2021004127170020EUR40644997777407261572772-6157/270993862072-6157/27 09938620STYLE.SHAKIRA S27               00000   40      00                              040200000000000000100000000000000000000                                                  20210607000000121
002DESADV403607600200240291631100014036076002002403607600200200000000000004036076002002000000000000002021060820210608                                                                      0                                             15                                   000 0000000000000000000000000000005815539202105815539001511RT666049_1511_1     2021004127170021EUR40644997780207261573572-6157/350993862072-6157/35 09938620STYLE.SHAKIRA S35               00000   38      00                              040200000000000000100000000000000000000                                                  20210607000000121
002DESADV403607600200240291631100014036076002002403607600200200000000000004036076002002000000000000002021060820210608                                                                      0                                             15                                   000 0000000000000000000000000000005815539202105815539001511RT666049_1511_1     2021004127170021EUR40644997780377261573572-6157/350993862072-6157/35 09938620STYLE.SHAKIRA S35               00000   40      00                              040200000000000000100000000000000000000                                                  20210607000000121
002DESADV403607600200240291631100014036076002002403607600200200000000000004036076002002000000000000002021060820210608                                                                      0                                             15                                   000 0000000000000000000000000000005815539202105815539001511RT666049_1511_1     2021004127170021EUR40644997780757261573572-6157/350993862072-6157/35 09938620STYLE.SHAKIRA S35               00000   48      00                              040200000000000000100000000000000000000                                                  20210607000000121
002DESADV403607600200240291631100014036076002002403607600200200000000000004036076002002000000000000002021060820210608                                                                      0                                             15                                   000 0000000000000000000000000000005815539202105815539001511RT666049_1511_1     2021004127170022EUR40644997803687268179972-6817/990993862072-6817/99 09938620STYLE.SHAKIRA S99               00000  38K      00                              040200000000000000100000000000000000000                                                  20210607000000121
003DESADV403607600200240291631100014036076002002403607600200200000000000004036076002002000000000000002021060820210608                                                                      0                                             15                                   000 0000000000000000000000000000005815539202105815539001511                    0000000000000000EUR000000000000000000000          00000000                                  00               00000           00                              000000000000000001500000000000000000000                                                  00000000000000000
001DESADV403607600200240291631100014036076002002403607600200200000000000004036076002002000000000000002021060820210608                                                                      0                                             15                                   000 0000000000000000000000000000005815540202105815540001511                    0000000000000000EUR000000000000000000000          00000000                                  00               00000           00                              000000000000000000000000000000000000000                                                  00000000000000000
002DESADV403607600200240291631100014036076002002403607600200200000000000004036076002002000000000000002021060820210608                                                                      0                                             15                                   000 0000000000000000000000000000005815540202105815540001511RT668049_1511_1     2021004127560001EUR40644998240934270172342-7017/239411740042-7017/23 94117400STYLE.VICTORIA 23               00000   38      00                              036300000000000000100000000000000000000                                                  20210607000000121
002DESADV403607600200240291631100014036076002002403607600200200000000000004036076002002000000000000002021060820210608                                                                      0                                             15                                   000 0000000000000000000000000000005815540202105815540001511RT668049_1511_1     2021004127560001EUR40644998241164270172342-7017/239411740042-7017/23 94117400STYLE.VICTORIA 23               00000   42      00                              036300000000000000100000000000000000000                                                  20210607000000121
002DESADV403607600200240291631100014036076002002403607600200200000000000004036076002002000000000000002021060820210608                                                                      0                                             15                                   000 0000000000000000000000000000005815540202105815540001511RT668049_1511_1     2021004127560002EUR40644998243384270172342-7017/239416800042-7017/23 94168000STYLE.VELIA    23               00000   38      00                              032400000000000000100000000000000000000                                                  20210607000000121
002DESADV403607600200240291631100014036076002002403607600200200000000000004036076002002000000000000002021060820210608                                                                      0                                             15                                   000 0000000000000000000000000000005815540202105815540001511RT668049_1511_1     2021004127560002EUR40644998243454270172342-7017/239416800042-7017/23 94168000STYLE.VELIA    23               00000   40      00                              032400000000000000200000000000000000000                                                  20210607000000121
002DESADV403607600200240291631100014036076002002403607600200200000000000004036076002002000000000000002021060820210608                                                                      0                                             15                                   000 0000000000000000000000000000005815540202105815540001511RT668049_1511_1     2021004127560002EUR40644998243694270172342-7017/239416800042-7017/23 94168000STYLE.VELIA    23               00000   44      00                              032400000000000000200000000000000000000                                                  20210607000000121
002DESADV403607600200240291631100014036076002002403607600200200000000000004036076002002000000000000002021060820210608                                                                      0                                             15                                   000 0000000000000000000000000000005815540202105815540001511RT668049_1511_1     2021004127560003EUR40644998241784270174742-7017/479411740042-7017/47 94117400STYLE.VICTORIA 47               00000   38      00                              036300000000000000100000000000000000000                                                  20210607000000121
002DESADV403607600200240291631100014036076002002403607600200200000000000004036076002002000000000000002021060820210608                                                                      0                                             15                                   000 0000000000000000000000000000005815540202105815540001511RT668049_1511_1     2021004127560004EUR40644998242844270179942-7017/999411740042-7017/99 94117400STYLE.VICTORIA 99               00000   44      00                              036300000000000000100000000000000000000                                                  20210607000000121
002DESADV403607600200240291631100014036076002002403607600200200000000000004036076002002000000000000002021060820210608                                                                      0                                             15                                   000 0000000000000000000000000000005815540202105815540001511RT668049_1511_1     2021004127560005EUR40448193873544299774342-9977/439416400042-9977/43 94164000STYLE.VELMA    43               00000   44      00                              022700000000000000100000000000000000000                                                  20210607000000121
002DESADV403607600200240291631100014036076002002403607600200200000000000004036076002002000000000000002021060820210608                                                                      0                                             15                                   000 0000000000000000000000000000005815540202105815540001511RT668049_1511_1     2021004127560006EUR40472259312724466974444-6697/449411590044-6697/44 94115900STYLE.VICTORIA 44               00000   36      00                              022700000000000000100000000000000000000                                                  20210607000000121
002DESADV403607600200240291631100014036076002002403607600200200000000000004036076002002000000000000002021060820210608                                                                      0                                             15                                   000 0000000000000000000000000000005815540202105815540001511RT668049_1511_1     2021004127560006EUR40472259312894466974444-6697/449411590044-6697/44 94115900STYLE.VICTORIA 44               00000   42      00                              022700000000000000100000000000000000000                                                  20210607000000121
002DESADV403607600200240291631100014036076002002403607600200200000000000004036076002002000000000000002021060820210608                                                                      0                                             15                                   000 0000000000000000000000000000005815540202105815540001511RT668049_1511_1     2021004127560006EUR40472259312964466974444-6697/449411590044-6697/44 94115900STYLE.VICTORIA 44               00000   44      00                              022700000000000000100000000000000000000                                                  20210607000000121
002DESADV403607600200240291631100014036076002002403607600200200000000000004036076002002000000000000002021060820210608                                                                      0                                             15                                   000 0000000000000000000000000000005815540202105815540001511RT668049_1511_1     2021004127560007EUR40472285320184468176344-6817/639415250044-6817/63 94152500STYLE.VELIA    63               00000   38      00                              020600000000000000100000000000000000000                                                  20210607000000121
002DESADV403607600200240291631100014036076002002403607600200200000000000004036076002002000000000000002021060820210608                                                                      0                                             15                                   000 0000000000000000000000000000005815540202105815540001511RT668049_1511_1     2021004127560008EUR40472234809254475472344-7547/239415710044-7547/23 94157100STYLE.VAL      23               00000   38      00                              025400000000000000100000000000000000000                                                  20210607000000121
002DESADV403607600200240291631100014036076002002403607600200200000000000004036076002002000000000000002021060820210608                                                                      0                                             15                                   000 0000000000000000000000000000005815540202105815540001511RT668049_1511_1     2021004127560009EUR40472259323164475478544-7547/859415710044-7547/85 94157100STYLE.VAL      85               00000   44      00                              025400000000000000200000000000000000000                                                  20210607000000121
003DESADV403607600200240291631100014036076002002403607600200200000000000004036076002002000000000000002021060820210608                                                                      0                                             15                                   000 0000000000000000000000000000005815540202105815540001511                    0000000000000000EUR000000000000000000000          00000000                                  00               00000           00                              000000000000000001700000000000000000000                                                  00000000000000000
001DESADV403607600200240291631100014036076002002403607600200200000000000004036076002002000000000000002021060920210609                                                                      0                                             15                                   000 0000000000000000000000000000005815658202105815658001511                    0000000000000000EUR000000000000000000000          00000000                                  00               00000           00                              000000000000000000000000000000000000000                                                  00000000000000000
002DESADV403607600200240291631100014036076002002403607600200200000000000004036076002002000000000000002021060920210609                                                                      0                                             15                                   000 0000000000000000000000000000005815658202105815658001511RT661049_1511_1     2021004130690001EUR40371239365097049500270-4950/020993202070-4950/02 09932020STYLE.SHAKIRA  02               00000   40      00                              026000000000000000100000000000000000000                                                  20210607000000121
002DESADV403607600200240291631100014036076002002403607600200200000000000004036076002002000000000000002021060920210609                                                                      0                                             15                                   000 0000000000000000000000000000005815658202105815658001511RT661049_1511_1     2021004130690001EUR40448097000337049500270-4950/020993202070-4950/02 09932020STYLE.SHAKIRA  02               00000  42K      00                              026000000000000000100000000000000000000                                                  20210607000000121
002DESADV403607600200240291631100014036076002002403607600200200000000000004036076002002000000000000002021060920210609                                                                      0                                             15                                   000 0000000000000000000000000000005815658202105815658001511RT661049_1511_1     2021004130690002EUR40371239365167049502270-4950/220993202070-4950/22 09932020STYLE.SHAKIRA  22               00000   36      00                              026000000000000000100000000000000000000                                                  20210607000000121
002DESADV403607600200240291631100014036076002002403607600200200000000000004036076002002000000000000002021060920210609                                                                      0                                             15                                   000 0000000000000000000000000000005815658202105815658001511RT661049_1511_1     2021004130690002EUR40371239365307049502270-4950/220993202070-4950/22 09932020STYLE.SHAKIRA  22               00000   40      00                              026000000000000000100000000000000000000                                                  20210607000000121
002DESADV403607600200240291631100014036076002002403607600200200000000000004036076002002000000000000002021060920210609                                                                      0                                             15                                   000 0000000000000000000000000000005815658202105815658001511RT661049_1511_1     2021004130690002EUR40448097001497049502270-4950/220993202070-4950/22 09932020STYLE.SHAKIRA  22               00000   42      00                              026000000000000000100000000000000000000                                                  20210607000000121
002DESADV403607600200240291631100014036076002002403607600200200000000000004036076002002000000000000002021060920210609                                                                      0                                             15                                   000 0000000000000000000000000000005815658202105815658001511RT661049_1511_1     2021004130690002EUR40448097001637049502270-4950/220993202070-4950/22 09932020STYLE.SHAKIRA  22               00000   46      00                              026000000000000000100000000000000000000                                                  20210607000000121
002DESADV403607600200240291631100014036076002002403607600200200000000000004036076002002000000000000002021060920210609                                                                      0                                             15                                   000 0000000000000000000000000000005815658202105815658001511RT661049_1511_1     2021004130690002EUR40448097002317049502270-4950/220993202070-4950/22 09932020STYLE.SHAKIRA  22               00000  38K      00                              026000000000000000100000000000000000000                                                  20210607000000121
002DESADV403607600200240291631100014036076002002403607600200200000000000004036076002002000000000000002021060920210609                                                                      0                                             15                                   000 0000000000000000000000000000005815658202105815658001511RT661049_1511_1     2021004130690002EUR40448097002487049502270-4950/220993202070-4950/22 09932020STYLE.SHAKIRA  22               00000  40K      00                              026000000000000000100000000000000000000                                                  20210607000000121
002DESADV403607600200240291631100014036076002002403607600200200000000000004036076002002000000000000002021060920210609                                                                      0                                             15                                   000 0000000000000000000000000000005815658202105815658001511RT661049_1511_1     2021004130690002EUR40448097002557049502270-4950/220993202070-4950/22 09932020STYLE.SHAKIRA  22               00000  42K      00                              026000000000000000100000000000000000000                                                  20210607000000121
002DESADV403607600200240291631100014036076002002403607600200200000000000004036076002002000000000000002021060920210609                                                                      0                                             15                                   000 0000000000000000000000000000005815658202105815658001511RT661049_1511_1     2021004130690002EUR40448097002627049502270-4950/220993202070-4950/22 09932020STYLE.SHAKIRA  22               00000  44K      00                              026000000000000000200000000000000000000                                                  20210607000000121
002DESADV403607600200240291631100014036076002002403607600200200000000000004036076002002000000000000002021060920210609                                                                      0                                             15                                   000 0000000000000000000000000000005815658202105815658001511RT661049_1511_1     2021004130690006EUR40472260520377060002770-6000/270999002070-6000/27 09990020STYLE.MARY     27               00000   40      00                              040200000000000000100000000000000000000                                                  20210607000000121
002DESADV403607600200240291631100014036076002002403607600200200000000000004036076002002000000000000002021060920210609                                                                      0                                             15                                   000 0000000000000000000000000000005815658202105815658001511RT661049_1511_1     2021004130690006EUR40472260520447060002770-6000/270999002070-6000/27 09990020STYLE.MARY     27               00000   42      00                              040200000000000000100000000000000000000                                                  20210607000000121
002DESADV403607600200240291631100014036076002002403607600200200000000000004036076002002000000000000002021060920210609                                                                      0                                             15                                   000 0000000000000000000000000000005815658202105815658001511RT661049_1511_1     2021004130690006EUR40472260520517060002770-6000/270999002070-6000/27 09990020STYLE.MARY     27               00000   44      00                              040200000000000000200000000000000000000                                                  20210607000000121
002DESADV403607600200240291631100014036076002002403607600200200000000000004036076002002000000000000002021060920210609                                                                      0                                             15                                   000 0000000000000000000000000000005815658202105815658001511RT661049_1511_1     2021004130690007EUR40472226359997060002770-6000/270999482070-6000/27 09994820STYLE.CAROLA   27               00000   40      00                              040200000000000000100000000000000000000                                                  20210607000000121
002DESADV403607600200240291631100014036076002002403607600200200000000000004036076002002000000000000002021060920210609                                                                      0                                             15                                   000 0000000000000000000000000000005815658202105815658001511RT661049_1511_1     2021004130690007EUR40472226360647060002770-6000/270999482070-6000/27 09994820STYLE.CAROLA   27               00000   44      00                              040200000000000000100000000000000000000                                                  20210607000000121
002DESADV403607600200240291631100014036076002002403607600200200000000000004036076002002000000000000002021060920210609                                                                      0                                             15                                   000 0000000000000000000000000000005815658202105815658001511RT661049_1511_1     2021004130690007EUR40472226462167060002770-6000/270999482070-6000/27 09994820STYLE.CAROLA   27               00000  44K      00                              040200000000000000100000000000000000000                                                  20210607000000121
002DESADV403607600200240291631100014036076002002403607600200200000000000004036076002002000000000000002021060920210609                                                                      0                                             15                                   000 0000000000000000000000000000005815658202105815658001511RT661049_1511_1     2021004130690007EUR40472226462237060002770-6000/270999482070-6000/27 09994820STYLE.CAROLA   27               00000  46K      00                              040200000000000000100000000000000000000                                                  20210607000000121
002DESADV403607600200240291631100014036076002002403607600200200000000000004036076002002000000000000002021060920210609                                                                      0                                             15                                   000 0000000000000000000000000000005815658202105815658001511RT661049_1511_1     2021004130690008EUR40644997738967212179972-1217/990923862072-1217/99 09238620STYLE.SHAKIRA S99               00000   38      00                              039200000000000000100000000000000000000                                                  20210607000000121
002DESADV403607600200240291631100014036076002002403607600200200000000000004036076002002000000000000002021060920210609                                                                      0                                             15                                   000 0000000000000000000000000000005815658202105815658001511RT661049_1511_1     2021004130690008EUR40644997739337212179972-1217/990923862072-1217/99 09238620STYLE.SHAKIRA S99               00000   46      00                              039200000000000000100000000000000000000                                                  20210607000000121
002DESADV403607600200240291631100014036076002002403607600200200000000000004036076002002000000000000002021060920210609                                                                      0                                             15                                   000 0000000000000000000000000000005815658202105815658001511RT661049_1511_1     2021004130690008EUR40644997740847212179972-1217/990923862072-1217/99 09238620STYLE.SHAKIRA S99               00000  38K      00                              039200000000000000100000000000000000000                                                  20210607000000121
002DESADV403607600200240291631100014036076002002403607600200200000000000004036076002002000000000000002021060920210609                                                                      0                                             15                                   000 0000000000000000000000000000005815658202105815658001511RT661049_1511_1     2021004130690008EUR40644997740917212179972-1217/990923862072-1217/99 09238620STYLE.SHAKIRA S99               00000  40K      00                              039200000000000000200000000000000000000                                                  20210607000000121
002DESADV403607600200240291631100014036076002002403607600200200000000000004036076002002000000000000002021060920210609                                                                      0                                             15                                   000 0000000000000000000000000000005815658202105815658001511RT661049_1511_1     2021004130690008EUR40644997741147212179972-1217/990923862072-1217/99 09238620STYLE.SHAKIRA S99               00000  44K      00                              039200000000000000200000000000000000000                                                  20210607000000121
002DESADV403607600200240291631100014036076002002403607600200200000000000004036076002002000000000000002021060920210609                                                                      0                                             15                                   000 0000000000000000000000000000005815658202105815658001511RT661049_1511_1     2021004130690008EUR40644997741217212179972-1217/990923862072-1217/99 09238620STYLE.SHAKIRA S99               00000  46K      00                              039200000000000000100000000000000000000                                                  20210607000000121
002DESADV403607600200240291631100014036076002002403607600200200000000000004036076002002000000000000002021060920210609                                                                      0                                             15                                   000 0000000000000000000000000000005815658202105815658001511RT661049_1511_1     2021004130690010EUR40644997758907228070272-2807/020986522072-2807/02 09865220STYLE.FARINA   02               00000   42      00                              039200000000000000100000000000000000000                                                  20210607000000121
002DESADV403607600200240291631100014036076002002403607600200200000000000004036076002002000000000000002021060920210609                                                                      0                                             15                                   000 0000000000000000000000000000005815658202105815658001511RT661049_1511_1     2021004130690011EUR40644997762177228075472-2807/540986522072-2807/54 09865220STYLE.FARINA   54               00000   42      00                              039200000000000000100000000000000000000                                                  20210607000000121
002DESADV403607600200240291631100014036076002002403607600200200000000000004036076002002000000000000002021060920210609                                                                      0                                             15                                   000 0000000000000000000000000000005815658202105815658001511RT661049_1511_1     2021004130690011EUR40644997762317228075472-2807/540986522072-2807/54 09865220STYLE.FARINA   54               00000   46      00                              039200000000000000100000000000000000000                                                  20210607000000121
002DESADV403607600200240291631100014036076002002403607600200200000000000004036076002002000000000000002021060920210609                                                                      0                                             15                                   000 0000000000000000000000000000005815658202105815658001511RT661049_1511_1     2021004130690011EUR40644997763927228075472-2807/540986522072-2807/54 09865220STYLE.FARINA   54               00000  36K      00                              039200000000000000100000000000000000000                                                  20210607000000121
002DESADV403607600200240291631100014036076002002403607600200200000000000004036076002002000000000000002021060920210609                                                                      0                                             15                                   000 0000000000000000000000000000005815658202105815658001511RT661049_1511_1     2021004130690012EUR40644997765077228075872-2807/580986522072-2807/58 09865220STYLE.FARINA   58               00000   36      00                              039200000000000000100000000000000000000                                                  20210607000000121
002DESADV403607600200240291631100014036076002002403607600200200000000000004036076002002000000000000002021060920210609                                                                      0                                             15                                   000 0000000000000000000000000000005815658202105815658001511RT661049_1511_1     2021004130690012EUR40644997765147228075872-2807/580986522072-2807/58 09865220STYLE.FARINA   58               00000   38      00                              039200000000000000100000000000000000000                                                  20210607000000121
002DESADV403607600200240291631100014036076002002403607600200200000000000004036076002002000000000000002021060920210609                                                                      0                                             15                                   000 0000000000000000000000000000005815658202105815658001511RT661049_1511_1     2021004130690012EUR40644997767437228075872-2807/580986522072-2807/58 09865220STYLE.FARINA   58               00000  42K      00                              039200000000000000100000000000000000000                                                  20210607000000121
002DESADV403607600200240291631100014036076002002403607600200200000000000004036076002002000000000000002021060920210609                                                                      0                                             15                                   000 0000000000000000000000000000005815658202105815658001511RT661049_1511_1     2021004130690014EUR40644998135237261079972-6107/990995312072-6107/99 09953120STYLE.CARO S   99               00000   40      00                              039200000000000000100000000000000000000                                                  20210607000000121
002DESADV403607600200240291631100014036076002002403607600200200000000000004036076002002000000000000002021060920210609                                                                      0                                             15                                   000 0000000000000000000000000000005815658202105815658001511RT661049_1511_1     2021004130690015EUR40644997777267261572772-6157/270993862072-6157/27 09938620STYLE.SHAKIRA S27               00000   36      00                              039200000000000000100000000000000000000                                                  20210607000000121
002DESADV403607600200240291631100014036076002002403607600200200000000000004036076002002000000000000002021060920210609                                                                      0                                             15                                   000 0000000000000000000000000000005815658202105815658001511RT661049_1511_1     2021004130690015EUR40644997777337261572772-6157/270993862072-6157/27 09938620STYLE.SHAKIRA S27               00000   38      00                              039200000000000000100000000000000000000                                                  20210607000000121
002DESADV403607600200240291631100014036076002002403607600200200000000000004036076002002000000000000002021060920210609                                                                      0                                             15                                   000 0000000000000000000000000000005815658202105815658001511RT661049_1511_1     2021004130690015EUR40644997779177261572772-6157/270993862072-6157/27 09938620STYLE.SHAKIRA S27               00000  36K      00                              039200000000000000100000000000000000000                                                  20210607000000121
002DESADV403607600200240291631100014036076002002403607600200200000000000004036076002002000000000000002021060920210609                                                                      0                                             15                                   000 0000000000000000000000000000005815658202105815658001511RT661049_1511_1     2021004130690015EUR40644997779487261572772-6157/270993862072-6157/27 09938620STYLE.SHAKIRA S27               00000  42K      00                              039200000000000000100000000000000000000                                                  20210607000000121
002DESADV403607600200240291631100014036076002002403607600200200000000000004036076002002000000000000002021060920210609                                                                      0                                             15                                   000 0000000000000000000000000000005815658202105815658001511RT661049_1511_1     2021004130690016EUR40644997780137261573572-6157/350993862072-6157/35 09938620STYLE.SHAKIRA S35               00000   36      00                              039200000000000000100000000000000000000                                                  20210607000000121
002DESADV403607600200240291631100014036076002002403607600200200000000000004036076002002000000000000002021060920210609                                                                      0                                             15                                   000 0000000000000000000000000000005815658202105815658001511RT661049_1511_1     2021004130690016EUR40644997780377261573572-6157/350993862072-6157/35 09938620STYLE.SHAKIRA S35               00000   40      00                              039200000000000000100000000000000000000                                                  20210607000000121
002DESADV403607600200240291631100014036076002002403607600200200000000000004036076002002000000000000002021060920210609                                                                      0                                             15                                   000 0000000000000000000000000000005815658202105815658001511RT661049_1511_1     2021004130690016EUR40644997780517261573572-6157/350993862072-6157/35 09938620STYLE.SHAKIRA S35               00000   44      00                              039200000000000000200000000000000000000                                                  20210607000000121
002DESADV403607600200240291631100014036076002002403607600200200000000000004036076002002000000000000002021060920210609                                                                      0                                             15                                   000 0000000000000000000000000000005815658202105815658001511RT661049_1511_1     2021004130690016EUR40644997782357261573572-6157/350993862072-6157/35 09938620STYLE.SHAKIRA S35               00000  42K      00                              039200000000000000200000000000000000000                                                  20210607000000121
002DESADV403607600200240291631100014036076002002403607600200200000000000004036076002002000000000000002021060920210609                                                                      0                                             15                                   000 0000000000000000000000000000005815658202105815658001511RT661049_1511_1     2021004130690016EUR40644997782597261573572-6157/350993862072-6157/35 09938620STYLE.SHAKIRA S35               00000  46K      00                              039200000000000000100000000000000000000                                                  20210607000000121
002DESADV403607600200240291631100014036076002002403607600200200000000000004036076002002000000000000002021060920210609                                                                      0                                             15                                   000 0000000000000000000000000000005815658202105815658001511RT661049_1511_1     2021004130690020EUR40644997801607268179972-6817/990993862072-6817/99 09938620STYLE.SHAKIRA S99               00000   36      00                              039200000000000000100000000000000000000                                                  20210607000000121
002DESADV403607600200240291631100014036076002002403607600200200000000000004036076002002000000000000002021060920210609                                                                      0                                             15                                   000 0000000000000000000000000000005815658202105815658001511RT661049_1511_1     2021004130690020EUR40644997803757268179972-6817/990993862072-6817/99 09938620STYLE.SHAKIRA S99               00000  40K      00                              039200000000000000200000000000000000000                                                  20210607000000121
002DESADV403607600200240291631100014036076002002403607600200200000000000004036076002002000000000000002021060920210609                                                                      0                                             15                                   000 0000000000000000000000000000005815658202105815658001511RT661049_1511_1     2021004130690021EUR40644997804507269472472-6947/240993862072-6947/24 09938620STYLE.SHAKIRA S24               00000   36      00                              039200000000000000100000000000000000000                                                  20210607000000121
003DESADV403607600200240291631100014036076002002403607600200200000000000004036076002002000000000000002021060920210609                                                                      0                                             15                                   000 0000000000000000000000000000005815658202105815658001511                    0000000000000000EUR000000000000000000000          00000000                                  00               00000           00                              000000000000000005000000000000000000000                                                  00000000000000000
001DESADV403607600200240291631100014036076002002403607600200200000000000004036076002002000000000000002021060920210609                                                                      0                                             15                                   000 0000000000000000000000000000005815659202105815659001511                    0000000000000000EUR000000000000000000000          00000000                                  00               00000           00                              000000000000000000000000000000000000000                                                  00000000000000000
002DESADV403607600200240291631100014036076002002403607600200200000000000004036076002002000000000000002021060920210609                                                                      0                                             15                                   000 0000000000000000000000000000005815659202105815659001511RT663049_1511_1     2021004130890001EUR40644998241094270172342-7017/239411740042-7017/23 94117400STYLE.VICTORIA 23               00000   40      00                              036300000000000000200000000000000000000                                                  20210607000000121
002DESADV403607600200240291631100014036076002002403607600200200000000000004036076002002000000000000002021060920210609                                                                      0                                             15                                   000 0000000000000000000000000000005815659202105815659001511RT663049_1511_1     2021004130890001EUR40644998241304270172342-7017/239411740042-7017/23 94117400STYLE.VICTORIA 23               00000   46      00                              036300000000000000100000000000000000000                                                  20210607000000121
002DESADV403607600200240291631100014036076002002403607600200200000000000004036076002002000000000000002021060920210609                                                                      0                                             15                                   000 0000000000000000000000000000005815659202105815659001511RT663049_1511_1     2021004130890002EUR40644998243214270172342-7017/239416800042-7017/23 94168000STYLE.VELIA    23               00000   36      00                              032400000000000000100000000000000000000                                                  20210607000000121
002DESADV403607600200240291631100014036076002002403607600200200000000000004036076002002000000000000002021060920210609                                                                      0                                             15                                   000 0000000000000000000000000000005815659202105815659001511RT663049_1511_1     2021004130890002EUR40644998243764270172342-7017/239416800042-7017/23 94168000STYLE.VELIA    23               00000   46      00                              032400000000000000100000000000000000000                                                  20210607000000121
002DESADV403607600200240291631100014036076002002403607600200200000000000004036076002002000000000000002021060920210609                                                                      0                                             15                                   000 0000000000000000000000000000005815659202105815659001511RT663049_1511_1     2021004130890003EUR40644998241854270174742-7017/479411740042-7017/47 94117400STYLE.VICTORIA 47               00000   40      00                              036300000000000000100000000000000000000                                                  20210607000000121
002DESADV403607600200240291631100014036076002002403607600200200000000000004036076002002000000000000002021060920210609                                                                      0                                             15                                   000 0000000000000000000000000000005815659202105815659001511RT663049_1511_1     2021004130890003EUR40644998241924270174742-7017/479411740042-7017/47 94117400STYLE.VICTORIA 47               00000   42      00                              036300000000000000100000000000000000000                                                  20210607000000121
002DESADV403607600200240291631100014036076002002403607600200200000000000004036076002002000000000000002021060920210609                                                                      0                                             15                                   000 0000000000000000000000000000005815659202105815659001511RT663049_1511_1     2021004130890003EUR40644998242084270174742-7017/479411740042-7017/47 94117400STYLE.VICTORIA 47               00000   44      00                              036300000000000000100000000000000000000                                                  20210607000000121
002DESADV403607600200240291631100014036076002002403607600200200000000000004036076002002000000000000002021060920210609                                                                      0                                             15                                   000 0000000000000000000000000000005815659202105815659001511RT663049_1511_1     2021004130890004EUR40644998244204270174742-7017/479416800042-7017/47 94168000STYLE.VELIA    47               00000   40      00                              032400000000000000100000000000000000000                                                  20210607000000121
002DESADV403607600200240291631100014036076002002403607600200200000000000004036076002002000000000000002021060920210609                                                                      0                                             15                                   000 0000000000000000000000000000005815659202105815659001511RT663049_1511_1     2021004130890004EUR40644998244514270174742-7017/479416800042-7017/47 94168000STYLE.VELIA    47               00000   46      00                              032400000000000000100000000000000000000                                                  20210607000000121
002DESADV403607600200240291631100014036076002002403607600200200000000000004036076002002000000000000002021060920210609                                                                      0                                             15                                   000 0000000000000000000000000000005815659202105815659001511RT663049_1511_1     2021004130890005EUR40644998245294270175542-7017/559416800042-7017/55 94168000STYLE.VELIA    55               00000   44      00                              032400000000000000100000000000000000000                                                  20210607000000121
002DESADV403607600200240291631100014036076002002403607600200200000000000004036076002002000000000000002021060920210609                                                                      0                                             15                                   000 0000000000000000000000000000005815659202105815659001511RT663049_1511_1     2021004130890006EUR40644998246114270178842-7017/889416800042-7017/88 94168000STYLE.VELIA    88               00000   46      00                              032400000000000000100000000000000000000                                                  20210607000000121
002DESADV403607600200240291631100014036076002002403607600200200000000000004036076002002000000000000002021060920210609                                                                      0                                             15                                   000 0000000000000000000000000000005815659202105815659001511RT663049_1511_1     2021004130890007EUR40644998242844270179942-7017/999411740042-7017/99 94117400STYLE.VICTORIA 99               00000   44      00                              036300000000000000100000000000000000000                                                  20210607000000121
002DESADV403607600200240291631100014036076002002403607600200200000000000004036076002002000000000000002021060920210609                                                                      0                                             15                                   000 0000000000000000000000000000005815659202105815659001511RT663049_1511_1     2021004130890008EUR40644998246664270179942-7017/999416800042-7017/99 94168000STYLE.VELIA    99               00000   40      00                              032400000000000000100000000000000000000                                                  20210607000000121
002DESADV403607600200240291631100014036076002002403607600200200000000000004036076002002000000000000002021060920210609                                                                      0                                             15                                   000 0000000000000000000000000000005815659202105815659001511RT663049_1511_1     2021004130890008EUR40644998246804270179942-7017/999416800042-7017/99 94168000STYLE.VELIA    99               00000   44      00                              032400000000000000100000000000000000000                                                  20210607000000121
002DESADV403607600200240291631100014036076002002403607600200200000000000004036076002002000000000000002021060920210609                                                                      0                                             15                                   000 0000000000000000000000000000005815659202105815659001511RT663049_1511_1     2021004130890008EUR40644998246974270179942-7017/999416800042-7017/99 94168000STYLE.VELIA    99               00000   46      00                              032400000000000000100000000000000000000                                                  20210607000000121
002DESADV403607600200240291631100014036076002002403607600200200000000000004036076002002000000000000002021060920210609                                                                      0                                             15                                   000 0000000000000000000000000000005815659202105815659001511RT663049_1511_1     2021004130890009EUR40472234556404466974444-6697/449411590044-6697/44 94115900STYLE.VICTORIA 44               00000   38      00                              022700000000000000100000000000000000000                                                  20210607000000121
002DESADV403607600200240291631100014036076002002403607600200200000000000004036076002002000000000000002021060920210609                                                                      0                                             15                                   000 0000000000000000000000000000005815659202105815659001511RT663049_1511_1     2021004130890010EUR40472285320254468176344-6817/639415250044-6817/63 94152500STYLE.VELIA    63               00000   40      00                              020600000000000000200000000000000000000                                                  20210607000000121
002DESADV403607600200240291631100014036076002002403607600200200000000000004036076002002000000000000002021060920210609                                                                      0                                             15                                   000 0000000000000000000000000000005815659202105815659001511RT663049_1511_1     2021004130890010EUR40472285320324468176344-6817/639415250044-6817/63 94152500STYLE.VELIA    63               00000   42      00                              020600000000000000100000000000000000000                                                  20210607000000121
002DESADV403607600200240291631100014036076002002403607600200200000000000004036076002002000000000000002021060920210609                                                                      0                                             15                                   000 0000000000000000000000000000005815659202105815659001511RT663049_1511_1     2021004130890011EUR40472234809324475472344-7547/239415710044-7547/23 94157100STYLE.VAL      23               00000   40      00                              025400000000000000100000000000000000000                                                  20210607000000121
003DESADV403607600200240291631100014036076002002403607600200200000000000004036076002002000000000000002021060920210609                                                                      0                                             15                                   000 0000000000000000000000000000005815659202105815659001511                    0000000000000000EUR000000000000000000000          00000000                                  00               00000           00                              000000000000000002100000000000000000000                                                  00000000000000000
001DESADV403607600200240291631100014036076002002403607600200200000000000004036076002002000000000000002021060820210608                                                                      0                                             15                                   000 0000000000000000000000000000009265533202109265533001511                    0000000000000000EUR000000000000000000000          00000000                                  00               00000           00                              000000000000000000000000000000000000000                                                  00000000000000000
002DESADV403607600200240291631100014036076002002403607600200200000000000004036076002002000000000000002021060820210608                                                                      0                                             15                                   000 0000000000000000000000000000009265533202109265533001511RT669049_1511_1     2021004127720001EUR40472259350729463174394-6317/439596044094-6317/43 95960440STYLE.BERN     43               00000   44      00                              071600000000000000100000000000000000000                                                  20210607000000121
003DESADV403607600200240291631100014036076002002403607600200200000000000004036076002002000000000000002021060820210608                                                                      0                                             15                                   000 0000000000000000000000000000009265533202109265533001511                    0000000000000000EUR000000000000000000000          00000000                                  00               00000           00                              000000000000000000100000000000000000000                                                  00000000000000000
